:100000006F10307213000000130000001300000096
:100010001300000013000000130000001300000094
:100020001300000013000000130000001300000084
:08003000130000007300100032
:10003800000000000000000014080000160800007E
:1000480000000000BA1E00000000000000000000D0
:10005800BC1E0000BE1E00000000000000000000E2
:100068002035000000000000000200000000000031
:10007800C41E0000C61E0000C81E0000CA1E0000E4
:10008800CC1E0000CE1E0000D01E0000D21E0000B4
:10009800D41E0000D61E0000D81E0000DA1E000084
:1000A800DC1E0000DE1E0000E01E0000E21E000054
:1000B800E41E0000E61E0000E81E00007C080000A8
:1000C80054090000AA090000000A0000F21E0000FE
:1000D800F41E0000F61E0000F81E0000FA1E0000C4
:1000E800FC1E0000540A0000001F0000021F000050
:1000F800041F0000061F0000081F00000A1F000060
:100108000C1F00000E1F0000101F0000121F00002F
:10011800141F0000161F0000181F00001A1F0000FF
:100128001C1F00001E1F0000201F00000000000010
:080138000000000000000000BF
:10020000130181F806C216C41AC61EC822CA26CC1B
:100210002ACE2ED032D236D43AD63ED842DA46DC76
:100220004ADECEC0D2C2D6C4DAC6DEC8E2CAE6CC46
:10023000EACEEED0F2D2F6D4FAD6FED8F3220030CF
:1002400096DA9702002083A2222023A02200F32521
:1002500010342EC003A14183EF40206A1703002011
:100260000323831E03210300824273901234D6526B
:10027000739002309240A2423243C2435244E2445D
:10028000724582551256A2563257C2575258E258FA
:1002900072598649164AA64A364BC64B564CE64C0E
:1002A000764D865D165EA65E365FC65F13018107DA
:1002B0007300203013000000130000001300000042
:1002C00013000000130000001300000013000000E2
:1002D00013000000130000001300000013000000D2
:1002E00013000000130000001300000013000000C2
:1002F00013000000130000001300000013000000B2
:1003000083A24183938202E073900234170100209C
:1003100003218113024182403243C2435244E244EA
:10032000724582551256A2563257C2575258E25859
:1003300072598649164AA64A364BC64B564CE64C6D
:10034000764D865D165EA65E365FC65FD652A1020A
:1003500073900230A24213018107828013000000D3
:100360001300000013000000130000001300000041
:100370001300000013000000130000001300000031
:100380001300000013000000130000001300000021
:100390001300000013000000130000001300000011
:1003A0001300000013000000130000001300000001
:1003B00013000000130000001300000013000000F1
:1003C00013000000130000001300000013000000E1
:1003D00013000000130000001300000013000000D1
:1003E00013000000130000001300000013000000C1
:1003F00013000000130000001300000013000000B1
:10040000F322003093F272FF130380181203B3E259
:100410006200711523205500130585FA10C12115BE
:10042000232005009302000063870200711523203A
:100430000500FD12D5BF71150CC1828000000000BF
:1004400000000000000000000000000000000000AC
:10045000000000000000000000000000000000009C
:10046000000000000000000000000000000000008C
:10047000000000000000000000000000000000007C
:10048000000000000000000000000000000000006C
:10049000000000000000000000000000000000005C
:1004A000000000000000000000000000000000004C
:1004B000000000000000000000000000000000003C
:1004C000000000000000000000000000000000002C
:1004D000000000000000000000000000000000001C
:1004E0000000000000000000000000000000397162
:1004F00001436EC619A0397141536AC866CA62CCFD
:100500005ECE19A0397101535AD056D252D44ED66C
:100510004AD826DA22DC06DE3301614082824111AC
:100520004AC026C222C406C68282B24D4101024D93
:10053000924C224CB24B4101024B924A224AB249A0
:100540004101024992442244B240410182803D432C
:100550002A876373C3029377F700BDEFADE5937607
:1005600006FF3D8ABA960CC34CC30CC74CC7410763
:10057000E36BD7FE11E28280B306C3408A0697027E
:10058000000096966780A6002307B700A306B70071
:100590002306B700A305B7002305B700A304B700DF
:1005A0002304B700A303B7002303B700A302B700D7
:1005B0002302B700A301B7002301B700A300B700CF
:1005C0002300B700828093F5F50F93968500D58DB3
:1005D00093960501D58D61B7939627009702000089
:1005E00096968682E78086FA9680C1171D8F3E9682
:1005F000E374C3F8A5B7B707002023A4A73C828003
:10060000EFF27FEFB705002039719385453C014536
:1006100037040020EF7020722320A43C1304043C14
:1006200019E1EF10602D1C40370700200327873C9D
:10063000DC4398C3EF405062EF401065A12D2313B7
:10064000A10202D6EF00806E1C40A302A102DC438F
:10065000884323AA0700EF4010661C40C843EF50B0
:1006600020070840035661025C418C43EF70C07C58
:1006700019C1EF106028B70700209387C727985348
:100680000840930661023AD8D853130651020C1859
:100690003ADA9857DC573ADC3EDEEF70407D19C1FC
:1006A000EF10802583A6C18103495102032A04006B
:1006B00036CE2D2D8967C507C98FF2461307401F17
:1006C0009309C102C2073AC04EC64AC402C2930887
:1006D000803E1308401FC183014701468145528572
:1006E000EF70207C11C5B5576304F500EF10C020F2
:1006F000084003A6C1814E874C49CA86EF70F005B9
:1007000019C1EF10601F1C409C4399C3EF10C01E1D
:100710001C40B70400208969C843130A803EEF409B
:10072000B05A23A6043CEF40B057EF30D0642A897A
:1007300002D49384C43C938909719C4089CBB70748
:10074000EFBE37E700E0938707083CC7FDBFA2551F
:1007500003A58191B3D54503EF30A079EF40D05286
:100760004ED4EF3050613306254133064603AA8A42
:100770000840341081455689EF70B00988C003A540
:10078000C191814601468145EF30002BEF40505129
:100790006DB7EFF23FD74111EF40104FEF30B05D32
:1007A00089692A8402C6130A803E93890971370B2E
:1007B0000020EF40F04EB24503A5C19113090B3C58
:1007C000B3D54503A284EF30C072EF40F04B8327CE
:1007D00009004EC695CFDC43DC4B9DCBEF30B059C2
:1007E000AA84032509001C4185E75C41DC4B8DC3CD
:1007F0003384844033044403740081452286EF70BF
:10080000300903250900740022868145EF70500CE1
:10081000268445B701A039712AD637D500001305C3
:1008200045BE06DE16DC1ADA1ED832D236D03ACEF3
:100830003ECC42CA46C872C676C47AC27EC02ED4A6
:10084000EFB02040EF40503BAA8537D5000013059C
:1008500085BFEFB0C02DEF40903AAA8537D5000094
:10086000130585C0EFB0A02CEF40D039AA8537D54D
:100870000000130585C1EFB0802B01A05D7122DE61
:1008800026DC37640040B70400382ADA2ED8130576
:100890000440938514003ED086C696C49AC29EC07A
:1008A00032D636D43AD242CE46CC72CA76C87AC64E
:1008B0007EC4EF10F02C8547631AF5009385140071
:1008C00013050440EF103031EF403070B7040038AA
:1008D000376400409385041013050440EF10502A3C
:1008E0008547631AF5009385041013050440EF1043
:1008F000902EEF40906D37640040B7050138130526
:100900000440EF10F0278547631AF500B70501385A
:1009100013050440EF10302CEF40306B376500407A
:10092000854513050540EF10103C7254B640A642B1
:1009300016438643E2545255C2553256A2561257B8
:1009400082577248E248524EC24E324FA24F616106
:100950007300203039712AD6376500402ED4130534
:100960000540814506DE16DC1ADA1ED832D236D0B2
:100970003ACE3ECC42CA46C872C676C47AC27EC05F
:10098000EF40F06FF250E2525253C2533255A2552B
:10099000125682567247E2475248C248324EA24E21
:1009A000124F824F21617300203039712AD637658A
:1009B00000402ED413050540854506DE16DC1ADA04
:1009C0001ED832D236D03ACE3ECC42CA46C872C6C3
:1009D00076C47AC27EC0EF40906AF250E25252531F
:1009E000C2533255A255125682567247E2475248B8
:1009F000C248324EA24E124F824F21617300203006
:100A000039712AD6376500401305054006DE16DC2D
:100A10001ADA1ED82ED432D236D03ACE3ECC42CAC2
:100A200046C872C676C47AC27EC0EF409069F25062
:100A3000E2525253C2533255A25512568256724751
:100A4000E2475248C248324EA24E124F824F2161B5
:100A5000730020305D7126DCB70400402ADA2ED8FE
:100A60001385044085453ED086C696C49AC29EC072
:100A700022DE32D636D43AD242CE46CC72CA76C8BC
:100A80007AC67EC4EF20A05385476315F50237145C
:100A900001408565130504C0EF105060EF00703011
:100AA000854513850440EF2000538565130504C078
:100AB000EF10505D7254B640A64216438643E2548E
:100AC0005255C2553256A256125782577248E248C2
:100AD000524EC24E324FA24F616173002030EFF28E
:100AE0007FA2EF10503A37F50008B704002037F422
:100AF0000008EF10503F938404009149130904014A
:100B00008C402285EF10B041631A350198401C409B
:100B10006316F70011049104E31424FFEF1050381A
:100B200021BCB707002003C70738630D070EEFF29B
:100B30001F9F37F40008042037D500001305C5C4F3
:100B4000A68513890738EFA0907E9307700663800F
:100B5000F40237D50000130585C3EFB0800E41378E
:100B60000C2037D50000130585C4EFA0507C370456
:100B70000020B7F700081307040093860701130449
:100B80000400902385070507A30FC7FEE39BD7FE4C
:100B900083A7C181130684000547C8438546854560
:100BA0001305C51223000900EF50302383A7C1812C
:100BB000130694000547C843854689451305C512A9
:100BC000EF50B02183A7C1811306A4000547C84395
:100BD00085468D451305C512EF50302083A7C1818E
:100BE0002D042286C8430547854691451305C51245
:100BF000EF50B01E83A7C18122860547C8438546B2
:100C0000854513058513EF50501D83A7C181054706
:100C10008546C8432286894513058513EF50F01B8E
:100C20006FF03F928280EFF29F8FB707002093878B
:100C300007003E950CA165356FF0BF90EFF23F8E37
:100C4000B7070020938707003E9513D78500411111
:100C50000CA118B16C87613541016FF09F8EB70709
:100C6000002083C7073885C3EFF27F8B41112AC666
:100C70004D3D3245B707002093870700AA97882388
:100C800041016FF01F8CB707002093870700AA97D8
:100C900088238280B707002083C7073895C7EFF203
:100CA0001F884135B707002083C717001D4713056C
:100CB000D0076369F70013971700B567938787C25A
:100CC000BA978A236FF0FF87B707002083C7170002
:100CD0001D471305D007636AF70013971700B56720
:100CE000938787C2BA978A2382808280B7070020C1
:100CF00083C7073885C3EFF29F822535B7070020E9
:100D000003C73700854701456314F700130500103A
:100D10006FF03F83B707002003C7370085470145C1
:100D20006315F7001305001082808280B70700204A
:100D300083C7073891CBEFF28FFEE533B70700206A
:100D400003C527006FF0EFFFB707002003C527009A
:100D50008280EFF2CFFC9317350035651305C5C5CA
:100D60003E954E210841EF1010306FF08FFDEFF2ED
:100D70000FFB0111A1475C84B70700209387073D53
:100D80003EC8B70700209387873D2D453EC6C13D2D
:100D9000230BA1002945E135A30BA1002545C13551
:100DA000230CA1002145653DA9473305F502B7177E
:100DB0000000938727D53ECEE8822800EF2000363A
:100DC00005616FF00FF8EFF2EFF301118545114562
:100DD000EF10B05985452145EF1030598545414503
:100DE000EF10B058854513050002EF1010588545E7
:100DF0000545EF10905785451165EF10F058854572
:100E000037050002EF10505885450545EF10D057C3
:100E10008564138504808545EF1030558545094567
:100E2000EF1090568545054537140140EF101052DC
:100E3000130504C0856502C602C802CAEF10102659
:100E40001305048093050010EF105025F9778D4AA3
:100E50006C00371501407C8656C8697A02CAEF10CB
:100E6000F01093078AED6C00130504807C86EF1068
:100E7000F00F8567938717806C00130504C07C868C
:100E8000EF10D00E9307E00F91496C00130504C0DA
:100E90007C864ECAEF10900D930700026C0013057C
:100EA00004807C86EF10900CC1476C00130504C0D1
:100EB0003ECA6486EF10900B130900106C001305F6
:100EC000048023162101EF10700A370518008545AC
:100ED00013050520EF10101EE1476C001305048078
:100EE000231651013ECAEF107008930700406C00B2
:100EF000130504C07C86EF1070076C00130504C056
:100F000023164101EF109006854537451D00EF106F
:100F1000701A930700206C00130504C07C86EF1044
:100F2000F0046C00130A8004130504C02316210189
:100F30003734014052CAEF107003130504C0EF109C
:100F40001055130504C0EF2080016800EF10D07B1E
:100F50001309803E6C00130504C0231821012316D9
:100F60004101EF10905A8545130504C0EF10307B06
:100F70009307D0327C86680085473EC8231701005E
:100F8000EF1050269307402268007C86EF109025D2
:100F90009307500268005C86EF10D024930730025C
:100FA00068005C86EF1010249307600268005C867E
:100FB00037440040EF1010231305048002C602C816
:100FC00002CA02CC231E0100EF10B041B707040192
:100FD0003EC6B70700023ECA6C00A1471305048055
:100FE0003ECC02C8231E0100EF1010430546894580
:100FF00013050480EF10D0473705004002C602C831
:1010000002CA02CCEF10B04837050040EF1030752F
:101010000A85EF10706F89478A85370500402312D3
:1010200021017C80EF10704EC167938707063EC692
:101030006C009307401F37050040FC81231A010014
:10104000EF1050536C0037050040EF1050596C0002
:1010500037050040EF101062814537050040EF1062
:10106000B072814537050040EF10F07281453705B9
:101070000040EF10B073854537050040EF10306F2A
:10108000854537050040EF10106B3704004013050D
:101090000440EF10D03F13050440EF10506C68007F
:1010A000EF1090666C0013050440231821012316ED
:1010B0003101EF109045130504408545EF10B071E4
:1010C0000546854513050440EF1050681565130566
:1010D0005555EF10500D1145EF10700D1385F4FFAD
:1010E000EF10700DEF10B00DEF10500E05616FF0A6
:1010F000AFC4EFF2CFC239712A842E89B284814500
:101100001306C002480836C6EFF06FC42285EF1000
:101110006047B246C1473ECE930700083ED44C0814
:101120008D6722854ACA26CC36D03EDC02D202D652
:1011300002D802DA02DEEF10A04E21616FF06FC01C
:10114000EFF2EFBDEFA04000B7D7000003A687CDB8
:1011500083A6C7CDEF90A02CB7D7000003A607CE7B
:1011600083A647CEEF80F03EEF601079B7D700003E
:1011700003A687CE83A6C7CEEF90602AEF901070AB
:10118000420541816FF0EFBBEFF2CFB7E17741113C
:101190008D07371401407C82C147130504803EC689
:1011A0004C008D473EC423130100EF10205C9307D1
:1011B0000040130504C04C007C82EF10205B916757
:1011C000130504807C824C0091473EC6EF10005A04
:1011D000130504808D45EF10E06A130504C09305E4
:1011E0000040EF10206A130504C08565B569130936
:1011F00004C0EF10A06A8144914A9389C9C91304BD
:101200000480754A85654A85EF10C0670545EF3053
:10121000606885654A85EF10606863E09A0293977D
:101220002400CE979C4382878D452285EF1000676E
:10123000930500404A85EF106066850493F4F40F2F
:10124000E39244FD37140140A16513050480EF10BB
:10125000E0648565130504C0EF10C0628565130561
:1012600004C0EF10A0638D4513050480EF100063E8
:1012700093050040130504C0EF1040620545EF30B0
:1012800060618565130504C0EF10C05F0545EF3050
:1012900060608565130504C0EF1040608D4513053F
:1012A0000480EF10A05F93050040130504C0EF1009
:1012B000E05E61498144930904C0130A0480856596
:1012C0004E85EF10205C0545EF30C05C916552857E
:1012D000EF10605985476315F500860493E4140008
:1012E00085654E85EF10805B7D1905451379F90FF3
:1012F000EF30405AE31509FCB7070001FD1763966C
:10130000F40637D50000130505CFEFA090131305A1
:1013100004808D45EF100057130504C0930500406D
:10132000EF104056130504C0B714014085651389BA
:1013300004C0EF10A056014493840480094A9549E3
:1013400085654A85EF1000540545EF30A05485654A
:101350004A85EF10A05485476306F40A630E440BD8
:1013600005041374F40FE31D34FD371401404C00E1
:10137000130504C0EF10803FE1473EC6E97793872D
:1013800007404C00130504C07C82EF10203EE1773B
:101390008D074C00130504807C8237440040EF1019
:1013A000E03C130504808545EF10F00A3706002065
:1013B000370502408D461306C63E9305C4801305CB
:1013C0008505053B37050040854513050540EF10B1
:1013D0001035854537050040EF10703441016FF03E
:1013E000AF958D452285EF10E049930500404A8571
:1013F000EF10404999B58565DDBF856525BDA165BF
:101400002285FDB726858D45EF10404993050040A4
:101410004A85EF10A048A9B726858D45EF10804674
:10142000930500404A85EF10E0451DBFB707002037
:101430009387473E3E95A30FB5FE8280B7070020F5
:101440009387073E3E95A30FB5FE82801307F003F6
:101450006369A700EFF2AF8CE5312392A1806FF0B2
:101460004F8E930760092392F1808280B707002096
:101470001387873EFD567D1516A334A31375F50F0C
:1014800021479387873E6369A7023567130707CB18
:101490000A053A9518410287A380070023810700B7
:1014A000828023800700DDBF239007008280A38015
:1014B000070082802380070082801307F003636B9C
:1014C000A700EFF2CF85AD39370700202311A738E9
:1014D0006FF02F8793076009370700202311F73833
:1014E0008280EFF2CF83411102C002C202C402C661
:1014F0009307F00363E1A70881452A84370500407C
:10150000EF107023C1679387070622853EC0EFA0C6
:101510004023B7D7000083A5C7CFEF905049B7D776
:10152000000083A507D0EF907073EFA0201C050585
:10153000894768838A85370500407C84EF109003D3
:101540008A8537050040EF1090098A8537050040ED
:10155000EF105012854537050040EF10D01D2C8349
:1015600037D50000130545D0EFA0605C85453705F1
:101570000040EF10D01A41016FE0BFFCEFE23FFAEC
:101580001945EFF0CFEDDD351145EFF04FED7D3D25
:101590001545EFF0CFEC15371305F00399376FE0E1
:1015A0005FFAEFE2DFF7B705002083D7253F130787
:1015B00060099385253F8507C207C183636AF716D3
:1015C0009EA1B70700209387073E98239033B4234A
:1015D000370500203368C700B707002033E806014D
:1015E000130515389387473E63060816B708002091
:1015F0009388083F03D8080015631303437E05084A
:1016000042081358080123900801637B0301034833
:101610000500239008007D183338000123000501E0
:10162000034E0500054503C3070083C8170003C820
:1016300027006312AE10336767003366160198A364
:1016400090B3B3E60601B4A3370700209306C73E64
:1016500003C807008833B023B70700202390060093
:101660002381060083D8050083D627389307C73E19
:1016700063F6D802B70600209386863E3367A8003B
:101680008C22518F1347F7FF1377F70FF98DACA317
:101690008C32B422F98D758F8CB398A303D7418017
:1016A000636D1701B8233368E8009833238107017D
:1016B000598D982388B3598E90A337340140130570
:1016C00004C0EF10900FB70402408D452A8913859E
:1016D0008405EF00B079138584058545EF00D07748
:1016E000130404C09304300637050200EF0050785D
:1016F00001ED2285EF10700C330525419357F5411C
:101700003D8D1D8DE3D2A4FE3705024081451305B2
:101710008505EF0070744165EF0070763745004035
:101720009305000413050580EF10A0556FE07FE1DD
:101730002390050079B51347F7FF1346F6FF33777B
:1017400067003376160193C6F6FF98A390B3B3F6FD
:101750000601D5BD054718A1C5BDEFE25FDCEFF07E
:10176000BFA237D50000130505D1EFA0403CB70755
:10177000002003A58740854537D40000EF10107284
:101780001305401FEF300011EF1060231305C4D183
:10179000EFA0204BF5B7EFE29FD80945EF10E0230B
:1017A0006125EF309036716513050520EF30503814
:1017B00083A5818037D50000130585D2EFA020379F
:1017C000EF00B05BAA8537D50000130585D3EFA0E5
:1017D0000036B7D5000037D50000938585D41305B2
:1017E00005D5EFA0C034EFF00FDEB7070020B7D566
:1017F0000000371500009387C73F15478146130641
:101800000008938505D71305A575EF20502DB70760
:101810000020B7D5000037350000938707401547F3
:101820008146130600089385C5D713056515EF207B
:10183000102BB7070020B7D500003725000093878D
:10184000474029478146130600109385C5D81305E4
:1018500045C5EF20D028B7070020B7D500003705D1
:1018600000009387873F1D4781461306C02B938551
:1018700085D913050560EF209026B7070020B7D55E
:101880000000370500009387473F15478146130640
:101890000010938585DA13052579EF205024EFF0A9
:1018A0004FA8E939EFF0AFCCEF10B004D12C376579
:1018B000004013050540EFE01FD4EF10D054B707E8
:1018C000002023A4A74037D40000EF20B040130528
:1018D00084DBEFA00037E5BFEFE27FC4B70700204D
:1018E00083A58740373500008146054613054576B8
:1018F000EF30501F6FE0FFC499677390078001A01D
:10190000A54729C1A1C19DCE034815018948B94702
:101910001307F8FF1377F70F63E6E802EFE23FC023
:10192000AE848C2141112A84428536C632C4EFF040
:10193000FFB0B2462246A6852285EF4030294101FC
:101940006FE03FC03E8582801DC125459DC195C287
:101950008C213D4593978501E187635CF000EFE2C0
:101960001FBC0945EFF02FAC01456FE09FBD254539
:10197000828082800DC125458DC185C28C219D4705
:101980003D4563ECB700EFE29FB90545EFF0AFA925
:1019900001456FE01FBB254582808280A5474DC170
:1019A000C5C1D9CEEFE2BFB71C3985462E8413F7E7
:1019B000B7FF7D171377F70FAA8463E2E6028C2145
:1019C0001307F0036376B700BD473E856FE07FB72E
:1019D0000947638DE704636DF7026385D704943884
:1019E0000546B9471387D6FF1377F70FE36FE6FC79
:1019F0000C2021479387F5FF93F7F70FE366F7FC79
:101A00009147638BF6022E85EFF05FA6814775BF85
:101A100015476381E70219471545E392E7FCEFF0AC
:101A20008FA075BF2E85EFF07FA255BF2E85EFF0FA
:101A3000DFA875B71145E5B71945EFF0CF9EF9B7A7
:101A40003E858280EFE2BFAD4111254929C1A1C188
:101A50009DCE1C39094739491388F7FF636907038D
:101A6000AE848C212A843E8536C632C4EFF01F9C9A
:101A70002246B246A6852285EF40501590200C38AC
:101A80002A8937D50000130505DFEFA0400A4A85F3
:101A900041016FE01FAB0DC125458DC185C28C2171
:101AA00085473D4563ECB700EFE27FA70D45EFF0BA
:101AB0008F9701456FE0FFA8254582808280A5476A
:101AC0002DC1A5C1B9CEEFE2FFA31C390947368964
:101AD000B2892E84AA846380E7046369F70005470E
:101AE000638FE700BD473E856FE01FA50D47638705
:101AF000E7021147E398E7FE8C212D4519A08C21C0
:101B00002145EFF04F92CA864E86A2852685EF408A
:101B1000F00B8147C9BF8C212545E5B78C212945AC
:101B2000CDB73E85828039C9EFE2DF9DAA8441119D
:101B30002545B1C1A9C29C380547B68932892E8492
:101B4000638DE70009473D456397E7029C213945CE
:101B50005C879C31DC872C8739A09C2131455C87D0
:101B60009C31DC872C87EFF06F8DCE864A86A2856C
:101B70002685EF40B00541016FE01F9C254582801E
:101B8000EFE2FF99EF10E058B707002023AAA74023
:101B900083A7C181DC439386C70FA5E237070020E6
:101BA0001307070523A8E7101387471125E3370715
:101BB00000201307070323A4E7121387871625E3E2
:101BC000370700201307070623A2E71613874714D9
:101BD00025E3370700201307070923AAE712138715
:101BE000871325E303A747109307C70035C33707BB
:101BF00000202326F7406FE0DF943707002013070B
:101C0000070423A2E7101387871049FB370700203A
:101C10001307070223AEE7101387071249FB3707A4
:101C200000201307070723A8E7161387C71549FBEA
:101C3000370700201307070123A6E7141387C712ED
:101C400049FB370700201307070823A0E714D9FA38
:101C5000814771BFEFE23F8A3569B7090020370B32
:101C60000020B7040020B70B0020130909DD4E8ABD
:101C70000545EF20304213044B410840EF20A048B7
:101C800065D908407D5693850441EF202010138CC0
:101C9000044183470C001D4713843B416366F708EA
:101CA0008A07CA979C43828785471CA083A7C18166
:101CB00005478546C8431386294185451305C50F49
:101CC000EF40700E83461C009307000813072A415B
:101CD000639FF6041C231420D58F1CA383A7C18106
:101CE00005478546C84313062A4185451305C50F98
:101CF000EF40B00EB707002083A7C740B5DB98239D
:101D0000759B98A3B5B789474DB7914779BFA14750
:101D100069BFC14759BF9307000241BF9307000441
:101D200069B7930700F851B72300040041B71C209E
:101D3000142393C7F7FFF58F4DB7B71702409843A9
:101D4000B706FFF841111367170098C3D843370649
:101D50000200758FD8C39843B706F7FEFD16758F3E
:101D600098C39843B706FCFFFD16758F98C3D843F8
:101D7000B70681FFFD16758FD8C337079F0098C738
:101D800002C402C69843C166558F98C3B716024075
:101D900005679C42F18F3EC6A24785073EC4B24705
:101DA00081E7A247E397E7FEB71702409C431397EA
:101DB000E7006359070685473EC6324785476311EA
:101DC000F706B7170240D843B706C1FFFD161367E1
:101DD0000708D8C3D843D8C3D84313670740D8C32C
:101DE000D843758FD8C3D843B7063D00558FD8C3A5
:101DF0009843B7060001558F98C398439316670020
:101E0000E3DD06FED843B7160240719BD8C3D84322
:101E100013672700D8C32147DC42B18BE39EE7FE5E
:101E20004101828002C651BFB7160240DC42114612
:101E3000B18B138781806385C70021466388C70201
:101E4000B7177A00938707201CC3B7170240DC43FB
:101E5000918393F6F700B70700209387070AB69798
:101E600094231C43B3D7D7001CC38280DC42D442E6
:101E70004166C983BD8BF18E890745466393C700D0
:101E8000C94781EEB746024083A60680C18A89CE43
:101E9000B7167A009386062021A8B7160240D442CE
:101EA0001396E600E35606FEB7163D0093860690AD
:101EB000B387D70251BF01A001A001A001A001A0DA
:101EC00001A001A001A001A001A001A001A001A00A
:101ED00001A001A001A001A001A001A001A001A0FA
:101EE00001A001A001A001A001A001A001A001A0EA
:101EF00001A001A001A001A001A001A001A001A0DA
:101F000001A001A001A001A001A001A001A001A0C9
:101F100001A001A001A001A001A001A001A001A0B9
:101F200001A097F1FF1F9381E1C517310020130134
:101F3000610D17C500001305259197E5FF1F9385D7
:101F4000650C1386018463FAC5008322050023A073
:101F5000550011059105E3EAC5FE17E5FF1F1305BE
:101F60006546971500209385E5F66377B500232035
:101F700005001105E36DB5FEFD42739002BC894278
:101F800073904280B72200009382028073A00230D7
:101F900097E2FFFF9382820A93E2320073905230FD
:101FA000EFF0BFD997F2FFFF9382227F7390123434
:101FB000730020301841AA87759B18C11841136718
:101FC000170018C14167D443858A99E27D1765FFE0
:101FD000D8430145058B49CF94450547639BE608E7
:101FE000984313670708D44598C305476397E608E5
:101FF000984313670704944998C305476393E60819
:10200000984313670702D44998C30547639FE606C0
:10201000984313670701944D98C30547639AE606F2
:10202000984313678700D44D98C305476395E60628
:1020300098431367470098C3B821B4317A07E20682
:10204000558FD421C206558FD431D206558F962193
:10205000FD16558FD8CF9843799B98C34167D443D9
:10206000858A99C27D1765FFC8431345F5FF058929
:10207000828098431377F7F7BDB798431377F7FB40
:102080009DBF98431377F7FDBDBF98433D9B61B754
:1020900098435D9B49BF98436D9B71BF3767004074
:1020A00013070740832607203C25054893E61600C2
:1020B0002320D7208325C7213316F8009346F6FF47
:1020C000F58D232EB7204C25C5E58325C720035861
:1020D00025008E07F58D2326B7206E21BA975A2149
:1020E000C205B3E5050123A0B7240E2142074D8F99
:1020F00023A2E724B7270240985BB707000FF98FA8
:1021000099EF3767004093070730130707408E2386
:102110009107C205C181239EB7EEE39AE7FE3835E9
:10212000B7670040938707402DEB03A74720758FC3
:1021300023A2E7201A25B76700409387074035E3BD
:1021400003A74721F98E23AAD72018498547631989
:10215000F700B767004003A7C761598E23AEC76079
:10216000B767004003A70760799B23A0E7608280E0
:10217000E39205F98325C720035825008E07D18DEA
:102180002326B7200E21BA975A21C205B3E50501CF
:1021900023A0B72442076E2199BF03A74720518F80
:1021A00041BF8546E313D7FA03A74721518F23AADE
:1021B000E72061BF1C4513975700634E07081C4575
:1021C00013974700634B07081C4591461397370048
:1021D00063510708894693974600AA9703A70718F3
:1021E000058B23A0E7189025883535EA984103A68A
:1021F00007185607498F518F23A0E718B8253D8B44
:10220000B8A503A64718419A23A2C71803A64718E2
:10221000518F23A2E718D025B8352206598ED8351C
:102220004207598EF8256207518F23A4E718902999
:10223000F8352206598E98394207598EB829620717
:10224000518F23A6E71803A707181367170023A0C9
:10225000E718368582808146BDBF8546ADBFD8412F
:1022600003A807180E07498F518F3367070169B715
:1022700093974500AA9703A7071B118B18A62DE774
:1022800003A7071B558318C203A7071B098B18B6A2
:1022900003A7471B3D8B38A603A7471B218338BAEA
:1022A00003A7871B38B603A7871B218358A603A75C
:1022B000871B418358B603A7871B618378A603A7B2
:1022C000C71B78B603A7C71B218318AA03A7C71B80
:1022D000418318BA83A7C71BE1833CAA99E95C45EF
:1022E00093E707025CC5828003A7071B0D8358C2D2
:1022F00061BF1C4993E707021CC982808DE51C4120
:102300008546F19B93E717001CC1C16758410D8BAF
:102310006304D700FD17FDFB5C418D8BFD1793B760
:1023200017003E8582808547639EF5001C41F19B26
:102330001CC1C16758410D8B19C3FD17E5FF5C41F6
:102340008D8BF1BF09478147E39DE5FC1C41894620
:10235000F19B93E727001CC1C16758410D8B6304B3
:10236000D700FD17FDFB5C418D8BF9174DBF5C4914
:1023700001C6DD8D4CC9828093C5F5FFFD8DDDBFA3
:10238000B707F000ED8F89CB104D3375B6003205DD
:1023900031813335A00082809397750063D60700A2
:1023A000544133F5B600E5B79397450063D5070070
:1023B00008456D8DE9BFB706100093976500FD16BF
:1023C00063D7070058453375B700758DD9B71C49D9
:1023D00033F5B700DDBFB707F03093870707639584
:1023E000F500232C050082809397C50013976500A4
:1023F000B183635407005CC5828013975500635412
:1024000007001CC9828013974500635407001CC550
:1024100082805CC182805C49ED8F95C39307000484
:102420006383F50A63ECB70291476386F50863EAB4
:10243000B70085476386F5068947638BF506014536
:102440008280C147638DF50693070002638BF50612
:10245000A147E396F5FE4845118185A09387058045
:10246000BDCF85679387078063E0B702930700209D
:102470006381F506930700406380F506930700101B
:10248000E39FF5FA084D15A8C1676380F504B70707
:102490000200638EF502A167E393F5FA484135A87F
:1024A0000845C167938717107D8D3335A000828062
:1024B00048450D89DDBF48450D8105898280084961
:1024C000CDBF0849D5BF084941BF4841F5B748418C
:1024D00061B7084D0581D5B7084D0981F9BF084D91
:1024E00013750507D9B7930700106386F50663E7F0
:1024F000B702A1476388F50663E9B7000547638E15
:10250000E50411476381E506828013070002638FAB
:10251000E50493070004638AF504828093870580AD
:102520008DCB85679387078063EBB7009307002007
:102530006383F50293070040638FF5008280C167D3
:102540006388F502B70702006387F502A16763930A
:10255000F502232C0500914729A8C167938717101E
:102560001CC58280C1475CC58280C1471CC982806E
:10257000A1475CC18280C147EDBFB7F7FF1F03A52C
:10258000477082801C4141677917F98F1CC1232055
:1025900005002322050023240500B7070240232657
:1025A0000500138787006316E500D8431367F7001B
:1025B00001A81387C7016317E500D8431367070F06
:1025C000D8C3B1A8138707036318E500D84385660D
:1025D000938606F0558FEDB7138747046315E50022
:1025E000D843BD66C5BF138787056316E500D8438A
:1025F000B7060F00C5B71387C7066316E500D843B3
:10260000B706F000C1BF138707086316E500D8437B
:10261000B706000FC1B713874709E308E5F88280C2
:102620001C4161773D0794517D8F9C45D58F94491E
:10263000D58FD449D58F944DD58FD44DD58FD451C6
:10264000D58F9455D58FD98F1CC1DC455CC19C4179
:102650001CC5DC415CC582801C4189C593E717001D
:102660001CC1828041677917F98FDDBF4CC1828020
:10267000B70702409C437D8D3335A0008280B707A9
:102680000240C8C38280B707674537270240938757
:1026900037125CC3B797EFCD9387B79A5CC382803C
:1026A000372702401C4B93E707081CCB8280372753
:1026B00002405C470545858B91E7484741891335C2
:1026C00015000D058280EFD29FE52A848544C53729
:1026D0006318950019E0154529A0D13F7D14CDBFA1
:1026E0007DD86FD01FE6EFD29FE3AA8437050B0099
:1026F000D93F91476313F502372402401C48370540
:102700000B0093E727001CC844C81C4893E7070444
:102710001CC8553F1C48F59B1CC86FD09FE2EFD2E8
:102720007FDE41112A891565AE8402C69149613F59
:10273000631B3503372402401C48156593E71700D7
:102740001CC893970401C1832310F900AD3F63199E
:10275000350109094AC6B247C180156586A3A53768
:102760001C48F99B1CC841016FD01FDD9C4513F725
:10277000070113F8F70001C7D8413368E80037278D
:102780000240145B3707000F758F5DEB37070020A1
:102790008546230CD740371701406315E5009A2181
:1027A00035839AA18E2113F7F50F39C3184181465D
:1027B000854E3D4F930F800293028004214E339645
:1027C000DE00B3F8C5006311160393982600331397
:1027D0001F011343F3FF3377E300B318180133E706
:1027E000E8006399F70750C98506E39AC6FD18C14A
:1027F0001307F00F6375B70454412146854E3D4FD2
:10280000930F800293028004414EB398CE0033F7B9
:1028100015016392E8021317260001173313EF0026
:102820001343F3FFB376D3003317E800D98E6397D1
:10283000F703232A15010506E319C6FD54C182805A
:1028400037170140E310E5F63707002003478741BB
:1028500031DBB1B7E39A57F810C979B7E39D57FC5C
:1028600023281501C9BFB71701406318F500B70742
:10287000002083C7874191C3B58108456D8D3335ED
:10288000A0008280B71701406318F500B707002049
:1028900083C7874191C3B5810CC98280B7170140B6
:1028A0006318F500B707002083C7874191C3B5813E
:1028B0004CC98280B7070140635A0504DC4F935628
:1028C0000501131805013707300013F6F6001358F9
:1028D0000801B376E500635E05066399E604930696
:1028E00006010D46B316D60093C6F6FFF58F99C9BB
:1028F000135755011377F73F12073317E800D98FA5
:1029000063550506370701405CCF828037270240B8
:10291000145BDC433707000F758F55F313D717008F
:10292000F976CE07758FCD83D98F51BF1317B500B8
:10293000635607008D46B396C6007DB71357550101
:102940001377F73F12073317E8001347F7FFF98FA4
:1029500079BF6390E602370601405442370700F121
:102960007D17F98F758F58C2C1F5370701405CC3D9
:1029700082801317B500635C07008D46B396C600CE
:1029800093C6F6FFFD8EB707000FD58FF1BF135723
:10299000550112073317E8001347F7FF7D8FB7077C
:1029A000000FD98FD1B7B737004088C38280B737BF
:1029B0000040C8C38280B737004088C78280AD67B7
:1029C000373700409387A7AA1CC38280B567373783
:1029D00000409387C7CC1CC38280B707002023AE7A
:1029E000A7408280B70700209387C74194431821EE
:1029F00081E63C21920721A894430546639FC602C5
:102A00003C21103192076314D60093E707F8B7E62C
:102A100000E093F7F70FBA962380F6408546935768
:102A200057003397E6005441A5C2938707048A07ED
:102A3000B7E600E0B69798C382808C4389466391DD
:102A4000D50214313C216365D6008A06B6975DB77E
:102A50009386E6038A06B69793F7F70F920775B742
:102A600090438D46631CD60014313C216364D6002C
:102A70008606E9BF9386C6078606F1BF9443914751
:102A8000E39EF6F81C31BDB7938707064DB737179D
:102A900002405C439146B18B6385D700A1466382B7
:102AA000D706B7177A00938707201CC13716024054
:102AB0005C42370700201307070B9183BD8BBA9741
:102AC00094231C41B3D7D7005CC15442A1829D8A94
:102AD000BA969422B3D6D70014C55442AD829D8ACB
:102AE00036971823B3D7E7005CC5584239839376ED
:102AF00037001387C18036971823B3D7E7021CC964
:102B000082805C435843C166C983BD8B758F89073A
:102B1000C5466393D700C94701EF374702400327F3
:102B20000780418B09CF37177A001307072021A8A8
:102B30003717024058439316E700E3D606FE3717CF
:102B40003D0013070790B387E70285B799C537178C
:102B500002405C4B5D8D48CB8280B7170240D84B5A
:102B60001345F5FF798DC8CB828099C53717024090
:102B70001C4F5D8D08CF8280B7170240984F1345D8
:102B8000F5FF798D88CF828099C5371702405C4F59
:102B90005D8D48CF8280B7170240D84F1345F5FFAF
:102BA000798DC8CF828099C5371702405C475D8D0B
:102BB00048C78280B7170240D8471345F5FF798D83
:102BC000C8C7828099C5371702401C4B5D8D08CB62
:102BD0008280B7170240984B1345F5FF798D88CB5B
:102BE0008280EFD2DF93B7370140631AF500854545
:102BF0000565553F814505657D376FD09F94B74783
:102C0000004093870780E31AF5FE854511655D3F17
:102C100081451165453FD5B71A218D679387070414
:102C2000B6217D8F9E21D58FD621D58FF621D58FC8
:102C30009625D58FB625D58FD625D58FF625D58F58
:102C4000D98F1EA15A2DFD779387F77FF98F5EAD3F
:102C50009E291EA982801E2189C593E707041EA113
:102C60008280C207C18393F7F7FBC207C183C5BF48
:102C70005E2101C6DD8D4EA1828093C5F5FFFD8DDD
:102C8000DDBF93C5F5FFC205C1810EA58280EFD2DD
:102C90001F89B7370140938707C0631DF50005649E
:102CA0008545130504800137814513050480E53D02
:102CB0006FD03F89B70700406319F500854505458A
:102CC000113781450545FD3DE5B7938707406318FA
:102CD000F50085450945FD3581450945EDB7B7172F
:102CE0000040138707806318E50085451145D93DED
:102CF00081451145C9BF938707C0E31BF5FA854598
:102D00002145C935814521457DBF1E213737014009
:102D1000130707C0C207C1836304E50237070040F9
:102D20006300E50213070740630CE5003717004016
:102D3000930607806306D500130707C06316E500F6
:102D4000BA2193F7F7F8D98FFA2193F7F7CFC20793
:102D5000C183D98F1EA1DE215EB59E211EB5B73776
:102D60000140938707C06314F5009C251EB9854771
:102D70005EA982801E31922103D82500C207C1833B
:102D8000F99BC207C1831EB11E3156211A2DC207FD
:102D9000C183420741831377C7F8518F9225F59B72
:102DA000C20633660601D18F37360140130606C0CE
:102DB000C1826310C502B225DD9B03D8E500D18F27
:102DC000D221ED9B93F6F6CFD18FD2253366060143
:102DD000D18E56A11AADFA215AB91EB182801E3188
:102DE00065771307F7CFC207C183BD9BC207C183B5
:102DF0001EB11E31562103D88500C2071396060165
:102E0000162DC18393F7F7FD758F96214182A20697
:102E1000558FB62142074183B3E606019206D58F4E
:102E2000B7360140C207938606C0C183631ED50230
:102E3000B62593F7F7F703D8C5009206D58FD621AC
:102E4000C207C183920693F7F7FBD58FFD76938671
:102E5000F63FF18EF225C207C183336606010A06EA
:102E6000D18E13960601418252A11AADFA211ABDE4
:102E70001EB182801E3103D88500C207C18393F73B
:102E8000F7EFC207C1831EB11E3156215A2DC2076A
:102E9000139606014207962141831377C7F8558F91
:102EA000B621C18393F7F7DFB3E60601A206D58FFB
:102EB000B7360140C207938606C04182C183631FB3
:102EC000D502FD769386F67FF58FB62503D8C5002B
:102ED000A206D58FD621C207C183A20693F7F7BFFA
:102EE000D58FF576FD16F18EF225C207C1833366C4
:102EF00006011206D18E13960601418252A15AADE7
:102F0000FA215ABD1EB18280FD575EA12310050033
:102F100023130500231105002304050082801E21D0
:102F200089C593E717001EA18280C207C183F99B60
:102F3000C207C183CDBF8357450491C52167D98F8F
:102F40002312F5048280C607C583DDBF5E2501C656
:102F5000DD8D4EA5828093C5F5FFFD8DDDBF1E255D
:102F6000C207C183E19BC207C1831EA582801E21C7
:102F700089C593E707081EA18280C207C18393F722
:102F8000F7F7C207C183C5BF1E2DC207C183DD9BF2
:102F9000DD8D0EAD82801A2DFD779387F77FF98F37
:102FA000A205CD8FC207C1831EAD82805E2DC207F0
:102FB000C183DD9BDD8D4EAD82804A3182801E292A
:102FC0004A25ED8F4205418189C76D8D3335A000BB
:102FD00082800145828093C5F5FFC205C1810EA99B
:102FE0008280EFD2CFD31629F577FD17F58FF62122
:102FF000DA257971D58F1EA95625FD779387379FDE
:10300000F58FD6212A842EC6D58F9625D58FB62545
:10301000D58F5EA55E29C207C18393F7F7CFD98FFD
:103020005EA96808EFF0BFA6B74701409387078005
:10303000B245631AF404A25756246547B387E702E2
:10304000C206C186984163D206040607522442068E
:10305000B3D7E702130740064186B3D6E702B3F7BA
:10306000E7029206635506028E0793872703B3D7BC
:10307000E70213F77700B367D700C207C1831EA426
:1030800045616FD00FCC925745BF0A07C1B7920771
:1030900093872703B3D7E702BD8BD58FF9BF91C5BF
:1030A0005E250967D98F5EA582805A25F977FD17BD
:1030B000F98FD5BF93F5F51F4EA182800A216D8D42
:1030C0003335A0008280EFD28FC583A74193411191
:1030D0004886CC86AA9723800700B707002003A55F
:1030E00007426C0081467D56EF00101541016FD0FC
:1030F0004FC5EFD2CFC2014689454145EF00F00CE4
:10310000B7070020814523A0A742EF00C07F6FD002
:103110004FC3B707002003A507428280EFD22FC01C
:103120001C291384C192034905001CA81C457A255B
:10313000AA844A863E8581457AA41CC423002401C2
:10314000EFD0EFC0D8404A86814558C0EFD02FC09D
:1031500001456FD00FBFEFD2EFBA9384C1920549FA
:103160008949094ACA240144EF10C0729C20E37BBC
:10317000F4FEDC482285829763102503DC40A29789
:10318000982319C723800700930500042285253F53
:1031900005041374F40FD9BF984422971C238507A4
:1031A00093F7F70F1CA3D8402297142389EA942899
:1031B000E3E0D7FE2300270193050008C1BFF034E8
:1031C00063E4C70063872601F024E3E3C7FCE391CF
:1031D00046FD23003701CDB7B70700209387C743CB
:1031E0009843636FA702D043B386C7006316D50028
:1031F00054413E85B296D4C35041B306C500631C0A
:10320000D700B706002083A646426306D700544382
:103210001843B29654C118C16303F50088C3828075
:10322000BA877DBFEFD20FAE41112AC6EF10A0338F
:10323000B706002083A74642370600209386464201
:10324000130686423245A9EF370700209307474C03
:1032500093F5F7001307474C81C51387F700419B8F
:10326000B70500209385C54323A2050098C1896551
:103270009385057FAE97C19B23A2070023A007007B
:10328000B385E7409CC21CC3B707002023A8B74200
:10329000B707002023A6B742B70700804CC31CC263
:1032A000032A0600B377AA0085E39307F5FF395791
:1032B000636CF7009307050113F7F70041C313F799
:1032C00007FF410763EBE706814489A022872E842C
:1032D00061A058C15CC009375840B70600209386EA
:1032E00006439042B307E94023A0F90063F3C70007
:1032F0009CC2B70700203367EA009387474358C052
:103300009843C10423200400050798C3EF1000422E
:1033100093F7F400D1CB89679387078073900730C8
:1033200037D6000037D50000130606E093050011DC
:10333000130585E2EF80A07F01A0BA873707002040
:103340000329C7429309C742E360F9F83707002011
:103350000324C7431307C74350406374F6000C406F
:10336000B5F59442E38286F61440044314C3330750
:10337000F64093060002E3F1E6F63305F400937697
:10338000F500A1DA8967938707807390073037D6F5
:10339000000037D50000130606E09305F00C130576
:1033A00085E2EF80C07801A0268541016FD0CF98DB
:1033B0005DC1EFD2CF96B7070020032745FF83A753
:1033C00087422A84B376F7009DE289679387078056
:1033D0007390073037D6000037D50000130606E09B
:1033E00093054012130585E2EF80607401A08326E7
:1033F00005FF9DC28967938707807390073037D692
:10340000000037D50000130606E09305501213059F
:1034100085E2EF80C07101A093C7F7FFF98F232ADF
:10342000F5FEEF104014B70700209387C74294437E
:10343000032744FF130504FF369798C3EFF0DFD945
:10344000B7070020938787439843050798C3EF1079
:10345000E02D6FD00F8F8280B7E700E041572387C0
:10346000E7402386E740B7F700E023A0070023A248
:103470000700814694C70147D8C783A581801307F9
:10348000803E814633D6E5023D4790CBD4CB98C3EE
:103490008280EFD2CF88411102C6F32750303EC65A
:1034A000B2470D478D8B6384E70289679387078056
:1034B0007390073037D6000037D500001306C6E4F6
:1034C0009305600B130585E2EF80606601A0B75796
:1034D000002093870700BD8B9DC389679387078072
:1034E0007390073037D6000037D500001306C6E4C6
:1034F0009305B00B130585E2EF80606301A0A93F3F
:10350000B7E700E0116723A0E710056723A0E710E5
:1035100023A80180EFC0DFDE014541016FD06F823B
:10352000397106DE16DC1ADA1ED82AD62ED432D22B
:1035300036D03ACE3ECC42CA46C872C676C47AC2AB
:103540007EC07311013489679387078073900730B9
:10355000B7F700E023A20700EF10800211C5B7E71C
:1035600000E0116723A0E72089679387878873901D
:10357000073073110134F250E2525253C2533255A4
:10358000A255125682567247E2475248C248324EFE
:10359000A24E124F824F21617300203089679387BA
:1035A000078073900730938701819843050798C37C
:1035B0008280138701811C438DE7EFC25FF6896724
:1035C000938707807390073037D6000037D5000007
:1035D0001306C6E493053010130585E2EF802055ED
:1035E00001A0FD171CC391E78967938787887390B3
:1035F00007308280096513050580731505308280C8
:10360000731005308280EFC29FF16145EFF09FC1DA
:103610002A8409C5232005001105992A22856FC037
:103620005FF2EFC2DFEF41111DE1896793870780E9
:103630007390073037D6000037D50000130646E7F1
:103640009305101E130585E2EF80604E01A0B707B9
:1036500000FFED8F9DC389679387078073900730C4
:1036600037D6000037D50000130646E79305201E25
:10367000130585E2EF80A04B01A02A842EC6EFF04F
:10368000FFF1B245084093C5F5FFE98D0CC02AC68D
:10369000EFF03FF2324541016FC0BFEAEFC29FE653
:1036A00041111DE18967938707807390073037D6F2
:1036B000000037D50000130646E7930510221305D6
:1036C00085E2EF80C04601A0370700FF6D8F1DC364
:1036D0008967938707807390073037D6000037D506
:1036E0000000130646E793052022130585E2EF80CC
:1036F000004401A02A842EC69309C500EF00B066DD
:103700001C40B245084837090001CD8F1CC08144D8
:103710007D19370A00020C40639CA90093C4F4FF92
:10372000ED8C04C0EF108000084041016FC0DFE065
:103730001841832A4500B377270113165700B3F6C3
:10374000B7006345060089E65685F1B7E39ED7FECC
:103750009316770063D30600DD8CB3E54501EF10C7
:10376000003EDDB7EFC2BFDBEFF0BFEB6FC07FDD28
:10377000930785007D575CC118C55CC51CC9232013
:10378000050082802328050082809841FD5693071A
:103790008500631ED7001C49D843D8C10CC79CC5FF
:1037A000CCC31C4188C985071CC18280B687D4431D
:1037B0009042E37DC7FECDB7544118451C4998C6D9
:1037C00054C3D4436393A600D8C398432328050069
:1037D0007D1798C388438280EFC27FD441112AC6E7
:1037E000EFF0DFDB3245005DEFF0BFDC1335140096
:1037F00041016FC01FD5EFC29FD232893041045DB5
:103800002A8409EE1C41014591E70844EF10C05E8F
:1038100023240400850404DC6FC0BFD263100902B6
:103820004841EF8020075C4038400145BA97184472
:103830005CC0E3E1E7FE1C405CC0E9BF4845EF80A7
:1038400060053C4058441440B307F0403E9758C4CC
:103850006375D7001844BA975CC489470145E31BD8
:10386000F9FACDD8FD147DB7304115C2EFC23FCB78
:1038700058451445AA87329758C56364D700184144
:1038800058C52E85CC47EF80E0006FC09FCB82806B
:10389000EFC2FFC82A84EFF07FD083445404130999
:1038A0004402E204E18463489002FD57A302F40459
:1038B000EFF03FD0EFF09FCE83444404130904019E
:1038C000E204E18463459002FD572302F404EFF023
:1038D0005FCE6FC01FC75C50E9DB4A85EF106017F1
:1038E00019C1EF106043FD14E204E1846DBF1C4870
:1038F000E1DF4A85EF10E01519C1EF10E041FD143A
:10390000E204E184C1B7EFC29FC141111DE18967A3
:10391000938707807390073037D6000037D50000B3
:10392000130606E993050011130585E2EF802020B8
:1039300001A05C5D2EC62A84BDC73841B3B7E7023B
:10394000BDE3EFF0BFC53040585C1440232C0402A7
:10395000B307E602B24554C03387F600918FB6979D
:103960005CC4FD572302F40418C4A302F4049DE1CF
:103970001C4899CB13050401EF10A00D11C5B7E742
:1039800000E0116723A0E720EFF0BFC20545410129
:103990006FC03FBB13050401EFF09FDD1305440228
:1039A000EFF01FDDD5B789679387078073900730E5
:1039B00037D6000037D50000130606E993055014EA
:1039C000130585E2EF80A01601A0EFC25FB541119B
:1039D00031C1B3B7A502AA8495EF3305B5029307A9
:1039E00070FB63E9A702130585042EC6EFF09F83E1
:1039F0002A8409CDB245AA8799C1930785042CC0B2
:103A00001CC044DC85452285EFF0FFEF2285410193
:103A10006FC03FB38967938707807390073037D6AD
:103A2000000037D50000130606E99305601C130556
:103A300085E2EF80C00F01A0EFC2FFAB011132C6DB
:103A40001DE18967938707807390073037D60000A0
:103A500037D50000130606E99305E032130585E229
:103A6000EF80E00C01A02A842E89B6848DE53C41CC
:103A70009DC38967938707807390073037D600000E
:103A800037D50000130606E99305F032130585E2E9
:103A9000EF80E00901A089476398F402585C8547EC
:103AA0006304F7028967938707807390073037D6DE
:103AB000000037D50000130606E99305003313050F
:103AC00085E2EF80C00601A0EF10602615E5B24741
:103AD000014C85C78967938707807390073037D675
:103AE000000037D50000130606E9930530331305AF
:103AF00085E2EF80C00301A0014C094BFD59930BF7
:103B0000040137EA00E0916AA5A8B24789E7EFF01F
:103B10005FAA014555A063150C002808EF10C011DD
:103B2000EFF03FA9EF003024EFF05FA78347440494
:103B3000E207E187639437012302040483475404B6
:103B4000E207E18763943701A3020404EFF07FA644
:103B50006C002808EF10A00F35EDEFF03FA4185CC3
:103B60005C5C631EF704EFF0DFA4B2455E85EF00F6
:103B700070622285EFF0DFD1EF00503B29C9054C80
:103B8000EFF0DFA1185C5C5C6364F700E39F64F70F
:103B90002686CA852285EFF01FC65C5089C71305AB
:103BA0004402EF00106B11C5B7E700E0116723A0D6
:103BB000E720EFF01FA0054505616FC05F97EFF0AC
:103BC0005F9F2285EFF0DFCCEF0050364DBF232002
:103BD0005A2175B72285EFF0BFCBEF00303515BF06
:103BE000EFC2FF932A8681450545EFF01FDE2A8448
:103BF00001CD23240500232005002326050081464E
:103C000001468145EFF05FE322856FC09F93EFC2CD
:103C10001F911DE18967938707807390073037D61E
:103C2000000037D50000130606E993053028130578
:103C300085E2EF70D06F01A0032985002A84EF1080
:103C4000600E8144631DA9005C448544FD175CC47B
:103C500099E78146014681452285EFF0FFDD268503
:103C60006FC03F8EEFC21F8A41111DE189679387A4
:103C700007807390073037D6000037D50000130651
:103C800006E993052040130585E2EF70506A01A014
:103C90002A84B2898DE53C419DC38967938707805B
:103CA0007390073037D6000037D50000130606E9B9
:103CB00093053040130585E2EF70706701A08947D6
:103CC0006398F602585C85476304F7028967938717
:103CD00007807390073037D6000037D500001306F1
:103CE00006E993054040130585E2EF70506401A09A
:103CF00036C62EC4EFF01F90185C5C5C2A8AA24581
:103D0000B2466366F700894781446393F6028344B1
:103D100054041C5C3686228513998401EFF0BFADF4
:103D200013598941FD576317F9025C5089EB8544AB
:103D30005285EFF0FF8C268541016FC0EFFF130520
:103D40004402EF00105165D5E38309FE854723A0A7
:103D5000F900F1BF9307F0076314F90289679387AD
:103D600007807390073037D6000037D50000130660
:103D700006E99305D048130585E2EF70505B01A07A
:103D80008504E204E184A302940455B7EFC2AFF6C0
:103D9000011132C61DE18967938707807390073050
:103DA00037D6000037D50000130606E993051055F5
:103DB000130585E2EF70B05701A02A84AE898DE526
:103DC0003C419DC38967938707807390073037D63E
:103DD000000037D50000130606E99305505513057A
:103DE00085E2EF70D05401A0EF00707415E5B24782
:103DF000014985C78967938707807390073037D655
:103E0000000037D50000130606E99305A0551305F9
:103E100085E2EF70D05101A001497D5A930A440216
:103E200037EB00E0916B95A8B24789E7EFF06FF8A8
:103E3000014569A8631509002808EF00F05FEFF05D
:103E40004FF7EF004072EFF06FF583474404E2074D
:103E5000E187639447012302040483475404E20783
:103E6000E18763944701A3020404EFF08FF46C0030
:103E70002808EF00D05D25E52285EFF0FF9531C9D8
:103E8000B2455685EF0010312285EFF07FA0EF009C
:103E9000F00919E123207B210549EFF02FF0045CA4
:103EA000C1D4CE852285FD14EFF01F9C04DC1C4894
:103EB00099CB13050401EF00D03911C5B7E700E035
:103EC000116723A0E720EFF0CFEE054505616FC035
:103ED0000FE62285EFF0DF9BEF00500575BF2285CE
:103EE000EFF01F9BEF0090042285EFF0FF8E4DD581
:103EF00081B7EFC22FE101112EC61DE189679387BB
:103F000007807390073037D6000037D500001306BE
:103F100006E99305305E130585E2EF70504101A07C
:103F20003C412A849DC3896793870780739007303B
:103F300037D6000037D50000130606E99305705EFA
:103F4000130585E2EF70B03E01A0EF00505E0DE575
:103F5000B2479DC38967938707807390073037D630
:103F6000000037D50000130606E99305C05E13056F
:103F700085E2EF70D03B01A081440149FD59130A4D
:103F80004402B7EA00E0116B6DA0B2479DE79DC007
:103F90008967938707807390073037D6000037D53D
:103FA0000000130606E993052063130585E2EF7010
:103FB000103801A0EFF0EFDF7DA06315090028089D
:103FC000EF009047EFF0EFDE792BEFF02FDD834726
:103FD0004404E207E1876394370123020404834722
:103FE0005404E207E18763943701A3020404EFF06D
:103FF0004FDC6C002808EF00904541E12285EFF08E
:10400000AFFD35C51C4089EBEFF04FD90844EF00F8
:10401000D053AA84EFF0EFD9B2455285EF00901744
:104020002285EFF0FF86EF00607019E123A06A217E
:104030000549EFF0AFD61C5CA9DBFD171CDC1C406A
:1040400081E7EF00707608C41C4899CB1305040182
:10405000EF00302011C5B7E700E0116723A0E7208B
:10406000EFF02FD58544268505616FC0EFCC228502
:10407000EFF01F82EF00806B65BF2285EFF05F815C
:1040800075252285EFF04FF545D5F1DCEFF00FD126
:104090005C50814589C71C58BD459C439D8D084493
:1040A0008144EF001062EFF0CFD075BFEFC22FC791
:1040B00041111DE18967938707807390073037D6D8
:1040C000000037D50000130606E99305B02B130551
:1040D00085E2EF70D02501A004452EC62A84EF00AA
:1040E0007044B2456399A4005C44054585075CC4EF
:1040F00041016FC00FC52285EFF0BFDF75D95C4469
:1041000085075CC4F5B7EFC28FC141111DE1896716
:10411000938707807390073037D6000037D50000AB
:10412000130606E99305307E130585E2EF70302013
:1041300001A02AC6EFF08FC63245085D2AC6EFF00F
:104140004FC7324541016FC0CFBF15E5EFC22FBD4C
:104150008967938707807390073037D6000085659D
:1041600037D50000130606E9938585AC130585E273
:10417000EF70F01B01A09DCD37360020930646CC92
:1041800081470147130646CC214883A8460063981F
:10419000A80093173700B2978CC3C8C321A891E732
:1041A00083A8060063930800B6870507A106E31EEF
:1041B00007FDFDF38280EFC28FB641112A842EC61F
:1041C00032C4EFF0AFBD834744047D572246E20777
:1041D000E187B2456394E700230204048347540453
:1041E0007D57E207E1876394E700A302040432C627
:1041F0002EC4EFF00FBC1C5CA245324689E71305C4
:104200004402EF00A07D2285EFF08FE841016FC0EE
:104210004FB301A037070020130787441C43944382
:10422000B70700209387474681E67D5798C3828071
:10423000184358471843DDBFEFC2CFAC3709002001
:10424000B70700209304494483A947472A849C4028
:1042500088404111A388070411052EC6EFF0CFD581
:104260007D5793074944B245631CE40295C9B737AB
:1042700000209387C7E69440D84398C610479440DF
:10428000D0C694401047910654C29440910614C77A
:1042900098405CCB9843050798C341016FC0CFA9F4
:1042A00098434E9440C3637B3401370700200325B5
:1042B000C7448C439105EFF04FCDC5B737070020B9
:1042C000032587448C439105EFF02FCCB7070020DE
:1042D000938747469843E372E4FC80C37DBFEFC2F7
:1042E0008FA113192600AA8A4A852E8A368BBA8B8B
:1042F000BE89EFE03FF31DC1AA8413054005EFE03E
:104300007FF22A8409C904D98147C146631A0A0089
:10431000230A050225A02685EFF08F897D5569AA1D
:104320003307FA00030707003306F400230AE60206
:1043300001C78507E396D7FEA3010404B94763F4D8
:1043400077038967938707807390073037D600001B
:1043500037D50000130646EA93057039130585E248
:10436000EF70E07C01A0130A4400528523267403F9
:104370002322740523240404EFF0CFC01305840125
:10438000EFF04FC03D471305C9FF3307774126952E
:1043900000C818CC40D023060404A3060404230755
:1043A0000404A307040423080404A30804045A868D
:1043B000D6854199EFC0CF8408C06384090023A04B
:1043C0008900EFF0AF9DB70700209387074598431A
:1043D000B7040020B7390020050798C31387444469
:1043E000184393844444138949D069EB80C09843AF
:1043F00085476310F706938949D0930AC9124E8501
:10440000D109EFF0EFB6E39C3AFF37350020930A6D
:1044100005E3130505E3EFF0AFB537350020930949
:1044200045E4130545E4EFF0AFB43735002013053C
:1044300085E5EFF0EFB3373500201305C5E6EFF063
:104440002FB3B707002023A45745B707002023A6A2
:104450003745B7070020938787459843050798C3DA
:10446000370700201307C7455C54144363F3F60075
:104470001CC35147B387E702CA97D843144718C4EF
:1044800054C4144723A246012324470198435CC81F
:10449000050798C3EFF0EF91B707002083A7074700
:1044A000054599CB9C40D8575C546377F700B7E734
:1044B00000E0116723A0E7206FC06F87B7070020D7
:1044C00083A70747D9F79C40D8575C54E3E3E7F844
:1044D00080C041B7EFC2AF84B7070020B7D5000056
:1044E00037450000938707460147814613060008B9
:1044F000938585EB13052521EFF07FDE0544631ED0
:104500008502EF00B058631A850289679387078098
:1045100073900730B70700207D5723A2E746B707FF
:10452000002023A8A746B707002023AA0746EFE0EC
:104530005FF683A741816FC0CF80FD57E31BF5FE77
:104540008967938707807390073037D600008565A9
:1045500037D50000130646EA93850584130585E2E6
:10456000EF70E05C01A0B7070020938747459843B0
:10457000050798C38280B707002003A547478280BC
:10458000B707002083A7474563990718EFB23FF9A3
:10459000B7070020938747478043050480C321EC79
:1045A000B7070020938787449843184305C7896756
:1045B000938707807390073037D60000856537D51D
:1045C0000000130646EA938575AC130585E2EF708B
:1045D000005601A0370700201307C7449443104337
:1045E00090C3B707002014C39387874698430507F5
:1045F00098C3EFF03FC237060020930746469C431E
:1046000037370020B705002013064646130747D06A
:104610009385454401456375F4029C41D146DC57BE
:10462000B387D7023E971843854763F3E7000545F4
:10463000B707002083A7874791C305456FB07FF078
:10464000370E0020B70E0020514F93078E4494433D
:10465000944281E6FD571CC2C9B79C43DC47DC4746
:10466000D4436374D40014C24DBF83A8870003A849
:10467000C700D44B1383470023A408012322180149
:1046800083A846006394680023A2060103A80600DD
:1046900023AA07007D1823A00601945795CA03A8F2
:1046A000C70183A8070283AF46002324180183A80B
:1046B000070223A208011388870163940F0123A234
:1046C000160103A8060023A407027D1823A00601F3
:1046D0009386CE4503A8C70283A8060063F40801A9
:1046E00023A00601B306E803BA9683A8460083AF69
:1046F000880023A4170123A6F70183AF880023A213
:104700006F0023A46800D4CB9C4285079CC29C41C7
:10471000DC57E36CF8F205450DBFB707002093871F
:10472000C74698430145050798C38280EFB29FDDD5
:1047300037040020130444451C40411185E7896774
:10474000938707807390073037D60000856537D58B
:104750000000130646EA9385358B130585E2EF705A
:10476000003D01A0EFE09FE31C40FD171CC01C4072
:1047700089CB01452AC6EFE0DFE3324541016FB046
:10478000BFDBB707002083A70745E5D7B736002072
:10479000373500208147938686E5370F00201305C3
:1047A00045D0D14837030020370E0020854E59A848
:1047B000DC46DC47CC4F9053985790C503A80702BE
:1047C0002322B80003284700938587016313B800AC
:1047D00050C3104323A407027D1610C38C47D04753
:1047E000D84B1388470090C54CC24C4363930501D6
:1047F00050C3104323AA07007D1610C31307CF45EB
:10480000D0570C4363F3C50010C3330716032A9730
:104810004C4383AF85008CC723A6F70183AF850087
:1048200023A20F0123A405010C43D8CB85050CC39B
:1048300013074344184358576366E60013078E472F
:104840002320D70198422DF799C3EFF0BF9CB707FB
:1048500000201387C74604431384C74699CC370901
:1048600000208549EFF0DFD109C59307894723A0D0
:104870003701FD14E5F823200400B707002083A7C3
:104880008747E38807EEB7E700E0116723A0E7203A
:104890000545CDB519E5B7E700E0116723A0E7208E
:1048A0008280EFB2DFC7B707002083A747454111D9
:1048B0009DC38967938707807390073037D60000C0
:1048C00037D50000130646EA93059054130585E298
:1048D000EF70E02501A02AC6EFF0FFC83245814500
:1048E000EFF09F95EFF09FE411E5B7E700E0116767
:1048F00023A0E72041016FB0DFC4B707002003A762
:104900004745B70700209387874701C7054798C3E6
:10491000828023A00700B70700201387C7451843EC
:104920001386C745B7370020938747D05148B30651
:104930000703B385D700884115C5C841A106BE96B7
:104940004841C8C16314D5005441D4C1D146B3060F
:10495000D702B697DC43D447B707002023A2D74439
:1049600018C2828015E7EFB29FBB896793870780E3
:104970007390073037D60000856537D500001306E1
:1049800046EA938525C0130585E2EF70401A01A021
:104990007D1771BFEFB2BFB805E5896793870780C0
:1049A0007390073037D60000856537D500001306B1
:1049B00046EA9385C5C1130585E2EF70401701A053
:1049C000B70700202E8483A54744E105EFE0FFDB15
:1049D00085452285EFF05F866FB0BFB6EFB23FB47A
:1049E0002A8705E58967938707807390073037D654
:1049F0000000856537D50000130646EA938525C576
:104A0000130585E2EF70A01201A0B707002093877D
:104A1000474454432E858C4303A88600D4CD8C4351
:104A200023A0050303A807008C46610823A2050103
:104A300003A807009C43610823A4060198D71C43E0
:104A400085071CC311C27D55B285EFF0EFFE6FB034
:104A50005FAF5C45DC4795E7EFB27FAC8967938732
:104A600007807390073037D60000856537D5000082
:104A7000130646EA938525C8130585E2EF70200BDF
:104A800001A0D04F945398579385870114C6D0C284
:104A900050436313B60054C3144323A40702FD1606
:104AA00014C33707002003274745D45725EF8C4709
:104AB000D047D84B90C5D04748434CC29385470058
:104AC0006313B50050C3104323AA07007D1610C31B
:104AD000370700201307C74510436373D60014C37C
:104AE00051473386E60237370020130747D0329705
:104AF0005043084690C7C8C708464CC10CC6D8CB1F
:104B00001C43014585071CC3B707002083A7474402
:104B1000DC5763F8D700B7070020054723ACE7460A
:104B20000545828037370020130787E55043084644
:104B3000D0CF88D308464CC10CC698D7D1B7EFB2B6
:104B40001F9EB707002083A7474585E7896793879E
:104B500007807390073037D60000856537D5000091
:104B6000130646EA9385A5CB130585E2EF60307CFA
:104B700001A0B7070080DD8D5C450CC185E7896722
:104B8000938707807390073037D60000856537D547
:104B90000000130646EA938525CC130585E2EF60F5
:104BA000107901A050411445184914C61445D0C2CB
:104BB00050436313A60054C31443232805009047B1
:104BC000FD1614C3D447D84B9385470014C6D44769
:104BD000D0C250436313B60054C3144323AA070042
:104BE000FD1614C3370700201307C745D4571043D9
:104BF0006373D60014C351473386E602373700206B
:104C0000130747D032975043084690C7C8C7084695
:104C10004CC10CC6D8CB1C4385071CC3B70700206A
:104C200083A74744DC5763F7D700B7070020054741
:104C300023ACE7466FB0FF90B707002083A78746F5
:104C40001CC1B707002083A747475CC18280EFB231
:104C50001F8D411105E589679387078073900730A1
:104C600037D60000856537D50000130646EA9385E0
:104C7000D5CF130585E2EF60906B01A085E58967CC
:104C8000938707807390073037D60000856537D546
:104C90000000130646EA9385E5CF130585E2EF6031
:104CA000106901A02EC62AC4EFE05F8F37070020ED
:104CB000B70700201307474483A647471C432245F4
:104CC000B24583C7170599CB1C43A3880704054445
:104CD000EFE03F8E228541016FB0BF869C417D573A
:104CE0000144E387E7FE37060020032686460328B3
:104CF000050058416307C80063E5E60023A00500EE
:104D0000F9B73386E640E37BF6FE958FBA979CC1F0
:104D1000EFF09FF201446DBFB7070020054723ACB9
:104D2000E7468280B707002003A547448280B70783
:104D3000002083A70747054581CBB707002003A5BF
:104D4000474513351500060582804DC5EFB28FFB30
:104D5000370900209307494494435855130949449F
:104D6000D4566373D7081C4D63C807008327090016
:104D7000D457BD47958F1CCD51463307C702B7376F
:104D80000020938647D0938447D036975449639840
:104D9000E604930945002A844E85EFE0FFA18327AE
:104DA0000900370700201307C745DC5714435CD4BC
:104DB00063F3F6001CC35147B387E702A697D843B5
:104DC000144718C454C4144723A2360123243701BE
:104DD00098435CC8050798C305456FB0EFF5832776
:104DE0000900DC575CD5CDBF9C436841DC573335A7
:104DF000F500E5B70145828011E501458280014556
:104E00006FB02FF4EFB2AFF1B707002083A747448C
:104E10002A846385A7028967938707807390073088
:104E200037D60000856537D50000130646EA93851E
:104E3000F504130585E2EF60904F01A0BC4785E7BC
:104E40008967938707807390073037D600008565A0
:104E500037D50000130646EA93850505130585E25C
:104E6000EF60F04C01A054557841FD173CC5E38834
:104E7000E6F8D1F7930445002685EFE0FF937C40E8
:104E80003D471D8F18CC370700201307C745144333
:104E90005CD463F3F6001CC351473387E702B7378E
:104EA0000020938747D00545BA97D843144718C4C4
:104EB00054C41447C4C204C798435CC8050798C3C8
:104EC00081B775C1EFB2AFE534452A8485E68967BD
:104ED000938707807390073037D60000856537D5F4
:104EE0000000130646EA9385F509130585E2EF6095
:104EF000104401A07C4163F3B700AE8758546302AD
:104F0000F70A0546639FC608B706002083A64644F5
:104F1000639586028967938707807390073037D639
:104F20000000856537D50000130646EA9385A50B7A
:104F3000130585E2EF60B03F01A0144C5CD463C65A
:104F40000600BD46B387F6401CCC51463307C70266
:104F5000B7370020938647D0938447D0369754487C
:104F60006391E604130944004A85EFE0FF843707A4
:104F700000201307C7455C54144363F3F6001CC3B9
:104F80005147B387E702A697D843144718C454C4BF
:104F9000144723A226012324270198435CC8050750
:104FA00098C36FB00FDA8280B70700201387474499
:104FB00018439387474409C79443B8460507B8C6C2
:104FC00088438280EFB2AFD5EFE04FDD138481904C
:104FD0001C40A1E737350020130905E8130505E853
:104FE000EFE00FF937350020930445E9130545E953
:104FF000EFE00FF8B707002023AE27470146C14571
:10500000114523A09190EFE05F9C08C019C5B7D56A
:105010000000938545EEEFF04F93EFE08FD96FB02E
:105020004FD2EFB2CFCF4CC108C9AA876360B60296
:10503000184D158E05456379E6009385470003A555
:105040000190EFE08FF401456FB0AFCF6375D600EC
:105050000545E3FBD5FE93854700B707002003A570
:10506000C747C5B7EFB2AFCB2A84AE8432890C4CA8
:10507000A6864A86A6952285EFF0BFFA19E16FB0A1
:105080004FCC1C4C2285BE941C508297CDB7EFB2FA
:105090000FC9B707002083A7C7474111AA84DC477F
:1050A0002EC6C04713054400EFE00FF183474402CA
:1050B000324613F7470019CBA6852285EFF09FFAF9
:1050C0001C502285829741016FB0AFC7F99B230224
:1050D000F402FDB7EFB2AFC4370400209306C44713
:1050E00098421C4381EB93870190904398C390C2F0
:1050F0006FB02FC55C47FD558843EFF05FF9F9BFEE
:10510000EFB26FBF35694111B70A0020130909ECEE
:1051100083A7CA47984329CBDC47814C03AC0700DF
:10512000EFF06FC4EFF02FC583A741902A849384DA
:105130004190138A8190636CF50288C063800C04EF
:1051400083A7019090431336160003250A00B30588
:105150008C40EFF04F86EFF06FDD19EDB7E700E020
:10516000116723A0E72009A8854C014C55BFEFF03B
:105170007FF680C0EFF08FDB214C0DA00146E36687
:1051800085FDEFF0AFDAA2856285EFF05FF0EDB755
:105190009247B2458297824763DD070003250A00E4
:1051A00001468A85EFE09FBE25D582472245E3C1AF
:1051B00007FE22445C489DE3EFF0EFBB9C40AA8CC5
:1051C0006374F500EFF01FF1824723A09401FD17EF
:1051D000E366FCFC8A07CA979C4382871305440058
:1051E000EFE08FDDD1BF834744020C4C924693E73A
:1051F00017002302F4026686B6952285EFF07FE25F
:1052000051DD8347440213F7470001CF1C4C924500
:1052100066862285BE95EFF0FFE41C5022858297BA
:10522000B5BFF99B2302F402CDBF83474402F99B2B
:105230002302F402A5B783474402924593E717007F
:105240002302F4020CCC9DE1896793870780739059
:10525000073037D6000037D500001306C6EE930599
:105260009035130585E2EF60900C01A0E686668616
:10527000E6952285EFF0FFDA15B78347440213F76E
:10528000270055F72285EFE0AF9209BFEFB22FA9B3
:10529000EFF05FD383A781909DE3896793870780B1
:1052A0007390073037D6000037D500001306C6EEDE
:1052B00093059011130585E2EF60700701A0B7D543
:1052C0000000375500009387C19039478146130687
:1052D0000008938545F013050510EFF04F8055DD6C
:1052E0006FB02FA6EFB2AFA34111B68732C63E868C
:1052F0002AC203A5819079572EC481468A853AC077
:10530000EFE05F9641016FB0CFA383A7818037178D
:105310007A0013070720B3D7E70293F7F70F238923
:10532000F1901307803EB387E7022398F1908280C3
:10533000EFB2EF9E01112A84854537050200EFD0B8
:10534000BF8485451145EFD05F8291477C82371538
:1053500001408D473EC44C00E147130505803EC621
:10536000EFD0CFC022C837440040B70708000C0870
:10537000130504403ECC02CA231E0100EFD07FC6B5
:10538000854513050440EFD09FD105616FB06F9B39
:10539000EFB24F97B7440040AE89328901449384FD
:1053A0000440634524014A856FB00F9993050004BA
:1053B0002685EFD0BFD07DD9B387890083850700CC
:1053C00026850504C205C181EFD0DFCED9BF138782
:1053D00081811C43B7360020938606ED3E95636BB2
:1053E000D500B75600209386068063E5A60008C363
:1053F0003E858280FD57EDBF732510348280732572
:1054000020348280732530348280EFB24F91502156
:10541000B7350020138785EA30A71C4193D6E700F3
:10542000898A93F7F77F1CC314B78147050763CFB9
:10543000C70037650040938585EA13050540EFC036
:105440007FD771153335A0006FB0AF8FB306F5006D
:10545000D432850734A7D9BFEFB26F8C1145EFE086
:105460002FF823A0A1920D4681450545EFE0EFD529
:1054700023ACA1900D4681450545EFE00FD523AE45
:10548000A19005456FB0EF8BEFB26F8903A5019234
:10549000FD55EFE0BFC17D15133515006FB06F8A64
:1054A000EFB2EF8703A50192EFE06FF67D1513359C
:1054B00015006FB00F8901C9EFB26F868145EFC04B
:1054C000FFE36FB00F8882801C4191CFEFB22F8530
:1054D0002A8485453E85EFC07FE285476313F5004A
:1054E00048C86FB00F868280EFB26F835D712A84E7
:1054F0002E89B284814513060002081836C63AC4C4
:105500003EC242C0EFB0AF847D556304041A63828B
:10551000041A2247630F0718B246232A040023AA5D
:10552000819013B6160210CC9247232E0400054634
:10553000024810D02320240144C016A458C41EA839
:105540002319040023120402232404022686814521
:105550006396D5048146E145139606014182636B4B
:10556000F6048D47A309F1029307B040231AF10214
:1055700085473EDEBEC2930740066303F81463E22C
:105580000705D1476303F81493072003630CF8124F
:10559000A9476315F8129307802599A08505C205D0
:1055A000231006002AA22322060023240600C1811C
:1055B000310679BF3386B60285063A96232806005F
:1055C00061BF9307401F6309F80E9307803E63088D
:1055D000F8009307A00F6313F80EA14711A08947A5
:1055E000376400400C18130504402318F102EFC083
:1055F0007F9C8547A303F10223040102EFB00FF360
:105600008D6716055D8DE887EFB04FF2916716053F
:105610005D8DE886EFB08FF1996716055D8D2311DA
:10562000A102EFB0AFF0E17716055D8D2310A10266
:1056300085446808231201022303010226D6EFC025
:10564000FFA5EFB0AFEEE97716055D8DE887EFB007
:10565000EFEDF17716055D8DE88685476808230331
:10566000F10202D023129102EFC05FA39305004024
:1056700013050440EFC03FE7854513050440EFC024
:105680009FE6894513050440EFC0FFE5C1451305BA
:105690000440EFC05FE50546930530411305044023
:1056A000EFC0FFCC37D500001305C5F0EF6060599F
:1056B000014561616FA0FFE891471DB7C1470DB774
:1056C000D14739BF9307800721BF9307C01209BF95
:1056D00011C9084101C9EFA29FE48145EFC01FC273
:1056E0006FA03FE68280AA887D5563860804A1C723
:1056F0006303080403D3880063FF650231453385E3
:10570000A50283A548001376F67FAA95DCC123A4E1
:10571000050109EF85679387078093F6F67FDD8E95
:1057200092A1B6A183A788010145828085679387EE
:1057300007805D8EC5B78280014815C98358050171
:10574000014863F615036148B38505030328C500C6
:10575000B336D0001376F67FBE06558E2E982328DA
:1057600008002320C8002302E800232AF80042850D
:1057700082801C5599C73E292324050293F707CF41
:105780003EA98280EFA2BFD99C492A84AE840149F8
:1057900081CB1C515D5989E73E2993E787003EA9DB
:1057A000EFD0DFDF2685EFF05FC601C9DC485CCCB7
:1057B000EFD03FE04A856FA0DFD885479CC85E30B8
:1057C0008507C207C1835EB0E5B7EFA25FD583A7A7
:1057D000419123A0070223AE0700DA334207418339
:1057E00005C3C44713844191EFD05FDB1C4003D94C
:1057F0000701631909001C4023920702EFD07FDBE9
:105800006FA03FD49C4899CF2685EFF01FC019C9DF
:10581000184023A804005E33FD17C207C1835EB39E
:10582000DC485CCF7D19420913590901E104D1B765
:10583000EFA2FFCE011137650040328493F5F50FDA
:10584000700013050540EFC0BFA2B24703465101E7
:10585000894693F7F77F01476313D6002167D98FF5
:10586000B8831CC08347E1015AA0B8845CA47AA025
:10587000B8851AA4B8863AA405616FA09FCCEFA2A0
:105880001FCA373400201306C4EBEFF07FFA03A7DA
:1058900041919304C4EB90405C43182701CF9623B9
:1058A000AE23B18EED8E89EA984709C7C8439305A8
:1058B000C4EB02976FA0FFC87D171377F70FB107EE
:1058C000F1BFEFA2DFC53765004093050040130527
:1058D0000540EFC05FB419C1EFC00F806FA07FC655
:1058E000D821A1476311F71A7C41639E0718EFA2E4
:1058F0007FC1C431914741112A84639AF404FC2189
:1059000099C705476383E70441016FA0FFC21849A7
:1059100085470149631EF700834705041307F00F0D
:105920006398E700585D18236304F70024C5054910
:10593000232804004146814513054401EFA03FC1DF
:10594000E30409FC85477CC0C1B71CC975BF1C496D
:1059500063930712930720046383F40A63E29702B8
:10596000930700046385F40893071004E39EF4F89A
:10597000114699056800EF50F071B2471CCC69B729
:10598000930730046385F40893071005E39EF4F64B
:105990005C5D1307F00F9C23E398E7F603470504CB
:1059A000E314F7F6A425FD4763F697009307000874
:1059B000E39CF4F483C9B5008D47E3E737F503C9E9
:1059C000C500E3E327F5114699056800EF50906C98
:1059D000930700086399F406230A040241468145AF
:1059E00013054402EFA0BFB69307100599A811460E
:1059F00099056800EF50106AB2475CC831B711468C
:105A000099056800EF501069B2475CCCF5BD1146AE
:105A100099056800EF501068B2475440184C1CD0EC
:105A2000E394E6EE1444584CE390E6EE5844E39DCC
:105A3000E7EC18405C48E319F7EC85471CC893076E
:105A400030043CC401B703474403E31F37EB93170B
:105A50002700A2979443B247B58FFD56B3969600A0
:105A6000F58FE39307EA230A2403BDFCE37EE9F6FE
:105A700085471CC895BF214695051305C504EF5001
:105A8000706124C4C1B58280EFA2FFA641CD59CA7E
:105A9000D1CA49CB6388080803C30600131E8301DB
:105AA000135E8E416346C001130EF00F631CC307E3
:105AB000328AAE8B1306400781452A844689B68414
:105AC000428BBE8ABA89EFA09FA84146DE85228517
:105AD000EF50505C44DC23280400230A0402232CEA
:105AE00044039C20376800001308088E2300F40448
:105AF0000147A2879306F07F5A86D68523220404A5
:105B00004E85EFF05FBE0356410383550103AA841F
:105B1000232624078147214781464A85EFF0DFC1CC
:105B200028D811E1FD5426856FA07FA07C41638EAB
:105B30000718EFA2DF9E2A8428594111214681458A
:105B40001505EFA0DFA03C44130730046385E70A86
:105B5000636BF7044D47638DE70C636FF7001147E4
:105B600005456386E7004547638CE7080145232226
:105B7000040441016FA0FF9C55476386E7105D4711
:105B8000E396E7FE7C50054591CB145C585C2854A5
:105B900092220C2382971335150006053C58384491
