:100000006F10B00213000000130000001300000086
:100010001300000013000000130000001300000094
:100020001300000013000000130000001300000084
:08003000130000007300100032
:10003800000000000000000026080000280800005A
:1000480000000000C21700000000000000000000CF
:10005800C4170000C61700000000000000000000E0
:100068003839000000000000000200000000000015
:10007800CC170000CE170000D0170000D2170000E0
:10008800D4170000D6170000D8170000DA170000B0
:10009800DC170000DE170000E0170000D22F000078
:1000A800E4170000E617000014300000F22F0000EB
:1000B800EC17000034300000F0170000482C000056
:1000C8001E2D0000802D0000E42D0000FA1700000E
:1000D800FC170000FE1700000018000002180000BE
:1000E80004180000D0320000081800000A180000A8
:1000F8000C1800000E1800001018000064320000F0
:100108006832000016180000181800001A180000BD
:100118001C1800001E1800002018000022180000FB
:10012800241800002618000028180000000000000D
:080138000000000000000000BF
:10020000130181F806C216C41AC61EC822CA26CC1B
:100210002ACE2ED032D236D43AD63ED842DA46DC76
:100220004ADECEC0D2C2D6C4DAC6DEC8E2CAE6CC46
:10023000EACEEED0F2D2F6D4FAD6FED8F3220030CF
:1002400096DA9702002083A2222023A02200F32521
:1002500010342EC003A18183EF40705B1703002090
:100260000323831E03210300824273901234D6526B
:10027000739002309240A2423243C2435244E2445D
:10028000724582551256A2563257C2575258E258FA
:1002900072598649164AA64A364BC64B564CE64C0E
:1002A000764D865D165EA65E365FC65F13018107DA
:1002B0007300203013000000130000001300000042
:1002C00013000000130000001300000013000000E2
:1002D00013000000130000001300000013000000D2
:1002E00013000000130000001300000013000000C2
:1002F00013000000130000001300000013000000B2
:1003000083A28183938202E073900234170100205C
:1003100003218113024182403243C2435244E244EA
:10032000724582551256A2563257C2575258E25859
:1003300072598649164AA64A364BC64B564CE64C6D
:10034000764D865D165EA65E365FC65FD652A1020A
:1003500073900230A24213018107828013000000D3
:100360001300000013000000130000001300000041
:100370001300000013000000130000001300000031
:100380001300000013000000130000001300000021
:100390001300000013000000130000001300000011
:1003A0001300000013000000130000001300000001
:1003B00013000000130000001300000013000000F1
:1003C00013000000130000001300000013000000E1
:1003D00013000000130000001300000013000000D1
:1003E00013000000130000001300000013000000C1
:1003F00013000000130000001300000013000000B1
:10040000F322003093F272FF130380181203B3E259
:100410006200711523205500130585FA10C12115BE
:10042000232005009302000063870200711523203A
:100430000500FD12D5BF71150CC1828000000000BF
:1004400000000000000000000000000000000000AC
:10045000000000000000000000000000000000009C
:10046000000000000000000000000000000000008C
:10047000000000000000000000000000000000007C
:10048000000000000000000000000000000000006C
:10049000000000000000000000000000000000005C
:1004A000000000000000000000000000000000004C
:1004B000000000000000000000000000000000003C
:1004C000000000000000000000000000000000002C
:1004D000000000000000000000000000000000001C
:1004E0000000000000000000000000000000397162
:1004F00001436EC619A0397141536AC866CA62CCFD
:100500005ECE19A0397101535AD056D252D44ED66C
:100510004AD826DA22DC06DE3301614082824111AC
:100520004AC026C222C406C68282B24D4101024D93
:10053000924C224CB24B4101024B924A224AB249A0
:100540004101024992442244B240410182803D432C
:100550002A876373C3029377F700BDEFADE5937607
:1005600006FF3D8ABA960CC34CC30CC74CC7410763
:10057000E36BD7FE11E28280B306C3408A0697027E
:10058000000096966780A6002307B700A306B70071
:100590002306B700A305B7002305B700A304B700DF
:1005A0002304B700A303B7002303B700A302B700D7
:1005B0002302B700A301B7002301B700A300B700CF
:1005C0002300B700828093F5F50F93968500D58DB3
:1005D00093960501D58D61B7939627009702000089
:1005E00096968682E78086FA9680C1171D8F3E9682
:1005F000E374C3F8A5B7370500201305C53C828016
:10060000370500201305853C8280B707002023A80A
:10061000A73C8280EFF23FEEB70500203971938549
:10062000453C014537040020EF7050592320A43C7D
:100630001304043C19E1EF00B01F1C4037070020F1
:100640000327073DDC4398C3EF500069EF50C06BB0
:10065000F5262313A10202D6A5291C40A302A1025C
:10066000DC43884323AA0700EF50E06C1C40C843DA
:10067000EF50E07F0840035661025C418C43EF700D
:10068000106419C1EF00D01AB70700209387C7275D
:1006900098530840930661023AD8D8531306510282
:1006A0000C183ADA9857DC573ADC3EDEEF7090646B
:1006B00019C1EF00F01783A6C18103495102032A33
:1006C000040036CEF9268967C507C98FF24613079D
:1006D000401F9309C102C2073AC04EC64AC402C2B3
:1006E0009308803E1308401FC1830147014681459E
:1006F0005285EF70706311C5B5576304F500EF00C4
:100700003013084003A6C1814E874C49CA86EF705A
:10071000306D19C1EF00D0111C409C4399C3EF000C
:1007200030111C40B70400208969C843130A803E79
:10073000EF50606123AA043CEF50805EEF40E0542C
:100740002A8902D49384443D938909719C4089CBC2
:10075000B707EFBE37E700E0938707083CC7FDBF48
:10076000A25503A54191B3D54503EF301060EF507A
:10077000A0594ED4EF40605133062541330646035D
:10078000AA8A0840341081455689EF70F07088C0FD
:1007900003A58191814601468145EF307011EF50EC
:1007A00020586DB7EFF21FD64111EF50E055EF40E2
:1007B000C04D89692A8402C6130A803E9389097153
:1007C000370B0020EF50C055B24503A581911309A6
:1007D0000B3CB3D54503A284EF303059EF50C052E3
:1007E000832709004EC695CFDC43DC4B9DCBEF4001
:1007F000C049AA84032509001C4185E75C41DC4B04
:100800008DC33384844033044403740081452286BD
:10081000EF70707003250900740022868145EF7027
:100820009073268445B701A039712AD637D50000C8
:10083000130585C006DE16DC1ADA1ED832D236D091
:100840003ACE3ECC42CA46C872C676C47AC27EC090
:100850002ED4EFB02041EF50E038AA8537D5000004
:100860001305C5C1EFB0C02EEF502038AA8537D58B
:1008700000001305C5C2EFB0A02DEF506037AA8568
:1008800037D500001305C5C3EFB0802C01A0EFF2EF
:100890007FC7EF10205A37F50008B704002037F45F
:1008A0000008EF10205F93840400914913090401AC
:1008B0008C402285EF108061631A350198401C40FE
:1008C0006316F70011049104E31424FFEF1020587D
:1008D000A5B1B707002003C70738630C070EEFF276
:1008E0001FC437F40008042037D50000130505C7DE
:1008F000A68513890738EFB0A0259307700663809B
:10090000F40237D500001305C5C5EFB0A035413757
:100910000C2037D500001305C5C6EFB0602337049F
:100920000020B7F70008130704009386070113049B
:100930000400902385070507A30FC7FEE39BD7FE9E
:1009400083A7C181130684000547C84385468545B2
:100950001305C51223000900EF60803083A7C18111
:10096000130694000547C843854689451305C512FB
:10097000EF60002F83A7C1811306A4000547C84379
:1009800085468D451305C512EF60802D83A7C18173
:100990002D042286C8430547854691451305C51297
:1009A000EF60002C83A7C18122860547C843854696
:1009B000854513058513EF60A02A83A7C1810547EC
:1009C0008546C8432286894513058513EF60402973
:1009D0008DBE8280EFF2BFB4B70700209387070077
:1009E0003E950CA16D35B1BEEFF27FB3B707002085
:1009F000938707003E9513D7850041110CA118B1CC
:100A00006C877135410135BEB707002083C70738B1
:100A100099CFEFF2DFB041112AC6653D3245B707E5
:100A2000002093870700AA978823410119BEB707C2
:100A3000002093870700AA9788238280B7070020A9
:100A400083C707388DC7EFF29FAD6135B707002028
:100A500083C717001D471305D0076369F700139775
:100A60001700B5679387C7C4BA978A23D9BCB7075D
:100A7000002083C717001D471305D007636AF700DE
:100A800013971700B5679387C7C4BA978A238280E4
:100A90008280B707002083C7073899CFEFF23FA8BD
:100AA0000D3DB707002003C7370085470145631494
:100AB000F7001305001071B4B707002003C7370013
:100AC000854701456315F700130500108280828079
:100AD000B707002083C7073889CBEFF25FA4D53B67
:100AE000B707002003C52700A9BCB707002003C52E
:100AF00027008280EFF2BFA237140140EF20C055DB
:100B0000130504C08565EF20006DA96513050480F9
:100B1000938585FDEF2020639565130504C09385BB
:100B20001580EF204062B96537150140EF20A061C4
:100B30001305048093050002EF202063130504C011
:100B40009305E00FEF206062130504C0E1463746CD
:100B50001D0093050020EF20A06393068004374614
:100B60001D00130504C093050010EF2060621305FB
:100B700004C08565EF20C05A130504C09165EF20BD
:100B8000805C130504C0E1460146A965EF20406082
:100B9000B70418001386042013050480E1468D4530
:100BA000EF20005F13860420130504C0E14693057F
:100BB0000040EF20E05DB7160000B79598009386DF
:100BC00086FD1306803E938505680945EF20207E4B
:100BD000B775DC029D461306803E938505C005452A
:100BE000EF20D0063745004013050580EF20206038
:100BF00085450545EF10206D6FF0BF949D4763EA72
:100C0000A704EFF2DF91B567938707C80A053E9501
:100C10001C418287371501409305000213050580AA
:100C2000EF20A05A6FF0FF91894537150140130559
:100C300005C0FDB79145D5BFA145C5BFC145F5B7B5
:100C400093050002DDB793050004C5B793050008BE
:100C5000E9BF01458280370500201305853E82806B
:100C6000EFF2FF8B0111A1475C84B7070020938747
:100C7000873D3EC8B70700209387073E2D453EC6F7
:100C80006133230BA10029454133A30BA100254566
:100C9000A53B230CA1002145853BA9473305F5025F
:100CA000B71700009387C7BF3ECEE8822800EF1039
:100CB000704805616FF0FF88EFF27F865537EF10BF
:100CC000D046EF40602EEF10F04BD5BFEFF23F85DE
:100CD0003705024013058505EF20C0173744004053
:100CE0001305048093050004EF10E07113040480E1
:100CF0008544930500082285EF104070E30B95FEB4
:100D0000371501408565130505C0EF20C04C6FF015
:100D10005F83EFF2DF80EFA0702BB7D7000003A650
:100D200087CC83A6C7CCEF90F057B7D7000003A6B7
:100D300007CD83A647CDEF90206AEF705024B7D738
:100D4000000003A687CD83A6C7CDEF90B055EFA0D6
:100D5000301B420541816FF0CFFEEFF24FFC371898
:100D6000000037070020B74600403705024013084F
:100D7000C8CC81471307873F9386C6800D468545BB
:100D800013058505EF20E00D0945EF20A05B054523
:100D9000EF20405B6FF0EFFAB70700209387073F23
:100DA0003E95A30FB5FE8280B70700209387C73E0C
:100DB0003E95A30FB5FE82801307F0036369A70079
:100DC000EFF2EFF5B9372392A1806FF08FF7930719
:100DD000A0052392F1808280B70700201387473F48
:100DE000FD567D1516A334A31375F50F2147938780
:100DF000473F6369A7023567130707CA0A053A9593
:100E000018410287A3800700238107008280238086
:100E10000700DDBF239007008280A3800700828047
:100E20002380070082801307F003636BA700EFF2B3
:100E30000FEFC535370700202311A7386FF06FF08B
:100E40009307A005370700202311F7388280EFF2BF
:100E50000FED1945553E493711457D36B13F1545D2
:100E60006536D1371306903E9D450545EF20806ECF
:100E700081450545EF20E0756FF0AFECEFF22FEA0A
:100E8000B705002083D7E53F1307A0059385E53F0D
:100E90008507C207C183636CF7109EA1B7070020C6
:100EA0009387C73E98239033B423370500203368D7
:100EB000C700B707002033E80601130515389387EC
:100EC000073F63080810B70800209388C83F03D87D
:100ED000080015631303437E0508420813580801F0
:100EE00023900801637B0301034805002390080059
:100EF0007D183338000123000501034E0500054528
:100F000003C3070083C8170003C827006314AE0A91
:100F1000336767003366160198A390B3B3E6060102
:100F2000B4A3370700209306873F03C80700883320
:100F3000B023B7070020239006002381060083D842
:100F4000050083D627389307873F63F6D802B70694
:100F500000209386463F3367A8008C22518F1347A9
:100F6000F7FF1377F70FF98DACA38C32B422F98D0C
:100F7000758F8CB398A303D74180636D1701B82395
:100F80003368E800983323810701598D982388B38B
:100F9000598E90A3370402408D4513058405EF0058
:100FA000306713058405EF10106A6FF08FD9239016
:100FB0000500EDB51347F7FF1346F6FF33776700DB
:100FC0003376160193C6F6FF98A390B3B3F60601E5
:100FD00081BF054718A1B1B7EFF26FD437150140B3
:100FE0008565130505C0EF20C01F493D6FF06FD523
:100FF000EFF2EFD21145EF10E015A523EF40B02F2F
:10100000716513050520EF407031ED34892DEF0037
:101010004077EF006074EFF0DF8B153D712C376582
:10102000004013050540EFF04FDEEF30503B01A0CC
:1010300099677390078001A0A54721C19DCD95CEEA
:10104000034815018948B9471307F8FF1377F70FCD
:1010500063E5E802EFF2AFCCAE848C2141112A8423
:10106000428536C632C48933B2462246A6852285D9
:10107000EF50301E41016FF0CFCC3E8582801DC104
:1010800025459DC195C28C213D4593978501E187FA
:10109000635CF000EFF2AFC80945EFF0BF93014584
:1010A0006FF02FCA2545828082800DC125458DC1F4
:1010B00085C28C219D473D4563ECB700EFF22FC6FA
:1010C0000545EFF03F9101456FF0AFC725458280A0
:1010D0008280A54751CDC9CDC1CEEFF24FC41C3996
:1010E00085462E8413F7B7FF7D171377F70FAA8471
:1010F00063E2E6028C211307F0036376B700BD4775
:101100003E856FF00FC40947638BE704636CF702F9
:101110006384D70494380546B9471387D6FF1377FD
:10112000F70FE36FE6FC0C2021479387F5FF93F759
:10113000F70FE366F7FC91476388F6022E8569395D
:1011400081477DBF1547638FE70019471545E39336
:10115000E7FCEFF03F887DBF2E85B93965BF2E854E
:10116000D9314DBF1145F5B71945EFF0BF86C9BF5D
:101170003E858280EFF2AFBA4111254921C19DCD54
:1011800095CE1C39094739491388F7FF636807036F
:10119000AE848C212A843E8536C632C4F53E224672
:1011A000B246A6852285EF50D00A90200C382A89B5
:1011B00037D50000130505D0EFA090194A854101ED
:1011C0006FF02FB80DC125458DC185C28C21854793
:1011D0003D4563ECB700EFF28FB40D45EFF08FFFA4
:1011E00001456FF00FB6254582808280A5472DC14D
:1011F000A5C1B9CEEFF20FB11C3909473689B289C2
:101200002E84AA846380E7046369F7000547638F2F
:10121000E700BD473E856FF02FB20D476387E702B9
:101220001147E398E7FE8C212D4519A08C2121451B
:10123000EFF04FFACA864E86A2852685EF507001E0
:101240008147C9BF8C212545E5B78C212945CDB7FC
:101250003E85828039C9EFF2EFAAAA844111254563
:10126000B1C1A9C29C380547B68932892E84638DE5
:10127000E70009473D456397E7029C2139455C87B4
:101280009C31DC872C8739A09C2131455C879C31BF
:10129000DC872C87EFF04FF5CE864A86A28526851F
:1012A000EF50207B41016FF02FA925458280370543
:1012B00000201305C5408280EFF26FA6EF10406654
:1012C0001841B707002023A4E74083A7C181DC436E
:1012D0009386C70FA5E2370700201307070523A849
:1012E000E7101387471125E337070020130707038B
:1012F00023A4E7121387871625E337070020130777
:10130000070623A2E7161387471425E337070020B3
:101310001307070923AAE7121387871325E303A7F7
:1013200047109307C70035C3370700202320F74035
:101330006FF02FA1370700201307070423A2E7103F
:101340001387871049FB370700201307070223AED6
:10135000E7101387071249FB370700201307070719
:1013600023A8E7161387C71549FB37070020130783
:10137000070123A6E7141387C71249FB370700208C
:101380001307070823A0E714D9FA814771BFEFF2CA
:101390008F963569B7090020370B0020B70400206D
:1013A000B70B0020130909CE4E8A0545EF30D03F18
:1013B00013048B400840EF30A03C65D908407D56AF
:1013C00093854440EF300004138C444083470C0065
:1013D0001D4713847B406366F7088A07CA979C43BE
:1013E000828785471CA083A7C18105478546C843DE
:1013F0001386694085451305C50FEF5030038346BA
:101400001C009307000813076A40639FF6041C231F
:101410001420D58F1CA383A7C18105478546C843E7
:1014200013066A4085451305C50FEF507003B707D3
:10143000002083A70740B5DB9823759B98A3B5B719
:1014400089474DB7914779BFA14769BFC14759BF88
:101450009307000241BF9307000469B7930700F8A0
:1014600051B72300040041B71C20142393C7F7FF92
:10147000F58F4DB7B71702409843B706FFF84111F3
:101480001367170098C3D84337060200758FD8C377
:101490009843B706F7FEFD16758F98C39843B706B5
:1014A000FCFFFD16758F98C3D843B70681FFFD1664
:1014B000758FD8C337079F0098C702C402C69843E8
:1014C000C166558F98C3B716024005679C42F18FDD
:1014D0003EC6A24785073EC4B24781E7A247E397CD
:1014E000E7FEB71702409C431397E70063590706CE
:1014F00085473EC6324785476311F706B717024056
:10150000D843B706C1FFFD1613670708D8C3D843F1
:10151000D8C3D84313670740D8C3D843758FD8C3FF
:10152000D843B7063D00558FD8C39843B70600018E
:10153000558F98C3984393166700E3DD06FED843A2
:10154000B7160240719BD8C3D84313672700D8C38E
:101550002147DC42B18BE39EE7FE4101828002C657
:1015600051BFB7160240DC421146B18B1387818010
:101570006385C70021466388C702B7177A0093873F
:1015800007201CC3B7170240DC43918393F6F70092
:10159000B70700209387070AB69794231C43B3D755
:1015A000D7001CC38280DC42D4424166C983BD8B14
:1015B000F18E890745466393C700C94781EEB74658
:1015C000024083A60680C18A89CEB7167A00938628
:1015D000062021A8B7160240D4421396E600E3562F
:1015E00006FEB7163D0093860690B387D70251BF1B
:1015F000EFE2FFF2EFF06FF637040020032504411D
:10160000854513040441EF20C06508407D5781469D
:1016100001468545EF20A04713054006EF30D0185E
:10162000EF10F07CDDB7B7270020938787171CC128
:10163000B72700209387C7D59CC1930700081CC219
:101640008280B7270020938747211CC1B72700203D
:101650009387C7F59CC1930700081CC28280EFE204
:101660001FECB1312A8437280020B7170020B7D5E6
:10167000000037150000130848A9938747692947D8
:10168000854613060010938505D11305E538EF3024
:10169000A04A08C0EFF02FDC2A8437180020B717C3
:1016A0000020B7D5000037150000130808649387A1
:1016B000074415478546130600089385C5D11305D1
:1016C00085CBEF30604708C0EFE09FF32A84B7D5A1
:1016D000000037050000138881D293878192154757
:1016E0008546130600109385C5D21305457AEF3061
:1016F000A04408C0EFE03FF02A8437180020B71755
:101700000020B7D50000370500001308C83E9387B6
:10171000C78F1D4785461306C02B9385C5D3130578
:101720004561EF30604108C037280020B72700200E
:10173000B7D5000037150000130888CE938787AE11
:101740000D47854613060008938505D51305055FEB
:10175000EF30803E6FE0FFDEEFE27FDCEF10401CF9
:10176000B7260020372600202A8401479386C61C0E
:101770001306C6D389454145EF20900108C06FE0AC
:101780005FDCEFE2DFD9372500201305C515EF2018
:101790000029B707002023A8A7406FE09FDAEFE2F7
:1017A0001FD8B707002083A50741374500008146B1
:1017B00005461305A5D2EF40A0316FE09FD801A0E8
:1017C00001A001A001A001A001A001A001A001A011
:1017D00001A001A001A001A001A001A001A001A001
:1017E00001A001A001A001A001A001A001A001A0F1
:1017F00001A001A001A001A001A001A001A001A0E1
:1018000001A001A001A001A001A001A001A001A0D0
:1018100001A001A001A001A001A001A001A001A0C0
:1018200001A001A001A001A001A097F1FF1F9381D9
:101830006135173100201301E17C17C50000130545
:10184000A5EC97E5FF1F9385E57B1386018463FA7A
:10185000C5008322050023A0550011059105E3EA88
:10186000C5FE17F5FF1F1305E5B5971500209385F5
:10187000A5106377B500232005001105E36DB5FEC3
:10188000FD42739002BC894273904280B7220000EF
:101890009382028073A0023097E2FFFF9382027A64
:1018A00093E2320073905230EFF0DFBC97F2FFFF0B
:1018B0009382427473901234730020301841AA87C7
:1018C000759B18C118411367170018C14167D443AD
:1018D000858A99E27D1765FFD8430145058B49CF7D
:1018E00094450547639BE608984313670708D4456A
:1018F00098C305476397E60898431367070494491C
:1019000098C305476393E608984313670702D449D1
:1019100098C30547639FE606984313670701944DF4
:1019200098C30547639AE606984313678700D44D2A
:1019300098C305476395E60698431367470098C325
:10194000B821B4317A07E206558FD421C206558FEB
:10195000D431D206558F9621FD16558FD8CF984396
:10196000799B98C34167D443858A99C27D1765FFE7
:10197000C8431345F5FF0589828098431377F7F72D
:10198000BDB798431377F7FB9DBF98431377F7FDD7
:10199000BDBF98433D9B61B798435D9B49BF98434A
:1019A0006D9B71BF376700401307074083260720F0
:1019B0003C25054893E616002320D7208325C72120
:1019C0003316F8009346F6FFF58D232EB7204C25ED
:1019D000C5E58325C720035825008E07F58D2326EE
:1019E000B7206E21BA975A21C205B3E5050123A09D
:1019F000B7240E2142074D8F23A2E724B7270240C8
:101A0000985BB707000FF98F99EF3767004093078E
:101A10000730130707408E239107C205C181239E1B
:101A2000B7EEE39AE7FE3835B76700409387074083
:101A30002DEB03A74720758F23A2E7201A25B76750
:101A400000409387074035E303A74721F98E23AA77
:101A5000D720184985476319F700B767004003A7E7
:101A6000C761598E23AEC760B767004003A7076000
:101A7000799B23A0E7608280E39205F98325C72044
:101A8000035825008E07D18D2326B7200E21BA9743
:101A90005A21C205B3E5050123A0B72442076E21F0
:101AA00099BF03A74720518F41BF8546E313D7FA5B
:101AB00003A74721518F23AAE72061BF1C45139735
:101AC0005700634E07081C4513974700634B0708F0
:101AD0001C45914613973700635107088946939731
:101AE0004600AA9703A70718058B23A0E71890259F
:101AF000883535EA984103A607185607498F518F54
:101B000023A0E718B8253D8BB8A503A64718419A2E
:101B100023A2C71803A64718518F23A2E718D02580
:101B2000B8352206598ED8354207598EF8256207F6
:101B3000518F23A4E7189029F8352206598E983939
:101B40004207598EB8296207518F23A6E71803A7C9
:101B500007181367170023A0E7183685828081468F
:101B6000BDBF8546ADBFD84103A807180E07498FF2
:101B7000518F3367070169B793974500AA9703A769
:101B8000071B118B18A62DE703A7071B558318C247
:101B900003A7071B098B18B603A7471B3D8B38A665
:101BA00003A7471B218338BA03A7871B38B603A7AF
:101BB000871B218358A603A7871B418358B603A719
:101BC000871B618378A603A7C71B78B603A7C71B2B
:101BD000218318AA03A7C71B418318BA83A7C71B71
:101BE000E1833CAA99E95C4593E707025CC58280E2
:101BF00003A7071B0D8358C261BF1C4993E7070267
:101C00001CC982808DE51C418546F19B93E7170036
:101C10001CC1C16758410D8B6304D700FD17FDFB44
:101C20005C418D8BFD1793B717003E8582808547F9
:101C3000639EF5001C41F19B1CC1C16758410D8B8F
:101C400019C3FD17E5FF5C418D8BF1BF0947814743
:101C5000E39DE5FC1C418946F19B93E727001CC1ED
:101C6000C16758410D8B6304D700FD17FDFB5C4134
:101C70008D8BF9174DBF5C4901C6DD8D4CC9828043
:101C800093C5F5FFFD8DDDBFB707F000ED8F89CB64
:101C9000104D3375B600320531813335A000828096
:101CA0009397750063D60700544133F5B600E5B746
:101CB0009397450063D5070008456D8DE9BFB706CA
:101CC000100093976500FD1663D7070058453375DC
:101CD000B700758DD9B71C4933F5B700DDBFB7071D
:101CE000F030938707076395F500232C0500828069
:101CF0009397C50013976500B183635407005CC5D3
:101D0000828013975500635407001CC98280139783
:101D10004500635407001CC582805CC18280930724
:101D200000106386F50663E7B702A1476388F506EE
:101D300063E9B7000547638EE50411476381E50653
:101D4000828013070002638FE50493070004638A0F
:101D5000F5048280938705808DCB85679387078004
:101D600063EBB700930700206383F50293070040FD
:101D7000638FF5008280C1676388F502B7070200B0
:101D80006387F502A1676393F502232C0500914751
:101D900029A8C167938717101CC58280C1475CC5FD
:101DA0008280C1471CC98280A1475CC18280C14733
:101DB000EDBF1C4161773D0794517D8F9C45D58FC8
:101DC0009449D58FD449D58F944DD58FD44DD58F87
:101DD000D451D58F9455D58FD98F1CC1DC455CC1AA
:101DE0009C411CC5DC415CC582801C4189C593E7D0
:101DF00017001CC1828041677917F98FDDBF1C4134
:101E000001C6DD8D0CC1828093C5F5FFFD8DDDBF60
:101E10004CC18280B70702409C437D8D3335A000C2
:101E20008280EFE2CFEFFD376FE0AFF1B7070240FE
:101E3000C8C38280B70767453727024093873712A8
:101E40005CC3B797EFCD9387B79A5CC3828037277F
:101E500002401C4B93E707081CCB828037270240C7
:101E60005C470545858B91E7484741891335150047
:101E70000D058280EFE2AFEA2A848544C5376318F6
:101E8000950019E0154529A0D13F7D14CDBF7DD81F
:101E90006FE02FEBEFE2AFE8AA8437050B00D93FE4
:101EA00091476313F502372402401C4837050B00A5
:101EB00093E727001CC844C81C4893E707041CC8C4
:101EC000553F1C48F59B1CC86FE0AFE7EFE28FE37E
:101ED00041112A891565AE8402C69149613F631B91
:101EE0003503372402401C48156593E717001CC8CA
:101EF00093970401C1832310F900AD3F63193501A5
:101F000009094AC6B247C180156586A3A5371C4892
:101F1000F99B1CC841016FE02FE29C4513F70701B4
:101F200013F8F70001C7D8413368E80037270240AB
:101F3000145B3707000F758F5DEB37070020854670
:101F4000230AD740371701406315E5009A213583EE
:101F50009AA18E2113F7F50F39C318418146854E9A
:101F60003D4F930F800293028004214E3396DE0092
:101F7000B3F8C500631116039398260033131F01AD
:101F80001343F3FF3377E300B318180133E7E80096
:101F90006399F70750C98506E39AC6FD18C1130770
:101FA000F00F6375B70454412146854E3D4F930FA2
:101FB000800293028004414EB398CE0033F715019E
:101FC0006392E8021317260001173313EF0013433F
:101FD000F3FFB376D3003317E800D98E6397F70386
:101FE000232A15010506E319C6FD54C1828037175F
:101FF0000140E310E5F6370700200347474131DB96
:10200000B1B7E39A57F810C979B7E39D57FC232875
:102010001501C9BFB71701406318F500B7070020C5
:1020200083C7474191C3B58108456D8D3335A00005
:102030008280B71701406318F500B707002083C7F7
:10204000474191C3B5810CC98280B717014063181D
:10205000F500B707002083C7474191C3B5814CC93C
:102060008280B7070140635A0504DC4F935605018F
:10207000131805013707300013F6F600135808014E
:10208000B376E500635E05066399E60493060601F0
:102090000D46B316D60093C6F6FFF58F99C91357B0
:1020A00055011377F73F12073317E800D98F6355AF
:1020B0000506370701405CCF828037270240145B5A
:1020C000DC433707000F758F55F313D71700F976E8
:1020D000CE07758FCD83D98F51BF1317B5006356C7
:1020E00007008D46B396C6007DB713575501137789
:1020F000F73F12073317E8001347F7FFF98F79BF4F
:102100006390E602370601405442370700F17D171D
:10211000F98F758F58C2C1F5370701405CC38280C3
:102120001317B500635C07008D46B396C60093C6CF
:10213000F6FFFD8EB707000FD58FF1BF135755017E
:1021400012073317E8001347F7FF7D8FB707000F1B
:10215000D98FD1B7B707002023ACA7408280B7073B
:102160000020938787419443182181E63C21920700
:1021700021A894430546639FC6023C211031920773
:102180006314D60093E707F8B7E600E093F7F70F7C
:10219000BA962380F6408546935757003397E6005A
:1021A0005441A5C2938707048A07B7E600E0B697B3
:1021B00098C382808C4389466391D50214313C21B7
:1021C0006365D6008A06B6975DB79386E6038A06EE
:1021D000B69793F7F70F920775B790438D46631C38
:1021E000D60014313C216364D6008606E9BF93868D
:1021F000C6078606F1BF94439147E39EF6F81C316B
:10220000BDB7938707064DB7371702405C43914629
:10221000B18B6385D700A1466382D706B7177A00D2
:10222000938707201CC1371602405C423707002005
:102230001307070B9183BD8BBA9794231C41B3D727
:10224000D7005CC15442A1829D8ABA969422B3D62B
:10225000D70014C55442AD829D8A36971823B3D750
:10226000E7005CC558423983937637001387C180F5
:1022700036971823B3D7E7021CC982805C435843C2
:10228000C166C983BD8B758F8907C5466393D70027
:10229000C94701EF3747024003270780418B09CF29
:1022A00037177A001307072021A837170240584331
:1022B0009316E700E3D606FE37173D001307079095
:1022C000B387E70285B799C5371702405C4B5D8D30
:1022D00048CB8280B7170240D84B1345F5FF798D64
:1022E000C8CB828099C5371702401C4F5D8D08CF3F
:1022F0008280B7170240984F1345F5FF798D88CF3C
:10230000828099C5371702405C4F5D8D48CF82802F
:10231000B7170240D84F1345F5FF798DC8CF82809B
:1023200099C5371702405C475D8D48C78280B71753
:102330000240D8471345F5FF798DC8C7828099C5FB
:10234000371702401C4B5D8D08CB8280B7170240C7
:10235000984B1345F5FF798D88CB8280EFE22F9C57
:10236000B7370140631AF50085450565553F81453E
:1023700005657D376FE0EF9CB74700409387078086
:10238000E31AF5FE854511655D3F81451165453FC1
:10239000D5B71A218D6793870704B6217D8F9E21BB
:1023A000D58FD621D58FF621D58F9625D58FB625F9
:1023B000D58FD625D58FF625D58FD98F1EA15A2D2D
:1023C000FD779387F77FF98F5EAD9E291EA98280E6
:1023D0001E2189C593E707041EA18280C207C1831D
:1023E00093F7F7FBC207C183C5BF5E2101C6DD8D30
:1023F0004EA1828093C5F5FFFD8DDDBF0A256D8D51
:102400003335A000828093C5F5FFC205C1810EA5BA
:1024100082805E21162513F7F50005453317E50088
:10242000C207758FC18301CB91813315B5007D8DB6
:102430003335A000828001458280EFE24F8EB737AE
:102440000140938707C0631DF500056485451305AA
:102450000480F935814513050480D9356FE06F8E0E
:10246000B70700406319F50085450545C93D81451D
:102470000545F135E5B7938707406318F5008545B5
:102480000945753D81450945EDB7B71700401387EC
:1024900007806318E500854511455535814511458F
:1024A000C9BF938707C0E31BF5FA85452145413D28
:1024B000814521457DBF1E2137370140130707C0E5
:1024C000C207C1836304E502370700406300E502E9
:1024D00013070740630CE500371700409306078099
:1024E0006306D500130707C06316E500BA2193F70A
:1024F000F7F8D98FFA2193F7F7CFC207C183D98FA5
:102500001EA1DE215EB59E211EB5B737014093871F
:1025100007C06314F5009C251EB985475EA982801B
:102520001E31922103D82500C207C183F99BC2073F
:10253000C1831EB11E3156211A2DC207C183420725
:1025400041831377C7F8518F9225F59BC2063366F6
:102550000601D18F37360140130606C0C1826310D1
:10256000C502B225DD9B03D8E500D18FD221ED9BBA
:1025700093F6F6CFD18FD22533660601D18E56A1C0
:102580001AADFA215AB91EB182801E316577130740
:10259000F7CFC207C183BD9BC207C1831EB11E31E5
:1025A000562103D88500C20713960601162DC18354
:1025B00093F7F7FD758F96214182A206558FB621BC
:1025C00042074183B3E606019206D58FB736014034
:1025D000C207938606C0C183631ED502B62593F752
:1025E000F7F703D8C5009206D58FD621C207C1835D
:1025F000920693F7F7FBD58FFD769386F63FF18E23
:10260000F225C207C183336606010A06D18E1396EE
:102610000601418252A11AADFA211ABD1EB1828073
:102620001E3103D88500C207C18393F7F7EFC207B5
:10263000C1831EB11E3156215A2DC20713960601C1
:102640004207962141831377C7F8558FB621C1837E
:1026500093F7F7DFB3E60601A206D58FB736014040
:10266000C207938606C04182C183631FD502FD76EF
:102670009386F67FF58FB62503D8C500A206D58FC1
:10268000D621C207C183A20693F7F7BFD58FF5768F
:10269000FD16F18EF225C207C183336606011206CC
:1026A000D18E13960601418252A15AADFA215ABD2C
:1026B0001EB182801A31FD77FD17F98F1EB10358C4
:1026C000050256215E2D657792211307F7CF7D8F86
:1026D000F9772206FD17518FB3F70701B22103D80E
:1026E0008500C2064207336606013206D18F3736AF
:1026F0000140C207130606C0C1824183C183631A29
:10270000C50071767D16F18ED2251A06D18EC206CD
:10271000C18256A15AADFA212310E5041EB1828070
:10272000FD575EA1231005002313050023110500AA
:102730002304050082801E2189C593E717001EA18E
:102740008280C207C183F99BC207C183CDBF835773
:10275000450491C52167D98F2312F5048280C607ED
:10276000C583DDBF5E2501C6DD8D4EA5828093C584
:10277000F5FFFD8DDDBF1E25C207C183E19BC207AA
:10278000C1831EA582801E2189C593E707081EA16B
:102790008280C207C18393F7F7F7C207C183C5BF21
:1027A0001E2DC207C183DD9BDD8D0EAD82801A2DEB
:1027B000FD779387F77FF98FA205CD8FC207C1837D
:1027C0001EAD82805E2DC207C183DD9BDD8D4EADC7
:1027D00082805A2DFD779387F77FF98FA205CD8FE1
:1027E000C207C1835EAD82801E294A25ED8F420556
:1027F000418189C76D8D3335A0008280014582807B
:1028000093C5F5FFC205C1810EA98280EFD23FD1E9
:102810001629F577FD17F58FF621DA257971D58F11
:102820001EA95625FD779387379FF58FD6212A84D9
:102830002EC6D58F9625D58FB625D58F5EA55E2958
:10284000C207C18393F7F7CFD98F5EA96808EFF06D
:10285000BF9BB747014093870780B245631AF404D2
:10286000A25756246547B387E702C206C18698413E
:1028700063D20604060752244206B3D7E7021307C1
:1028800040064186B3D6E702B3F7E70292066355E6
:1028900006028E0793872703B3D7E70213F7770063
:1028A000B367D700C207C1831EA445616FD07FC93B
:1028B000925745BF0A07C1B7920793872703B3D73B
:1028C000E702BD8BD58FF9BF91C55E250967D98F0A
:1028D0005EA582805A25F977FD17F98FD5BF93F54C
:1028E000F51F4EA182800A216D8D3335A0008280B4
:1028F000EFD2FFC2B727002083A7072741114886E0
:10290000CC86AA9723800700B707002003A5C741FC
:102910006C0081467D56EF10A07941016FD07FC2D7
:10292000370500201305C5418280B727002003D555
:1029300047278280EFD2BFBE5C49372400201304B2
:102940008426034905005CC81C4554451829AA84FF
:102950004A863E8581451CC454C418A8230024011E
:10296000EFD0FFBED8404A86814558C0EFD03FBE69
:10297000B707002003A5C7418145EF102055014549
:102980006FD03FBCEFD21FB8B7240020014493841E
:10299000842605498949094A9C206364F4006FD064
:1029A000BFB9DC482285829763102503DC40A297DB
:1029B000982319C7238007009305000422850D3F43
:1029C00005041374F40FC9BF984422971C2385078C
:1029D00093F7F70F1CA3D8402297142389EA942871
:1029E000E3E0D7FE2300270193050008C1BFF034C0
:1029F00063E4C70063872601F024E3E3C7FCE391A7
:102A000046FD23003701CDB7B727002023A2A72812
:102A10008280B727002023A0A7288280B727002024
:102A200023A4A7288280EFD29FAF797113060002FA
:102A300081452A84080802C402C6EFD05FB18545EB
:102A400037050002EFF0FF8B93070030FC819307FE
:102A5000B040FC8285473ECE3ED202CC02D002D4AA
:102A600002D6930740066305F40C63EF8700D14755
:102A70006305F40C93072003630EF40AA947631758
:102A8000F40A9307802505A09307401F630EF408FE
:102A90009307803E6308F4009307A00F6318F408BF
:102AA000A14711A08947376400400C081305044072
:102AB000FC80EFE0BFE01305044093050040EFF019
:102AC0000FA6130504408545EFF06FA513050440DC
:102AD0008945EFF0CFA413050440C145EFF02FA4C2
:102AE00005469305304113050440EFF0CF98854724
:102AF0003EC62800930740227C84EFF04FE6930700
:102B0000500228005C84EFF08FE593073002280024
:102B10005C84EFF0CFE49307600228005C84EFF060
:102B20000FE445616FD0FFA19147B5BFC147A5BF75
:102B3000D14795BF93078007BDB79307C012A5B7CC
:102B4000EFD2FF9D37650040814513050540EFF04A
:102B50006F8B6FD01F9FEFD29F9C376500408545DC
:102B600013050540EFF00F8A6FD0BF9DEFD23F9B5A
:102B70001C410111542113D7E70002CA098B93F7B6
:102B8000F77FA30AE10078003EC602C802CC02CE5D
:102B9000230BD1008147BA85050763CBD700376582
:102BA000004013050540EFE07FF105616FD07F998C
:102BB0003306F5005032850730A7F9BFEFD23F96B4
:102BC0000111B337F000054896059606160616075C
:102BD000FC82230BA10085476800A30B01016C87D1
:102BE0007486F081F8803ECE230C0100EFE09FDB7D
:102BF00005616FD01F95EFD29F9201112E84B335DE
:102C0000A00037650040700013050540EFE0DFF6D7
:102C1000B24703465101894693F7F77F0147631393
:102C2000D6002167D98F1CC08347610193057101CC
:102C3000231704005CA0214613055400EF80B04721
:102C4000014505616FD0FF8F5D7122DE26DC3764A0
:102C50000040B70400382ADA2ED8130504409385C3
:102C600014003ED086C696C49AC29EC032D636D4D0
:102C70003AD242CE46CC72CA76C87AC67EC4EFF04B
:102C8000AF8085476318F500938514001305044051
:102C9000EFF0EF84B70400383764004093850410E8
:102CA00013050440EFE05FFE85476318F500938548
:102CB000041013050440EFF08F8237640040B7051D
:102CC000013813050440EFE03FFC85476318F50029
:102CD000B705013813050440EFF06F80B7270020D7
:102CE00083A747288297376500408545130505402F
:102CF000EFF0EF827254B640A64216438643E25488
:102D00005255C2553256A256125782577248E2485F
:102D1000524EC24E324FA24F616173002030397162
:102D20003ECCB727002083A7072806DE16DC1ADA78
:102D30001ED82AD62ED432D236D03ACE42CA46C86F
:102D400072C676C47AC27EC001458297376500405C
:102D5000914513050540EFE09FFCF250E2525253BB
:102D6000C2533255A255125682567247E247524814
:102D7000C248324EA24E124F824F21617300203062
:102D800039713ECCB727002083A7072806DE16DC62
:102D90001ADA1ED82AD62ED432D236D03ACE42CA29
:102DA00046C872C676C47AC27EC00545829737652A
:102DB00000409305000213050540EFE05FF6F25076
:102DC000E2525253C2533255A2551256825672479E
:102DD000E2475248C248324EA24E124F824F216102
:102DE0007300203039712AD6376500402ED4130580
:102DF00005409305004006DE16DC1ADA1ED832D2F2
:102E000036D03ACE3ECC42CA46C872C676C47AC2E2
:102E10007EC0EFE0DFF0B727002083A787288297E6
:102E2000F250E2525253C2533255A25512568256B4
:102E30007247E2475248C248324EA24E124F824F6A
:102E4000216173002030EFD28FED8545EFE0FFF96F
:102E50006FD02FEFEFD2AFEC8145EFE01FF96FD0CD
:102E60004FEEEFD22FEA5D712A84AE890545854584
:102E700032C636C43AC242C002CE02D0EFF0AFC46E
:102E800002481247A2463246638E0906854763947C
:102E9000F900C1473ED68547630BF60635C689471C
:102EA000630EF606B707024013868700631FC40649
:102EB000B727002023A60729ED44054993070008FA
:102EC0004C10228536D23AD43EDC02DA82C282C469
:102ED00082C6EFE01FEE054689452285EFE03FF20E
:102EE0004A85EFE0BFF48947A30EF10068088547E3
:102EF000230E91003ED0230F0100EFF04FA6616139
:102F00006FD08FE302D641BF82C002DE61BF93075C
:102F10000040BEC0930700103EDE69B78567938707
:102F20000780BEC093070020C5BF1386C701631981
:102F3000C400B727002023A80729F1444149BDBF99
:102F400013860703631AC400B727002023AA0729A2
:102F5000F544130900109DB7138647046319C40094
:102F6000B727002023AC0729F944056981BF1386E0
:102F700087056319C400B727002023AE0729FD4445
:102F800041692DBF1386C706631BC400B727002005
:102F900023A0072B930400023709100005B71386FE
:102FA0000708631BC400B727002023A2072B930444
:102FB00010023709000119B793874709E310F4F0AD
:102FC000B727002023A4072B9304E0033709001040
:102FD000F5B50945EFE0FFE48547631AF500B7272B
:102FE000002083A7C72882970545EFE03FE47300E0
:102FF000203037050200EFE0DFE28547631AF50075
:103000004165EFE0BFE2B727002083A7C729829779
:10301000730020300965EFE0DFE08547631AF500B3
:10302000B727002083A7872982970565EFE01FE077
:103030007300203037050002EFE0BFDE8547631BD9
:10304000F500B727002083A7472A8297370500019C
:10305000EFE0DFDD73002030B72700209387872A59
:1030600023A0070023A207008280EFD24FCB37179F
:103070000140930607C08547630AD5028947630765
:10308000E502130707408D476302E5023727014039
:10309000930607809147630BD500930607C09547B9
:1030A0006306D50081476313E50099473727002061
:1030B0009306872A13942700B38786009C439304C2
:1030C000872A99EFB717014013870780631CE50033
:1030D00085451145EFF00FA1B3878400054798C3DC
:1030E0006FD02FC6138707C06315E50085452145BE
:1030F000D5B76315F50085454145E9BF938707407E
:103100006316F500854513050002E9B7B7270140AE
:1031100093870780E312F5FC8545130500045DBF26
:10312000EFD2EFBF01112A842EC68137B245C147C5
:103130003ECEEC8289474C0822853ECCEFE0FFDD95
:1031400005616FD00FC0EFD28FBD01112A842EC64A
:10315000293FB2458D472285EC824C083ECC02CEF9
:10316000EFE0BFDB05616FD0CFBDEFD24FBB0111E8
:103170002A842EC6DD3DB24591473ECEEC828D4776
:103180004C0822853ECCEFE05FD905616FD06FBB64
:10319000EFD24FB741113284AA84AE893689F13516
:1031A00009C885450545EFF0EF9385452285EFE099
:1031B0005FEB8D474C002685231231014AC63EC481
:1031C000EFE0BFD541016FD02FB7EFD24FB5EFE0A1
:1031D0007FE46FD00FB7EFD28FB4EFE09FE56FD0F1
:1031E0004FB6EFD2CFB3EFE05FE66FD08FB5EFD23F
:1031F0000FB3011102C602C802CA02CC231E01008D
:10320000B73701402A846314F50485450565EFF05E
:103210006F8D2285EFF08F94B7C704013EC6B707C4
:1032200000023ECA6C00A14722853ECC02C8231E84
:103230000100EFF00F96054622858945EFF0EF9AE1
:1032400085452285EFF0CF9805616FD08FAFB747E6
:10325000004093870780E31EF5FA85451165EFF07E
:103260004F8A45BF73002030374500409305100753
:1032700013050580EFF0EF9911C5B707002083A76C
:103280000742829773002030994763E2A704EFD288
:103290000FA9B567938787D50A053E951C418545DB
:1032A0008287056513050580EFF0CF836FD06FA986
:1032B0000545EFF00F85DDBF0945E5BF1145D5BFD9
:1032C0002145C5BF4145F5B713050002DDB7828032
:1032D0005D7122DE370400402ADC2EDA130504403B
:1032E00085453ED286C696C49AC29EC032D836D68E
:1032F0003AD442D046CE72CC76CA7AC87EC6EFF0B7
:10330000AFCE8547631CF500B727002083A7872E23
:103310008297854513050440EFF08FCE7254B64076
:10332000A642164386436255D2554256B25622579C
:1033300092570258F248624ED24E424FB24F6161EC
:1033400073002030EFD2AF9D93172500356513052C
:1033500045D73E9508418545EFF0EFBD6FD06F9E94
:10336000EFD2EF9BB56713172500938747D7BA971E
:10337000844341112A842685EFF02F8C2685EFF0B7
:103380008FBF4800EFF0CFB931453304A402372591
:1033900000201305852C4C0022951E217C843E21A3
:1033A00026857C82EFF02F9141016FD08F99EFD26B
:1033B0000F97011102CC02CE99472A84014981441A
:1033C00063E6A700B7A44A0493840420228536C686
:1033D00032C42EC2EFF05FEB9245B1473307F402DF
:1033E0002246B246B72700209387872C2285B3D484
:1033F000B402BA9792A394C7A6A39D37B5671317D3
:103400002400938747D7BA97844385457D14268542
:10341000EFF00FBF054685452685EFF0AFB489472D
:1034200063E78700938741833E9403490400A147E3
:10343000A30CF10028088547230C21013ECE230D63
:103440000100EFE0DFD105616FD0AF8FEFD28F8B3E
:10345000011102C802CA02CC02CE9947AA89328A57
:10346000B684014963E6A70037A94A041309092075
:10347000B56713972900938747D7BA9780432EC61D
:10348000420A2285EFE07FFB2285EFF0CFAE4E852A
:10349000EFF09FDFB245B1473387F902B72700202D
:1034A0009387872C135A0A014E853359B902BA976C
:1034B0002390470123912701EFF09FEAC16793878B
:1034C00007063EC8231B4101231C010093F714008B
:1034D00089CB0C082285EFF0AF8481452285EFF07F
:1034E0002FAC93F7240089CB0C082285EFF0EF89ED
:1034F00081452285EFF0AFAB93F7440089CB0C08F0
:103500002285EFF0EF9181452285EFF0AFABA188E6
:1035100089C80C082285EFF0EF9981452285EFF0EC
:103520004FAB22858545EFF00FA685452285EFF04C
:103530000FA205616FD04F80EFC27FFE9317250069
:103540003565130545D73E9508418145EFF02FA01D
:103550006FC03FFFEFC2BFFC01112A84AE8432C6A8
:10356000E13F35650A04130545D7229500418145A1
:1035700002C8228502CA02CC02CEEFF04F9DC1677D
:103580003246938707063EC88947FC84F08393F749
:10359000140089C70C082285EFE09FF893F72400F8
:1035A00089C70C082285EFE05FFE93F7440089C7C6
:1035B0000C082285EFF0CF86A18889C40C082285EB
:1035C000EFF04F8F85452285EFF06F9805616FC052
:1035D0005FF7EFC2DFF4931725003565130545D774
:1035E0003E9508418545EFF08F966FC09FF582802C
:1035F000B70700209387C7439843636FA702D04360
:10360000B386C7006316D50054413E85B296D4C335
:103610005041B306C500631CD700B706002083A63F
:1036200046426306D70054431843B29654C118C1AA
:103630006303F50088C38280BA877DBFEFC29FEC29
:1036400041112AC6EF106063B706002083A74642E7
:103650003706002093864642130686423245B9EB70
:10366000372700209307473093F5F70013074730BB
:1036700081C51387F700419BB70500209385C5439B
:103680009387073FC19B23A2050098C123A207008F
:1036900023A00700B385E7409CC21CC3B7070020E6
:1036A00023A8B742B707002023A6B742B707008078
:1036B0004CC31CC2032A0600B377AA0085E3930714
:1036C000F5FF3957636CF7009307050113F7F7000F
:1036D00049C313F707FF410763ECE706814491A054
:1036E00022872E8469A058C15CC0EFF07FF058405B
:1036F000B7060020938606439042B307E94023A013
:10370000F90063F3C7009CC2B70700203367EA00E3
:103710009387474358C09843C104232004000507FA
:1037200098C3EF10E07193F7F400D1CB89679387CA
:1037300007807390073037D6000037D50000130696
:1037400086D893050011130505DBEF80604001A0CA
:10375000BA87370700200329C7429309C742E36F9E
:10376000F9F6370700200324C7431307C743504027
:103770006374F6000C40ADF59442E38186F6144084
:10378000044314C33307F64093060002E3F1E6F660
:103790003305F4009376F500B9D6896793870780DF
:1037A0007390073037D6000037D50000130686D84F
:1037B0009305F00C130505DBEF80803901A0268509
:1037C00041016FC07FD75DC1EFC27FD5B707002031
:1037D000032745FF83A787422A84B376F7009DE23B
:1037E0008967938707807390073037D6000037D5F5
:1037F0000000130686D893054012130505DBEF8001
:10380000203501A0832605FF9DC289679387078025
:103810007390073037D6000037D50000130686D8DE
:1038200093055012130505DBEF80803201A093C78A
:10383000F7FFF98F232AF5FEEF102044B707002089
:103840009387C7429443032744FF130504FF369729
:1038500098C3EFF0FFD9B7070020938787439843B9
:10386000050798C3EF10C05D6FC0BFCD8280B7E77A
:1038700000E041572387E7402386E740B7F700E0A1
:1038800023A0070023A20700814694C70147D8C799
:1038900083A581801307803E814633D6E5023D47EC
:1038A00090CBD4CB98C38280EFC27FC7411102C6B0
:1038B000F32750303EC6B2470D478D8B6384E70235
:1038C0008967938707807390073037D6000037D514
:1038D0000000130646DD9305600B130505DBEF8042
:1038E000202701A0B757002093870700BD8B9DC3F9
:1038F0008967938707807390073037D6000037D5E4
:103900000000130646DD9305B00B130505DBEF80C1
:10391000202401A0EFF0BFF5B7E700E0116723A076
:10392000E710056723A0E71023A80180EFC05F9D83
:10393000014541016FC0FFC0397106DE16DC1ADA9D
:103940001ED82AD62ED432D236D03ACE3ECC42CA57
:1039500046C872C676C47AC27EC0731101348967C4
:103960009387078073900730B7F700E023A2070022
:10397000EF10403211C5B7E700E0116723A0E72040
:103980008967938787887390073073110134F250E9
:10399000E2525253C2533255A255125682567247C2
:1039A000E2475248C248324EA24E124F824F216126
:1039B000730020308967938707807390073093875F
:1039C00001819843050798C38280138701811C43B6
:1039D0008DE7EFC2DFB48967938707807390073064
:1039E00037D6000037D50000130646DD93053010AA
:1039F000130505DBEF80C01501A0FD171CC391E77F
:103A000089679387878873900730828009651305DB
:103A10000580731505308280731005308280EFC2F7
:103A20001FB041111DE189679387078073900730AC
:103A300037D6000037D500001306C6DF93055006C1
:103A4000130505DBEF80C01001A0F1473EC63247E9
:103A50006304F7028967938707807390073037D62E
:103A6000000037D500001306C6DF9305D006130506
:103A700005DBEF80E00D01A02A842320050011055D
:103A80005D2C85471CAC228541016FC09FABEFC206
:103A90007FA71DE18967938707807390073037D62A
:103AA000000037D500001306C6DF9305A0141305E8
:103AB00005DBEF80E00901A0B70900FFB3F935018C
:103AC000AE84638409028967938707807390073007
:103AD00037D6000037D500001306C6DF9305B014B3
:103AE000130505DBEF80C00601A09DE18967938780
:103AF00007807390073037D6000037D500001306D3
:103B0000C6DF9305C014130505DBEF80600401A038
:103B10002A89B28A368B3A8AEF10301B0DE563048E
:103B20000A028967938707807390073037D60000B1
:103B300037D500001306C6DF9305F014130505DB27
:103B4000EF80000101A0EF10401303240900B3F738
:103B5000840063170B029DE78149630C0A02B335A9
:103B60005001E20563050B00B7070004DD8D5286A6
:103B7000C58D13054900EF10A057D289014411A843
:103B8000E39CF4FC63870A0093C7F4FFE18F2320D2
:103B9000F900EF10E02A638C090211E5B7E700E0B5
:103BA000116723A0E720EF10F039931765002A84EE
:103BB00063CD0700EFF01FE003240900B3F7840092
:103BC000631A0B0091EBEFF05FE022042180228565
:103BD0006FC09F96E399F4FEE3870AFE93C4F4FF57
:103BE000E18C23209900C5B7EFC27F9341111DE1FD
:103BF0008967938707807390073037D6000037D5E1
:103C000000001306C6DF9305101E130505DBEF70D9
:103C1000307401A0B70700FFED8F9DC389679387BC
:103C200007807390073037D6000037D500001306A1
:103C3000C6DF9305201E130505DBEF70707101A030
:103C40002A842EC6EFF01FD7B245084093C5F5FF72
:103C5000E98D0CC02AC6EFF05FD7324541016FC035
:103C60005F8EEFC23F8A41111DE18967938707800C
:103C70007390073037D6000037D500001306C6DF33
:103C800093051022130505DBEF70906C01A0370738
:103C900000FF6D8F1DC3896793870780739007307E
:103CA00037D6000037D500001306C6DF9305202263
:103CB000130505DBEF70D06901A02A842EC6930995
:103CC000C500EF00907B1C40B24508483709000151
:103CD000CD8F1CC081447D19370A00020C40639CC3
:103CE000A90093C4F4FFED8C04C0EF1060150840E8
:103CF00041016FC07F841841832A4500B3772701B3
:103D000013165700B3F6B7006345060089E65685DB
:103D1000F1B7E39ED7FE9316770063D30600DD8CE0
:103D2000B3E54501EF10E05CDDB7EFC24FFFEFF008
:103D3000BFEB6FC01F81930785007D575CC118C51D
:103D40005CC51CC9232005008280232805008280D1
:103D50009841FD5693078500631ED7001C49D84340
:103D6000D8C10CC79CC5CCC31C4188C985071CC1E0
:103D70008280B687D4439042E37DC7FECDB75441DD
:103D800018451C4998C654C3D4436393A600D8C3AE
:103D90009843232805007D1798C388438280EFC28B
:103DA0000FF841112AC6EFF0FFC03245005DEFF079
:103DB000DFC11335140041016FC0AFF8EFC22FF619
:103DC00032893041045D2A8409EE1C41014591E7A6
:103DD0000844EF10207C23240400850404DC6FC019
:103DE0004FF6631009024841EF70F02C5C403840F8
:103DF0000145BA9718445CC0E3E1E7FE1C405CC093
:103E0000E9BF4845EF70302B3C4058441440B3079D
:103E1000F0403E9758C46375D7001844BA975CC405
:103E200089470145E31BF9FACDD8FD147DB7304130
:103E300015C2EFC2CFEE58451445AA87329758C530
:103E40006364D700184158C52E85CC47EF70B02663
:103E50006FC02FEF8280EFC28FEC2A84EFF09FB506
:103E60008344540413094402E204E1846348900249
:103E7000FD57A302F404EFF05FB5EFF0BFB3834446
:103E8000440413090401E204E18463459002FD57F0
:103E90002302F404EFF07FB36FC0AFEA5C50E9DBBC
:103EA0004A85EF10403619C1EF10C060FD14E204DE
:103EB000E1846DBF1C48E1DF4A85EF10C03419C1B1
:103EC000EF10405FFD14E204E184C1B7EFC22FE5BB
:103ED00041111DE18967938707807390073037D6BA
:103EE000000037D50000130686E193050011130585
:103EF00005DBEF70F04501A05C5D2EC62A84BDC7CE
:103F00003841B3B7E702BDE3EFF0DFAA3040585CB9
:103F10001440232C0402B307E602B24554C0338791
:103F2000F600918FB6975CC4FD572302F40418C4C1
:103F3000A302F4049DE11C4899CB13050401EF1082
:103F4000802C11C5B7E700E0116723A0E720EFF050
:103F5000DFA7054541016FC0CFDE13050401EFF077
:103F60009FDD13054402EFF01FDDD5B78967938706
:103F700007807390073037D6000037D5000013064E
:103F800086E193055014130505DBEF70703C01A02A
:103F9000EFC2EFD801119DE2896793870780739084
:103FA000073037D6000037D50000130686E19305A9
:103FB0009015130505DBEF70B03901A019C105C6D6
:103FC00085E58967938707807390073037D60000AF
:103FD00037D50000130686E193052018130505DB8D
:103FE000EF70103701A0F1FD930780043ECE7247B9
:103FF0006304F7028967938707807390073037D689
:10400000000037D50000130686E19305B0161305AE
:1040100005DBEF70F03301A0F24785472383F604F8
:1040200091E1368690C2C8DEACC23685854536C67B
:10403000EFF0DFE9B246056136856FC08FD0EFC281
:104040000FCE411121C5B3B7A502AA84A1E3330560
:10405000B502930770FB63EBA702130585042EC618
:10406000EFF0CFDD2A8419CDB24523030504AA87DA
:1040700099C1930785042CC01CC044DC854522856A
:10408000EFF0DFE4228541016FC0AFCB89679387F2
:1040900007807390073037D6000037D5000013062D
:1040A00086E19305601C130505DBEF70702A01A003
:1040B000EFC26FC4011132C61DE189679387078083
:1040C0007390073037D6000037D50000130686E11D
:1040D0009305E032130505DBEF70902701A02A84D9
:1040E0002E89B6848DE53C419DC3896793870780FF
:1040F0007390073037D6000037D50000130686E1ED
:104100009305F032130505DBEF70902401A0894779
:104110006398F402585C85476304F70289679387C4
:1041200007807390073037D6000037D5000013069C
:1041300086E193050033130505DBEF70702101A0C4
:10414000EF10A03815E5B247014C85C78967938702
:1041500007807390073037D6000037D5000013066C
:1041600086E193053033130505DBEF70701E01A067
:10417000014C094BFD59930B040137EA00E0916AA9
:10418000A5A8B24789E7EFF05F84014555A0631504
:104190000C002808EF108025EFF03F83EF00F02D92
:1041A000EFF05F8183474404E207E18763943701BE
:1041B0002302040483475404E207E1876394370130
:1041C000A3020404EFF07F806C002808EF10602346
:1041D00035EDEFF02FFE185C5C5C631EF704EFF02A
:1041E000CFFEB2455E85EF00306C2285EFF0BFC692
:1041F000EF00104529C9054CEFF0CFFB185C5C5C63
:104200006364F700E39F64F72686CA852285EFF092
:10421000FFBA5C5089C713054402EF00D07E11C578
:10422000B7E700E0116723A0E720EFF00FFA05459C
:1042300005616FC0CFAFEFF04FF92285EFF0BFC13E
:10424000EF0010404DBF23205A2175B72285EFF0B3
:104250009FC0EF00F03E15BFEFC26FAC1DE1896754
:10426000938707807390073037D6000037D500005A
:10427000130686E193053028130505DBEF70500D1A
:1042800001A0032985002A84EF1080238144631D47
:10429000A9005C448544FD175CC499E7814601464A
:1042A00081452285EFF0DFE026856FC08FA9EFC240
:1042B0000FA72A8681450545EFF07FD82A8401CDD6
:1042C00023240500232005002326050081460146FE
:1042D0008145EFF0FFDD22856FC0AFA6EFC28FA250
:1042E00041111DE18967938707807390073037D6A6
:1042F000000037D50000130686E193052040130522
:1043000005DBEF70F00401A02A84B2898DE53C4101
:104310009DC38967938707807390073037D6000065
:1043200037D50000130686E193053040130505DB01
:10433000EF70100201A089476398F602585C854728
:104340006304F7028967938707807390073037D635
:10435000000037D50000130686E1930540401305A1
:1043600005DBEF70E07E01A036C62EC4EFF00FEA49
:10437000185C5C5C2A8AA245B2466366F7008947EE
:1043800081446393F602834454041C5C3686228580
:1043900013998401EFF09FA213598941FD576317C8
:1043A000F9025C5089EB85445285EFF0EFE62685F3
:1043B00041016FC06F9813054402EF00D06465D5CA
:1043C000E38309FE854723A0F900F1BF9307F007B7
:1043D0006314F9028967938707807390073037D693
:1043E000000037D50000130686E19305D048130579
:1043F00005DBEF70E07501A08504E204E184A3020F
:10440000940455B7EFC22F8F011132C61DE18967A1
:10441000938707807390073037D6000037D50000A8
:10442000130686E193051055130505DBEF70407206
:1044300001A02A84AE898DE53C419DC3896793879D
:1044400007807390073037D6000037D50000130679
:1044500086E193055055130505DBEF70606F01A0F1
:10446000EF10A00615E5B247014985C78967938714
:1044700007807390073037D6000037D50000130649
:1044800086E19305A055130505DBEF70606C01A074
:1044900001497D5A930A440237EB00E0916B95A8DD
:1044A000B24789E7EFF06FD2014569A863150900AB
:1044B0002808EF00B073EFF04FD1EF00007CEFF071
:1044C0006FCF83474404E207E187639447012302E7
:1044D000040483475404E207E18763944701A3027D
:1044E0000404EFF08FCE6C002808EF00907125E5F2
:1044F0002285EFF0DF8A31C9B2455685EF00D03A08
:104500002285EFF05F95EF00B01319E123207B21A6
:104510000549EFF02FCA045CC1D4CE852285FD1475
:10452000EFF0FF9004DC1C4899CB13050401EF0069
:10453000904D11C5B7E700E0116723A0E720EFF029
:10454000CFC8054505616FB09FFE2285EFF0BF9093
:10455000EF00100F75BF2285EFF0FF8FEF00500EB8
:104560002285EFF0DF834DD581B7EFB2BFF901119E
:104570002EC61DE18967938707807390073037D671
:10458000000037D50000130686E19305305E130561
:1045900005DBEF70E05B01A03C412A849DC3896785
:1045A000938707807390073037D6000037D5000017
:1045B000130686E19305705E130505DBEF70405925
:1045C00001A0EF0090700DE5B2479DC38967938706
:1045D00007807390073037D6000037D500001306E8
:1045E00086E19305C05E130505DBEF70605601A000
:1045F00081440149FD59130A4402B7EA00E0116BF6
:104600006DA0B2479DE79DC089679387078073902F
:10461000073037D6000037D50000130686E1930532
:104620002063130505DBEF70A05201A0EFF0EFB996
:104630007DA0631509002808EF00505BEFF0EFB88C
:104640002D2DEFF02FB783474404E207E1876394F1
:1046500037012302040483475404E207E18763948B
:104660003701A3020404EFF04FB66C002808EF00F6
:10467000505941E12285EFF08FF235C51C4089EB9E
:10468000EFF04FB30844EF001066AA84EFF0EFB3E9
:10469000B2455285EF0050212285EFF0CFFBEF00AD
:1046A000207A19E123A06A210549EFF0AFB01C5C24
:1046B000A9DBFD171CDC1C4081E7EF10400A08C491
:1046C0001C4899CB13050401EF00F03311C5B7E77F
:1046D00000E0116723A0E720EFF02FAF8544268587
:1046E00005616FB07FE52285EFF0EFF6EF004075D2
:1046F00065BF2285EFF02FF6EF0080742285EFF082
:104700000FEA5DD1E9DCEFF0EFAA5C50814589C783
:104710001C58BD459C439D8D08448144EF00307476
:10472000EFF0AFAA6DBFEFB29FDF41111DE18967C6
:10473000938707807390073037D6000037D5000085
:10474000130686E19305B02B130505DBEF7040409F
:1047500001A004452EC62A84EF009056B245639905
:10476000A4005C44054585075CC441016FB07FDD52
:104770002285EFF09FDF75D95C4485075CC4F5B7EF
:10478000EFB2FFD941111DE18967938707807390CC
:10479000073037D6000037D50000130686E19305B1
:1047A000307E130505DBEF70A03A01A02AC6EFF0BA
:1047B0006FA03245085D2AC6EFF02FA132454101B6
:1047C0006FB03FD815E5EFB29FD589679387078013
:1047D0007390073037D60000856537D50000130683
:1047E00086E1938585AC130505DBEF70603601A08B
:1047F0009DCD37260020930646708147014713065A
:104800004670214883A846006398A8009317370094
:10481000B2978CC3C8C321A891E783A8060063930D
:104820000800B6870507A106E31E07FDFDF3828099
:10483000EFB2FFCE41112A842EC632C4EFF08F971B
:10484000834744047D572246E207E187B2456394DB
:10485000E70023020404834754047D57E207E187FD
:104860006394E700A302040432C62EC4EFF0EF9570
:104870001C5CA245324689E713054402EF00501143
:104880002285EFF04FDD41016FB0BFCB01A0EFB249
:104890007FC72A84EFF00F92B70700209387074560
:1048A0009843B7040020B7290020050798C3138751
:1048B00044441843938444441389497461EB80C091
:1048C000984385476310F70693894974130AC91200
:1048D0004E85D109EFF02FC6E31C3AFF3735002093
:1048E000130A058713050587EFF0EFC4373500205D
:1048F0009309458813054588EFF0EFC3373500204D
:1049000013058589EFF02FC3373500201305C58ABD
:10491000EFF06FC2B707002023A44745B707002078
:1049200023A63745B7070020938787459843050797
:1049300098C3370700201307C7455C54144363F33B
:10494000F6001CC35147B387E702CA97D843144700
:1049500018C454C410479306440054C214C7984363
:104960005CC8050798C3EFF04F86B707002083A700
:10497000C74699CB9C40D8575C546377F700B7E79C
:1049800000E0116723A0E7206FB01FBBB70700202E
:1049900083A7C746C1FB9C40D8575C54E3E4E7F8C3
:1049A00080C049B737070020130787441C4394434E
:1049B000B70700209387074681E67D5798C382801A
:1049C000184358471843DDBFEFB2DFB34111AA893E
:1049D000B284428403290803B1C5014841463385A6
:1049E000050103050500B3080401238AA80201C5D7
:1049F0000508E316C8FEA301040439466377E602FE
:104A00008967938707807390073037D6000037D5C2
:104A100000001306C6E293057039130505DBEF703D
:104A2000201301A0230A0802C9BF58D478C0130577
:104A30004400232404043EC636C43AC2EFF0EFB06B
:104A400013058401EFF06FB01247A24613952400BE
:104A5000BD4571153387E5404A9500C818CC40D054
:104A600023060404A306040423070404A307040480
:104A7000230804043686CE854199EFB07F98B2476B
:104A800008C091C380C341016FB01FABEFB29FA7B5
:104A9000B7040020B70700201389444483A90747BF
:104AA0002A840325090041112EC61105EFF02FAD10
:104AB0007D5793874444B2456311E4049DCDB737D5
:104AC00000209387C78A83260900D84398C61047D9
:104AD00083260900D0C6832609001047910654C2D8
:104AE00083260900910614C7032709005CCB98436D
:104AF000050798C341016FB03FA498434E9440C34B
:104B0000637B3401370700200325C7448C4391059C
:104B1000EFF00FA4C5B737070020032587448C4367
:104B20009105EFF0EFA2B70700209387074698435F
:104B3000E372E4FC80C37DBFEFB27F9E41119DE331
:104B40008967938707807390073037D6000037D581
:104B500000001306C6E29305A024130505DBEF60F1
:104B6000307F01A04284631408028967938707801D
:104B70007390073037D6000037D500001306C6E221
:104B80009305B024130505DBEF60907C01A093082A
:104B9000400546C632436304130389679387078041
:104BA0007390073037D6000037D500001306C6E2F1
:104BB00093053025130505DBEF60907901A0B2481D
:104BC0002328F8028947A308F8043C00EFF0DFDF50
:104BD0002285EFF0DFCB224541016FB09F96EFB207
:104BE0001F94411170002C00480002C202C4EFC0A3
:104BF0009FA31248A2473246B7D5000037550000A0
:104C000001478146938505E41305C588EFF0DFF27F
:104C100015C9EF0010658547631BF5028967938707
:104C2000078073900730B70700207D5723A0E74621
:104C3000B707002023A6A746B707002023A80746EA
:104C4000EFE09FC683A7418141016FB09F8FFD5761
:104C5000E31AF5FE8967938707807390073037D68C
:104C60000000856537D500001306C6E293850584EC
:104C7000130505DBEF60D06D01A0B7070020938717
:104C800047459843050798C38280B707002003A5CE
:104C900007478280B707002083A747456399071815
:104CA000EFB2FF87B70700209387074780430504CB
:104CB00080C321ECB70700209387874498431843AB
:104CC00005C78967938707807390073037D6000040
:104CD000856537D500001306C6E2938575AC1305CC
:104CE00005DBEF60F06601A0370700201307C7441B
:104CF0009443104390C3B707002014C393874746DB
:104D00009843050798C3EFF0FFC9370600209307C3
:104D100006469C4337270020B705002013060646A9
:104D2000130747749385454401456375F4029C411C
:104D3000D146DC57B387D7023E971843854763F3C4
:104D4000E7000545B707002083A7474791C30545FE
:104D50006FB02FFF370E0020B70E0020514F930782
:104D60008E449443944281E6FD571CC2C9B79C43CC
:104D7000DC47DC47D4436374D40014C24DBF83A81E
:104D8000870003A8C700D44B1383470023A408015E
:104D90002322180183A846006394680023A2060119
:104DA00003A8060023AA07007D1823A00601945734
:104DB00095CA03A8C70183A8070283AF460023242E
:104DC000180183A8070223A20801138887016394AE
:104DD0000F0123A2160103A8060023A407027D18D1
:104DE00023A006019386CE4503A8C70283A8060028
:104DF00063F4080123A00601B306E803BA9683A86A
:104E0000460083AF880023A4170123A6F70183AFD0
:104E1000880023A26F0023A46800D4CB9C4285079E
:104E20009CC29C41DC57E36CF8F205450DBFB70707
:104E300000209387874698430145050798C38280E1
:104E4000EFB24FEC37040020130444451C404111DD
:104E500085E78967938707807390073037D600000E
:104E6000856537D500001306C6E29385358B13059B
:104E700005DBEF60F04D01A0EFE0DFB31C40FD1754
:104E80001CC01C4089CB01452AC6EFE01FB4324547
:104E900041016FB06FEAB707002083A70745E5D748
:104EA000B736002037250020814793868689370F43
:104EB000002013054574D14837030020370E002029
:104EC000854E59A8DC46DC47CC4F9053985790C587
:104ED00003A807022322B80003284700938587010F
:104EE0006313B80050C3104323A407027D1610C3F8
:104EF0008C47D047D84B1388470090C54CC24C43D1
:104F00006393050150C3104323AA07007D1610C305
:104F10001307CF45D0570C4363F3C50010C33307C5
:104F200016032A974C4383AF85008CC723A6F7014D
:104F300083AF850023A20F0123A405010C43D8CB26
:104F400085050CC313074344184358576366E600AE
:104F500013074E472320D70198422DF799C3EFF04E
:104F60007FA4B7070020138787460443138487462E
:104F700099CC370900208549EFF0DFD109C59307A7
:104F8000494723A03701FD14E5F823200400B707A3
:104F9000002083A74747E38807EEB7E700E01167E3
:104FA00023A0E7200545CDB519E5B7E700E0116777
:104FB00023A0E7208280EFB28FD6B707002083A717
:104FC000474541119DC389679387078073900730D8
:104FD00037D6000037D500001306C6E2930590547B
:104FE000130505DBEF60D03601A02AC6EFF0FFC83D
:104FF00032458145EFF09FA9EFF09FE411E5B7E757
:1050000000E0116723A0E72041016FB08FD3B707FD
:10501000002003A74745B70700209387474701C7EC
:10502000054798C3828023A00700B7070020138795
:10503000C74518431386C745B72700209387477491
:105040005148B3060703B385D700884115C5C84149
:10505000A106BE964841C8C16314D5005441D4C1CD
:10506000D146B306D702B697DC43D447B707002032
:1050700023A2D74418C2828015E7EFB24FCA8967CE
:10508000938707807390073037D60000856537D542
:1050900000001306C6E2938525C0130505DBEF600B
:1050A000302B01A07D1771BFEFB26FC705E589678F
:1050B000938707807390073037D60000856537D512
:1050C00000001306C6E29385C5C1130505DBEF603A
:1050D000302801A0B70700202E8483A54744E105AE
:1050E000EFE01FC785452285EFF05F9A6FB06FC56F
:1050F000EFB2EFC205E589679387078073900730A9
:1051000037D60000856537D500001306C6E29385C3
:1051100065C3130505DBEF60B02301A0B7070020CE
:1051200083A7474585E78967938707807390073092
:1051300037D60000856537D500001306C6E2938593
:10514000A5C3130505DBEF60B02001A0B707002061
:105150009387474494432A8737050080C98D8CCEB6
:1051600054438C438846D4CD8C4388D18C438846A5
:10517000E1054CC18C439C433285E1058CC698D730
:105180001C43854585071CC3EFF05F906FB06FBB74
:10519000EFB2EFB82A8705E5896793870780739098
:1051A000073037D60000856537D500001306C6E204
:1051B000938525C5130505DBEF60901901A0B7079E
:1051C00000209387474454432E858C4303A88600D0
:1051D000D4CD8C4323A0050303A807008C466108A7
:1051E00023A2050103A807009C43610823A406012C
:1051F00098D71C4385071CC311C27D55B285EFF0BB
:10520000FF886FB00FB45C45DC4795E7EFB22FB174
:105210008967938707807390073037D600008565CC
:1052200037D500001306C6E2938525C8130505DBB4
:10523000EF60101201A0D04F9453985793858701C7
:1052400014C6D0C250436313B60054C3144323A4FE
:105250000702FD1614C33707002003274745D4571C
:1052600025EF8C47D047D84B90C5D04748434CC218
:10527000938547006313B50050C3104323AA07006A
:105280007D1610C3370700201307C745104363730B
:10529000D60014C351473386E60237270020130790
:1052A000477432975043084690C7C8C708464CC158
:1052B0000CC6D8CB1C43014585071CC3B70700208B
:1052C00083A74744DC5763F8D700B707002005479A
:1052D00023AAE746054582803737002013078789D0
:1052E00050430846D0CF88D308464CC10CC698D747
:1052F000D1B7EFB2CFA2B707002083A7474585E714
:105300008967938707807390073037D600008565DB
:1053100037D500001306C6E29385A5CB130505DB40
:10532000EF60100301A0B7070080DD8D5C450CC164
:1053300085E78967938707807390073037D6000029
:10534000856537D500001306C6E2938525CC130585
:1053500005DBEF60E07F01A050411445184914C6F9
:105360001445D0C250436313A60054C314432328EA
:1053700005009047FD1614C3D447D84B93854700CA
:1053800014C6D447D0C250436313B60054C3144369
:1053900023AA0700FD1614C3370700201307C745CB
:1053A000D45710436373D60014C351473386E602C3
:1053B000372700201307477432975043084690C799
:1053C000C8C708464CC10CC6D8CB1C4385071CC3B4
:1053D000B707002083A74744DC5763F7D700B70718
:1053E0000020054723AAE7466FB0AF95B707002016
:1053F00083A747461CC1B707002083A707475CC1A6
:105400008280EFB2CF91411105E5896793870780CC
:105410007390073037D60000856537D50000130636
:10542000C6E29385D5CF130505DBEF60607201A05E
:1054300085E58967938707807390073037D600002A
:10544000856537D500001306C6E29385E5CF1305C1
:1054500005DBEF60E06F01A02EC62AC4EFE08FD518
:10546000B245B707002083A607479C417D570144FA
:105470006381E702224537060020032646460328BB
:1054800005005841630DC80063EBE60023A005004A
:105490000544EFE08FD3228541016FB08F8A3386B8
:1054A000E640E375F6FE958FBA979CC1EFF01FF4C6
:1054B0000144C5B7B7070020054723AAE746828005
:1054C000B707002003A547448280B707002083A7C1
:1054D000C746054581CBB707002003A547451335CF
:1054E0001500060582804DC5EFB2CF813709002037
:1054F000930749449443585513094944D456637358
:10550000D7081C4D63C8070083270900D457BD473F
:10551000958F1CCD51463307C702B72700209386CD
:10552000477493844774369754496398E604930903
:1055300045002A844E85EFE09F84832709003707C2
:1055400000201307C745DC5714435CD463F3F6000F
:105550001CC35147B387E702A697D843144718C422
:1055600054C4144723A236012324370198435CC84E
:10557000050798C305456FA03FFC83270900DC574A
:105580005CD5CDBF9C436841DC573335F500E5B7AA
:105590000145828011E50145828001456FA07FFAB7
:1055A000EFA2FFF7B707002083A747442A8463854B
:1055B000A7028967938707807390073037D600006A
:1055C000856537D500001306C6E29385F5041305FB
:1055D00005DBEF60E05701A0BC4785E7896793874B
:1055E00007807390073037D60000856537D50000F7
:1055F0001306C6E293850505130505DBEF604055EC
:1056000001A054557841FD173CC5E388E6F8D1F771
:10561000930445002685EFE08FF67C403D471D8FC3
:1056200018CC370700201307C74514435CD463F335
:10563000F6001CC351473387E702B7270020938742
:1056400047740545BA97D843144718C454C414473F
:10565000C4C204C798435CC8050798C381B775C125
:10566000EFA2FFEB34452A8485E68967938707809C
:105670007390073037D60000856537D500001306D4
:10568000C6E29385F509130505DBEF60604C01A0C8
:105690007C4163F3B700AE8758546302F70A0546AE
:1056A000639FC608B706002083A64644639586021A
:1056B0008967938707807390073037D60000856528
:1056C00037D500001306C6E29385A50B130505DB4D
:1056D000EF60004801A0144C5CD463C60600BD46D0
:1056E000B387F6401CCC51463307C702B7270020CA
:1056F0009386477493844774369754486391E604BD
:10570000130944004A85EFE08FE7370700201307AD
:10571000C7455C54144363F3F6001CC35147B38779
:10572000E702A697D843144718C454C4144723A2C9
:1057300026012324270198435CC8050798C36FA05E
:105740005FE08280B70700209387474498439443E3
:10575000084FD4569843BD47958F1CCF8280B7071A
:1057600000201387474418439387474409C794434D
:10577000B8460507B8C688438280EFA25FDAEFE03B
:105780006FA3138441901C40B1EF373500201309FB
:10579000059013050590EFE00FDA373500209304EC
:1057A000459113054591EFE00FD9B7070020B736B3
:1057B00000203736002023AC27470147B7070020D9
:1057C000938686921306068CC145114523AE9746F3
:1057D000EFE00FFC08C019C5B7D500009385C5E6FA
:1057E000EFE05FFEEFE06F9E6FA0BFD5EFA23FD36B
:1057F0004CC108C9AA876362B602184D158E0545CB
:10580000637BE60093854700B707002003A5C747E1
:10581000EFE00FD401456FA0DFD26375D6000545D8
:10582000E3FBD5FE93854700B707002003A5874714
:10583000C5B7EFA2DFCE2A84AE8432890C4CA6868F
:105840004A86A6952285EFF07FFA19E16FA07FCFF7
:105850001C4C2285BE941C508297CDB7EFA23FCC42
:10586000B707002083A787474111AA84DC472EC6CB
:10587000C04713054400EFE08FD08347440232460F
:1058800013F7470019CBA6852285EFF09FFA1C502D
:105890002285829741016FA0DFCAF99B2302F4029F
:1058A000FDB7EFA2DFC73704002093068447984274
:1058B0001C4391EBB70700209387C747904398C3D9
:1058C00090C26FA01FC85C47FD558843EFF01FF9D9
:1058D000E9BFEFA25FC235694111B70A0020B70BDB
:1058E0000020130989E483A78A47984329CBDC4722
:1058F000814C03AC0700EFF04FB8EFF00FB983A76E
:1059000001902A8493840190138A4190636CF5027C
:1059100088C063800C0483A7CB47904313361600DE
:1059200003250A00B3058C40EFE09FF0EFF04FD164
:1059300019EDB7E700E0116723A0E72009A8854C1F
:10594000014C55BFEFF0FFF580C0EFF06FCF214C59
:105950000DA00146E36685FDEFF08FCEA28562853E
:10596000EFF0DFEFEDB79247B2458297824763DDF4
:10597000070003250A0001468A85EFE0BFA825D568
:1059800082472245E3C107FE22445C489DE3EFF0D5
:10599000CFAF9C40AA8C6374F500EFF09FF0824774
:1059A00023A09401FD17E366FCFC8A07CA979C4379
:1059B000828713054400EFE08FBCD1BF83474402C8
:1059C0000C4C924693E717002302F4026686B695C4
:1059D0002285EFF0BFE151DD8347440213F7470012
:1059E00001CF1C4C924566862285BE95EFF07FE480
:1059F0001C5022858297B5BFF99B2302F402CDBFCC
:105A000083474402F99B2302F402A5B7834744026B
:105A1000924593E717002302F4020CCC9DE18967BD
:105A2000938707807390073037D6000037D5000082
:105A3000130646E793059035130505DBEF6040112B
:105A400001A0E6866686E6952285EFF03FDA15B777
:105A50008347440213F7270055F72285EFD0BFD6BE
:105A600009BFEFA2DFAB4111EFF03FD183A7419017
:105A700095CB70002C00480002C202C4EFB07FBC7E
:105A8000A24712483246B7D50000376500003947B3
:105A900081469385C5E81305258DEFF0EF8923A492
:105AA000A1901DE18967938707807390073037D6EF
:105AB000000037D50000130646E793059011130543
:105AC00005DBEF60E00801A0054541016FA07FA75D
:105AD000EFA2FFA44111B68732C63E862AC203A5B3
:105AE000419079572EC481468A853AC0EFE00FFF76
:105AF00041016FA01FA583A7818037177A00130784
:105B00000720B3D7E70293F7F70F2387F190130726
:105B1000803EB387E7022396F1908280EFA23FA0F8
:105B200001112A84854537050200EFC08FFD8545A8
:105B30001145EFC02FFB91477C82371501408D47FF
:105B40003EC44C00E147130505803EC6EFC0EFBCE4
:105B500022C837440040B70708000C08130504406A
:105B60003ECC02CA231E0100EFC05FCA8545130563
:105B70000440EFC07FD505616FA0BF9CEFA29F9846
:105B8000B7440040AE8932890144938404406345A0
:105B900024014A856FA05F9A930500042685EFC013
