:100000006F10707013000000130000001300000058
:100010001300000013000000130000001300000094
:100020001300000013000000130000001300000084
:08003000130000007300100032
:10003800000000000000000014080000160800007E
:10004800000000009E1E00000000000000000000EC
:10005800A01E0000A21E000000000000000000001A
:10006800D43400000000000000020000000000007E
:10007800A81E0000AA1E0000AC1E0000AE1E000054
:10008800B01E0000B21E0000B41E0000B61E000024
:10009800B81E0000BA1E0000BC1E0000BE1E0000F4
:1000A800C01E0000C21E0000C41E0000C61E0000C4
:1000B800C81E0000CA1E0000CC1E00007C080000FC
:1000C80054090000AA090000000A0000D61E00001A
:1000D800D81E0000DA1E0000DC1E0000DE1E000034
:1000E800E01E0000540A0000E41E0000E61E0000A6
:1000F800E81E0000EA1E0000EC1E0000EE1E0000D4
:10010800F01E0000F21E0000F41E0000F61E0000A3
:10011800F81E0000FA1E0000FC1E0000FE1E000073
:10012800001F0000021F0000041F00000000000064
:080138000000000000000000BF
:10020000130181F806C216C41AC61EC822CA26CC1B
:100210002ACE2ED032D236D43AD63ED842DA46DC76
:100220004ADECEC0D2C2D6C4DAC6DEC8E2CAE6CC46
:10023000EACEEED0F2D2F6D4FAD6FED8F3220030CF
:1002400096DA9702002083A2222023A02200F32521
:1002500010342EC003A14183EF40007B1703002020
:100260000323831E03210300824273901234D6526B
:10027000739002309240A2423243C2435244E2445D
:10028000724582551256A2563257C2575258E258FA
:1002900072598649164AA64A364BC64B564CE64C0E
:1002A000764D865D165EA65E365FC65F13018107DA
:1002B0007300203013000000130000001300000042
:1002C00013000000130000001300000013000000E2
:1002D00013000000130000001300000013000000D2
:1002E00013000000130000001300000013000000C2
:1002F00013000000130000001300000013000000B2
:1003000083A24183938202E073900234170100209C
:1003100003218113024182403243C2435244E244EA
:10032000724582551256A2563257C2575258E25859
:1003300072598649164AA64A364BC64B564CE64C6D
:10034000764D865D165EA65E365FC65FD652A1020A
:1003500073900230A24213018107828013000000D3
:100360001300000013000000130000001300000041
:100370001300000013000000130000001300000031
:100380001300000013000000130000001300000021
:100390001300000013000000130000001300000011
:1003A0001300000013000000130000001300000001
:1003B00013000000130000001300000013000000F1
:1003C00013000000130000001300000013000000E1
:1003D00013000000130000001300000013000000D1
:1003E00013000000130000001300000013000000C1
:1003F00013000000130000001300000013000000B1
:10040000F322003093F272FF130380181203B3E259
:100410006200711523205500130585FA10C12115BE
:10042000232005009302000063870200711523203A
:100430000500FD12D5BF71150CC1828000000000BF
:1004400000000000000000000000000000000000AC
:10045000000000000000000000000000000000009C
:10046000000000000000000000000000000000008C
:10047000000000000000000000000000000000007C
:10048000000000000000000000000000000000006C
:10049000000000000000000000000000000000005C
:1004A000000000000000000000000000000000004C
:1004B000000000000000000000000000000000003C
:1004C000000000000000000000000000000000002C
:1004D000000000000000000000000000000000001C
:1004E0000000000000000000000000000000397162
:1004F00001436EC619A0397141536AC866CA62CCFD
:100500005ECE19A0397101535AD056D252D44ED66C
:100510004AD826DA22DC06DE3301614082824111AC
:100520004AC026C222C406C68282B24D4101024D93
:10053000924C224CB24B4101024B924A224AB249A0
:100540004101024992442244B240410182803D432C
:100550002A876373C3029377F700BDEFADE5937607
:1005600006FF3D8ABA960CC34CC30CC74CC7410763
:10057000E36BD7FE11E28280B306C3408A0697027E
:10058000000096966780A6002307B700A306B70071
:100590002306B700A305B7002305B700A304B700DF
:1005A0002304B700A303B7002303B700A302B700D7
:1005B0002302B700A301B7002301B700A300B700CF
:1005C0002300B700828093F5F50F93968500D58DB3
:1005D00093960501D58D61B7939627009702000089
:1005E00096968682E78086FA9680C1171D8F3E9682
:1005F000E374C3F8A5B7B707002023A4A73C828003
:10060000EFF27FEFB705002039719385453C014536
:1006100037040020EF70B00E2320A43C1304043CE8
:1006200019E1EF10A02B1C40370700200327873C5F
:10063000DC4398C3EF40D07EEF508001A12D2313FF
:10064000A10202D6EF00806E1C40A302A102DC438F
:10065000884323AA0700EF5080021C40C843EF5094
:10066000A0230840035661025C418C43EF7050198F
:1006700019C1EF10A026B70700209387C72798530A
:100680000840930661023AD8D853130651020C1859
:100690003ADA9857DC573ADC3EDEEF70D01919C1D0
:1006A000EF10C02383A6C18103495102032A04002D
:1006B00036CE2D2D8967C507C98FF2461307401F17
:1006C0009309C102C2073AC04EC64AC402C2930887
:1006D000803E1308401FC183014701468145528572
:1006E000EF70B01811C5B5576304F500EF10001F87
:1006F000084003A6C1814E874C49CA86EF7070221C
:1007000019C1EF10A01D1C409C4399C3EF10001DA0
:100710001C40B70400208969C843130A803EEF409B
:10072000307723A6043CEF403074EF30B0752A894F
:1007300002D49384C43C938909719C4089CBB70748
:10074000EFBE37E700E0938707083CC7FDBFA2551F
:1007500003A58191B3D54503EF30900AEF40506F68
:100760004ED4EF3030723306254133064603AA8A51
:100770000840341081455689EF70302688C003A5A3
:10078000C191814601468145EF30E03BEF40D06D9D
:100790006DB7EFF23FD74111EF40906BEF30906EA5
:1007A00089692A8402C6130A803E93890971370B2E
:1007B0000020EF40706BB24503A5C19113090B3CBB
:1007C000B3D54503A284EF30B003EF4070688327B0
:1007D00009004EC695CFDC43DC4B9DCBEF30906AD1
:1007E000AA84032509001C4185E75C41DC4B8DC3CD
:1007F0003384844033044403740081452286EF70BF
:10080000B02503250900740022868145EF70D028A9
:10081000268445B701A039712AD637D500001305C3
:10082000C5DA06DE16DC1ADA1ED832D236D03ACE57
:100830003ECC42CA46C872C676C47AC27EC02ED4A6
:10084000EFB0A05CEF40D057AA8537D50000130564
:1008500005DCEFB0404AEF401057AA8537D50000BD
:10086000130505DDEFB02049EF405056AA8537D576
:100870000000130505DEEFB0004801A05D7122DE27
:1008800026DC37640040B70400382ADA2ED8130576
:100890000440938514003ED086C696C49AC29EC07A
:1008A00032D636D43AD242CE46CC72CA76C87AC64E
:1008B0007EC4EF10302B8547631AF5009385140032
:1008C00013050440EF10702FEF50A00CB704003850
:1008D000376400409385041013050440EF109028FE
:1008E0008547631AF5009385041013050440EF1043
:1008F000D02CEF50000A37640040B70501381305CB
:100900000440EF1030268547631AF500B70501381B
:1009100013050440EF10702AEF50A0073765004020
:10092000854513050540EF10503A7254B640A64273
:1009300016438643E2545255C2553256A2561257B8
:1009400082577248E248524EC24E324FA24F616106
:100950007300203039712AD6376500402ED4130534
:100960000540814506DE16DC1ADA1ED832D236D0B2
:100970003ACE3ECC42CA46C872C676C47AC27EC05F
:10098000EF50600CF250E2525253C2533255A2550E
:10099000125682567247E2475248C248324EA24E21
:1009A000124F824F21617300203039712AD637658A
:1009B00000402ED413050540854506DE16DC1ADA04
:1009C0001ED832D236D03ACE3ECC42CA46C872C6C3
:1009D00076C47AC27EC0EF500007F250E252525302
:1009E000C2533255A255125682567247E2475248B8
:1009F000C248324EA24E124F824F21617300203006
:100A000039712AD6376500401305054006DE16DC2D
:100A10001ADA1ED82ED432D236D03ACE3ECC42CAC2
:100A200046C872C676C47AC27EC0EF500006F25045
:100A3000E2525253C2533255A25512568256724751
:100A4000E2475248C248324EA24E124F824F2161B5
:100A5000730020305D7126DCB70400402ADA2ED8FE
:100A60001385044085453ED086C696C49AC29EC072
:100A700022DE32D636D43AD242CE46CC72CA76C8BC
:100A80007AC67EC4EF20A04E85476315F502371461
:100A900001408565130504C0EF10905EEF00D02D76
:100AA000854513850440EF20004E8565130504C07D
:100AB000EF10905B7254B640A64216438643E25450
:100AC0005255C2553256A256125782577248E248C2
:100AD000524EC24E324FA24F616173002030EFF28E
:100AE0007FA2EF10903837F50008B704002037F4E4
:100AF0000008EF10903D938404009149130904010C
:100B00008C402285EF10F03F631A350198401C405D
:100B10006316F70011049104E31424FFEF109036DC
:100B200021BCB707002003C70738630D070EEFF29B
:100B30001F9F37F40008042037D50000130545E156
:100B4000A68513890738EFB0001B930770066380F2
:100B5000F40237D50000130505E0EFB0002B413754
:100B60000C2037D50000130505E1EFB0C01837049D
:100B70000020B7F700081307040093860701130449
:100B80000400902385070507A30FC7FEE39BD7FE4C
:100B900083A7C181130684000547C8438546854560
:100BA0001305C51223000900EF50B03F83A7C18190
:100BB000130694000547C843854689451305C512A9
:100BC000EF50303E83A7C1811306A4000547C843F8
:100BD00085468D451305C512EF50B03C83A7C181F2
:100BE0002D042286C8430547854691451305C51245
:100BF000EF50303B83A7C18122860547C843854615
:100C0000854513058513EF50D03983A7C18105476A
:100C10008546C8432286894513058513EF507038F1
:100C20006FF03F928280EFF29F8FB707002093878B
:100C300007003E950CA165356FF0BF90EFF23F8E37
:100C4000B7070020938707003E9513D78500411111
:100C50000CA118B16C87613541016FF09F8EB70709
:100C6000002083C7073885C3EFF27F8B41112AC666
:100C70004D3D3245B707002093870700AA97882388
:100C800041016FF01F8CB707002093870700AA97D8
:100C900088238280B707002083C7073895C7EFF203
:100CA0001F884135B707002083C717001D4713056C
:100CB000D0076369F70013971700B567938707DFBD
:100CC000BA978A236FF0FF87B707002083C7170002
:100CD0001D471305D007636AF70013971700B56720
:100CE000938707DFBA978A2382808280B707002024
:100CF00083C7073885C3EFF29F822535B7070020E9
:100D000003C73700854701456314F700130500103A
:100D10006FF03F83B707002003C7370085470145C1
:100D20006315F7001305001082808280B70700204A
:100D300083C7073891CBEFF28FFEE533B70700206A
:100D400003C527006FF0EFFFB707002003C527009A
:100D50008280EFF2CFFC931735003565130545E22D
:100D60003E954E210841EF10502E6FF08FFDEFF2AF
:100D70000FFB0111A1475C84B70700209387073D53
:100D80003EC8B70700209387873D2D453EC6C13D2D
:100D9000230BA1002945E135A30BA1002545C13551
:100DA000230CA1002145653DA9473305F502B7177E
:100DB0000000938727D53ECEE8822800EF2000313F
:100DC00005616FF00FF8EFF2EFF301118545114562
:100DD000EF10B05485452145EF103054854541450D
:100DE000EF10B053854513050002EF1010538545F1
:100DF0000545EF10905285451165EF10F05385457C
:100E000037050002EF10505385450545EF10D052CD
:100E10008564138504808545EF103050854509456C
:100E2000EF1090518545054537140140EF10104DE6
:100E3000130504C0856502C602C802CAEF1050241B
:100E40001305048093050010EF109023F9770D4AE5
:100E50006C00371501407C8652C8E97902CAEF1050
:100E6000300F938789ED6C00130504807C86EF10AA
:100E7000300E8567938717806C00130504C07C864D
:100E8000EF10100D9307E00F11496C00130504C01B
:100E90007C864ACAEF10D00B930700026C00130542
:100EA00004807C86EF10D00AC1476C00130504C093
:100EB0003ECA6486EF10D009930400106C0013053D
:100EC00004806486EF10D0083705180085451305A7
:100ED0000520EF10701CE1476C00130504802316F9
:100EE00041013ECAEF10D006930700406C00130585
:100EF00004C07C86EF10D0056C00130504C02316D7
:100F00003101EF10F004854537451D00EF10D01872
:100F1000930700206C00130504C07C86EF1050037B
:100F20006C0093098004130504C0648637340140C3
:100F30004ECAEF10F001130504C0EF105050130516
:100F400004C0EF10D07C6800EF1010779304803E4F
:100F50006C00130504C0E48023163101EF10F05536
:100F60008545130504C0EF1090769307D0327C8638
:100F7000680085473EC823170100EF10B021930792
:100F8000402268007C86EF10F02093075002680032
:100F90005C86EF1030209307300268005C86EF100B
:100FA000701F9307600268005C8637440040EF10B2
:100FB000701E1305048002C602C802CA02CC231E9A
:100FC0000100EF10103DB70704013EC6B70700024D
:100FD0003ECA6C00A147130504803ECC02C8231E04
:100FE0000100EF10703E0546894513050480EF109F
:100FF00030433705004002C602C802CA02CCEF10D7
:10100000104437050040EF1090700A85EF10D06A49
:1010100089478A853705004064827C80EF10F0495B
:10102000C167938707063EC66C009307401F3705CC
:101030000040FC81231A0100EF10D04E6C003705F0
:101040000040EF10D0546C0037050040EF10905D69
:10105000814537050040EF10306E8145370500406F
:10106000EF10706E814537050040EF10306F8545F9
:1010700037050040EF10B06A854537050040EF1096
:1010800090663704004013050440EF10503B1305F1
:101090000440EF10D0676800EF1010626C00130579
:1010A0000440E48023162101EF1030411305044071
:1010B0008545EF10506D0546854513050440EF103A
:1010C000F06305616FF04FC7EFF26FC539712A8485
:1010D0002E89B28481451306C002480836C6EFF057
:1010E0000FC72285EF104048B246C1473ECE930756
:1010F00000083ED44C088D6722854ACA26CC36D0DB
:101100003EDC02D202D602D802DA02DEEF10804FB5
:1011100021616FF00FC3EFF28FC0EFA0601FB7D750
:10112000000003A607EA83A647EAEF90C04BB7D7B3
:10113000000003A687EA83A6C7EAEF80105EEF707F
:101140002018B7D7000003A607EB83A647EBEF9064
:101150008049EFA0200F420541816FF08FBEEFF272
:101160006FBAE17741118D07371401407C82C14786
:10117000130504803EC64C008D473EC42313010076
:10118000EF10005D93070040130504C04C007C8203
:10119000EF10005C9167130504807C824C0091473E
:1011A0003EC6EF10E05A130504808D45EF10C06B6A
:1011B000130504C093050040EF10006B130504C035
:1011C0008565B569130904C0EF10806B8144914AAD
:1011D000938949E613040480754A85654A85EF10B2
:1011E000A0680545EF30E07B85654A85EF104069D2
:1011F00063E09A0293972400CE979C4382878D45A3
:101200002285EF10E067930500404A85EF104067A4
:10121000850493F4F40FE39244FD37140140A16573
:1012200013050480EF10C0658565130504C0EF1039
:10123000A0638565130504C0EF1080648D45130518
:101240000480EF10E06393050040130504C0EF1025
:1012500020630545EF30E0748565130504C0EF1089
:10126000A0600545EF30E0738565130504C0EF10FD
:1012700020618D4513050480EF10806093050040C8
:10128000130504C0EF10C05F61498144930904C095
:10129000130A048085654E85EF10005D0545EF302B
:1012A000407091655285EF10405A85476315F500EF
:1012B000860493E4140085654E85EF10605C7D190B
:1012C00005451379F90FEF30C06DE31509FCB70739
:1012D0000001FD176396F40637D50000130585EB72
:1012E000EFA0B032130504808D45EF10E0571305D1
:1012F00004C093050040EF102057130504C0B71435
:1013000001408565138904C0EF1080570144938420
:101310000480094A954985654A85EF10E0540545E2
:10132000EF30206885654A85EF1080558547630654
:10133000F40A630E440B05041374F40FE31D34FD2B
:10134000371401404C00130504C0EF106040E14722
:101350003EC6E977938707404C00130504C07C82A2
:10136000EF10003FE1778D074C00130504807C826D
:1013700037440040EF10C03D130504808545EF1051
:10138000900837060020370502408D461306C63EFA
:101390009305C48013058505053B37050040854549
:1013A00013050540EF10B032854537050040EF10BA
:1013B000103241016FF04F988D452285EF10C04AE1
:1013C000930500404A85EF10204A99B58565DDBF39
:1013D000856525BDA1652285FDB726858D45EF1064
:1013E000204A930500404A85EF108049A9B7268519
:1013F0008D45EF106047930500404A85EF10C046C9
:101400001DBFB70700209387473E3E95A30FB5FE4B
:101410008280B70700209387073E3E95A30FB5FE55
:1014200082801307F0036369A700EFF24F8FE53165
:101430002392A1806FF0EF90930760092392F180CF
:101440008280B70700201387873EFD567D1516A3BF
:1014500034A31375F50F21479387873E6369A7026D
:101460003567130787E70A053A9518410287A38075
:10147000070023810700828023800700DDBF2390BF
:1014800007008280A380070082802380070082807B
:101490001307F003636BA700EFF26F88AD393707CE
:1014A00000202311A7386FF0CF8993076009370711
:1014B00000202311F7388280EFF26F86411102C0BD
:1014C00002C202C402C69307F00363E1A708814584
:1014D0002A8437050040EF101021C1679387070663
:1014E00022853EC0EFA06042B7D7000083A547EC3D
:1014F000EF907068B7D7000083A587ECEFA080124B
:10150000EFA0403B0505894768838A853705004081
:101510007C84EF1030018A8537050040EF103007DA
:101520008A8537050040EF10F00F854537050040EC
:10153000EF10701B2C8337D500001305C5ECEFA00E
:10154000807B854537050040EF10701841016FE042
:101550005FFFEFE2DFFC1945EFF06FF0DD3511457D
:10156000EFF0EFEF7D3D1545EFF06FEF1537130509
:10157000F00399376FE0FFFCEFE27FFAB705002038
:1015800083D7253F130760099385253F8507C20749
:10159000C183636AF7169EA1B70700209387073EB1
:1015A00098239033B423370500203368C700B7076A
:1015B000002033E80601130515389387473E63067C
:1015C0000816B70800209388083F03D80800156361
:1015D0001303437E050842081358080123900801AD
:1015E000637B030103480500239008007D1833380E
:1015F000000123000501034E0500054503C3070054
:1016000083C8170003C827006312AE103367670052
:101610003366160198A390B3B3E60601B4A3370767
:1016200000209306C73E03C807008833B023B707DE
:101630000020239006002381060083D8050083D66E
:1016400027389307C73E63F6D802B7060020938673
:10165000863E3367A8008C22518F1347F7FF13771C
:10166000F70FF98DACA38C32B422F98D758F8CB342
:1016700098A303D74180636D1701B8233368E8004E
:10168000983323810701598D982388B3598E90A3ED
:1016900037340140130504C0EF10300DB704024089
:1016A0008D452A8913858405EF00907A138584057A
:1016B0008545EF00B078130404C093043006370565
:1016C0000200EF00307901ED2285EF10100A33059A
:1016D00025419357F5413D8D1D8DE3D2A4FE37057D
:1016E0000240814513058505EF0050754165EF0007
:1016F0005077374500409305000413050580EF102F
:1017000040536FE01FE42390050079B51347F7FFBE
:101710001346F6FF337767003376160193C6F6FF5C
:1017200098A390B3B3F60601D5BD054718A1C5BD72
:10173000EFE2FFDEEFF0BFA237D50000130585ED25
:10174000EFA0605B37040020032584408545130427
:101750008440EF208005B7D4000008407D578146C3
:1017600001468545EF1030671305401FEF306023B9
:10177000138544EEEFA06069CDB7EFE25FDA114563
:10178000EF10A0206125EF30D054716513050520BE
:10179000EF30905683A5818037D50000130505EF03
:1017A000EFA06055EF00B05BAA8537D500001305A8
:1017B00005F0EFA04054B7D5000037D50000938561
:1017C00005F1130585F1EFA00053EFF0CFDFB70768
:1017D0000020B7D50000371500009387C73F154795
:1017E000814613060008938585F313050573EF20E2
:1017F000F03FB7070020B7D50000373500009387CA
:1018000007401547814613060008938545F41305E4
:10181000A510EF20B03DB7070020B7D50000372551
:10182000000093874740294781461306001093859F
:1018300045F5130585C3EF20703BB7070020B7D5EA
:101840000000370500009387873F1D478146130638
:10185000C02B938505F613050560EF203039B707D7
:101860000020B7D50000370500009387473F154794
:10187000814613060010938505F713052579EF209F
:10188000F036EFF00FAAF131EFF06FCEEF107001EC
:10189000D12C3765004013050540EFE0DFD5EF1090
:1018A000D051B707002023A4A74037D40000EF2071
:1018B0005053130504F8EFA04055E5BFEFE23FC6D3
:1018C000B707002083A587403745000081460546BD
:1018D00013052587EF30903D6FE0BFC69967739081
:1018E000078001A0A54729C1A1C19DCE03481501CC
:1018F0008948B9471307F8FF1377F70F63E6E80243
:10190000EFE2FFC1AE848C2141112A84428536C6A4
:1019100032C4EFF01FB0B2462246A6852285EF40C2
:10192000704741016FE0FFC13E8582801DC12545A2
:101930009DC195C28C213D4593978501E187635CEC
:10194000F000EFE2DFBD0945EFF0EFAD01456FE0DC
:101950005FBF2545828082800DC125458DC185C22E
:101960008C219D473D4563ECB700EFE25FBB054529
:10197000EFF06FAB01456FE0DFBC254582808280D0
:10198000A5474DC1C5C1D9CEEFE27FB91C39854607
:101990002E8413F7B7FF7D171377F70FAA8463E23E
:1019A000E6028C211307F0036376B700BD473E853E
:1019B0006FE03FB90947638DE704636DF702638504
:1019C000D70494380546B9471387D6FF1377F70F26
:1019D000E36FE6FC0C2021479387F5FF93F7F70FA1
:1019E000E366F7FC9147638BF6022E85EFF07FA547
:1019F000814775BF15476381E70219471545E39293
:101A0000E7FCEFF04FA275BF2E85EFF09FA155BF09
:101A10002E85EFF0FFA775B71145E5B71945EFF033
:101A20008FA0F9B73E858280EFE27FAF4111254953
:101A300029C1A1C19DCE1C39094739491388F7FF37
:101A400063690703AE848C212A843E8536C632C47E
:101A5000EFF03F9B2246B246A6852285EF409033A9
:101A600090200C382A8937D50000130585FBEFA09C
:101A700080284A8541016FE0DFAC0DC125458DC14D
:101A800085C28C2185473D4563ECB700EFE23FA955
:101A90000D45EFF04F9901456FE0BFAA25458280C3
:101AA0008280A5472DC1A5C1B9CEEFE2BFA51C39E3
:101AB00009473689B2892E84AA846380E704636962
:101AC000F7000547638FE700BD473E856FE0DFA65F
:101AD0000D476387E7021147E398E7FE8C212D4508
:101AE00019A08C212145EFF00F94CA864E86A2855D
:101AF0002685EF40302A8147C9BF8C212545E5B7AF
:101B00008C212945CDB73E85828039C9EFE29F9F60
:101B1000AA8441112545B1C1A9C29C380547B6899F
:101B200032892E84638DE70009473D456397E702BC
:101B30009C2139455C879C31DC872C8739A09C210E
:101B400031455C879C31DC872C87EFF02F8FCE8668
:101B50004A86A2852685EF40F02341016FE0DF9D94
:101B600025458280EFE2BF9BEF10A055B70700200C
:101B700023AAA74083A7C181DC439386C70FA5E2B0
:101B8000370700201307070523A8E710138747111D
:101B900025E3370700201307070323A4E712138761
:101BA000871625E3370700201307070623A2E71649
:101BB0001387471425E3370700201307070923AAD3
:101BC000E7121387871325E303A747109307C7007E
:101BD00035C3370700202326F7406FE09F9637076D
:101BE00000201307070423A2E7101387871049FB7F
:101BF000370700201307070223AEE71013870712E9
:101C000049FB370700201307070723A8E7161387A8
:101C1000C71549FB370700201307070123A6E71460
:101C20001387C71249FB370700201307070823A0B3
:101C3000E714D9FA814771BFEFE2FF8B3569B70925
:101C40000020370B0020B7040020B70B0020130939
:101C500089F94E8A0545EF20D05413044B410840C2
:101C6000EF20405B65D908407D5693850441EF2005
:101C7000C022138C044183470C001D4713843B4151
:101C80006366F7088A07CA979C43828785471CA02A
:101C900083A7C18105478546C843138629418545E9
:101CA0001305C50FEF40B02C83461C0093070008B6
:101CB00013072A41639FF6041C231420D58F1CA30D
:101CC00083A7C18105478546C84313062A41854538
:101CD0001305C50FEF40F02CB707002083A7C740BE
:101CE000B5DB9823759B98A3B5B789474DB7914746
:101CF00079BFA14769BFC14759BF9307000241BFE0
:101D00009307000469B7930700F851B72300040054
:101D100041B71C20142393C7F7FFF58F4DB7B717B2
:101D200002409843B706FFF841111367170098C3A4
:101D3000D84337060200758FD8C39843B706F7FE1D
:101D4000FD16758F98C39843B706FCFFFD16758F77
:101D500098C3D843B70681FFFD16758FD8C33707E0
:101D60009F0098C702C402C69843C166558F98C3A6
:101D7000B716024005679C42F18F3EC6A247850711
:101D80003EC4B24781E7A247E397E7FEB717024098
:101D90009C431397E7006359070685473EC63247C1
:101DA00085476311F706B7170240D843B706C1FF4E
:101DB000FD1613670708D8C3D843D8C3D8431367A1
:101DC0000740D8C3D843758FD8C3D843B7063D0062
:101DD000558FD8C39843B7060001558F98C39843D1
:101DE00093166700E3DD06FED843B7160240719BE9
:101DF000D8C3D84313672700D8C32147DC42B18B2F
:101E0000E39EE7FE4101828002C651BFB716024041
:101E1000DC421146B18B138781806385C700214660
:101E20006388C702B7177A00938707201CC3B717C8
:101E30000240DC43918393F6F700B70700209387B5
:101E4000070AB69794231C43B3D7D7001CC38280DC
:101E5000DC42D4424166C983BD8BF18E8907454679
:101E60006393C700C94781EEB746024083A6068048
:101E7000C18A89CEB7167A009386062021A8B716A4
:101E80000240D4421396E600E35606FEB7163D0024
:101E900093860690B387D70251BF01A001A001A08D
:101EA00001A001A001A001A001A001A001A001A02A
:101EB00001A001A001A001A001A001A001A001A01A
:101EC00001A001A001A001A001A001A001A001A00A
:101ED00001A001A001A001A001A001A001A001A0FA
:101EE00001A001A001A001A001A001A001A001A0EA
:101EF00001A001A001A001A001A001A001A001A0DA
:101F000001A001A001A097F1FF1F9381A1C7173184
:101F100000201301210F17C50000130565AF97E5D9
:101F2000FF1F9385250E1386018463FAC500832263
:101F3000050023A0550011059105E3EAC5FE17E54C
:101F4000FF1F13052548971500209385A5F8637793
:101F5000B500232005001105E36DB5FEFD42739029
:101F600002BC894273904280B722000093820280B3
:101F700073A0023097E2FFFF9382420C93E232009B
:101F800073905230EFF0BFD997F2FFFF9382227F18
:101F900073901234730020301841AA87759B18C1C2
:101FA00018411367170018C14167D443858A99E225
:101FB0007D1765FFD8430145058B49CF94450547FB
:101FC000639BE608984313670708D44598C3054701
:101FD0006397E608984313670704944998C3054735
:101FE0006393E608984313670702D44998C30547EB
:101FF000639FE606984313670701944D98C305470E
:10200000639AE606984313678700D44D98C3054743
:102010006395E60698431367470098C3B821B43127
:102020007A07E206558FD421C206558FD431D206E5
:10203000558F9621FD16558FD8CF9843799B98C31D
:102040004167D443858A99C27D1765FFC84313450C
:10205000F5FF0589828098431377F7F7BDB798435A
:102060001377F7FB9DBF98431377F7FDBDBF9843E8
:102070003D9B61B798435D9B49BF98436D9B71BF82
:102080003767004013070740832607203C25054893
:1020900093E616002320D7208325C7213316F800A6
:1020A0009346F6FFF58D232EB7204C25C5E58325F5
:1020B000C720035825008E07F58D2326B7206E21F3
:1020C000BA975A21C205B3E5050123A0B7240E2112
:1020D00042074D8F23A2E724B7270240985BB7073A
:1020E000000FF98F99EF3767004093070730130708
:1020F00007408E239107C205C181239EB7EEE39A64
:10210000E7FE3835B7670040938707402DEB03A7FC
:102110004720758F23A2E7201A25B76700409387D1
:10212000074035E303A74721F98E23AAD720184992
:1021300085476319F700B767004003A7C761598E49
:1021400023AEC760B767004003A70760799B23A051
:10215000E7608280E39205F98325C72003582500B4
:102160008E07D18D2326B7200E21BA975A21C2059A
:10217000B3E5050123A0B72442076E2199BF03A749
:102180004720518F41BF8546E313D7FA03A7472164
:10219000518F23AAE72061BF1C4513975700634E58
:1021A00007081C4513974700634B07081C459146D9
:1021B0001397370063510708894693974600AA97FB
:1021C00003A70718058B23A0E7189025883535EA63
:1021D000984103A607185607498F518F23A0E71887
:1021E000B8253D8BB8A503A64718419A23A2C71866
:1021F00003A64718518F23A2E718D025B835220629
:10220000598ED8354207598EF8256207518F23A47D
:10221000E7189029F8352206598E98394207598EC9
:10222000B8296207518F23A6E71803A70718136779
:10223000170023A0E718368582808146BDBF8546FA
:10224000ADBFD84103A807180E07498F518F3367D8
:10225000070169B793974500AA9703A7071B118B3E
:1022600018A62DE703A7071B558318C203A7071B52
:10227000098B18B603A7471B3D8B38A603A7471B3E
:10228000218338BA03A7871B38B603A7871B21838E
:1022900058A603A7871B418358B603A7871B6183F2
:1022A00078A603A7C71B78B603A7C71B218318AA64
:1022B00003A7C71B418318BA83A7C71BE1833CAAA6
:1022C00099E95C4593E707025CC5828003A7071B79
:1022D0000D8358C261BF1C4993E707021CC9828065
:1022E0008DE51C418546F19B93E717001CC1C16732
:1022F00058410D8B6304D700FD17FDFB5C418D8BAE
:10230000FD1793B717003E8582808547639EF500D1
:102310001C41F19B1CC1C16758410D8B19C3FD17AE
:10232000E5FF5C418D8BF1BF09478147E39DE5FCEB
:102330001C418946F19B93E727001CC1C1675841A6
:102340000D8B6304D700FD17FDFB5C418D8BF917E6
:102350004DBF5C4901C6DD8D4CC9828093C5F5FF38
:10236000FD8DDDBFB707F000ED8F89CB104D3375C4
:10237000B600320531813335A00082809397750015
:1023800063D60700544133F5B600E5B7939745008F
:1023900063D5070008456D8DE9BFB7061000939718
:1023A0006500FD1663D7070058453375B700758D76
:1023B000D9B71C4933F5B700DDBFB707F0309387B5
:1023C00007076395F500232C050082809397C500CD
:1023D00013976500B183635407005CC5828013972F
:1023E0005500635407001CC982801397450063544D
:1023F00007001CC582805CC182805C49ED8F95C35B
:10240000930700046383F50A63ECB7029147638680
:10241000F50863EAB70085476386F5068947638B4D
:10242000F50601458280C147638DF50693070002DA
:10243000638BF506A147E396F5FE4845118185A01B
:1024400093870580BDCF85679387078063E0B702D8
:10245000930700206381F506930700406380F5062B
:1024600093070010E39FF5FA084D15A8C167638034
:10247000F504B7070200638EF502A167E393F5FA4E
:10248000484135A80845C167938717107D8D3335BE
:10249000A000828048450D89DDBF48450D81058932
:1024A00082800849CDBF0849D5BF084941BF48418E
:1024B000F5B7484161B7084D0581D5B7084D098189
:1024C000F9BF084D13750507D9B793070010638648
:1024D000F50663E7B702A1476388F50663E9B7002D
:1024E0000547638EE50411476381E5068280130783
:1024F0000002638FE50493070004638AF504828079
:10250000938705808DCB85679387078063EBB70042
:10251000930700206383F50293070040638FF50063
:102520008280C1676388F502B70702006387F502FE
:10253000A1676393F502232C0500914729A8C16781
:10254000938717101CC58280C1475CC58280C14734
:102550001CC98280A1475CC18280C147EDBFB7F72B
:10256000FF1F03A5477082801C4141677917F98FCF
:102570001CC1232005002322050023240500B707E2
:10258000024023260500138787006316E500D84321
:102590001367F70001A81387C7016317E500D84345
:1025A0001367070FD8C3B1A8138707036318E500A3
:1025B000D8438566938606F0558FEDB71387470499
:1025C0006315E500D843BD66C5BF1387870563164D
:1025D000E500D843B7060F00C5B71387C7066316D3
:1025E000E500D843B706F000C1BF1387070863169C
:1025F000E500D843B706000FC1B713874709E308C2
:10260000E5F882801C4161773D0794517D8F9C45A0
:10261000D58F9449D58FD449D58F944DD58FD44D2E
:10262000D58FD451D58F9455D58FD98F1CC1DC450A
:102630005CC19C411CC5DC415CC582801C4189C5D4
:1026400093E717001CC1828041677917F98FDDBFBE
:102650004CC18280B70702409C437D8D3335A0007A
:102660008280B7070240C8C38280B7076745372713
:102670000240938737125CC3B797EFCD9387B79A21
:102680005CC38280372702401C4B93E707081CCBB2
:102690008280372702405C470545858B91E7484794
:1026A0004189133515000D058280EFD25FE72A843A
:1026B0008544C5376318950019E0154529A0D13F19
:1026C0007D14CDBF7DD86FD0DFE7EFD25FE5AA8460
:1026D00037050B00D93F91476313F50237240240B9
:1026E0001C4837050B0093E727001CC844C81C484A
:1026F00093E707041CC8553F1C48F59B1CC86FD0C6
:102700005FE4EFD23FE041112A891565AE8402C62D
:102710009149613F631B3503372402401C4815650E
:1027200093E717001CC893970401C1832310F90095
:10273000AD3F6319350109094AC6B247C180156525
:1027400086A3A5371C48F99B1CC841016FD0DFDE6A
:102750009C4513F7070113F8F70001C7D841336808
:10276000E80037270240145B3707000F758F5DEBD9
:10277000370700208546230CD740371701406315E3
:10278000E5009A2135839AA18E2113F7F50F39C3FD
:1027900018418146854E3D4F930F8002930280047D
:1027A000214E3396DE00B3F8C500631116039398EB
:1027B000260033131F011343F3FF3377E300B318ED
:1027C000180133E7E8006399F70750C98506E39AD3
:1027D000C6FD18C11307F00F6375B70454412146B5
:1027E000854E3D4F930F800293028004414EB39873
:1027F000CE0033F715016392E80213172600011784
:102800003313EF001343F3FFB376D3003317E8001D
:10281000D98E6397F703232A15010506E319C6FD30
:1028200054C1828037170140E310E5F637070020D6
:102830000347874131DBB1B7E39A57F810C979B73D
:10284000E39D57FC23281501C9BFB7170140631842
:10285000F500B707002083C7874191C3B5810845BC
:102860006D8D3335A0008280B71701406318F500E5
:10287000B707002083C7874191C3B5810CC9828007
:10288000B71701406318F500B707002083C78741D9
:1028900091C3B5814CC98280B7070140635A0504D2
:1028A000DC4F93560501131805013707300013F666
:1028B000F60013580801B376E500635E05066399D8
:1028C000E604930606010D46B316D60093C6F6FF3E
:1028D000F58F99C9135755011377F73F120733172F
:1028E000E800D98F63550506370701405CCF828029
:1028F00037270240145BDC433707000F758F55F311
:1029000013D71700F976CE07758FCD83D98F51BFB6
:102910001317B500635607008D46B396C6007DB702
:10292000135755011377F73F12073317E800134782
:10293000F7FFF98F79BF6390E602370601405442F2
:10294000370700F17D17F98F758F58C2C1F537072A
:1029500001405CC382801317B500635C07008D469D
:10296000B396C60093C6F6FFFD8EB707000FD58F4E
:10297000F1BF1357550112073317E8001347F7FF4C
:102980007D8FB707000FD98FD1B7B707002023AECF
:10299000A7408280B70700209387C741944318213E
:1029A00081E63C21920721A894430546639FC60215
:1029B0003C21103192076314D60093E707F8B7E67D
:1029C00000E093F7F70FBA962380F64085469357B9
:1029D00057003397E6005441A5C2938707048A073E
:1029E000B7E600E0B69798C382808C43894663912E
:1029F000D50214313C216365D6008A06B6975DB7CF
:102A00009386E6038A06B69793F7F70F920775B792
:102A100090438D46631CD60014313C216364D6007C
:102A20008606E9BF9386C6078606F1BF94439147A1
:102A3000E39EF6F81C31BDB7938707064DB73717ED
:102A400002405C439146B18B6385D700A146638207
:102A5000D706B7177A00938707201CC137160240A4
:102A60005C42370700201307070B9183BD8BBA9791
:102A700094231C41B3D7D7005CC15442A1829D8AE4
:102A8000BA969422B3D6D70014C55442AD829D8A1B
:102A900036971823B3D7E7005CC55842398393763D
:102AA00037001387C18036971823B3D7E7021CC9B4
:102AB00082805C435843C166C983BD8B758F89078B
:102AC000C5466393D700C94701EF37470240032744
:102AD0000780418B09CF37177A001307072021A8F9
:102AE0003717024058439316E700E3D606FE371720
:102AF0003D0013070790B387E70285B799C53717DD
:102B000002405C4B5D8D48CB8280B7170240D84BAA
:102B10001345F5FF798DC8CB828099C537170240E0
:102B20001C4F5D8D08CF8280B7170240984F134528
:102B3000F5FF798D88CF828099C5371702405C4FA9
:102B40005D8D48CF8280B7170240D84F1345F5FFFF
:102B5000798DC8CF828099C5371702405C475D8D5B
:102B600048C78280B7170240D8471345F5FF798DD3
:102B7000C8C7828099C5371702401C4B5D8D08CBB2
:102B80008280B7170240984B1345F5FF798D88CBAB
:102B90008280EFD2DF98B7370140631AF500854590
:102BA0000565553F814505657D376FD09F99B747CE
:102BB000004093870780E31AF5FE854511655D3F68
:102BC00081451165453FD5B71A218D679387070465
:102BD000B6217D8F9E21D58FD621D58FF621D58F19
:102BE0009625D58FB625D58FD625D58FF625D58FA9
:102BF000D98F1EA15A2DFD779387F77FF98F5EAD90
:102C00009E291EA982801E2189C593E707041EA163
:102C10008280C207C18393F7F7FBC207C183C5BF98
:102C20005E2101C6DD8D4EA1828093C5F5FFFD8D2D
:102C3000DDBF93C5F5FFC205C1810EA58280EFD22D
:102C40001F8EB7370140938707C0631DF5000564E9
:102C50008545130504800137814513050480E53D52
:102C60006FD03F8EB70700406319F50085450545D5
:102C7000113781450545FD3DE5B79387074063184A
:102C8000F50085450945FD3581450945EDB7B7177F
:102C90000040138707806318E50085451145D93D3D
:102CA00081451145C9BF938707C0E31BF5FA8545E8
:102CB0002145C935814521457DBF1E21373701405A
:102CC000130707C0C207C1836304E502370700404A
:102CD0006300E50213070740630CE5003717004067
:102CE000930607806306D500130707C06316E50047
:102CF000BA2193F7F7F8D98FFA2193F7F7CFC207E4
:102D0000C183D98F1EA1DE215EB59E211EB5B737C6
:102D10000140938707C06314F5009C251EB98547C1
:102D20005EA982801E31922103D82500C207C1838B
:102D3000F99BC207C1831EB11E3156211A2DC2074D
:102D4000C183420741831377C7F8518F9225F59BC2
:102D5000C20633660601D18F37360140130606C01E
:102D6000C1826310C502B225DD9B03D8E500D18F77
:102D7000D221ED9B93F6F6CFD18FD2253366060193
:102D8000D18E56A11AADFA215AB91EB182801E31D8
:102D900065771307F7CFC207C183BD9BC207C18305
:102DA0001EB11E31562103D88500C20713960601B5
:102DB000162DC18393F7F7FD758F96214182A206E8
:102DC000558FB62142074183B3E606019206D58F9F
:102DD000B7360140C207938606C0C183631ED50281
:102DE000B62593F7F7F703D8C5009206D58FD621FD
:102DF000C207C183920693F7F7FBD58FFD769386C2
:102E0000F63FF18EF225C207C183336606010A063A
:102E1000D18E13960601418252A11AADFA211ABD34
:102E20001EB182801E3103D88500C207C18393F78B
:102E3000F7EFC207C1831EB11E3156215A2DC207BA
:102E4000139606014207962141831377C7F8558FE1
:102E5000B621C18393F7F7DFB3E60601A206D58F4B
:102E6000B7360140C207938606C04182C183631F03
:102E7000D502FD769386F67FF58FB62503D8C5007B
:102E8000A206D58FD621C207C183A20693F7F7BF4A
:102E9000D58FF576FD16F18EF225C207C183336614
:102EA00006011206D18E13960601418252A15AAD37
:102EB000FA215ABD1EB18280FD575EA12310050084
:102EC00023130500231105002304050082801E2121
:102ED00089C593E717001EA18280C207C183F99BB1
:102EE000C207C183CDBF8357450491C52167D98FE0
:102EF0002312F5048280C607C583DDBF5E2501C6A7
:102F0000DD8D4EA5828093C5F5FFFD8DDDBF1E25AD
:102F1000C207C183E19BC207C1831EA582801E2117
:102F200089C593E707081EA18280C207C18393F772
:102F3000F7F7C207C183C5BF1E2DC207C183DD9B42
:102F4000DD8D0EAD82801A2DFD779387F77FF98F87
:102F5000A205CD8FC207C1831EAD82805E2DC20740
:102F6000C183DD9BDD8D4EAD82804A3182801E297A
:102F70004A25ED8F4205418189C76D8D3335A0000B
:102F800082800145828093C5F5FFC205C1810EA9EB
:102F90008280EFD2CFD81629F577FD17F58FF6216D
:102FA000DA257971D58F1EA95625FD779387379F2E
:102FB000F58FD6212A842EC6D58F9625D58FB62596
:102FC000D58F5EA55E29C207C18393F7F7CFD98F4E
:102FD0005EA96808EFF0BFA6B74701409387078056
:102FE000B245631AF404A25756246547B387E70233
:102FF000C206C186984163D20604060752244206DF
:10300000B3D7E702130740064186B3D6E702B3F70A
:10301000E7029206635506028E0793872703B3D70C
:10302000E70213F77700B367D700C207C1831EA476
:1030300045616FD00FD1925745BF0A07C1B79207BC
:1030400093872703B3D7E702BD8BD58FF9BF91C50F
:103050005E250967D98F5EA582805A25F977FD170D
:10306000F98FD5BF93F5F51F4EA182800A216D8D92
:103070003335A0008280EFD28FCA83A741934111DC
:103080004886CC86AA9723800700B707002003A5AF
:1030900007426C0081467D56EF00F02A41016FD057
:1030A0004FCAEFD2CFC7014689454145EF00D02234
:1030B000B7070020814523A0A742EF00B0156FD0CD
:1030C0004FC8B707002003A507428280EFD22FC563
:1030D0001C291384C1921CA85C49034905007A2568
:1030E0005CC81C45AA844A863E8581457AA41CC4D6
:1030F00023002401EFD0AFC5D8404A86814558C08F
:10310000EFD0EFC401456FD0CFC3EFD2AFBF9384F0
:10311000C19205498949094ACA240144EF1070083F
:103120009C20E37BF4FEDC48228582976310250314
:10313000DC40A297982319C7238007009305000459
:103140002285153F05041374F40FD9BF98442297C4
:103150001C23850793F7F70F1CA3D840229714234D
:1031600089EA9428E3E0D7FE2300270193050008AD
:10317000C1BFF03463E4C70063872601F024E3E3B2
:10318000C7FCE39146FD23003701CDB7B707002008
:103190009387C7439843636FA702D043B386C700A2
:1031A0006316D50054413E85B296D4C35041B30650
:1031B000C500631CD700B706002083A646426306FD
:1031C000D70054431843B29654C118C16303F500A5
:1031D00088C38280BA877DBFEFD2CFB241112AC6A1
:1031E000EF104049B706002083A74642370600206B
:1031F00093864642130686423245A9EF37070020E0
:103200009307474C93F5F7001307474C81C5138785
:10321000F700419BB70500209385C54323A2050015
:1032200098C189659385057FAE97C19B23A207004E
:1032300023A00700B385E7409CC21CC3B70700204A
:1032400023A8B742B707002023A6B742B7070080DC
:103250004CC31CC2032A0600B377AA0085E3930778
:10326000F5FF3957636CF7009307050113F7F70073
:1032700041C313F707FF410763EBE706814489A0C9
:1032800022872E8461A058C15CC009375840B70618
:103290000020938606439042B307E94023A0F9003B
:1032A00063F3C7009CC2B70700203367EA00938727
:1032B000474358C09843C10423200400050798C31E
:1032C000EF10A05793F7F400D1CB8967938707805D
:1032D0007390073037D6000037D50000130686FC00
:1032E00093050011130505FFEF80F02001A0BA87B8
:1032F000370700200329C7429309C742E360F9F862
:10330000370700200324C7431307C74350406374A3
:10331000F6000C40B5F59442E38286F6144004436F
:1033200014C33307F64093060002E3F1E6F63305D3
:10333000F4009376F500A1DA89679387078073908C
:10334000073037D6000037D50000130686FC9305FA
:10335000F00C130505FFEF80101A01A0268541012E
:103360006FD08F9D5DC1EFD28F9BB70700200327E1
:1033700045FF83A787422A84B376F7009DE28967D9
:10338000938707807390073037D6000037D5000049
:10339000130686FC93054012130505FFEF80B01558
:1033A00001A0832605FF9DC28967938707807390DC
:1033B000073037D6000037D50000130686FC93058A
:1033C0005012130505FFEF80101301A093C7F7FFFC
:1033D000F98F232AF5FEEF10E029B7070020938725
:1033E000C7429443032744FF130504FF369798C34D
:1033F000EFF0DFD9B707002093878743984305078D
:1034000098C3EF1080436FD0CF938280B7E700E07E
:1034100041572387E7402386E740B7F700E023A022
:10342000070023A20700814694C70147D8C783A598
:1034300081801307803E814633D6E5023D4790CB1D
:10344000D4CB98C38280EFD28F8D411102C6F3276F
:1034500050303EC6B2470D478D8B6384E7028967C3
:10346000938707807390073037D6000037D5000068
:10347000130646019305600B130505FFEF80B007A7
:1034800001A0B757002093870700BD8B9DC38967B4
:10349000938707807390073037D6000037D5000038
:1034A000130646019305B00B130505FFEF80B0042A
:1034B00001A0A93FB7E700E0116723A0E710056767
:1034C00023A0E71023A80180EFC09FE3014541013D
:1034D0006FD02F87397106DE16DC1ADA1ED82AD68D
:1034E0002ED432D236D03ACE3ECC42CA46C872C66C
:1034F00076C47AC27EC073110134896793870780CE
:1035000073900730B7F700E023A20700EF102018F0
:1035100011C5B7E700E0116723A0E720896793870B
:1035200087887390073073110134F250E25252537E
:10353000C2533255A255125682567247E24752483C
:10354000C248324EA24E124F824F2161730020308A
:103550008967938707807390073093870181984329
:10356000050798C38280138701811C438DE7EFC252
:103570001FFB8967938707807390073037D6000059
:1035800037D500001306460193053010130505FFDB
:10359000EF80607601A0FD171CC391E789679387D0
:1035A000878873900730828009651305058073153D
:1035B00005308280731005308280EFC25FF661456E
:1035C000EFF09FC12A8409C5232005001105452C71
:1035D00022856FC01FF7EFC2FFF21DE18967938755
:1035E00007807390073037D6000037D500001306E8
:1035F000C6039305A014130505FFEF80C06F01A05B
:10360000B70900FFB3F93501AE8463840902896705
:10361000938707807390073037D6000037D50000B6
:103620001306C6039305B014130505FFEF80A06CC5
:1036300001A09DE18967938707807390073037D693
:10364000000037D500001306C6039305C014130508
:1036500005FFEF80406A01A02A89B28A368B3A8A38
:10366000EF10D0070DE563040A028967938707808E
:103670007390073037D6000037D500001306C60315
:103680009305F014130505FFEF80E06601A0EF003D
:10369000707E03240900B3F7840063170B029DE7D3
:1036A0008149630C0A02B3355001E20563050B0042
:1036B000B7070004DD8D5286C58D13054900EF1054
:1036C000C042D289014411A8E39CF4FC63870A003C
:1036D00093C7F4FFE18F2320F900EF100016638CED
:1036E000090211E5B7E700E0116723A0E720EF101A
:1036F0009026931765002A8463CD0700EFF05FE5FD
:1037000003240900B3F78400631A0B0091EBEFF078
:103710009FE52204218022856FC01FE2E399F4FE19
:10372000E3870AFE93C4F4FFE18C23209900C5B718
:10373000EFC2FFDE41111DE1896793870780739017
:10374000073037D6000037D500001306C6039305AF
:10375000101E130505FFEF80005A01A0B70700FFF8
:10376000ED8F9DC38967938707807390073037D6A5
:10377000000037D500001306C6039305201E13056D
:1037800005FFEF80405701A02A842EC6EFF05FDCD2
:10379000B245084093C5F5FFE98D0CC02AC6EFF08D
:1037A0009FDC324541016FC0DFD9EFC2BFD5411167
:1037B0001DE18967938707807390073037D6000033
:1037C00037D500001306C60393051022130505FF25
:1037D000EF80605201A0370700FF6D8F1DC389671E
:1037E000938707807390073037D6000037D50000E5
:1037F0001306C60393052022130505FFEF80A04F93
:1038000001A02A842EC69309C500EF00B0661C40B3
:10381000B245084837090001CD8F1CC081447D198D
:10382000370A00020C40639CA90093C4F4FFED8C9E
:1038300004C0EF108000084041016FC0FFCF184165
:10384000832A4500B377270113165700B3F6B70054
:103850006345060089E65685F1B7E39ED7FE9316C9
:10386000770063D30600DD8CB3E54501EF10004817
:10387000DDB7EFC2DFCAEFF0BFEB6FC09FCC93079D
:1038800085007D575CC118C55CC51CC92320050097
:1038900082802328050082809841FD569307850089
:1038A000631ED7001C49D843D8C10CC79CC5CCC3E4
:1038B0001C4188C985071CC18280B687D4439042C9
:1038C000E37DC7FECDB7544118451C4998C654C383
:1038D000D4436393A600D8C39843232805007D17DB
:1038E00098C388438280EFC29FC341112AC6EFF07C
:1038F0003FC63245005DEFF01FC71335140041018C
:103900006FC03FC4EFC2BFC132893041045D2A8419
:1039100009EE1C41014591E70844EF10C0682324DB
:103920000400850404DC6FC0DFC163100902484154
:10393000EF80C0125C4038400145BA9718445CC023
:10394000E3E1E7FE1C405CC0E9BF4845EF800011A1
:103950003C4058441440B307F0403E9758C4637548
:10396000D7001844BA975CC489470145E31BF9FAAC
:10397000CDD8FD147DB7304115C2EFC25FBA5845AE
:103980001445AA87329758C56364D700184158C5B3
:103990002E85CC47EF80800C6FC0BFBA8280EFC20B
:1039A0001FB82A84EFF0DFBA834454041309440299
:1039B000E204E18463489002FD57A302F404EFF0AF
:1039C0009FBAEFF0FFB88344440413090401E204F2
:1039D000E18463459002FD572302F404EFF0BFB881
:1039E0006FC03FB65C50E9DB4A85EF10602119C11A
:1039F000EF10604DFD14E204E1846DBF1C48E1DF6F
:103A00004A85EF10E01F19C1EF10E04BFD14E204EE
:103A1000E184C1B7EFC2BFB041111DE1896793874F
:103A200007807390073037D6000037D500001306A3
:103A3000860593050011130505FFEF80C02B01A03B
:103A40005C5D2EC62A84BDC73841B3B7E702BDE32B
:103A5000EFF01FB03040585C1440232C0402B30731
:103A6000E602B24554C03387F600918FB6975CC426
:103A7000FD572302F40418C4A302F4049DE11C487A
:103A800099CB13050401EF10A01711C5B7E700E0AB
:103A9000116723A0E720EFF01FAD054541016FC07E
:103AA0005FAA13050401EFF09FDD13054402EFF058
:103AB0001FDDD5B78967938707807390073037D6A6
:103AC000000037D500001306860593055014130532
:103AD00005FFEF80402201A0EFC27FA4411131C158
:103AE000B3B7A502AA8495EF3305B502930770FB1F
:103AF00063E9A702130585042EC6EFF0EFED2A84D3
:103B000009CDB245AA8799C1930785042CC01CC072
:103B100044DC85452285EFF0FFEF228541016FC02F
:103B20005FA28967938707807390073037D60000BC
:103B300037D50000130686059305601C130505FFA5
:103B4000EF80601B01A0EFC21F9B011132C61DE177
:103B50008967938707807390073037D6000037D581
:103B60000000130686059305E032130505FFEF807C
:103B7000801801A02A842E89B6848DE53C419DC31E
:103B80008967938707807390073037D6000037D551
:103B90000000130686059305F032130505FFEF803C
:103BA000801501A089476398F402585C8547630437
:103BB000F7028967938707807390073037D6000034
:103BC00037D500001306860593050033130505FF5E
:103BD000EF80601201A0EF10603015E5B247014C94
:103BE00085C78967938707807390073037D60000B1
:103BF00037D500001306860593053033130505FFFE
:103C0000EF80600F01A0014C094BFD59930B04019B
:103C100037EA00E0916AA5A8B24789E7EFF0BF94C0
:103C2000014555A063150C002808EF10C01BEFF0EC
:103C30009F93EF003024EFF0BF9183474404E207E5
:103C4000E187639437012302040483475404E207A5
:103C5000E18763943701A3020404EFF0DF906C0066
:103C60002808EF10A01935EDEFF09F8E185C5C5C12
:103C7000631EF704EFF03F8FB2455E85EF00706280
:103C80002285EFF0DFD1EF00503B29C9054CEFF062
:103C90003F8C185C5C5C6364F700E39F64F72686E6
:103CA000CA852285EFF01FC65C5089C71305440200
:103CB000EF00107511C5B7E700E0116723A0E720FA
:103CC000EFF07F8A054505616FC07F86EFF0BF8901
:103CD0002285EFF0DFCCEF0050364DBF23205A2174
:103CE00075B72285EFF0BFCBEF00303515BFEFC2BF
:103CF0001F832A8681450545EFF01FDE2A8401CD0A
:103D000023240500232005002326050081460146C3
:103D10008145EFF05FE322856FC0BF82EFC23F8035
:103D20001DE18967938707807390073037D60000BD
:103D300037D500001306860593053028130505FFC7
:103D4000EF70707B01A0032985002A84EF106018B2
:103D50008144631DA9005C448544FD175CC499E758
:103D60008146014681452285EFF0FFDD26856FC043
:103D70004FFDEFC22FF941111DE18967938707803D
:103D80007390073037D6000037D50000130686053C
:103D900093052040130505FFEF70F07501A02A84FC
:103DA000B2898DE53C419DC38967938707807390F5
:103DB000073037D6000037D5000013068605930577
:103DC0003040130505FFEF70107301A08947639819
:103DD000F602585C85476304F7028967938707807A
:103DE0007390073037D6000037D5000013068605DC
:103DF00093054040130505FFEF70F06F01A036C634
:103E00002EC4EFF06FFA185C5C5C2A8AA245B246B9
:103E10006366F700894781446393F6028344540440
:103E20001C5C3686228513998401EFF0BFAD1359CF
:103E30008941FD576317F9025C5089EB854452852F
:103E4000EFF04FF7268541016FC00FEF13054402D5
:103E5000EF00105B65D5E38309FE854723A0F900D9
:103E6000F1BF9307F0076314F9028967938707800E
:103E70007390073037D6000037D50000130686054B
:103E80009305D048130505FFEF70F06601A0850487
:103E9000E204E184A302940455B7EFC2CFE5011117
:103EA00032C61DE18967938707807390073037D644
:103EB000000037D50000130686059305105513053D
:103EC00005FFEF70506301A02A84AE898DE53C4167
:103ED0009DC38967938707807390073037D60000AA
:103EE00037D500001306860593055055130505FFC9
:103EF000EF70706001A0EF00707E15E5B2470149D8
:103F000085C78967938707807390073037D600008D
:103F100037D50000130686059305A055130505FF48
:103F2000EF70705D01A001497D5A930A440237EB9E
:103F300000E0916B95A8B24789E7EFF0CFE2014529
:103F400069A8631509002808EF00F069EFF0AFE1F8
:103F5000EF004072EFF0CFDF83474404E207E187D0
:103F6000639447012302040483475404E207E18772
:103F700063944701A3020404EFF0EFDE6C0028080D
:103F8000EF00D06725E52285EFF0FF9531C9B245F6
:103F90005685EF0010312285EFF07FA0EF00F00989
:103FA00019E123207B210549EFF08FDA045CC1D4AD
:103FB000CE852285FD14EFF01F9C04DC1C4899CBB4
:103FC00013050401EF00D04311C5B7E700E0116706
:103FD00023A0E720EFF02FD9054505616FC02FD54D
:103FE0002285EFF0DF9BEF00500575BF2285EFF0D3
:103FF0001F9BEF0090042285EFF0FF8E4DD581B717
:10400000EFC24FD001112EC61DE18967938707804B
:104010007390073037D6000037D5000013068605A9
:104020009305305E130505FFEF70F04C01A03C4195
:104030002A849DC38967938707807390073037D69A
:10404000000037D50000130686059305705E130542
:1040500005FFEF70504A01A0EF0050680DE5B24730
:104060009DC38967938707807390073037D6000018
:1040700037D50000130686059305C05E130505FFBE
:10408000EF70704701A081440149FD59130A4402B1
:10409000B7EA00E0116B6DA0B2479DE79DC089674C
:1040A000938707807390073037D6000037D500001C
:1040B0001306860593052063130505FFEF70B043D3
:1040C00001A0EFF04FCA7DA0631509002808EF009A
:1040D0009051EFF04FC9792BEFF08FC7834744041D
:1040E000E207E18763943701230204048347540401
:1040F000E207E18763943701A3020404EFF0AFC63F
:104100006C002808EF00904F41E12285EFF0AFFDF1
:1041100035C51C4089EBEFF0AFC30844EF00D05D1C
:10412000AA84EFF04FC4B2455285EF009017228564
:10413000EFF0FF86EF00607019E123A06A210549C6
:10414000EFF00FC11C5CA9DBFD171CDC1C4081E7F4
:10415000EF10000208C41C4899CB13050401EF00BE
:10416000302A11C5B7E700E0116723A0E720EFF080
:104170008FBF8544268505616FC00FBC2285EFF097
:104180001F82EF00806B65BF2285EFF05F81752590
:104190002285EFF04FF545D5F1DCEFF06FBB5C50B9
:1041A000814589C71C58BD459C439D8D0844814469
:1041B000EF00106CEFF02FBB75BFEFC24FB641118F
:1041C0001DE18967938707807390073037D6000019
:1041D00037D50000130686059305B02B130505FFA0
:1041E000EF70703101A004452EC62A84EF00704E96
:1041F000B2456399A4005C44054585075CC4410150
:104200006FC02FB42285EFF0BFDF75D95C448507FE
:104210005CC4F5B7EFC2AFB041111DE18967938768
:1042200007807390073037D6000037D5000013069B
:1042300086059305307E130505FFEF70D02B01A096
:104240002AC6EFF0EFB03245085D2AC6EFF0AFB1F5
:10425000324541016FC0EFAE15E5EFC24FAC896743
:10426000938707807390073037D60000856537D570
:10427000000013068605938585AC130505FFEF70D6
:10428000902701A09DCD37360020930646CC81476C
:104290000147130646CC214883A846006398A8002E
:1042A00093173700B2978CC3C8C321A891E783A89E
:1042B000060063930800B6870507A106E31E07FD05
:1042C000FDF38280EFC2AFA541112A842EC632C40D
:1042D000EFF00FA8834744047D572246E207E187A9
:1042E000B2456394E70023020404834754047D57D6
:1042F000E207E1876394E700A302040432C62EC4F8
:10430000EFF06FA61C5CA245324689E71305440214
:10431000EF00B0072285EFF08FE841016FC06FA278
:1043200001A037070020130787441C439443B707B5
:1043300000209387474681E67D5798C382801843C3
:1043400058471843DDBFEFC2EF9B37090020B7077E
:1043500000209304494483A947472A849C4088400D
:104360004111A388070411052EC6EFF0CFD57D5764
:1043700093074944B245631CE40295C9B73700204E
:104380009387C7E69440D84398C610479440D0C658
:1043900094401047910654C29440910614C7984027
:1043A0005CCB9843050798C341016FC0EF989843D1
:1043B0004E9440C3637B3401370700200325C74474
:1043C0008C439105EFF04FCDC5B73707002003258B
:1043D00087448C439105EFF02FCCB70700209387DB
:1043E00047469843E372E4FC80C37DBFEFC2AF90C1
:1043F00013192600AA8A4A852E8A368BBA8BBE8963
:10440000EFE09FDD1DC1AA8413054005EFE0DFDC6E
:104410002A8409C904D98147C146631A0A00230ABC
:10442000050225A02685EFE0FFF37D5569AA330735
:10443000FA00030707003306F400230AE60201C767
:104440008507E396D7FEA3010404B94763F4770315
:104450008967938707807390073037D6000037D578
:1044600000001306C60693057039130505FFEF70AB
:10447000900801A0130A44005285232674032322C6
:10448000740523240404EFF0CFC013058401EFF07A
:104490004FC03D471305C9FF33077741269500C834
:1044A00018CC40D023060404A30604042307040404
:1044B000A307040423080404A30804045A86D68529
:1044C0004199EFB0FFF308C06384090023A089007D
:1044D000EFF00F88B7070020938707459843B7048C
:1044E0000020B7390020050798C3138744441843B8
:1044F00093844444138949D069EB80C0984385472D
:104500006310F706938949D0930AC9124E85D109E1
:10451000EFF0EFB6E39C3AFF37350020930A05E34E
:10452000130505E3EFF0AFB537350020930945E4F7
:10453000130545E4EFF0AFB437350020130585E5EA
:10454000EFF0EFB3373500201305C5E6EFF02FB3DA
:10455000B707002023A45745B707002023A63745F7
:10456000B7070020938787459843050798C3370707
:1045700000201307C7455C54144363F3F6001CC3C3
:104580005147B387E702CA97D843144718C454C4A5
:10459000144723A246012324470198435CC805071A
:1045A00098C3EFE05FFCB707002083A707470545E6
:1045B00099CB9C40D8575C546377F700B7E700E08D
:1045C000116723A0E7206FB09FF6B707002083A7ED
:1045D0000747D9F79C40D8575C54E3E3E7F880C01D
:1045E00041B7EFB2DFF3B7070020B7D5000037457A
:1045F000000093870746014781461306000893850C
:10460000050813050532EFF07FDE0544631E8502C1
:10461000EF005064631A850289679387078073905F
:104620000730B70700207D5723A2E746B7070020D1
:1046300023A8A746B707002023AA0746EFE0BFE05C
:1046400083A741816FB0FFEFFD57E31BF5FE89673C
:10465000938707807390073037D60000856537D57C
:1046600000001306C60693850584130505FFEF7049
:10467000806801A0B7070020938747459843050746
:1046800098C38280B707002003A547478280B707F9
:10469000002083A7474563990718EFB25FE8B70783
:1046A0000020938747478043050480C321ECB70768
:1046B0000020938787449843184305C789679387E9
:1046C00007807390073037D60000856537D5000026
:1046D0001306C606938575AC130505FFEF70A06140
:1046E00001A0370700201307C7449443104390C329
:1046F000B707002014C3938787469843050798C3DC
:10470000EFF03FC237060020930746469C433737F9
:104710000020B705002013064646130747D09385AF
:10472000454401456375F4029C41D146DC57B3878B
:10473000D7023E971843854763F3E7000545B7075F
:10474000002083A7874791C305456FB09FDF370ED1
:104750000020B70E0020514F93078E44944394429B
:1047600081E6FD571CC2C9B79C43DC47DC47D443F4
:104770006374D40014C24DBF83A8870003A8C70088
:10478000D44B1383470023A408012322180183A8D4
:1047900046006394680023A2060103A8060023AA2A
:1047A00007007D1823A00601945795CA03A8C701E6
:1047B00083A8070283AF46002324180183A80702B9
:1047C00023A208011388870163940F0123A2160115
:1047D00003A8060023A407027D1823A006019386E0
:1047E000CE4503A8C70283A8060063F4080123A0EE
:1047F0000601B306E803BA9683A8460083AF880093
:1048000023A4170123A6F70183AF880023A26F001A
:1048100023A46800D4CB9C4285079CC29C41DC57F2
:10482000E36CF8F205450DBFB70700209387C74634
:1048300098430145050798C38280EFB2BFCC370487
:104840000020130444451C40411185E78967938784
:1048500007807390073037D60000856537D5000094
:104860001306C6069385358B130505FFEF70A04828
:1048700001A0EFE0FFCD1C40FD171CC01C4089CB00
:1048800001452AC6EFE03FCE324541016FB0DFCA95
:10489000B707002083A70745E5D7B736002037358F
:1048A00000208147938686E5370F0020130545D009
:1048B000D14837030020370E0020854E59A8DC462A
:1048C000DC47CC4F9053985790C503A8070223228A
:1048D000B80003284700938587016313B80050C3CD
:1048E000104323A407027D1610C38C47D047D84B32
:1048F0001388470090C54CC24C436393050150C3D5
:10490000104323AA07007D1610C31307CF45D057C5
:104910000C4363F3C50010C3330716032A974C43B7
:1049200083AF85008CC723A6F70183AF850023A240
:104930000F0123A405010C43D8CB85050CC3130735
:104940004344184358576366E60013078E472320F5
:10495000D70198422DF799C3EFF0BF9CB70700200D
:104960001387C74604431384C74699CC37090020F0
:104970008549EFF0DFD109C59307894723A03701A7
:10498000FD14E5F823200400B707002083A787471C
:10499000E38807EEB7E700E0116723A0E7200545AD
:1049A000CDB519E5B7E700E0116723A0E7208280C5
:1049B000EFB2FFB6B707002083A7474541119DC35B
:1049C0008967938707807390073037D6000037D503
:1049D00000001306C60693059054130505FFEF70FB
:1049E000803101A02AC6EFF0FFC832458145EFF0C3
:1049F0009F95EFF09FE411E5B7E700E0116723A072
:104A0000E72041016FB0FFB3B707002003A7474578
:104A1000B70700209387874701C7054798C382805F
:104A200023A00700B70700201387C7451843138644
:104A3000C745B7370020938747D05148B3060703CF
:104A4000B385D700884115C5C841A106BE96484127
:104A5000C8C16314D5005441D4C1D146B306D702AE
:104A6000B697DC43D447B707002023A2D74418C227
:104A7000828015E7EFB2BFAA89679387078073909A
:104A8000073037D60000856537D500001306C60607
:104A9000938525C0130505FFEF70E02501A07D1764
:104AA00071BFEFB2DFA705E5896793870780739031
:104AB000073037D60000856537D500001306C606D7
:104AC0009385C5C1130505FFEF70E02201A0B7076C
:104AD00000202E8483A54744E105EFE0FFDB8545F8
:104AE0002285EFF05F866FB0DFA5EFB25FA305E52B
:104AF0008967938707807390073037D600008565F4
:104B000037D500001306C606938565C3130505FF58
:104B1000EF70601E01A0B707002083A7474585E717
:104B20008967938707807390073037D600008565C3
:104B300037D500001306C6069385A5C3130505FFE8
:104B4000EF70601B01A0B707002093874744944390
:104B50002A8737050080C98D8CCE54438C43884604
:104B6000D4CD8C4388D18C438846E1054CC18C431D
:104B70009C433285E1058CC698D71C438545850743
:104B80001CC3EFF04FFC6FB0DF9BEFB25F992A8739
:104B900005E58967938707807390073037D6000053
:104BA000856537D500001306C606938525C5130510
:104BB00005FFEF70401401A0B7070020938747441A
:104BC00054432E858C4303A88600D4CD8C4323A068
:104BD000050303A807008C46610823A2050103A86A
:104BE00007009C43610823A4060198D71C4385074E
:104BF0001CC311C27D55B285EFF0EFF46FB07F9406
:104C00005C45DC4795E7EFB29F9189679387078002
:104C10007390073037D60000856537D5000013063E
:104C2000C606938525C8130505FFEF70C00C01A0CB
:104C3000D04F945398579385870114C6D0C25043E0
:104C40006313B60054C3144323A40702FD1614C310
:104C50003707002003274745D45725EF8C47D04717
:104C6000D84B90C5D04748434CC293854700631347
:104C7000B50050C3104323AA07007D1610C33707A1
:104C800000201307C74510436373D60014C3514770
:104C90003386E60237370020130747D03297504358
:104CA000084690C7C8C708464CC10CC6D8CB1C43A1
:104CB000014585071CC3B707002083A74744DC577D
:104CC00063F8D700B7070020054723ACE746054542
:104CD000828037370020130787E550430846D0CF3E
:104CE00088D308464CC10CC698D7D1B7EFB23F83E2
:104CF000B707002083A7474585E789679387078023
:104D00007390073037D60000856537D5000013064D
:104D1000C6069385A5CB130505FFEF60D07D01A0E6
:104D2000B7070080DD8D5C450CC185E789679387F7
:104D300007807390073037D60000856537D50000AF
:104D40001306C606938525CC130505FFEF60B07AE0
:104D500001A050411445184914C61445D0C250430F
:104D60006313A60054C31443232805009047FD167F
:104D700014C3D447D84B9385470014C6D447D0C238
:104D800050436313B60054C3144323AA0700FD160F
:104D900014C3370700201307C745D4571043637364
:104DA000D60014C351473386E60237370020130775
:104DB00047D032975043084690C7C8C708464CC1F1
:104DC0000CC6D8CB1C4385071CC3B707002083A79C
:104DD0004744DC5763F7D700B7070020054723ACEB
:104DE000E7466FB00FF6B707002083A787461CC1C0
:104DF000B707002083A747475CC18280EFB22FF23C
:104E0000411105E58967938707807390073037D68E
:104E10000000856537D500001306C6069385D5CFFB
:104E2000130505FFEF60306D01A085E58967938765
:104E300007807390073037D60000856537D50000AE
:104E40001306C6069385E5CF130505FFEF60B06A2C
:104E500001A02EC62AC4EFE0AFEF37070020B70746
:104E600000201307474483A647471C432245B24509
:104E700083C7170599CB1C43A38807040544EFE0BB
:104E80008FEE228541016FB0CFEB9C417D570144ED
:104E9000E387E7FE37060020032686460328050041
:104EA00058416307C80063E5E60023A00500F9B791
:104EB0003386E640E37BF6FE958FBA979CC1EFF010
:104EC0009FF201446DBFB7070020054723ACE746BA
:104ED0008280B707002003A547448280B7070020DF
:104EE00083A70747054581CBB707002003A54745A2
:104EF00013351500060582804DC5EFB2AFE03709C6
:104F00000020930749449443585513094944D45603
:104F10006373D7081C4D63C8070083270900D45763
:104F2000BD47958F1CCD51463307C702B7370020C8
:104F3000938647D0938447D0369754496398E604C4
:104F4000930945002A844E85EFE0FF9783270900E7
:104F5000370700201307C745DC5714435CD463F3BD
:104F6000F6001CC35147B387E702A697D8431447FE
:104F700018C454C4144723A236012324370198438C
:104F80005CC8050798C305456FB00FDB8327090090
:104F9000DC575CD5CDBF9C436841DC573335F50009
:104FA000E5B70145828011E50145828001456FB07A
:104FB0004FD9EFB2CFD6B707002083A747442A8442
:104FC0006385A7028967938707807390073037D678
:104FD0000000856537D500001306C6069385F504E5
:104FE000130505FFEF60305101A0BC4785E78967D5
:104FF000938707807390073037D60000856537D5D3
:1050000000001306C60693850505130505FFEF602E
:10501000904E01A054557841FD173CC5E388E6F851
:10502000D1F7930445002685EFE0FF897C403D479A
:105030001D8F18CC370700201307C74514435CD4D5
:1050400063F3F6001CC351473387E702B7370020EC
:10505000938747D00545BA97D843144718C454C41A
:105060001447C4C204C798435CC8050798C381B7F6
:1050700075C1EFB2CFCA34452A8485E68967938724
:1050800007807390073037D60000856537D500005C
:105090001306C6069385F509130505FFEF60B045B5
:1050A00001A07C4163F3B700AE8758546302F70A4E
:1050B0000546639FC608B706002083A6464463954D
:1050C00086028967938707807390073037D6000080
:1050D000856537D500001306C6069385A50B130515
:1050E00005FFEF60504101A0144C5CD463C606007C
:1050F000BD46B387F6401CCC51463307C702B737CD
:105100000020938647D0938447D0369754486391C4
:10511000E604130944004A85EFE0EFFA3707002060
:105120001307C7455C54144363F3F6001CC351478F
:10513000B387E702A697D843144718C454C414474A
:1051400023A226012324270198435CC8050798C39E
:105150006FB02FBF8280B7070020938747449843E2
:105160009443084FD4569843BD47958F1CCF8280F7
:10517000B70700201387474418439387474409C75C
:105180009443B8460507B8C688438280EFB22FB96A
:10519000EFE00FBC138481901C40A1E7373500205D
:1051A000130905E8130505E8EFE06FED373500203A
:1051B000930445E9130545E9EFE06FECB7070020DC
:1051C00023AE27470146C145114523A09190EFE04A
:1051D000BF9008C019C5B7D500009385C50AEFF088
:1051E000AF87EFE04FB86FB0CFB5EFB24FB34CC160
:1051F00008C9AA876360B602184D158E0545637904
:10520000E6009385470003A50190EFE0EFE8014534
:105210006FB02FB36375D6000545E3FBD5FE9385CC
:105220004700B707002003A5C747C5B7EFB22FAFA8
:105230002A84AE8432890C4CA6864A86A69522859D
:10524000EFF0BFFA19E16FB0CFAF1C4C2285BE94CE
:105250001C508297CDB7EFB28FACB707002083A761
:10526000C7474111AA84DC472EC6C0471305440036
:10527000EFE06FE583474402324613F7470019CB4E
:10528000A6852285EFF09FFA1C5022858297410166
:105290006FB02FABF99B2302F402FDB7EFB22FA83A
:1052A000370400209306C44798421C4381EB938740
:1052B0000190904398C390C26FB0AFA85C47FD5572
:1052C0008843EFF05FF9F9BFEFB2EFA23569411102
:1052D000B70A00201309890883A7CA47984329CB36
:1052E000DC47814C03AC0700EFF0CFB8EFF08FB98B
:1052F00083A741902A8493844190138A8190636CA0
:10530000F50288C063800C0483A701909043133694
:10531000160003250A00B3058C40EFE0BFFAEFF05A
:10532000CFD119EDB7E700E0116723A0E72009A866
:10533000854C014C55BFEFF07FF680C0EFF0EFCF0A
:10534000214C0DA00146E36685FDEFF00FCFA2854D
:105350006285EFF05FF0EDB79247B24582978247E2
:1053600063DD070003250A0001468A85EFE0FFB2EE
:1053700025D582472245E3C107FE22445C489DE3D0
:10538000EFF04FB09C40AA8C6374F500EFF01FF172
:10539000824723A09401FD17E366FCFC8A07CA97A5
:1053A0009C43828713054400EFE0EFD1D1BF8347D0
:1053B00044020C4C924693E717002302F4026686DF
:1053C000B6952285EFF07FE251DD8347440213F763
:1053D000470001CF1C4C924566862285BE95EFF0B2
:1053E000FFE41C5022858297B5BFF99B2302F4028B
:1053F000CDBF83474402F99B2302F402A5B783473C
:105400004402924593E717002302F4020CCC9DE17D
:105410008967938707807390073037D6000037D5A8
:1054200000001306460B93059035130505FFEF604A
:10543000900C01A0E6866686E6952285EFF0FFDAFD
:1054400015B78347440213F7270055F72285EFD09D
:105450007FF109BFEFB2AF8CEFF05FD383A78190EC
:105460009DE38967938707807390073037D60000E4
:1054700037D500001306460B93059011130505FF61
:10548000EF60700701A0B7D5000037550000938783
:10549000C19039478146130600089385C50C130552
:1054A000852CEFE0BFF455DD6FB0AF89EFB22F87E9
:1054B0004111B68732C63E862AC203A5819079572C
:1054C0002EC481468A853AC0EFE0BF8A41016FB0A1
:1054D0004F8783A7818037177A0013070720B3D738
:1054E000E70293F7F70F2389F1901307803EB38704
:1054F000E7022398F1908280EFB26F8201112A8433
:10550000854537050200EFD02FE385451145EFD0E3
:10551000CFE091477C82371501408D473EC44C0057
:10552000E147130505803EC6EFD08FA222C837445D
:105530000040B70708000C08130504403ECC02CA1F
:10554000231E0100EFD0FFA4854513050440EFD0D2
:105550001FB005616FA0FFFEEFA2DFFAB744004065
:10556000AE893289014493840440634524014A850D
:105570006FA09FFC930500042685EFD03FAF7DD937
:10558000B38789008385070026850504C205C1818C
:10559000EFD05FADD9BF138781811C43B7360020A0
:1055A000938606ED3E95636BD500B7560020938633
:1055B000068063E5A60008C33E858280FD57EDBFE7
:1055C0007325103482807325203482807325303413
:1055D0008280EFA2DFF45021B7350020138785EADF
:1055E00030A71C4193D6E700898A93F7F77F1CC345
:1055F00014B78147050763CFC7003765004093851F
:1056000085EA13050540EFC03FB971153335A00099
:105610006FA03FF3B306F500D432850734A7D9BF96
:10562000EFA2FFEF1145EFE08FEC23A0A1920D4612
:1056300081450545EFE04FCA23ACA1900D46814559
:105640000545EFE06FC923AEA19005456FA07FEF40
:10565000EFA2FFEC03A50192FD55EFE01FB67D150B
:10566000133515006FA0FFEDEFA27FEB03A50192AC
:10567000EFE0CFEA7D15133515006FA09FEC01C94F
:10568000EFA2FFE98145EFC0BFC56FA09FEB82800D
:105690001C4191CFEFA2BFE82A8485453E85EFC02B
:1056A0003FC485476313F50048C86FA09FE9828017
:1056B000EFA2FFE65D712A842E89B284814513062C
:1056C0000002081836C63AC43EC242C0EFA03FE806
:1056D0007D556304041A6382041A2247630F071876
:1056E000B246232A040023AA819013B6160210CCD6
:1056F0009247232E04000546024810D0232024019F
:1057000044C016A458C41EA823190400231204027E
:1057100023240402268681456396D5048146E1450B
:10572000139606014182636BF6048D47A309F102CB
:105730009307B040231AF10285473EDEBEC29307AD
:1057400040066303F81463E20705D1476303F814C6
:1057500093072003630CF812A9476315F812930707
:10576000802599A08505C205231006002AA22322C0
:10577000060023240600C181310679BF3386B602B4
:1057800085063A962328060061BF9307401F6309E8
:10579000F80E9307803E6308F8009307A00F631389
:1057A000F80EA14711A08947376400400C18130573
:1057B00004402318F102EFC02FFE8547A303F10236
:1057C00023040102EFB08FD68D6716055D8DE88743
:1057D000EFB0CFD5916716055D8DE886EFB00FD598
:1057E000996716055D8D2311A102EFB02FD4E177E3
:1057F00016055D8D2310A10285446808231201025D
:105800002303010226D6EFC0BF87EFB02FD2E9777E
:1058100016055D8DE887EFB06FD1F17716055D8DC8
:10582000E886854768082303F10202D0231291021B
:10583000EFC01F859305004013050440EFC0FFC86B
:10584000854513050440EFC05FC889451305044032
:10585000EFC0BFC7C14513050440EFC01FC70546D1
:105860009305304113050440EFC0BFAE37D50000AB
:105870001305450DEF606059014561616FA07FCC54
:1058800091471DB7C1470DB7D14739BF930780076F
:1058900021BF9307C01209BF11C9084101C9EFA276
:1058A0001FC88145EFC0DFA36FA0BFC98280AA884F
:1058B0007D5563860804A1C76303080403D38800E9
:1058C00063FF650231453385A50283A54800137641
:1058D000F67FAA95DCC123A4050109EF85679387AC
:1058E000078093F6F67FDD8E92A1B6A183A788018B
:1058F000014582808567938707805D8EC5B782806A
:10590000014815C983580501014863F6150361482C
:10591000B38505030328C500B336D0001376F67FA0
:10592000BE06558E2E98232808002320C800230287
:10593000E800232AF800428582801C5599C73E2939
:105940002324050293F707CF3EA98280EFA23FBD33
:105950009C492A84AE84014981CB1C515D5989E759
:105960003E2993E787003EA9EFD09FBE2685EFF042
:105970005FC601C9DC485CCCEFD0FFBE4A856FA092
:105980005FBC85479CC85E308507C207C1835EB097
:10599000E5B7EFA2DFB883A7419123A0070223AEAA
:1059A0000700DA334207418305C3C447138441919A
:1059B000EFD01FBA1C4003D90701631909001C402E
:1059C00023920702EFD03FBA6FA0BFB79C4899CF90
:1059D0002685EFF01FC019C9184023A804005E33C4
:1059E000FD17C207C1835EB3DC485CCF7D19420955
:1059F00013590901E104D1B7EFA27FB20111376554
:105A00000040328493F5F50F700013050540EFC098
:105A10007F84B24703465101894693F7F77F0147D8
:105A20006313D6002167D98FB8831CC08347E10177
:105A30005AA0B8845CA47AA0B8851AA4B8863AA4FF
:105A400005616FA01FB0EFA29FAD37340020130691
:105A5000C4EBEFF07FFA03A741919304C4EB9040AD
:105A60005C43182701CF9623AE23B18EED8E89EAD1
:105A7000984709C7C8439305C4EB02976FA07FAC52
:105A80007D171377F70FB107F1BFEFA25FA9376555
:105A900000409305004013050540EFC01F9619C153
:105AA000EFB0DFE16FA0FFA9D821A1476311F71A7A
:105AB0007C41639E0718EFA2FFA4C43191474111B6
:105AC0002A84639AF404FC2199C705476383E70499
:105AD00041016FA07FA6184985470149631EF70061
:105AE000834705041307F00F6398E700585D1823F8
:105AF0006304F70024C50549232804004146814575
:105B000013054401EFA0BFA4E30409FC85477CC052
:105B1000C1B71CC975BF1C496393071293072004C2
:105B20006383F40A63E29702930700046385F40831
:105B300093071004E39EF4F8114699056800EF50AE
:105B4000F071B2471CCC69B7930730046385F40841
:105B500093071005E39EF4F65C5D1307F00F9C239A
:105B6000E398E7F603470504E314F7F6A425FD4799
:105B700063F6970093070008E39CF4F483C9B5002B
:105B80008D47E3E737F503C9C500E3E327F5114681
:105B900099056800EF50906C930700086399F4062C
