:100000006F10507E1300000013000000130000006A
:100010001300000013000000130000001300000094
:100020001300000013000000130000001300000084
:08003000130000007300100032
:10003800000000000000000014080000160800007E
:10004800000000007C1F000000000000000000000D
:100058007E1F0000801F000000000000000000005C
:10006800D034000000000000000200000000000082
:10007800861F0000881F00008A1F00008C1F0000D8
:100088008E1F0000901F0000921F0000941F0000A8
:10009800961F0000981F00009A1F00009C1F000078
:1000A8009E1F0000A01F0000A21F0000A41F000048
:1000B800A61F0000A81F0000AA1F00007C0800005F
:1000C80054090000AA090000000A0000B41F00003B
:1000D800B61F0000B81F0000BA1F0000BC1F0000B8
:1000E800BE1F0000540A0000C21F0000C41F000009
:1000F800C61F0000C81F0000CA1F0000CC1F000058
:10010800CE1F0000D01F0000D21F0000D41F000027
:10011800D61F0000D81F0000DA1F0000DC1F0000F7
:10012800DE1F0000E01F0000E21F000000000000CA
:080138000000000000000000BF
:10020000130181F806C216C41AC61EC822CA26CC1B
:100210002ACE2ED032D236D43AD63ED842DA46DC76
:100220004ADECEC0D2C2D6C4DAC6DEC8E2CAE6CC46
:10023000EACEEED0F2D2F6D4FAD6FED8F3220030CF
:1002400096DA9702002083A2A22023A02200F325A1
:1002500010342EC003A1C183EF40E06317030020D8
:100260000323031F03210300824273901234D652EA
:10027000739002309240A2423243C2435244E2445D
:10028000724582551256A2563257C2575258E258FA
:1002900072598649164AA64A364BC64B564CE64C0E
:1002A000764D865D165EA65E365FC65F13018107DA
:1002B0007300203013000000130000001300000042
:1002C00013000000130000001300000013000000E2
:1002D00013000000130000001300000013000000D2
:1002E00013000000130000001300000013000000C2
:1002F00013000000130000001300000013000000B2
:1003000083A2C183938202E073900234170100201C
:1003100003210114024182403243C2435244E24469
:10032000724582551256A2563257C2575258E25859
:1003300072598649164AA64A364BC64B564CE64C6D
:10034000764D865D165EA65E365FC65FD652A1020A
:1003500073900230A24213018107828013000000D3
:100360001300000013000000130000001300000041
:100370001300000013000000130000001300000031
:100380001300000013000000130000001300000021
:100390001300000013000000130000001300000011
:1003A0001300000013000000130000001300000001
:1003B00013000000130000001300000013000000F1
:1003C00013000000130000001300000013000000E1
:1003D00013000000130000001300000013000000D1
:1003E00013000000130000001300000013000000C1
:1003F00013000000130000001300000013000000B1
:10040000F322003093F272FF130380181203B3E259
:100410006200711523205500130585FA10C12115BE
:10042000232005009302000063870200711523203A
:100430000500FD12D5BF71150CC1828000000000BF
:1004400000000000000000000000000000000000AC
:10045000000000000000000000000000000000009C
:10046000000000000000000000000000000000008C
:10047000000000000000000000000000000000007C
:10048000000000000000000000000000000000006C
:10049000000000000000000000000000000000005C
:1004A000000000000000000000000000000000004C
:1004B000000000000000000000000000000000003C
:1004C000000000000000000000000000000000002C
:1004D000000000000000000000000000000000001C
:1004E0000000000000000000000000000000397162
:1004F00001436EC619A0397141536AC866CA62CCFD
:100500005ECE19A0397101535AD056D252D44ED66C
:100510004AD826DA22DC06DE3301614082824111AC
:100520004AC026C222C406C68282B24D4101024D93
:10053000924C224CB24B4101024B924A224AB249A0
:100540004101024992442244B240410182803D432C
:100550002A876373C3029377F700BDEFADE5937607
:1005600006FF3D8ABA960CC34CC30CC74CC7410763
:10057000E36BD7FE11E28280B306C3408A0697027E
:10058000000096966780A6002307B700A306B70071
:100590002306B700A305B7002305B700A304B700DF
:1005A0002304B700A303B7002303B700A302B700D7
:1005B0002302B700A301B7002301B700A300B700CF
:1005C0002300B700828093F5F50F93968500D58DB3
:1005D00093960501D58D61B7939627009702000089
:1005E00096968682E78086FA9680C1171D8F3E9682
:1005F000E374C3F8A5B7B707002023A8A73C8280FF
:10060000EFF27FEFB705002039719385C53C0145B6
:1006100037040020EF70A0692324A43C1304843C19
:1006200019E1EF1040391C40370700200327073D30
:10063000DC4398C3EF40D059EF40905CA12D2313C9
:10064000A10202D6EF00806E1C40A302A102DC438F
:10065000884323AA0700EF40905D1C40C843EF4049
:10066000B07E0840035661025C418C43EF704074D9
:1006700019C1EF104034B70700209387C72798535C
:100680000840930661023AD8D853130651020C1859
:100690003ADA9857DC573ADC3EDEEF70C07419C185
:1006A000EF10603183A6C18103495102032A04007F
:1006B00036CE2D2D8967C507C98FF2461307401F17
:1006C0009309C102C2073AC04EC64AC402C2930887
:1006D000803E1308401FC183014701468145528572
:1006E000EF70A07311C5B5576304F500EF10A02C8F
:1006F000084003A6C1814E874C49CA86EF70607DD1
:1007000019C1EF10402B1C409C4399C3EF10A02A45
:100710001C40B70400208969C843130A803EEF409B
:10072000305223AA043CEF40304FEF30905F2A89CB
:1007300002D49384443D938909719C4089CBB707C7
:10074000EFBE37E700E0938707083CC7FDBFA2551F
:1007500003A50192B3D54503EF306074EF40504AD2
:100760004ED4EF30105C3306254133064603AA8A87
:100770000840341081455689EF70300188C003A5C8
:100780004192814601468145EF30C025EF40D04877
:100790006DB7EFF23FD74111EF409046EF30705800
:1007A00089692A8402C6130A803E93890971370B2E
:1007B0000020EF407046B24503A5419213098B3CDF
:1007C000B3D54503A284EF30806DEF40704383279B
:1007D00009004EC695CFDC43DC4B9DCBEF30705407
:1007E000AA84032509001C4185E75C41DC4B8DC3CD
:1007F0003384844033044403740081452286EF70BF
:10080000B00003250900740022868145EF70D003F3
:10081000268445B701A039712AD637D500001305C3
:10082000C5B506DE16DC1ADA1ED832D236D03ACE7C
:100830003ECC42CA46C872C676C47AC27EC02ED4A6
:10084000EFB0A037EF40D032AA8537D500001305AE
:1008500005B7EFB04025EF401032AA8537D500002C
:10086000130505B8EFB02024EF405031AA8537D5E5
:100870000000130505B9EFB0002301A05D7122DE71
:1008800026DC37640040B70400382ADA2ED8130576
:100890000440938514003ED086C696C49AC29EC07A
:1008A00032D636D43AD242CE46CC72CA76C87AC64E
:1008B0007EC4EF1010398547631AF5009385140044
:1008C00013050440EF10503DEF40B067B704003807
:1008D000376400409385041013050440EF10703610
:1008E0008547631AF5009385041013050440EF1043
:1008F000B03AEF40106537640040B7050138130582
:100900000440EF1010348547631AF500B70501382D
:1009100013050440EF105038EF40B06237650040D7
:10092000854513050540EF1030487254B640A64285
:1009300016438643E2545255C2553256A2561257B8
:1009400082577248E248524EC24E324FA24F616106
:100950007300203039712AD6376500402ED4130534
:100960000540814506DE16DC1ADA1ED832D236D0B2
:100970003ACE3ECC42CA46C872C676C47AC27EC05F
:10098000EF407067F250E2525253C2533255A255B3
:10099000125682567247E2475248C248324EA24E21
:1009A000124F824F21617300203039712AD637658A
:1009B00000402ED413050540854506DE16DC1ADA04
:1009C0001ED832D236D03ACE3ECC42CA46C872C6C3
:1009D00076C47AC27EC0EF401062F250E2525253A7
:1009E000C2533255A255125682567247E2475248B8
:1009F000C248324EA24E124F824F21617300203006
:100A000039712AD6376500401305054006DE16DC2D
:100A10001ADA1ED82ED432D236D03ACE3ECC42CAC2
:100A200046C872C676C47AC27EC0EF401061F250EA
:100A3000E2525253C2533255A25512568256724751
:100A4000E2475248C248324EA24E124F824F2161B5
:100A5000730020305D7126DCB70400402ADA2ED8FE
:100A60001385044085453ED086C696C49AC29EC072
:100A700022DE32D636D43AD242CE46CC72CA76C8BC
:100A80007AC67EC4EF20C05F85476315F502371430
:100A900001408565130504C0EF10706CEF00903CB9
:100AA000854513850440EF20205F8565130504C04C
:100AB000EF1070697254B640A64216438643E25462
:100AC0005255C2553256A256125782577248E248C2
:100AD000524EC24E324FA24F616173002030EFF28E
:100AE0007FA2EF10704637F50008B704002037F4F6
:100AF0000008EF10704B938404009149130904011E
:100B00008C402285EF10D04D631A350198401C406F
:100B10006316F70011049104E31424FFEF107044EE
:100B200021BCB707002003C70738630D070EEFF29B
:100B30001F9F37F40008042037D50000130545BC7B
:100B4000A68513890738EFA0107693077006638097
:100B5000F40237D50000130505BBEFB0000641379E
:100B60000C2037D50000130505BCEFA0D073370467
:100B70000020B7F700081307040093860701130449
:100B80000400902385070507A30FC7FEE39BD7FE4C
:100B900083A7C181130684000547C8438546854560
:100BA0001305C51223000900EF50B01A83A7C181B5
:100BB000130694000547C843854689451305C512A9
:100BC000EF50301983A7C1811306A4000547C8431D
:100BD00085468D451305C512EF50B01783A7C18117
:100BE0002D042286C8430547854691451305C51245
:100BF000EF50301683A7C18122860547C84385463A
:100C0000854513058513EF50D01483A7C18105478F
:100C10008546C8432286894513058513EF50701316
:100C20006FF03F928280EFF29F8FB707002093878B
:100C300007003E950CA165356FF0BF90EFF23F8E37
:100C4000B7070020938707003E9513D78500411111
:100C50000CA118B16C87613541016FF09F8EB70709
:100C6000002083C7073885C3EFF27F8B41112AC666
:100C70004D3D3245B707002093870700AA97882388
:100C800041016FF01F8CB707002093870700AA97D8
:100C900088238280B707002083C7073895C7EFF203
:100CA0001F884135B707002083C717001D4713056C
:100CB000D0076369F70013971700B567938707BAE2
:100CC000BA978A236FF0FF87B707002083C7170002
:100CD0001D471305D007636AF70013971700B56720
:100CE000938707BABA978A2382808280B707002049
:100CF00083C7073885C3EFF29F822535B7070020E9
:100D000003C73700854701456314F700130500103A
:100D10006FF03F83B707002003C7370085470145C1
:100D20006315F7001305001082808280B70700204A
:100D300083C7073891CBEFF28FFEE533B70700206A
:100D400003C527006FF0EFFFB707002003C527009A
:100D50008280EFF22FFB011185451145EF10106DD8
:100D600085452145EF10906C85454145EF10106C8D
:100D7000854513050002EF10706B85450545EF10A2
:100D8000F06A85451165EF10506C85453705000206
:100D9000EF10B06B85450545EF10306B856413850A
:100DA00004808545EF10906885450945EF10F0698E
:100DB0008545054537140140EF107065130504C0E3
:100DC000856502C602C802CAEF1070391305048097
:100DD00093050010EF10B038F9778D4A6C00371585
:100DE00001407C8656C8697A02CAEF1050249307E6
:100DF0008AED6C00130504807C86EF105023856714
:100E0000938717806C00130504C07C86EF10302296
:100E10009307E00F91496C00130504C07C864ECA0D
:100E2000EF10F020930700026C00130504807C860D
:100E3000EF10F01FC1476C00130504C03ECA648662
:100E4000EF10F01E130900106C0013050480231628
:100E50002101EF10D01D3705180085451305052029
:100E6000EF107031E1476C00130504802316510127
:100E70003ECAEF10D01B930700406C00130504C05E
:100E80007C86EF10D01A6C00130504C023164101B4
:100E9000EF10F019854537451D00EF10D02D930751
:100EA00000206C00130504C07C86EF1050186C0005
:100EB000130A8004130504C02316210137340140AE
:100EC00052CAEF10D016130504C0EF107068130556
:100ED00004C0EF20E0146800EF20200F1309803ECB
:100EE0006C00130504C02318210123164101EF10E3
:100EF000F06D8545130504C0EF20800E9307D032B6
:100F00007C86680085473EC823170100EF10B03982
:100F10009307402268007C86EF10F0389307500258
:100F200068005C86EF1030389307300268005C86FA
:100F3000EF1070379307600268005C86374400400A
:100F4000EF1070361305048002C602C802CA02CC34
:100F5000231E0100EF101055B70704013EC6B70766
:100F600000023ECA6C00A147130504803ECC02C8B3
:100F7000231E0100EF1070560546894513050480B5
:100F8000EF10305B3705004002C602C802CA02CC2F
:100F9000EF10105C37050040EF2080080A85EF2035
:100FA000C00289478A8537050040231221017C80D1
:100FB000EF10D061C167938707063EC66C009307A8
:100FC000401F37050040FC81231A0100EF10B06676
:100FD0006C0037050040EF10B06C6C003705004026
:100FE000EF107075814537050040EF200006814500
:100FF00037050040EF204006814537050040EF20CF
:101000000007854537050040EF20800285453705FC
:101010000040EF10707E3704004013050440EF10CD
:10102000305313050440EF10B07F6800EF10F079E3
:101030006C00130504402318210123163101EF1021
:10104000F058130504408545EF2000050546854509
:1010500013050440EF10B07B156513055555EF10CF
:10106000B0201145EF10D0201385F4FFEF10D020F1
:10107000EF101021EF10B02105616FF0EFCBEFF210
:101080000FCA39712A842E89B28481451306C002A1
:10109000480836C6EFF0AFCB2285EF10C05AB246F3
:1010A000C1473ECE930700083ED44C088D67228589
:1010B0004ACA26CC36D03EDC02D202D602D802DAA8
:1010C00002DEEF10006221616FF0AFC7EFF22FC5B3
:1010D0000146A1454145EF20100AB7070020814590
:1010E00023A0A73EEF20E07C6FF0AFC5B70700203C
:1010F00003A5073E8280EFF28FBFB70B002041119E
:10110000356C138B4183938B8B3D13894193370A45
:1011100000202145A936A9473305F502930ACCBD25
:101120000144854C37DD0000EF30807083D54A00E4
:1011300003A50A00B38D8B00EF10007FB3078B006F
:101140009C233EC483C70D0095C70547631AE50677
:1011500093172400CA9723A0070023800D0093074C
:10116000000403250A3E81467D562C005C86EF2054
:10117000700789A021E193142400CA9483A9040074
:101180002545850923A03401EFF07FAD63E4A90272
:1011900003250A3E930700F823A0040023809D0145
:1011A00081467D562C005C86EF20D00313054DBD93
:1011B000EFA0B0200504A147A10AE319F4F691BFFE
:1011C00075F993142400CA9483A90400850923A007
:1011D0003401638BE7000947E39EE7FC2D45EFF000
:1011E0001FA8E3E9A9FC09A82945EFF05FA7E3E3FD
:1011F000A9FC89472380FD0023A00400930700F881
:101200008DB7EFF2CFB1EF90B06BB7D7000003A668
:1012100087C583A6C7C5EF900018B7D7000003A6FF
:1012200007C683A647C6EF80502AEF607064B7D721
:10123000000003A687C683A6C7C6EF90C015EF902F
:10124000705B420541816FF0CFAFEFF2AFABE1775A
:1012500041118D07371401407C82C147130504807A
:101260003EC64C008D473EC423130100EF10205CA6
:1012700093070040130504C04C007C82EF10205BF4
:101280009167130504807C824C0091473EC6EF10A5
:10129000005A130504808D45EF10E06A130504C061
:1012A00093050040EF10206A130504C08565B569F9
:1012B000130904C0EF10A06A8144914A9389C9C1FF
:1012C00013040480754A85654A85EF10C06705459B
:1012D000EF30005685654A85EF10606863E09A023A
:1012E00093972400CE979C4382878D452285EF10EB
:1012F0000067930500404A85EF106066850493F40B
:10130000F40FE39244FD37140140A16513050480F6
:10131000EF10E0648565130504C0EF10C0628565B9
:10132000130504C0EF10A0638D4513050480EF1072
:10133000006393050040130504C0EF1040620545AB
:10134000EF30004F8565130504C0EF10C05F054501
:10135000EF30004E8565130504C0EF1040608D45E9
:1013600013050480EF10A05F93050040130504C02F
:10137000EF10E05E61498144930904C0130A0480C0
:1013800085654E85EF10205C0545EF30604A91651C
:101390005285EF10605985476315F500860493E484
:1013A000140085654E85EF10805B7D190545137926
:1013B000F90FEF30E047E31509FCB7070001FD170F
:1013C0006396F40637D50000130505C7EFA0E07E4D
:1013D000130504808D45EF100057130504C09305D5
:1013E0000040EF104056130504C0B7140140856556
:1013F000138904C0EF10A056014493840480094A65
:10140000954985654A85EF1000540545EF30404207
:1014100085654A85EF10A05485476306F40A630E7C
:10142000440B05041374F40FE31D34FD371401401D
:101430004C00130504C0EF10803FE1473EC6E9773A
:10144000938707404C00130504C07C82EF10203EB8
:10145000E1778D074C00130504807C8237440040FF
:10146000EF10E03C130504808545EF10F00A3706C5
:101470000020370502408D461306063F9305C480C1
:1014800013058505ED3E37050040854513050540EC
:10149000EF101035854537050040EF1070344101DD
:1014A0006FF08F898D452285EF10E049930500404C
:1014B0004A85EF10404999B58565DDBF856525BD35
:1014C000A1652285FDB726858D45EF10404993051E
:1014D00000404A85EF10A048A9B726858D45EF103A
:1014E0008046930500404A85EF10E0451DBFB707D1
:1014F00000209387873E3E95A30FB5FE8280B707F5
:1015000000209387473E3E95A30FB5FE82801307C8
:10151000F0036369A700EFF28F80E5312392A18089
:101520006FF02F82930760092392F1808280B707C2
:1015300000201387C73EFD567D1516A334A31375EF
:10154000F50F21479387C73E6369A70235671307E5
:1015500007C30A053A9518410287A3800700238133
:101560000700828023800700DDBF23900700828070
:10157000A380070082802380070082801307F00386
:10158000636BA700EFE2BFF9AD39370700202311E5
:10159000A7386FE01FFB930760093707002023116E
:1015A000F7388280EFE2BFF7411102C002C202C4E5
:1015B00002C69307F00363E1A70881452A84370533
:1015C0000040EF107023C1679387070622853EC055
:1015D000EFA0A00EB7D7000083A5C7C7EF90B03427
:1015E000B7D7000083A507C8EF90D05EEFA08007B3
:1015F0000505894768838A85370500407C84EF109C
:1016000090038A8537050040EF1090098A853705D9
:101610000040EF105012854537050040EF10D01DF7
:101620002C8337D50000130545C8EFA0C04785457A
:1016300037050040EF10D01A41016FE09FF0EFE254
:101640001FEE1945EFF0AFE1DD351145EFF02FE169
:101650007D3D1545EFF0AFE015371305F0039937E1
:101660006FE03FEEEFE2BFEBB705002083D7653FA9
:10167000130760099385653F8507C207C183636AC5
:10168000F7169EA1B70700209387473E9823903313
:10169000B423370500203368C700B707002033E8BC
:1016A0000601130515389387873E63060816B708A9
:1016B00000209388483F03D8080015631303437E36
:1016C000050842081358080123900801637B0301B1
:1016D00003480500239008007D18333800012300DB
:1016E0000501034E0500054503C3070083C8170025
:1016F00003C827006312AE10336767003366160114
:1017000098A390B3B3E60601B4A33707002093066D
:10171000073F03C807008833B023B7070020239092
:1017200006002381060083D8050083D62738930757
:10173000073F63F6D802B70600209386C63E33679C
:10174000A8008C22518F1347F7FF1377F70FF98DFD
:10175000ACA38C32B422F98D758F8CB398A303D7C8
:101760004180636D1701B8233368E8009833238103
:101770000701598D982388B3598E90A337340140BF
:10178000130504C0EF10900FB70402408D452A895D
:1017900013858405EF00B079138584058545EF0036
:1017A000D077130404C09304300637050200EF001D
:1017B000507801ED2285EF10700C330525419357C9
:1017C000F5413D8D1D8DE3D2A4FE370502408145D4
:1017D00013058505EF0070744165EF00707637459D
:1017E00000409305000413050580EF10A0556FE03D
:1017F0005FD52390050079B51347F7FF1346F6FF31
:10180000337767003376160193C6F6FF98A390B33B
:10181000B3F60601D5BD054718A1C5BDEFE23FD01F
:10182000EFF0BFA237D50000130505C9EFA0A02730
:10183000B707002003A5C740854537D40000EF1047
:10184000B0601305401FEF20B07EEF10602313053A
:10185000C4C9EFA08036F5B7EFE27FCC0945EF10A1
:10186000E0236125EF30F021716513050520EF308D
:10187000B02383A5818037D50000130585CAEFA06A
:101880008022EF00B05BAA8537D50000130585CB19
:10189000EFA06021B7D5000037D50000938585CC37
:1018A000130505CDEFA02020EFF0AFCAB707002049
:1018B000B7D50000372500009387074015478146BC
:1018C00013060008938505CF1305C581EF20F01B93
:1018D000B7070020B7D500003715000093874740B1
:1018E00015478146130600089385C5CF1305650F7C
:1018F000EF20B019B7070020B7D50000372500004A
:101900009387874029478146130600109385C5D0E9
:10191000130525D1EF207017B7070020B7D50000B9
:10192000370500009387C73F1D4781461306C02B2C
:10193000938585D113050560EF203015B70700208A
:10194000B7D50000370500009387873F15478146CC
:1019500013060010938585D213052579EF20F01228
:10196000EFF02F9CE939EFF06FF6D12C376500408E
:1019700013050540EFE03FC8EF10F043B707002024
:1019800023A6A74037D40000EF20902F130584D35F
:10199000EFA0A022E5BFEFE29FB8B707002083A524
:1019A000C740373500008146054613050571EF3005
:1019B000F00A6FE01FB999677390078001A0A547EF
:1019C00029C1A1C19DCE034815018948B947130714
:1019D000F8FF1377F70F63E6E802EFE25FB4AE8437
:1019E0008C2141112A84428536C632C4EFF03FB1C2
:1019F000B2462246A6852285EF40D01441016FE011
:101A00005FB43E8582801DC125459DC195C28C2154
:101A10003D4593978501E187635CF000EFE23FB0BD
:101A20000945EFF04FA001456FE0BFB12545828029
:101A300082800DC125458DC185C28C219D473D45C4
:101A400063ECB700EFE2BFAD0545EFF0CF9D014578
:101A50006FE03FAF254582808280A5474DC1C5C15B
:101A6000D9CEEFE2DFAB1C3985462E8413F7B7FFE2
:101A70007D171377F70FAA8463E2E6028C21130720
:101A8000F0036376B700BD473E856FE09FAB094723
:101A9000638DE704636DF7026385D70494380546C8
:101AA000B9471387D6FF1377F70FE36FE6FC0C20D7
:101AB00021479387F5FF93F7F70FE366F7FC91470C
:101AC000638BF6022E85EFF09FA6814775BF154701
:101AD0006381E70219471545E392E7FCEFF0AF9405
:101AE00075BF2E85EFF0BFA255BF2E85EFF01FA961
:101AF00075B71145E5B71945EFF0EF92F9B73E8597
:101B00008280EFE2DFA14111254929C1A1C19DCE0B
:101B10001C39094739491388F7FF63690703AE8405
:101B20008C212A843E8536C632C4EFF05F9C224663
:101B3000B246A6852285EF40F00090200C382A8915
:101B400037D50000130505D5EF90F0754A854101A2
:101B50006FE03F9F0DC125458DC185C28C21854712
:101B60003D4563ECB700EFE29F9B0D45EFF0AF8B77
:101B700001456FE01F9D254582808280A5472DC1CC
:101B8000A5C1B9CEEFE21F981C3909473689B28941
:101B90002E84AA846380E7046369F7000547638F96
:101BA000E700BD473E856FE03F990D476387E70239
:101BB0001147E398E7FE8C212D4519A08C21214582
:101BC000EFF06F86CA864E86A2852685EF40807725
:101BD0008147C9BF8C212545E5B78C212945CDB763
:101BE0003E85828039C9EFE2FF91AA8441112545E3
:101BF000B1C1A9C29C380547B68932892E84638D4C
:101C0000E70009473D456397E7029C2139455C871A
:101C10009C31DC872C8739A09C2131455C879C3125
:101C2000DC872C87EFF08F81CE864A86A2852685B9
:101C3000EF40407141016FE03F9025458280EFE227
:101C40001F8EEFF0AFCAB707002023A0A74283A7DB
:101C5000C181DC439386C70FA5E237070020130735
:101C6000070523A8E7101387471125E3370700204E
:101C70001307070323A4E7121387871625E3370703
:101C800000201307070623A2E7161387471425E34E
:101C9000370700201307070923AAE71213878713C2
:101CA00025E303A747109307C70035C33707002074
:101CB0002328F7406FE0FF88370700201307070449
:101CC00023A2E7101387871049FB3707002013076B
:101CD000070223AEE7101387071249FB37070020DE
:101CE0001307070723A8E7161387C71549FB37070C
:101CF00000201307070123A6E7141387C71249FB27
:101D0000370700201307070823A0E714D9FA8147F3
:101D100071BFEFE24FFE37090020370B0020B704F8
:101D20000020370C0020930A00084A8AB70B0020D5
:101D30000545EF20F02F13040B420840EF206037D9
:101D400065D908407D5693854441EF10F07E938C11
:101D5000444183A70C0021471304DC416380E7045E
:101D6000636EF7000947638BE70211476388E70258
:101D700005476385E7022300040015A0130700024E
:101D8000638EE7006364F7004147E5B7130700047B
:101D90006386E700E39157FF930700F81CA083A731
:101DA000C18105478546C8431306C94185451305CA
:101DB000C50FEF40C07683C74C001307CA41639933
:101DC00057031C231420D58F1CA383A7C18105476B
:101DD0008546C8431306CA4185451305C50FEF4024
:101DE000407783A70B41A9D79823759B98A389B700
:101DF0001C20142393C7F7FFF58FF9B7B7170240DC
:101E00009843B706FFF841111367170098C3D843EA
:101E100037060200758FD8C39843B706F7FEFD1644
:101E2000758F98C39843B706FCFFFD16758F98C34E
:101E3000D843B70681FFFD16758FD8C337079F00BB
:101E400098C702C402C69843C166558F98C3B71697
:101E5000024005679C42F18F3EC6A24785073EC4FB
:101E6000B24781E7A247E397E7FEB71702409C43DA
:101E70001397E7006359070685473EC632478547F3
:101E80006311F706B7170240D843B706C1FFFD1626
:101E900013670708D8C3D843D8C3D843136707408C
:101EA000D8C3D843758FD8C3D843B7063D00558FE4
:101EB000D8C39843B7060001558F98C3984393162B
:101EC0006700E3DD06FED843B7160240719BD8C316
:101ED000D84313672700D8C32147DC42B18BE39E68
:101EE000E7FE4101828002C651BFB7160240DC42C4
:101EF0001146B18B138781806385C70021466388B3
:101F0000C702B7177A00938707201CC3B717024090
:101F1000DC43918393F6F700B70700209387070A05
:101F2000B69794231C43B3D7D7001CC38280DC42EE
:101F3000D4424166C983BD8BF18E890745466393C0
:101F4000C700C94781EEB746024083A60680C18A12
:101F500089CEB7167A009386062021A8B7160240CC
:101F6000D4421396E600E35606FEB7163D0093866C
:101F70000690B387D70251BF01A001A001A001A024
:101F800001A001A001A001A001A001A001A001A049
:101F900001A001A001A001A001A001A001A001A039
:101FA00001A001A001A001A001A001A001A001A029
:101FB00001A001A001A001A001A001A001A001A019
:101FC00001A001A001A001A001A001A001A001A009
:101FD00001A001A001A001A001A001A001A001A0F9
:101FE00001A001A097F1FF1F9381C1B91731002013
:101FF0001301410117B500001305057B97E5FF1F8D
:10200000938545001386818463FAC5008322050009
:1020100023A0550011059105E3EAC5FE17E5FF1F52
:102020001305C53A971500209385C5EB6377B50076
:10203000232005001105E36DB5FEFD42739002BC3F
:10204000894273904280B72200009382028073A07D
:10205000023097E2FFFF938262FE93E232007390B8
:102060005230EFF0BFD997F2FFFF9382227F739037
:102070001234730020301841AA87759B18C118418B
:102080001367170018C14167D443858A99E27D1709
:1020900065FFD8430145058B49CF94450547639BB0
:1020A000E608984313670708D44598C30547639724
:1020B000E608984313670704944998C30547639358
:1020C000E608984313670702D44998C30547639FFE
:1020D000E606984313670701944D98C30547639A32
:1020E000E606984313678700D44D98C30547639568
:1020F000E60698431367470098C3B821B4317A07BE
:10210000E206558FD421C206558FD431D206558FA1
:102110009621FD16558FD8CF9843799B98C3416778
:10212000D443858A99C27D1765FFC8431345F5FFDF
:102130000589828098431377F7F7BDB798431377E3
:10214000F7FB9DBF98431377F7FDBDBF98433D9BB9
:1021500061B798435D9B49BF98436D9B71BF3767DB
:10216000004013070740832607203C25054893E6D7
:1021700016002320D7208325C7213316F800934665
:10218000F6FFF58D232EB7204C25C5E58325C72006
:10219000035825008E07F58D2326B7206E21BA97A8
:1021A0005A21C205B3E5050123A0B7240E21420739
:1021B0004D8F23A2E724B7270240985BB707000F93
:1021C000F98F99EF376700409307073013070740EF
:1021D0008E239107C205C181239EB7EEE39AE7FEE5
:1021E0003835B7670040938707402DEB03A747209A
:1021F000758F23A2E7201A25B76700409387074011
:1022000035E303A74721F98E23AAD720184985472C
:102210006319F700B767004003A7C761598E23AE63
:10222000C760B767004003A70760799B23A0E760FA
:102230008280E39205F98325C720035825008E0785
:10224000D18D2326B7200E21BA975A21C205B3E5B6
:10225000050123A0B72442076E2199BF03A7472099
:10226000518F41BF8546E313D7FA03A74721518F0A
:1022700023AAE72061BF1C4513975700634E070848
:102280001C4513974700634B07081C45914613975D
:10229000370063510708894693974600AA9703A71A
:1022A0000718058B23A0E7189025883535EA984153
:1022B00003A607185607498F518F23A0E718B825A2
:1022C0003D8BB8A503A64718419A23A2C71803A6B9
:1022D0004718518F23A2E718D025B8352206598E0A
:1022E000D8354207598EF8256207518F23A4E71885
:1022F0009029F8352206598E98394207598EB82907
:102300006207518F23A6E71803A707181367170062
:1023100023A0E718368582808146BDBF8546ADBFC4
:10232000D84103A807180E07498F518F336707015B
:1023300069B793974500AA9703A7071B118B18A6A7
:102340002DE703A7071B558318C203A7071B098B9B
:1023500018B603A7471B3D8B38A603A7471B21834D
:1023600038BA03A7871B38B603A7871B218358A653
:1023700003A7871B418358B603A7871B618378A6F1
:1023800003A7C71B78B603A7C71B218318AA03A7F7
:10239000C71B418318BA83A7C71BE1833CAA99E9ED
:1023A0005C4593E707025CC5828003A7071B0D838A
:1023B00058C261BF1C4993E707021CC982808DE5A2
:1023C0001C418546F19B93E717001CC1C16758412A
:1023D0000D8B6304D700FD17FDFB5C418D8BFD1752
:1023E00093B717003E8582808547639EF5001C41A8
:1023F000F19B1CC1C16758410D8B19C3FD17E5FF47
:102400005C418D8BF1BF09478147E39DE5FC1C4191
:102410008946F19B93E727001CC1C16758410D8B8A
:102420006304D700FD17FDFB5C418D8BF9174DBF91
:102430005C4901C6DD8D4CC9828093C5F5FFFD8DD9
:10244000DDBFB707F000ED8F89CB104D3375B600B7
:10245000320531813335A00082809397750063D6B1
:102460000700544133F5B600E5B79397450063D5AF
:10247000070008456D8DE9BFB7061000939765000A
:10248000FD1663D7070058453375B700758DD9B76A
:102490001C4933F5B700DDBFB707F0309387070756
:1024A0006395F500232C050082809397C500139750
:1024B0006500B183635407005CC5828013975500A3
:1024C000635407001CC982801397450063540700BA
:1024D0001CC582805CC182805C49ED8F95C39307E7
:1024E00000046383F50A63ECB70291476386F5083D
:1024F00063EAB70085476386F5068947638BF5066F
:1025000001458280C147638DF50693070002638B06
:10251000F506A147E396F5FE4845118185A093870E
:102520000580BDCF85679387078063E0B702930777
:1025300000206381F506930700406380F50693074A
:102540000010E39FF5FA084D15A8C1676380F504F4
:10255000B7070200638EF502A167E393F5FA4841DD
:1025600035A80845C167938717107D8D3335A000C6
:10257000828048450D89DDBF48450D8105898280EF
:102580000849CDBF0849D5BF084941BF4841F5B703
:10259000484161B7084D0581D5B7084D0981F9BF9C
:1025A000084D13750507D9B7930700106386F50624
:1025B00063E7B702A1476388F50663E9B7000547FB
:1025C000638EE50411476381E506828013070002EC
:1025D000638FE50493070004638AF5048280938780
:1025E00005808DCB85679387078063EBB7009307E2
:1025F00000206383F50293070040638FF50082801B
:10260000C1676388F502B70702006387F502A16717
:102610006393F502232C0500914729A8C16793878E
:1026200017101CC58280C1475CC58280C1471CC988
:102630008280A1475CC18280C147EDBFB7F7FF1F11
:1026400003A5477082801C4141677917F98F1CC12F
:10265000232005002322050023240500B70702409C
:1026600023260500138787006316E500D843136708
:10267000F70001A81387C7016317E500D843136764
:10268000070FD8C3B1A8138707036318E500D84321
:102690008566938606F0558FEDB71387470463155B
:1026A000E500D843BD66C5BF138787056316E500FF
:1026B000D843B7060F00C5B71387C7066316E500F2
:1026C000D843B706F000C1BF138707086316E500BB
:1026D000D843B706000FC1B713874709E308E5F8E9
:1026E00082801C4161773D0794517D8F9C45D58F39
:1026F0009449D58FD449D58F944DD58FD44DD58F4E
:10270000D451D58F9455D58FD98F1CC1DC455CC170
:102710009C411CC5DC415CC582801C4189C593E796
:1027200017001CC1828041677917F98FDDBF4CC14A
:102730008280B70702409C437D8D3335A0008280A4
:10274000B7070240C8C38280B707674537270240F2
:10275000938737125CC3B797EFCD9387B79A5CC363
:102760008280372702401C4B93E707081CCB8280EE
:10277000372702405C470545858B91E748474189EB
:10278000133515000D058280EFD27FD92A84854448
:10279000C5376318950019E0154529A0D13F7D1470
:1027A000CDBF7DD86FD0FFD9EFD27FD7AA843705B0
:1027B0000B00D93F91476313F502372402401C48B0
:1027C00037050B0093E727001CC844C81C4893E753
:1027D00007041CC8553F1C48F59B1CC86FD07FD60A
:1027E000EFD25FD241112A891565AE8402C69149A4
:1027F000613F631B3503372402401C48156593E78E
:1028000017001CC893970401C1832310F900AD3F42
:102810006319350109094AC6B247C180156586A307
:10282000A5371C48F99B1CC841016FD0FFD09C45BF
:1028300013F7070113F8F70001C7D8413368E80020
:1028400037270240145B3707000F758F5DEB3707A2
:10285000002085462302D742371701406315E50063
:102860009A2135839AA18E2113F7F50F39C31841A8
:102870008146854E3D4F930F800293028004214E86
:102880003396DE00B3F8C500631116039398260053
:1028900033131F011343F3FF3377E300B318180119
:1028A00033E7E8006399F70750C98506E39AC6FD48
:1028B00018C11307F00F6375B70454412146854EC4
:1028C0003D4F930F800293028004414EB398CE0097
:1028D00033F715016392E80213172600011733132B
:1028E000EF001343F3FFB376D3003317E800D98E1C
:1028F0006397F703232A15010506E319C6FD54C1A2
:10290000828037170140E310E5F6370700200347C0
:10291000474231DBB1B7E39A57F810C979B7E39D65
:1029200057FC23281501C9BFB71701406318F500EC
:10293000B707002083C7474291C3B58108456D8D15
:102940003335A0008280B71701406318F500B70740
:10295000002083C7474291C3B5810CC98280B71755
:1029600001406318F500B707002083C7474291C3B1
:10297000B5814CC98280B7070140635A0504DC4F1A
:1029800093560501131805013707300013F6F600BA
:1029900013580801B376E500635E05066399E60403
:1029A000930606010D46B316D60093C6F6FFF58FC3
:1029B00099C9135755011377F73F12073317E800EA
:1029C000D98F63550506370701405CCF82803727D2
:1029D0000240145BDC433707000F758F55F313D7A4
:1029E0001700F976CE07758FCD83D98F51BF131796
:1029F000B500635607008D46B396C6007DB71357E2
:102A000055011377F73F12073317E8001347F7FF15
:102A1000F98F79BF6390E6023706014054423707C9
:102A200000F17D17F98F758F58C2C1F53707014046
:102A30005CC382801317B500635C07008D46B396B4
:102A4000C60093C6F6FFFD8EB707000FD58FF1BF06
:102A50001357550112073317E8001347F7FF7D8F0F
:102A6000B707000FD98FD1B7B737004088C382802E
:102A7000B7370040C8C38280B737004088C782801C
:102A8000AD67373700409387A7AA1CC38280B5671C
:102A9000373700409387C7CC1CC38280B70700201C
:102AA00023A4A7428280B7070020938787429443DC
:102AB000182181E63C21920721A894430546639F93
:102AC000C6023C21103192076314D60093E707F841
:102AD000B7E600E093F7F70FBA962380F6408546F5
:102AE000935757003397E6005441A5C293870704D4
:102AF0008A07B7E600E0B69798C382808C43894680
:102B00006391D50214313C216365D6008A06B697DD
:102B10005DB79386E6038A06B69793F7F70F920799
:102B200075B790438D46631CD60014313C21636415
:102B3000D6008606E9BF9386C6078606F1BF944392
:102B40009147E39EF6F81C31BDB7938707064DB752
:102B5000371702405C439146B18B6385D700A1468D
:102B60006382D706B7177A00938707201CC13716F0
:102B700002405C42370700201307070B9183BD8B8F
:102B8000BA9794231C41B3D7D7005CC15442A182A9
:102B90009D8ABA969422B3D6D70014C55442AD820A
:102BA0009D8A36971823B3D7E7005CC5584239830E
:102BB000937637001387C18036971823B3D7E7027F
:102BC0001CC982805C435843C166C983BD8B758F25
:102BD0008907C5466393D700C94701EF37470240CD
:102BE00003270780418B09CF37177A001307072087
:102BF00021A83717024058439316E700E3D606FE94
:102C000037173D0013070790B387E70285B799C5CB
:102C1000371702405C4B5D8D48CB8280B71702406E
:102C2000D84B1345F5FF798DC8CB828099C53717EE
:102C300002401C4F5D8D08CF8280B7170240984F2D
:102C40001345F5FF798D88CF828099C537170240EB
:102C50005C4F5D8D48CF8280B7170240D84F134537
:102C6000F5FF798DC8CF828099C5371702405C4740
:102C70005D8D48C78280B7170240D8471345F5FFDE
:102C8000798DC8C7828099C5371702401C4B5D8D6E
:102C900008CB8280B7170240984B1345F5FF798D1A
:102CA00088CB8280EFD2BF87B7370140631AF50027
:102CB00085450565553F814505657D376FD07F8822
:102CC000B747004093870780E31AF5FE85451165F5
:102CD0005D3F81451165453FD5B71A218D679387C3
:102CE0000704B6217D8F9E21D58FD621D58FF62161
:102CF000D58F9625D58FB625D58FD625D58FF62598
:102D0000D58FD98F1EA15A2DFD779387F77FF98F25
:102D10005EAD9E291EA982801E2189C593E7070406
:102D20001EA18280C207C18393F7F7FBC207C1834C
:102D3000C5BF5E2101C6DD8D4EA1828093C5F5FF22
:102D4000FD8DDDBF93C5F5FFC205C1810EA5828053
:102D5000EFD2EFFCB7370140938707C0631DF50042
:102D600005648545130504800137814513050480FA
:102D7000E53D6FD00FFDB70700406319F5008545AD
:102D80000545113781450545FD3DE5B7938707406A
:102D90006318F50085450945FD3581450945EDB7C1
:102DA000B7170040138707806318E5008545114574
:102DB000D93D81451145C9BF938707C0E31BF5FA8B
:102DC00085452145C935814521457DBF1E213737C0
:102DD0000140130707C0C207C1836304E502370738
:102DE00000406300E50213070740630CE500371756
:102DF0000040930607806306D500130707C06316DB
:102E0000E500BA2193F7F7F8D98FFA2193F7F7CFB6
:102E1000C207C183D98F1EA1DE215EB59E211EB5DA
:102E2000B7370140938707C06314F5009C251EB98E
:102E300085475EA982801E31922103D82500C207F2
:102E4000C183F99BC207C1831EB11E3156211A2DC1
:102E5000C207C183420741831377C7F8518F922578
:102E6000F59BC20633660601D18F37360140130643
:102E700006C0C1826310C502B225DD9B03D8E50000
:102E8000D18FD221ED9B93F6F6CFD18FD225336629
:102E90000601D18E56A11AADFA215AB91EB182800F
:102EA0001E3165771307F7CFC207C183BD9BC207E9
:102EB000C1831EB11E31562103D88500C207139667
:102EC0000601162DC18393F7F7FD758F9621418278
:102ED000A206558FB62142074183B3E6060192064A
:102EE000D58FB7360140C207938606C0C183631EE3
:102EF000D502B62593F7F7F703D8C5009206D58F0C
:102F0000D621C207C183920693F7F7FBD58FFD76D2
:102F10009386F63FF18EF225C207C1833366060120
:102F20000A06D18E13960601418252A11AADFA21EA
:102F30001ABD1EB182801E3103D88500C207C1832D
:102F400093F7F7EFC207C1831EB11E3156215A2DE8
:102F5000C207139606014207962141831377C7F8EB
:102F6000558FB621C18393F7F7DFB3E60601A206BA
:102F7000D58FB7360140C207938606C04182C18310
:102F8000631FD502FD769386F67FF58FB62503D8AD
:102F9000C500A206D58FD621C207C183A20693F72A
:102FA000F7BFD58FF576FD16F18EF225C207C183E6
:102FB000336606011206D18E13960601418252A194
:102FC0005AADFA215ABD1EB18280FD575EA1231071
:102FD000050023130500231105002304050082804A
:102FE0001E2189C593E717001EA18280C207C183F5
:102FF000F99BC207C183CDBF8357450491C52167A3
:10300000D98F2312F5048280C607C583DDBF5E25F4
:1030100001C6DD8D4EA5828093C5F5FFFD8DDDBF18
:103020001E25C207C183E19BC207C1831EA5828002
:103030001E2189C593E707081EA18280C207C183AC
:1030400093F7F7F7C207C183C5BF1E2DC207C1831F
:10305000DD9BDD8D0EAD82801A2DFD779387F77F86
:10306000F98FA205CD8FC207C1831EAD82805E2D70
:10307000C207C183DD9BDD8D4EAD82804A318280E7
:103080001E294A25ED8F4205418189C76D8D333553
:10309000A00082800145828093C5F5FFC205C181F1
:1030A0000EA98280EFD2AFC71629F577FD17F58FED
:1030B000F621DA257971D58F1EA95625FD779387DC
:1030C000379FF58FD6212A842EC6D58F9625D58F8A
:1030D000B625D58F5EA55E29C207C18393F7F7CFCA
:1030E000D98F5EA96808EFF0BFA6B7470140938764
:1030F0000780B245631AF404A25756246547B38784
:10310000E702C206C186984163D20604060752242C
:103110004206B3D7E702130740064186B3D6E7025B
:10312000B3F7E7029206635506028E0793872703DB
:10313000B3D7E70213F77700B367D700C207C1839D
:103140001EA445616FD0EFBF925745BF0A07C1B7B4
:10315000920793872703B3D7E702BD8BD58FF9BFBB
:1031600091C55E250967D98F5EA582805A25F977BA
:10317000FD17F98FD5BF93F5F51F4EA182800A2167
:103180006D8D3335A0008280B707002093874744B8
:103190009843636FA702D043B386C7006316D50078
:1031A00054413E85B296D4C35041B306C500631C5A
:1031B000D700B706002083A6C6426306D700544353
:1031C0001843B29654C118C16303F50088C38280C6
:1031D000BA877DBFEFD20FB341112AC6EF1060331B
:1031E000B706002083A7C642370600209386C64252
:1031F000130606433245A9EF370700209307474DD2
:1032000093F5F7001307474D81C51387F700419BDE
:10321000B70500209385454423A2050098C1896520
:103220009385057FAE97C19B23A2070023A00700CB
:10323000B385E7409CC21CC3B707002023ACB7424C
:10324000B707002023AAB742B70700804CC31CC2AF
:10325000032A0600B377AA0085E39307F5FF3957E1
:10326000636CF7009307050113F7F70041C313F7E9
:1032700007FF410763EBE706814489A022872E847C
:1032800061A058C15CC009375840B706002093863A
:1032900086439042B307E94023A0F90063F3C700D7
:1032A0009CC2B70700203367EA009387C74358C022
:1032B0009843C10423200400050798C3EF10804100
:1032C00093F7F400D1CB8967938707807390073019
:1032D00037D6000037D50000130606D69305001137
:1032E000130585D8EF80207C01A0BA87370700201E
:1032F0000329474393094743E360F9F83707002060
:10330000032447441307474450406374F6000C40BD
:10331000B5F59442E38286F61440044314C33307A0
:10332000F64093060002E3F1E6F63305F4009376E7
:10333000F500A1DA8967938707807390073037D645
:10334000000037D50000130606D69305F00C1305D0
:1033500085D8EF80407501A0268541016FD0CF9DB3
:103360005DC1EFD2CF9BB7070020032745FF83A79E
:1033700007432A84B376F7009DE289679387078025
:103380007390073037D6000037D50000130606D6F5
:1033900093054012130585D8EF80E07001A08326C5
:1033A00005FF9DC28967938707807390073037D6E2
:1033B000000037D50000130606D6930550121305FA
:1033C00085D8EF80406E01A093C7F7FFF98F232ABD
:1033D000F5FEEF100014B70700209387474394438E
:1033E000032744FF130504FF369798C3EFF0DFD996
:1033F000B7070020938707449843050798C3EF1049
:10340000602D6FD00F948280B7E700E0415723878B
:10341000E7402386E740B7F700E023A0070023A298
:103420000700814694C70147D8C783A58180130749
:10343000803E814633D6E5023D4790CBD4CB98C33E
:103440008280EFD2CF8D411102C6F32750303EC6A5
:10345000B2470D478D8B6384E702896793870780A6
:103460007390073037D6000037D500001306C6DA50
:103470009305600B130585D8EF80E06201A0B75774
:10348000002093870700BD8B9DC3896793870780C2
:103490007390073037D6000037D500001306C6DA20
:1034A0009305B00B130585D8EF80E05F01A0A93F1D
:1034B000B7E700E0116723A0E710056723A0E71036
:1034C00023A80180EFC0DFE3014541016FD06F8782
:1034D000397106DE16DC1ADA1ED82AD62ED432D27C
:1034E00036D03ACE3ECC42CA46C872C676C47AC2FC
:1034F0007EC073110134896793870780739007300A
:10350000B7F700E023A20700EF10400211C5B7E7AC
:1035100000E0116723A0E72089679387878873906D
:10352000073073110134F250E2525253C2533255F4
:10353000A255125682567247E2475248C248324E4E
:10354000A24E124F824F216173002030896793870A
:10355000078073900730938701819843050798C3CC
:103560008280138701811C438DE7EFC25FFB89676F
:10357000938707807390073037D6000037D5000057
:103580001306C6DA93053010130585D8EF80A051D5
:1035900001A0FD171CC391E7896793878788739003
:1035A0000730828009651305058073150530828018
:1035B000731005308280EFC29FF66145EFF09FC126
:1035C0002A8409C5232005001105892A22856FC098
:1035D0005FF7EFC2DFF441111DE189679387078030
:1035E0007390073037D6000037D50000130646DD4C
:1035F0009305101E130585D8EF80E04A01A0B70798
:1036000000FFED8F9DC38967938707807390073014
:1036100037D6000037D50000130646DD9305201E7F
:10362000130585D8EF80204801A02A842EC6393F93
:10363000B245084093C5F5FFE98D0CC02AC6153781
:10364000324541016FC0FFEFEFC2DFEB41111DE1D9
:103650008967938707807390073037D6000037D586
:103660000000130646DD93051022130585D8EF8070
:10367000804301A0370700FF6D8F1DC389679387C3
:1036800007807390073037D6000037D50000130647
:1036900046DD93052022130585D8EF80C04001A0A8
:1036A0002A842EC69309C500EF00B0661C40B245BF
:1036B000084837090001CD8F1CC081447D19370AA5
:1036C00000020C40639CA90093C4F4FFED8C04C07D
:1036D000EF104000084041016FC01FE61841832AE7
:1036E0004500B377270113165700B3F6B7006345BB
:1036F000060089E65685F1B7E39ED7FE931677005C
:1037000063D30600DD8CB3E54501EF10803CDDB7E7
:10371000EFC2FFE0EFF0FFEB6FC0BFE29307850061
:103720007D575CC118C55CC51CC92320050082807B
:103730002328050082809841FD5693078500631E6B
:10374000D7001C49D843D8C10CC79CC5CCC31C4169
:1037500088C985071CC18280B687D4439042E37D27
:10376000C7FECDB7544118451C4998C654C3D4432D
:103770006393A600D8C39843232805007D1798C3F8
:1037800088438280EFC2BFD941112AC6EFF01FDC07
:103790003245005DEFF0FFDC1335140041016FC0CE
:1037A0005FDAEFC2DFD732893041045D2A8409EE47
:1037B0001C41014591E70844EF10C05C232404003C
:1037C000850404DC6FC0FFD7631009024841EF8015
:1037D000E0035C4038400145BA9718445CC0E3E11F
:1037E000E7FE1C405CC0E9BF4845EF8020023C403A
:1037F00058441440B307F0403E9758C46375D7004F
:103800001844BA975CC489470145E31BF9FACDD83F
:10381000FD147DB7304115C2EFC27FD05845144525
:10382000AA87329758C56364D700184158C52E85BA
:10383000CC47EF70B07D6FC0DFD08280EFC23FCE4B
:103840002A84EFF0BFD08344540413094402E204F5
:10385000E18463489002FD57A302F404EFF07FD0A7
:10386000EFF0DFCE8344440413090401E204E18451
:1038700063459002FD572302F404EFF09FCE6FC022
:103880005FCC5C50E9DB4A85EF10201619C1EF10C0
:10389000A041FD14E204E1846DBF1C48E1DF4A85CC
:1038A000EF10A01419C1EF102040FD14E204E184D0
:1038B000C1B7EFC2DFC641111DE189679387078059
:1038C0007390073037D6000037D50000130606DFA7
:1038D00093050011130585D8EF80E01C01A05C5D05
:1038E0002EC62A84BDC73841B3B7E702BDE3EFF067
:1038F000FFC53040585C1440232C0402B307E60295
:10390000B24554C03387F600918FB6975CC4FD571B
:103910002302F40418C4A302F4049DE11C4899CBCB
:1039200013050401EF10600C11C5B7E700E0116743
:1039300023A0E720EFF0FFC2054541016FC07FC023
:1039400013050401EFF09FDD13054402EFF01FDDC6
:10395000D5B78967938707807390073037D6000003
:1039600037D50000130606DF93055014130585D8DC
:10397000EF80601301A0EFC29FBA411131C1B3B70C
:10398000A502AA8495EF3305B502930770FB63E99E
:10399000A702130585042EC6EFF0DF832A8409CD24
:1039A000B245AA8799C1930785042CC01CC044DC8A
:1039B00085452285EFF0FFEF228541016FC07FB87A
:1039C0008967938707807390073037D6000037D513
:1039D0000000130606DF9305601C130585D8EF80F1
:1039E000800C01A0EFC23FB1011132C61DE1896711
:1039F000938707807390073037D6000037D50000D3
:103A0000130606DF9305E032130585D8EF80A00981
:103A100001A02A842E89B6848DE53C419DC3896727
:103A2000938707807390073037D6000037D50000A2
:103A3000130606DF9305F032130585D8EF80A00644
:103A400001A089476398F402585C85476304F70234
:103A50008967938707807390073037D6000037D582
:103A60000000130606DF93050033130585D8EF80A9
:103A7000800301A0EF10602415E5B247014C85C713
:103A80008967938707807390073037D6000037D552
:103A90000000130606DF93053033130585D8EF8049
:103AA000800001A0014C094BFD59930B040137EA3A
:103AB00000E0916AA5A8B24789E7EFF09FAA014507
:103AC00055A063150C002808EF100010EFF07FA937
:103AD000EF003024EFF09FA783474404E207E1871B
:103AE000639437012302040483475404E207E18707
:103AF00063943701A3020404EFF0BFA66C0028080A
:103B0000EF10E00D35EDEFF07FA4185C5C5C631EF8
:103B1000F704EFF01FA5B2455E85EF003061228506
:103B2000EFF0DFD1EF00103B29C9054CEFF01FA2E9
:103B3000185C5C5C6364F700E39F64F72686CA85C3
:103B40002285EFF01FC65C5089C713054402EF00C1
:103B5000D06911C5B7E700E0116723A0E720EFF0B7
:103B60005FA0054505616FC09F9CEFF09F9F228578
:103B7000EFF0DFCCEF0010364DBF23205A2175B790
:103B80002285EFF0BFCBEF00F03415BFEFC23F99B5
:103B90002A8681450545EFF01FDE2A8401CD2324C6
:103BA00005002320050023260500814601468145A6
:103BB000EFF05FE322856FC0DF98EFC25F961DE1F3
:103BC0008967938707807390073037D6000037D511
:103BD0000000130606DF93053028130585D8EF7023
:103BE000906C01A0032985002A84EF10600C8144A9
:103BF000631DA9005C448544FD175CC499E78146B8
:103C0000014681452285EFF0FFDD26856FC07F9359
:103C1000EFC25F8F41111DE1896793870780739021
:103C2000073037D6000037D50000130606DF9305AE
:103C30002040130585D8EF70106701A02A84B2894F
:103C40008DE53C419DC3896793870780739007305A
:103C500037D6000037D50000130606DF9305304045
:103C6000130585D8EF70306401A089476398F60288
:103C7000585C85476304F7028967938707807390D0
:103C8000073037D6000037D50000130606DF93054E
:103C90004040130585D8EF70106101A036C62EC4D0
:103CA000EFF05F90185C5C5C2A8AA245B2466366BE
:103CB000F700894781446393F602834454041C5CF3
:103CC0003686228513998401EFF0BFAD13598941DF
:103CD000FD576317F9025C5089EB85445285EFF07C
:103CE0003F8D268541016FC03F8513054402EF00DB
:103CF000D04F65D5E38309FE854723A0F900F1BFC6
:103D00009307F0076314F90289679387078073901C
:103D1000073037D6000037D50000130606DF9305BD
:103D2000D048130585D8EF70105801A08504E2042F
:103D3000E184A302940455B7EFC2EFFB011132C630
:103D40001DE18967938707807390073037D600009D
:103D500037D50000130606DF93051055130585D8E7
:103D6000EF70705401A02A84AE898DE53C419DC35B
:103D70008967938707807390073037D6000037D55F
:103D80000000130606DF93055055130585D8EF7024
:103D9000905101A0EF00707215E5B247014985C747
:103DA0008967938707807390073037D6000037D52F
:103DB0000000130606DF9305A055130585D8EF70A4
:103DC000904E01A001497D5A930A440237EB00E06E
:103DD000916B95A8B24789E7EFF0AFF8014569A864
:103DE000631509002808EF00305EEFF08FF7EF0051
:103DF0004072EFF0AFF583474404E207E187639434
:103E000047012302040483475404E207E1876394D3
:103E10004701A3020404EFF0CFF46C002808EF0080
:103E2000105C25E52285EFF0FF9531C9B245568536
:103E3000EF00D02F2285EFF07FA0EF00B00919E14D
:103E400023207B210549EFF06FF0045CC1D4CE85BF
:103E50002285FD14EFF01F9C04DC1C4899CB130550
:103E60000401EF00903811C5B7E700E0116723A007
:103E7000E720EFF00FEF054505616FC04FEB22859E
:103E8000EFF0DF9BEF00100575BF2285EFF01F9B61
:103E9000EF0050042285EFF0FF8E4DD581B7EFC2C1
:103EA0006FE601112EC61DE1896793870780739025
:103EB000073037D6000037D50000130606DF93051C
:103EC000305E130585D8EF70103E01A03C412A8476
:103ED0009DC38967938707807390073037D60000AA
:103EE00037D50000130606DF9305705E130585D8ED
:103EF000EF70703B01A0EF00505C0DE5B2479DC331
:103F00008967938707807390073037D6000037D5CD
:103F10000000130606DF9305C05E130585D8EF7019
:103F2000903801A081440149FD59130A4402B7EABF
:103F300000E0116B6DA0B2479DE79DC08967938734
:103F400007807390073037D6000037D5000013067E
:103F500006DF93052063130585D8EF70D03401A0E8
:103F6000EFF02FE07DA0631509002808EF00D04591
:103F7000EFF02FDF792BEFF06FDD83474404E2078A
:103F8000E187639437012302040483475404E20762
:103F9000E18763943701A3020404EFF08FDC6C0027
:103FA0002808EF00D04341E12285EFF0AFFD35C591
:103FB0001C4089EBEFF08FD90844EF00D051AA8460
:103FC000EFF02FDAB2455285EF0050162285EFF060
:103FD000FF86EF00207019E123A06A210549EFF068
:103FE000EFD61C5CA9DBFD171CDC1C4081E7EF0051
:103FF000707408C41C4899CB13050401EF00F01E2F
:1040000011C5B7E700E0116723A0E720EFF06FD5F7
:104010008544268505616FC02FD22285EFF01F826F
:10402000EF00406B65BF2285EFF05F81652522853B
:10403000EFF04FF545D5F1DCEFF04FD15C50814505
:1040400089C71C58BD459C439D8D08448144EF00A1
:104050001060EFF00FD175BFEFC26FCC41111DE1C1
:104060008967938707807390073037D6000037D56C
:104070000000130606DF9305B02B130585D8EF70FB
:10408000902201A004452EC62A84EF007042B2455A
:104090006399A4005C44054585075CC441016FC079
:1040A0004FCA2285EFF0BFDF75D95C4485075CC439
:1040B000F5B7EFC2CFC641111DE18967938707802D
:1040C0007390073037D6000037D50000130606DF9F
:1040D0009305307E130585D8EF70F01C01A02AC629
:1040E000EFF0CFC63245085D2AC6EFF08FC73245E4
:1040F00041016FC00FC515E5EFC26FC28967938795
:1041000007807390073037D60000856537D50000EB
:10411000130606DF938585AC130585D8EF70B018BC
:1041200001A09DCD37360020930646CD814701473B
:10413000130646CD214883A846006398A80093172C
:104140003700B2978CC3C8C321A891E783A80600A3
:1041500063930800B6870507A106E31E07FDFDF37C
:104160008280EFC2CFBB41112A842EC632C4EFF049
:10417000EFBD834744047D572246E207E187B245FD
:104180006394E70023020404834754047D57E20745
:10419000E1876394E700A302040432C62EC4EFF063
:1041A0004FBC1C5CA245324689E713054402EF0070
:1041B000607C2285EFF08FE841016FC08FB801A0CD
:1041C00037070020130707451C439443B707002017
:1041D0009387C74681E67D5798C382801843584726
:1041E0001843DDBFEFC20FB237090020B707002028
:1041F0009304C94483A9C7472A849C40884041113D
:10420000A388070411052EC6EFF0CFD57D5793077D
:10421000C944B245631CE40295C9B73700209387AF
:10422000C7E79440D84398C610479440D0C69440FE
:104230001047910654C29440910614C798405CCB35
:104240009843050798C341016FC00FAF98434E9440
:1042500040C3637B340137070020032547458C4367
:104260009105EFF04FCDC5B737070020032507456F
:104270008C439105EFF02FCCB70700209387C746FA
:104280009843E372E4FC80C37DBFEFC2CFA613194D
:104290002600AA8A4A852E8A368BBA8BBE89EFE021
:1042A0007FF31DC1AA8413054005EFE0BFF22A8405
:1042B00009C904D98147C146631A0A00230A0502C5
:1042C00025A02685EFF0CF897D5569AA3307FA002E
:1042D000030707003306F400230AE60201C7850737
:1042E000E396D7FEA3010404B94763F47703896713
:1042F000938707807390073037D6000037D50000CA
:10430000130646E093057039130585D8EF70A07940
:1043100001A0130A44005285232674032322740546
:1043200023240404EFF0CFC013058401EFF04FC045
:104330003D471305C9FF33077741269500C818CCC0
:1043400040D023060404A306040423070404A3079F
:10435000040423080404A30804045A86D68541995A
:10436000EFC00F8A08C06384090023A08900EFF022
:10437000EF9DB7070020938787459843B704002037
:10438000B7390020050798C31387C44418439384A2
:10439000C444138949D169EB80C0984385476310B1
:1043A000F706938949D1930AC9124E85D109EFF0D6
:1043B000EFB6E39C3AFF37350020930A05E4130576
:1043C00005E4EFF0AFB537350020930945E5130557
:1043D00045E5EFF0AFB437350020130585E6EFF083
:1043E000EFB3373500201305C5E7EFF02FB3B7075C
:1043F000002023A85745B707002023AA3745B70751
:104400000020938707469843050798C33707002085
:10441000130747465C54144363F3F6001CC351472B
:10442000B387E702CA97D843144718C454C4144743
:1044300023A246012324470198435CC8050798C37B
:10444000EFF02F92B707002083A78747054599CB48
:104450009C40D8575C546377F700B7E700E01167DA
:1044600023A0E7206FC0AF8CB707002083A7874742
:10447000D9F79C40D8575C54E3E3E7F880C041B7D4
:10448000EFC2EF89B7070020B7D50000374500001D
:10449000938787460147814613060008938585E187
:1044A0001305E51BEFF07FDE0544631E8502EF0078
:1044B0007055631A85028967938707807390073068
:1044C000B70700207D5723A6E746B707002023AC97
:1044D000A746B707002023AE0746EFE09FF683A765
:1044E00041816FC00F86FD57E31BF5FE89679387F7
:1044F00007807390073037D60000856537D50000F8
:10450000130646E093850584130585D8EF70A059FE
:1045100001A0B70700209387C7459843050798C3B4
:104520008280B707002003A5C7478280B707002015
:1045300083A7C74563970718EFB27FFEB707002030
:104540009387C7478043050480C321ECB707002049
:10455000938707459843184305C789679387078062
:104560007390073037D60000856537D500001306F5
:1045700046E0938575AC130585D8EF70C05201A055
:1045800037070020130747459443104390C3B707EC
:10459000002014C3938707479843050798C3EFF09B
:1045A0003FC2370600209307C6469C43373700209A
:1045B000B70500201306C646130747D19385C544A7
:1045C00001456373F4029C41D146DC57B387D7029F
:1045D0003E971843854763F3E700054583A701909D
:1045E00091C305456FB0FFF5370E0020B70E0020D0
:1045F000514F93070E459443944281E6FD571CC2E8
:10460000D9B79C43DC47DC47D4436374D40014C25D
:104610005DBF83A8870003A8C700D44B138347005E
:1046200023A408012322180183A84600639468008C
:1046300023A2060103A8060023AA07007D1823A0D1
:104640000601945795CA03A8C70183A8070283AF40
:1046500046002324180183A8070223A20801138817
:10466000870163940F0123A2160103A8060023A467
:1046700007027D1823A0060193864E4603A8C702B1
:1046800083A8060063F4080123A00601B306E8032B
:10469000BA9683A8460083AF880023A4170123A6F7
:1046A000F70183AF880023A26F0023A46800D4CB56
:1046B0009C4285079CC29C41DC57E36CF8F205459F
:1046C0000DBFB7070020938747479843014505076B
:1046D00098C38280EFB21FE3370400201304C4455F
:1046E0001C40411185E789679387078073900730E5
:1046F00037D60000856537D50000130646E0938560
:10470000358B130585D8EF70003A01A0EFE01FE468
:104710001C40FD171CC01C4089CB01452AC6EFE098
:104720005FE4324541016FB03FE1B707002083A746
:104730008745E5D7B7360020373500208147938677
:1047400086E6370F0020130545D1D14837030020F6
:10475000854E59A8DC46DC47CC4F9053985790C5FE
:1047600003A807022322B800032847009385870186
:104770006313B80050C3104323A407027D1610C36F
:104780008C47D047D84B1388470090C54CC24C4348
:104790006393050150C3104323AA07007D1610C37D
:1047A00013074F46D0570C4363F3C50010C33307BC
:1047B00016032A974C4383AF85008CC723A6F701C5
:1047C00083AF850023A20F0123A405010C43D8CB9E
:1047D00085050CC31307C344184358576366E600A6
:1047E000138701902320D70198422DF799C3EFF04A
:1047F0003F9DB7070020138747470443138447476B
:1048000089CC8549EFF09FD209C59387019023A0F9
:104810003701FD14E5F82320040083A70190E38EFF
:1048200007EEB7E700E0116723A0E7200545FDB5D7
:1048300019E5B7E700E0116723A0E7208280EFB217
:104840001FCEB707002083A7C74541119DC38967C5
:10485000938707807390073037D6000037D5000064
:10486000130646E093059054130585D8EF70A023F6
:1048700001A02AC6EFF0FFC932458145EFF09F96AF
:10488000EFF05FE511E5B7E700E0116723A0E7204F
:1048900041016FB01FCBB707002003A7C74593871F
:1048A000019001C7054798C3828023A00700B7077E
:1048B000002013874746184313864746B737002022
:1048C000938747D15148B3060703B385D700884182
:1048D00015C5C841A106BE964841C8C16314D5009C
:1048E0005441D4C1D146B306D702B697DC43D4476E
:1048F000B707002023A6D74418C2828015E7EFB27D
:104900001FC28967938707807390073037D60000EE
:10491000856537D50000130646E0938525C013054D
:1049200085D8EF70401801A07D1771BFEFB23FBF6F
:1049300005E58967938707807390073037D60000B5
:10494000856537D50000130646E09385C5C113057C
:1049500085D8EF70401501A0B70700202E8483A5ED
:10496000C744E105EFE03FDD85452285EFF09F87F5
:104970006FB03FBDEFB2BFBA2A8705E5896793875D
:1049800007807390073037D60000856537D5000063
:10499000130646E0938525C5130585D8EF70A01052
:1049A00001A0B70700209387C74454432E858C434A
:1049B00003A88600D4CD8C4323A0050303A80700D9
:1049C0008C46610823A2050103A807009C436108E7
:1049D00023A4060198D71C4385071CC311C27D552B
:1049E000B285EFF03F806FB0DFB55C45DC4795E7FF
:1049F000EFB2FFB28967938707807390073037D68D
:104A00000000856537D50000130646E0938525C86C
:104A1000130585D8EF70200901A0D04F9453985703
:104A20009385870114C6D0C250436313B60054C3A4
:104A3000144323A40702FD1614C3370700200327DD
:104A4000C745D45735EB8C47D047D84B90C5D04796
:104A500048434CC2938547006313B50050C31043CD
:104A600023AA07007D1610C3370700201307474607
:104A700010436373D60014C351473386E6023737B9
:104A80000020130747D132975043084690C7C8C744
:104A900008464CC10CC6D8CB1C43014585071CC336
:104AA000B707002083A7C744DC5763F6D700054744
:104AB00023A0E1900545828037370020130787E661
:104AC00050430846D0CF88D308464CC10CC698D76F
:104AD000E1B7EFB2DFA4B707002083A7C74585E79A
:104AE0008967938707807390073037D60000856504
:104AF00037D50000130646E09385A5CB130585D86E
:104B0000EF60707A01A0B7070080DD8D5C450CC1B5
:104B100085E78967938707807390073037D6000051
:104B2000856537D50000130646E0938525CC13052F
:104B300085D8EF60507701A050411445184914C63C
:104B40001445D0C250436313A60054C31443232812
:104B500005009047FD1614C3D447D84B93854700F2
:104B600014C6D447D0C250436313B60054C3144391
:104B700023AA0700FD1614C3370700201307474672
:104B8000D45710436373D60014C351473386E602EB
:104B900037370020130747D132975043084690C754
:104BA000C8C708464CC10CC6D8CB1C4385071CC3DC
:104BB000B707002083A7C744DC5763F5D700054734
:104BC00023A0E1906FB0FF97B707002083A70747A6
:104BD0001CC1B707002083A7C7475CC18280EFB222
:104BE0001F94411105E5896793870780739007300B
:104BF00037D60000856537D50000130646E093855B
:104C0000D5CF130585D8EF60106A01A085E58967C7
:104C1000938707807390073037D60000856537D5B6
:104C20000000130646E09385E5CF130585D8EF60B5
:104C3000906701A02EC62AC4EFE05F9137070020DD
:104C4000B70700201307C74483A6C7471C43224564
:104C5000B24583C7170599CB1C43A38807040544B5
:104C6000EFE03F90228541016FB0BF8D9C417D57A1
:104C70000144E387E7FE37060020032606470328A2
:104C8000050058416307C80063E5E60023A005005E
:104C9000F9B73386E640E37BF6FE958FBA979CC161
:104CA000EFF09FF201446DBF054723A0E1908280A1
:104CB000B707002003A5C7448280B707002083A759
:104CC0008747054581CBB707002003A5C7451335A6
:104CD0001500060582804DC5EFB2DF82370900203E
:104CE0009307C944944358551309C944D456637370
:104CF000D7081C4D63C8070083270900D457BD4758
:104D0000958F1CCD51463307C702B73700209386D5
:104D100047D1938447D1369754496398E604930961
:104D200045002A844E85EFE0FFA38327090037075B
:104D3000002013074746DC5714435CD463F3F600A6
:104D40001CC35147B387E702A697D843144718C43A
:104D500054C4144723A236012324370198435CC866
:104D6000050798C305456FB02FFD83270900DC5761
:104D70005CD5CDBF9C436841DC573335F500E5B7C2
:104D80000145828011E50145828001456FB06FFBCE
:104D9000EFB2EFF8B707002083A7C7442A846385E2
:104DA000A7028967938707807390073037D6000082
:104DB000856537D50000130646E09385F504130595
:104DC00085D8EF60504E01A0BC4785E7896793877F
:104DD00007807390073037D60000856537D500000F
:104DE000130646E093850505130585D8EF60B04BA3
:104DF00001A054557841FD173CC5E388E6F8D1F78A
:104E0000930445002685EFE0FF957C403D471D8FCC
:104E100018CC370700201307474614435CD463F3CC
:104E2000F6001CC351473387E702B737002093874A
:104E300047D10545BA97D843144718C454C41447FA
:104E4000C4C204C798435CC8050798C381B775C13D
:104E5000EFB2EFEC34452A8485E6896793870780B3
:104E60007390073037D60000856537D500001306EC
:104E700046E09385F509130585D8EF60D04201A07F
:104E80007C4163F3B700AE8758546302F70A0546C6
:104E9000639FC608B706002083A6C64463958602B2
:104EA0008967938707807390073037D60000856540
:104EB00037D50000130646E09385A50B130585D86A
:104EC000EF60703E01A0144C5CD463C60600BD4682
:104ED000B387F6401CCC51463307C702B7370020D2
:104EE000938647D1938447D1369754486391E6041B
:104EF000130944004A85EFE0FF86370700201307B7
:104F000047465C54144363F3F6001CC35147B38710
:104F1000E702A697D843144718C454C4144723A2E1
:104F200026012324270198435CC8050798C36FB066
:104F30004FE18280B70700201387C7441843938747
:104F4000C74409C79443B8460507B8C6884382805A
:104F5000EFB2EFDCEFE08FDF138401911C40B1E38F
:104F600037350020130905E9130505E9EFE00FFBCC
:104F700037350020930445EA130545EAEFE00FFAC0
:104F800023A221910146C145114523A49190EFE050
:104F90009F9E08C019C5B7D50000938545E4EFF082
:104FA0008F95EFE00FDC6FB0CFD9EFB24FD74CC188
:104FB00008C9AA876360B602184D158E0545637946
:104FC000E6009385470003A58190EFE0CFF6014509
:104FD0006FB02FD76375D6000545E3FBD5FE9385EB
:104FE000470003A54190D5B7EFB26FD32A84AE84B2
:104FF00032890C4CA6864A86A6952285EFF0FFFAE8
:1050000019E16FB00FD41C4C2285BE941C508297BE
:10501000CDB7EFB2CFD083A741904111AA84DC472E
:105020002EC6C04713054400EFE0CFF38347440288
:10503000324613F7470019CBA6852285EFF0DFFA39
:105040001C502285829741016FB0AFCFF99B23029C
:10505000F402FDB7EFB2AFCC9386419098421C4367
:1050600081EB93878190904398C390C26FB06FCDCE
:105070005C47FD558843EFF0DFF9F9BFEFB2AFC7EA
:1050800035694111130909E283A74190984329CB5F
:10509000DC47814C03AC0700EFF0AFC7EFF06FC8FF
:1050A00083A7C1902A849384C190138A0191636C71
:1050B000F50288C063800C0483A781909043133667
:1050C000160003250A00B3058C40EFF08F89EFF03E
:1050D0006FE019EDB7E700E0116723A0E72009A80A
:1050E000854C014C55BFEFF0FFF680C0EFF08FDE2E
:1050F000214C0DA00146E36685FDEFF0AFDDA285F2
:105100006285EFF01FF1EDB79247B2458297824773
:1051100063DD070003250A0001468A85EFE0DFC151
:1051200025D582472245E3C107FE22445C489DE322
:10513000EFF02FBF9C40AA8C6374F500EFF09FF155
:10514000824723A09401FD17E366FCFC8A07CA97F7
:105150009C43828713054400EFE0CFE0D1BF834733
:1051600044020C4C924693E717002302F402668631
:10517000B6952285EFF07FE351DD8347440213F7B4
:10518000470001CF1C4C924566862285BE95EFF004
:10519000BFE51C5022858297B5BFF99B2302F4021C
:1051A000CDBF83474402F99B2302F402A5B783478E
:1051B0004402924593E717002302F4020CCC9DE1D0
:1051C0008967938707807390073037D6000037D5FB
:1051D00000001306C6E493059035130585D8EF60EB
:1051E000900C01A0E6866686E6952285EFF0FFDB4F
:1051F00015B78347440213F7270055F72285EFE0E0
:105200002F9609BFEFB2AFB1EFF09FD483A7019102
:105210009DE38967938707807390073037D6000036
:1052200037D500001306C6E493059011130585D801
:10523000EF60700701A0B7D50000375500009387D5
:1052400041913947814613060008938545E61305C9
:10525000C507EFF08F8355DD6FB0AFAEEFB22FAC67
:105260004111B68732C63E862AC203A501917957FD
:105270002EC481468A853AC0EFE09F9941016FB004
:105280004FAC83A7818037177A0013070720B3D765
:10529000E70293F7F70F238DF1901307803EB38752
:1052A000E702239CF1908280EFB26FA701112A845C
:1052B000854537050200EFD05F9985451145EFD050
:1052C000FF9691477C82371501408D473EC44C00C4
:1052D000E147130505803EC6EFD06FD522C837449D
:1052E0000040B70708000C08130504403ECC02CA72
:1052F000231E0100EFD01FDB854513050440EFD0CE
:105300003FE605616FB0EFA3EFB2CF9FB744004017
:10531000AE893289014493840440634524014A855F
:105320006FB08FA1930500042685EFD05FE57DD98E
:10533000B38789008385070026850504C205C181DE
:10534000EFD07FE3D9BF138781811C43B73600209C
:10535000938606EE3E95636BD500B7560020938684
:10536000068063E5A60008C33E858280FD57EDBF39
:105370007325103482807325203482807325303465
:105380008280EFB2CF995021B7350020138785EB8B
:1053900030A71C4193D6E700898A93F7F77F1CC397
:1053A00014B78147050763CFC70037650040938571
:1053B00085EB13050540EFC01FEC71153335A000D8
:1053C0006FB02F98B306F500D432850734A7D9BF44
:1053D000EFB2EF941145EFE06FFB23A4A1920D46CD
:1053E00081450545EFE02FD923A0A1920D468145C7
:1053F0000545EFE04FD823A2A19205456FB06F9409
:10540000EFB2EF9103A58192FD55EFE0FFC47D154A
:10541000133515006FB0EF92EFB26F9003A5819234
:10542000EFE0AFF97D15133515006FB08F9101C90D
:10543000EFB2EF8E8145EFC09FF86FB08F90828002
:105440001C4191CFEFB2AF8D2A8485453E85EFC0D8
:105450001FF785476313F50048C86FB08F8E8280B1
:10546000EFB2EF8B5D712A842E89B28481451306D9
:105470000002081836C63AC43EC242C0EFB02F8DB3
:105480007D556304041A6382041A2247630F0718C8
:10549000B246232A040023AE819013B6160210CC24
:1054A0009247232E04000546024810D023202401F1
:1054B00044C016A458C41EA82319040023120402D1
:1054C00023240402268681456396D5048146E1455E
:1054D000139606014182636BF6048D47A309F1021E
:1054E0009307B040231AF10285473EDEBEC2930700
:1054F00040066303F81463E20705D1476303F81419
:1055000093072003630CF812A9476315F812930759
:10551000802599A08505C205231006002AA2232212
:10552000060023240600C181310679BF3386B60206
:1055300085063A962328060061BF9307401F63093A
:10554000F80E9307803E6308F8009307A00F6313DB
:10555000F80EA14711A08947376400400C181305C5
:1055600004402318F102EFC01FB18547A303F102E5
:1055700023040102EFB08FFB8D6716055D8DE88770
:10558000EFB0CFFA916716055D8DE886EFB00FFAA0
:10559000996716055D8D2311A102EFB02FF9E17710
:1055A00016055D8D2310A1028544680823120102AF
:1055B0002303010226D6EFC09FBAEFB02FF7E97799
:1055C00016055D8DE887EFB06FF6F17716055D8DF6
:1055D000E886854768082303F10202D0231291026E
:1055E000EFC0FFB79305004013050440EFC0DFFB99
:1055F000854513050440EFC03FFB89451305044072
:10560000EFC09FFAC14513050440EFC0FFF90546FE
:105610009305304113050440EFC09FE137D50000EA
:105620001305C5E6EF606059014561616FA07FF128
:1056300091471DB7C1470DB7D14739BF93078007C1
:1056400021BF9307C01209BF11C9084101C9EFA2C8
:105650001FED8145EFC0BFD66FA0BFEE8280AA8844
:105660007D5563860804A1C76303080403D388003B
:1056700063FF650231453385A50283A54800137693
:10568000F67FAA95DCC123A4050109EF85679387FE
:10569000078093F6F67FDD8E92A1B6A183A78801DD
:1056A000014582808567938707805D8EC5B78280BC
:1056B000014815C983580501014863F6150361487F
:1056C000B38505030328C500B336D0001376F67FF3
:1056D000BE06558E2E98232808002320C8002302DA
:1056E000E800232AF800428582801C5599C73E298C
:1056F0002324050293F707CF3EA98280EFA23FE261
:105700009C492A84AE84014981CB1C515D5989E7AB
:105710003E2993E787003EA9EFD05FE32685EFF0AF
:105720005FC601C9DC485CCCEFD0BFE34A856FA0FF
:105730005FE185479CC85E308507C207C1835EB0C4
:10574000E5B7EFA2DFDD83A7C19123A0070223AE57
:105750000700DA334207418305C3C4471384C1916C
:10576000EFD0DFDE1C4003D90701631909001C409C
:1057700023920702EFD0FFDE6FA0BFDC9C4899CFD9
:105780002685EFF01FC019C9184023A804005E3316
:10579000FD17C207C1835EB3DC485CCF7D194209A7
:1057A00013590901E104D1B7EFA27FD70111376581
:1057B0000040328493F5F50F700013050540EFC0EB
:1057C0005FB7B24703465101894693F7F77F014718
:1057D0006313D6002167D98FB8831CC08347E101CA
:1057E0005AA0B8845CA47AA0B8851AA4B8863AA452
:1057F00005616FA01FD5EFA29FD23734002013069A
:10580000C4ECEFF07FFA03A7C1919304C4EC90407D
:105810005C43182701CF9623AE23B18EED8E89EA23
:10582000984709C7C8439305C4EC02976FA07FD17E
:105830007D171377F70FB107F1BFEFA25FCE376582
:1058400000409305004013050540EFC0FFC819C193
:10585000EFC06F946FA0FFCED821A1476311F71A54
:105860007C41639E0718EFA2FFC9C43191474111E3
:105870002A84639AF404FC2199C705476383E704EB
:1058800041016FA07FCB184985470149631EF7008E
:10589000834705041307F00F6398E700585D18234A
:1058A0006304F70024C505492328040041468145C7
:1058B00013054401EFA0BFC9E30409FC85477CC080
:1058C000C1B71CC975BF1C49639307129307200415
:1058D0006383F40A63E29702930700046385F40884
:1058E00093071004E39EF4F8114699056800EF5001
:1058F000F071B2471CCC69B7930730046385F40894
:1059000093071005E39EF4F65C5D1307F00F9C23EC
:10591000E398E7F603470504E314F7F6A425FD47EB
:1059200063F6970093070008E39CF4F483C9B5007D
:105930008D47E3E737F503C9C500E3E327F51146D3
:1059400099056800EF50906C930700086399F4067E
:10595000230A04024146814513054402EFA03FBFDC
:105960009307100599A8114699056800EF50106A31
:10597000B2475CC831B7114699056800EF5010690D
:10598000B2475CCCF5BD114699056800EF50106830
:10599000B2475440184C1CD0E394E6EE1444584CE3
:1059A000E390E6EE5844E39DE7EC18405C48E319C9
:1059B000F7EC85471CC8930730043CC401B7034784
:1059C0004403E31F37EB93172700A2979443B24792
:1059D000B58FFD56B3969600F58FE39307EA230A39
:1059E0002403BDFCE37EE9F685471CC895BF21462C
:1059F00095051305C504EF50706124C4C1B58280BC
:105A0000EFA27FAF41CD59CAD1CA49CB63880808FC
:105A100003C30600131E8301135E8E416346C0015B
:105A2000130EF00F631CC307328AAE8B13064007B8
:105A300081452A844689B684428BBE8ABA89EFA002
:105A40001FB14146DE852285EF50505C44DC23289F
:105A50000400230A0402232C44039C20376800001E
:105A6000130888852300F4040147A2879306F07F7A
:105A70005A86D685232204044E85EFF05FBE035676
:105A8000410383550103AA84232624078147214724
:105A900081464A85EFF0DFC128D811E1FD54268503
:105AA0006FA0FFA87C41638E0718EFA25FA72A842E
:105AB00028594111214681451505EFA05FA93C44B5
:105AC000130730046385E70A636BF7044D47638D62
:105AD000E70C636FF700114705456386E70045470C
:105AE000638CE70801452322040441016FA07FA5D0
:105AF00055476386E7105D47E396E7FE7C50054512
:105B000091CB145C585C285492220C238297133555
:105B1000150006053C583844E8A3D8B349A013073C
:105B2000B005638EE70E6364F70213071005638602
:105B3000E7101307A005E397E7FA28585CB11C406B
:105B400011466C0019053EC6EF50504C89A813074A
:105B5000D0056380E70E63E8E70C1307E005E393E5
:105B6000E7F838585CB3834704047CA30DA83C587D
:105B700013074004D8B325A08347D40413978701A3
:105B800061876347E0009306F00F05476395D700F0
:105B9000585C1CA301473C583444F8A3D4B32C5898
