:100000006F10702D1300000013000000130000009B
:100010001300000013000000130000001300000094
:100020001300000013000000130000001300000084
:08003000130000007300100032
:10003800000000000000000026080000280800005A
:10004800000000006E1A0000000000000000000020
:10005800701A0000721A0000000000000000000082
:10006800D63600000000000000020000000000007A
:10007800781A00007A1A00007C1A00007E1A000024
:10008800801A0000821A0000841A0000861A0000F4
:10009800881A00008A1A00008C1A00008E1A0000C4
:1000A800901A0000921A0000941A0000961A000094
:1000B800981A00009A1A00009C1A00008E08000086
:1000C80066090000BC090000120A0000A61A000018
:1000D800A81A0000AA1A0000AC1A0000AE1A000004
:1000E800B01A00004C300000B41A0000B61A000024
:1000F800B81A0000BA1A0000BC1A0000BE1A0000A4
:10010800C01A0000C21A0000C41A0000C61A000073
:10011800C81A0000CA1A0000CC1A0000CE1A000043
:10012800D01A0000D21A0000D41A00000000000003
:080138000000000000000000BF
:10020000130181F806C216C41AC61EC822CA26CC1B
:100210002ACE2ED032D236D43AD63ED842DA46DC76
:100220004ADECEC0D2C2D6C4DAC6DEC8E2CAE6CC46
:10023000EACEEED0F2D2F6D4FAD6FED8F3220030CF
:1002400096DA9702002083A2E21F23A02200F32562
:1002500010342EC003A18183EF40503517030020D6
:100260000323431E03210300824273901234D652AB
:10027000739002309240A2423243C2435244E2445D
:10028000724582551256A2563257C2575258E258FA
:1002900072598649164AA64A364BC64B564CE64C0E
:1002A000764D865D165EA65E365FC65F13018107DA
:1002B0007300203013000000130000001300000042
:1002C00013000000130000001300000013000000E2
:1002D00013000000130000001300000013000000D2
:1002E00013000000130000001300000013000000C2
:1002F00013000000130000001300000013000000B2
:1003000083A28183938202E073900234170100205C
:1003100003214113024182403243C2435244E2442A
:10032000724582551256A2563257C2575258E25859
:1003300072598649164AA64A364BC64B564CE64C6D
:10034000764D865D165EA65E365FC65FD652A1020A
:1003500073900230A24213018107828013000000D3
:100360001300000013000000130000001300000041
:100370001300000013000000130000001300000031
:100380001300000013000000130000001300000021
:100390001300000013000000130000001300000011
:1003A0001300000013000000130000001300000001
:1003B00013000000130000001300000013000000F1
:1003C00013000000130000001300000013000000E1
:1003D00013000000130000001300000013000000D1
:1003E00013000000130000001300000013000000C1
:1003F00013000000130000001300000013000000B1
:10040000F322003093F272FF130380181203B3E259
:100410006200711523205500130585FA10C12115BE
:10042000232005009302000063870200711523203A
:100430000500FD12D5BF71150CC1828000000000BF
:1004400000000000000000000000000000000000AC
:10045000000000000000000000000000000000009C
:10046000000000000000000000000000000000008C
:10047000000000000000000000000000000000007C
:10048000000000000000000000000000000000006C
:10049000000000000000000000000000000000005C
:1004A000000000000000000000000000000000004C
:1004B000000000000000000000000000000000003C
:1004C000000000000000000000000000000000002C
:1004D000000000000000000000000000000000001C
:1004E0000000000000000000000000000000397162
:1004F00001436EC619A0397141536AC866CA62CCFD
:100500005ECE19A0397101535AD056D252D44ED66C
:100510004AD826DA22DC06DE3301614082824111AC
:100520004AC026C222C406C68282B24D4101024D93
:10053000924C224CB24B4101024B924A224AB249A0
:100540004101024992442244B240410182803D432C
:100550002A876373C3029377F700BDEFADE5937607
:1005600006FF3D8ABA960CC34CC30CC74CC7410763
:10057000E36BD7FE11E28280B306C3408A0697027E
:10058000000096966780A6002307B700A306B70071
:100590002306B700A305B7002305B700A304B700DF
:1005A0002304B700A303B7002303B700A302B700D7
:1005B0002302B700A301B7002301B700A300B700CF
:1005C0002300B700828093F5F50F93968500D58DB3
:1005D00093960501D58D61B7939627009702000089
:1005E00096968682E78086FA9680C1171D8F3E9682
:1005F000E374C3F8A5B7370500201305C53C828016
:10060000370500201305853C8280B707002023A80A
:10061000A73C8280EFF23FEEB70500203971938549
:10062000453C014537040020EF70D0492320A43C0D
:100630001304043C19E1EF00304A1C403707002046
:100640000327073DDC4398C3EF50E039EF50A03C4F
:10065000D9232313A10202D6992D1C40A302A10283
:10066000DC43884323AA0700EF50C03D1C40C84329
:10067000EF50E05E0840035661025C418C43EF702E
:10068000905419C1EF005045B70700209387C72742
:1006900098530840930661023AD8D8531306510282
:1006A0000C183ADA9857DC573ADC3EDEEF701055FA
:1006B00019C1EF00704283A6C18103495102032A88
:1006C000040036CE6D238967C507C98FF24613072C
:1006D000401F9309C102C2073AC04EC64AC402C2B3
:1006E0009308803E1308401FC1830147014681459E
:1006F0005285EF70F05311C5B5576304F500EF0054
:10070000B03D084003A6C1814E874C49CA86EF70B0
:10071000B05D19C1EF00503C1C409C4399C3EF00F1
:10072000B03B1C40B70400208969C843130A803ECF
:10073000EF50603223AA043CEF50602FEF40C02EF0
:100740002A8902D49384443D938909719C4089CBC2
:10075000B707EFBE37E700E0938707083CC7FDBF48
:10076000A25503A50191B3D54503EF30F039EF5001
:10077000802A4ED4EF40402B3306254133064603F2
:10078000AA8A0840341081455689EF70706188C08C
:1007900003A54191814601468145EF30406BEF5002
:1007A00000296DB7EFF21FD64111EF50C026EF4080
:1007B000A02789692A8402C6130A803E9389097199
:1007C000370B0020EF50A026B24503A54191130935
:1007D0000B3CB3D54503A284EF301033EF50A02378
:1007E000832709004EC695CFDC43DC4B9DCBEF4001
:1007F000A023AA84032509001C4185E75C41DC4B4A
:100800008DC33384844033044403740081452286BD
:10081000EF70F06003250900740022868145EF70B7
:100820001064268445B701A039712AD637D5000057
:10083000130505B106DE16DC1ADA1ED832D236D020
:100840003ACE3ECC42CA46C872C676C47AC27EC090
:100850002ED4EFB0A031EF500013AA8537D5000099
:10086000130545B2EFB0401FEF504012AA8537D5AF
:100870000000130545B3EFB0201EEF508011AA858C
:1008800037D50000130545B4EFB0001D01A05D7120
:1008900022DE26DC37640040B70400382ADA2ED87E
:1008A00013050440938514003ED086C696C49AC2B0
:1008B0009EC032D636D43AD242CE46CC72CA76C820
:1008C0007AC67EC4EF1000678547631AF5009385EA
:1008D000140013050440EF10406BEF50E047B704DD
:1008E0000038376400409385041013050440EF106E
:1008F00060648547631AF50093850410130504406E
:10090000EF10A068EF50404537640040B70501384C
:1009100013050440EF1000628547631AF500B70520
:10092000013813050440EF104066EF50E042376590
:100930000040854513050540EF1020767254B640FF
:10094000A64216438643E2545255C2553256A25629
:10095000125782577248E248524EC24E324FA24F4F
:1009600061617300203039712AD6376500402ED47A
:1009700013050540814506DE16DC1ADA1ED832D290
:1009800036D03ACE3ECC42CA46C872C676C47AC287
:100990007EC0EF50A047F250E2525253C25332553C
:1009A000A255125682567247E2475248C248324E0A
:1009B000A24E124F824F21617300203039712AD626
:1009C000376500402ED413050540854506DE16DC4C
:1009D0001ADA1ED832D236D03ACE3ECC42CA46C8F7
:1009E00072C676C47AC27EC0EF504042F250E252E4
:1009F0005253C2533255A255125682567247E2479D
:100A00005248C248324EA24E124F824F21617300AB
:100A1000203039712AD6376500401305054006DEBF
:100A200016DC1ADA1ED82ED432D236D03ACE3ECCCC
:100A300042CA46C872C676C47AC27EC0EF504041F0
:100A4000F250E2525253C2533255A25512568256B8
:100A50007247E2475248C248324EA24E124F824F6E
:100A6000216173002030EFF2FFA9EF10607C37F5B1
:100A70000008B704002037F40008EF1070019384D9
:100A800004009149130904018C402285EF10D00322
:100A9000631A350198401C406316F7001104910455
:100AA000E31424FFEF10607A41BCB707002003C7AE
:100AB0000738630C070EEFF29FA637F400080420F6
:100AC00037D50000130585B7A68513890738EFA031
:100AD000B078930770066380F40237D500001305E1
:100AE00045B6EFB0A00841370C2037D500001305FC
:100AF00045B7EFA0707637040020B7F7000813075A
:100B0000040093860701130404009023850705075A
:100B1000A30FC7FEE39BD7FE83A7C1811306840002
:100B20000547C843854685451305C51223000900BE
:100B3000EF60800383A7C181130694000547C84373
:100B4000854689451305C512EF60000283A7C18160
:100B50001306A4000547C84385468D451305C512F5
:100B6000EF60800083A7C1812D042286C84305471A
:100B7000854691451305C512EF50107F83A7C181AB
:100B800022860547C8438546854513058513EF50E2
:100B9000B07D83A7C18105478546C8432286894524
:100BA00013058513EF50507C69BA8280EFF23F97AE
:100BB000B7070020938707003E950CA16D3551B211
:100BC000EFF2FF95B7070020938707003E9513D7F4
:100BD000850041110CA118B16C877135410195B2A6
:100BE000B707002083C7073885C3EFF25F93411131
:100BF0002AC6653D3245B707002093870700AA97AC
:100C0000882341016FF0FF93B70700209387070007
:100C1000AA9788238280B707002083C7073895C723
:100C2000EFF2FF8F5935B707002083C717001D4724
:100C30001305D0076369F70013971700B56793870B
:100C400047B5BA978A236FF0DF8FB707002083C7B5
:100C500017001D471305D007636AF70013971700A5
:100C6000B567938747B5BA978A2382808280B70792
:100C7000002083C7073885C3EFF27F8A3D35B70769
:100C8000002003C73700854701456314F7001305AB
:100C900000106FF01F8BB707002003C73700854790
:100CA00001456315F7001305001082808280B707A5
:100CB000002083C7073891CBEFF27F86FD33B7075B
:100CC000002003C527006FF0DF87B707002003C5AA
:100CD00027008280EFF2BF84411137140140EF20DA
:100CE000C012130504C08565EF20002AA96513050D
:100CF0000480938585FDEF2020209565130504C0B1
:100D000093851580EF20401FB96537150140EF200E
:100D1000A01E1305048093050002EF202020130578
:100D200004C09305E00FEF20601F130504C0E146E7
:100D300037461D0093050020EF20A0209306800475
:100D400037461D00130504C093050010EF20601FF7
:100D5000130504C08565EF20C017130504C0916515
:100D6000EF208019130504C0E1460146A965EF2074
:100D7000401DB70418001386042013050480E146C3
:100D80008D45EF20001C13860420130504C0E146A6
:100D900093050040EF20E01AB7160000B765030185
:100DA000938646261306803E938505640945EF2009
:100DB000C037B775DC029D461306803E938505C09B
:100DC0000545EF2040403744004013050480EF20E4
:100DD000201D854537050002EF10B01585450545F6
:100DE000EF10701185473EC62800930740227C848F
:100DF00023150100EF10A0799307500228005C84AE
:100E0000EF10E0789307300228005C84EF10207820
:100E10009307600228005C84EF10607705468945DF
:100E200013050480EF10701F41016FF08FF1EFF296
:100E30000FEF39712A842E89B28481451306C002CE
:100E4000480836C6EFF0AFF02285EF10402EB246CC
:100E5000C1473ECE930700083ED44C088D672285DB
:100E60004ACA26CC36D03EDC02D202D602D802DAFA
:100E700002DEEF10803521616FF0AFEC994763E738
:100E8000A704EFF2CFE9B567938787B80A053E95C7
:100E90001C41828737150140930500021305058028
:100EA000EF20C00D6FF0EFE98945371501401305BC
:100EB00005C0FDB79145D5BFA145C5BFC145F5B733
:100EC00093050002DDB793050004C5B70145828094
:100ED000370500201305853E8280EFF24FE40111B3
:100EE000A1475C84B70700209387873D3EC8B707BA
:100EF00000209387073E2D453EC6DD31230BA10020
:100F00002945F939A30BA1002545D939230CA100A6
:100F10002145F931A9473305F502B717000093873A
:100F2000C7E73ECEE8822800EF10F06005616FF061
:100F30004FE1EFF2CFDE5537EF10505FEF30B0608A
:100F4000EF107064D5BFEFF28FDDEFA0A078B7D7B8
:100F5000000003A687BC83A6C7BCEF903025B7D797
:100F6000000003A607BD83A647BDEF906037EF7072
:100F70008071B7D7000003A687BD83A6C7BDEF90D9
:100F8000F022EFA06068420541816FF08FDBEFF245
:100F90000FD937440040130504808545EF105006F3
:100FA00037060020370502408D461306863F93051D
:100FB000C48013058505A53D0945EF206010054552
:100FC000EF2000106FF0EFD7B70700209387073F9F
:100FD0003E95A30FB5FE8280B70700209387C73EDA
:100FE0003E95A30FB5FE82801307F0036369A70047
:100FF000EFF2EFD2893F2392A1806FF08FD4930755
:1010000060092392F1808280B70700201387473F51
:10101000FD567D1516A334A31375F50F214793874D
:10102000473F6369A7023567130747BA0A053A9530
:1010300018410287A3800700238107008280238054
:101040000700DDBF239007008280A3800700828015
:101050002380070082801307F003636BA700EFF281
:101060000FCCD535370700202311A7386FF06FCD8F
:1010700093076009370700202311F7388280EFF2C9
:101080000FCA1945B13E49371145993EB13F154543
:10109000813ED1371306903E9D450545EF20002344
:1010A00081450545EF20602A6FF0AFC9EFF22FC7E9
:1010B000B705002083D7E53F130760099385E53F17
:1010C0008507C207C183636AF7169EA1B707002090
:1010D0009387C73E98239033B423370500203368A5
:1010E000C700B707002033E80601130515389387BA
:1010F000073F63060816B70800209388C83F03D847
:10110000080015631303437E0508420813580801BD
:1011100023900801637B0301034805002390080026
:101120007D183338000123000501034E05000545F5
:1011300003C3070083C8170003C827006312AE105B
:10114000336767003366160198A390B3B3E60601D0
:10115000B4A3370700209306873F03C807008833EE
:10116000B023B7070020239006002381060083D810
:10117000050083D627389307873F63F6D802B70662
:1011800000209386463F3367A8008C22518F134777
:10119000F7FF1377F70FF98DACA38C32B422F98DDA
:1011A000758F8CB398A303D74180636D1701B82363
:1011B0003368E800983323810701598D982388B359
:1011C000598E90A337340140130504C0EF10B021AD
:1011D000B70402408D452A8913858405EF10A003CA
:1011E000138584058545EF10C001130404C09304E2
:1011F000300637050200EF10400201ED2285EF10A6
:10120000901E330525419357F5413D8D1D8DE3D249
:10121000A4FE37050240814513058505EF00707E69
:101220004165EF1060003745004093050004130549
:101230000580EF10A05F6FF0CFB02390050079B567
:101240001347F7FF1346F6FF33776700337616012F
:1012500093C6F6FF98A390B3B3F60601D5BD054734
:1012600018A1C5BDEFF2AFAB37140140130504C0A0
:101270008565EF1030521D3D8565130504C0EF10E4
:10128000B0506FF00FACEFF28FA91145EF10802F27
:10129000B52BEF406060716513050520EF402062BB
:1012A000EFF05FA39525EF008078EF00A075EFF0D9
:1012B000CFFFF1337D243765004013050540EFF083
:1012C000CFB437D40000EF20000AEF30206B1305B5
:1012D00004BEEFA0B009E5BF99677390078001A035
:1012E000A54721C19DCD95CE034815018948B94731
:1012F0001307F8FF1377F70F63E5E802EFF22FA269
:10130000AE848C2141112A84428536C632C4E9312B
:10131000B2462246A6852285EF50206441016FF037
:101320004FA23E8582801DC125459DC195C28C215D
:101330003D4593978501E187635CF000EFF22F9EB6
:101340000945EFF0BF8601456FF0AF9F25458280CC
:1013500082800DC125458DC185C28C219D473D45AB
:1013600063ECB700EFF2AF9B0545EFF03F8401451A
:101370006FF02F9D254582808280A54751CDC9CD34
:10138000C1CEEFF2CF991C3985462E8413F7B7FFF3
:101390007D171377F70FAA8463E2E6028C21130707
:1013A000F0036376B700BD473E856FF08F9909471C
:1013B000638BE704636CF7026384D70494380546B3
:1013C000B9471387D6FF1377F70FE36FE6FC0C20BE
:1013D00021479387F5FF93F7F70FE366F7FC9147F3
:1013E0006388F6022E850D3181477DBF1547638FD7
:1013F000E70019471545E393E7FCEFF02FFB7DBFAE
:101400002E85DD3665BF2E85B9314DBF1145F5B747
:101410001945EFF0AFF9C9BF3E858280EFF22F90FA
:101420004111254929C1A1C19DCE1C39094739491E
:101430001388F7FF63690703AE848C212A843E85F5
:1014400036C632C4EFF05FB82246B246A685228582
:10145000EF50A05090200C382A8937D50000130592
:1014600085C1EFA0605F4A8541016FF08F8D0DC18E
:1014700025458DC185C28C2185473D4563ECB7006C
:10148000EFF2EF890D45EFF06FF201456FF06F8BD2
:10149000254582808280A5472DC1A5C1B9CEEFF236
:1014A0006F861C3909473689B2892E84AA846380E5
:1014B000E7046369F7000547638FE700BD473E8592
:1014C0006FF08F870D476387E7021147E398E7FEC8
:1014D0008C212D4519A08C212145EFF02FEDCA86D6
:1014E0004E86A2852685EF5040478147C9BF8C2193
:1014F0002545E5B78C212945CDB73E85828039C980
:10150000EFF24F80AA8441112545B1C1A9C29C3890
:101510000547B68932892E84638DE70009473D452A
:101520006397E7029C2139455C879C31DC872C87D7
:1015300039A09C2131455C879C31DC872C87EFF0FA
:101540002FE8CE864A86A2852685EF5000414101CC
:101550006FE09FFE25458280370500201305C540BA
:101560008280EFE2DFFBEF10C07B1841B70700205D
:1015700023A4E74083A7C181DC439386C70FA5E27C
:10158000370700201307070523A8E7101387471123
:1015900025E3370700201307070323A4E712138767
:1015A000871625E3370700201307070623A2E7164F
:1015B0001387471425E3370700201307070923AAD9
:1015C000E7121387871325E303A747109307C70084
:1015D00035C3370700202320F7406FE09FF6370719
:1015E00000201307070423A2E7101387871049FB85
:1015F000370700201307070223AEE71013870712EF
:1016000049FB370700201307070723A8E7161387AE
:10161000C71549FB370700201307070123A6E71466
:101620001387C71249FB370700201307070823A0B9
:10163000E714D9FA814771BFEFE2FFEB3569B709CB
:101640000020370B0020B7040020B70B002013093F
:1016500089BF4E8A0545EF30006F13048B40084068
:10166000EF20F06B65D908407D5693854440EF200C
:101670005033138C444083470C001D4713847B4038
:101680006366F7088A07CA979C43828785471CA030
:1016900083A7C18105478546C843138669408545B0
:1016A0001305C50FEF50004983461C00930700083F
:1016B00013076A40639FF6041C231420D58F1CA3D4
:1016C00083A7C18105478546C84313066A408545FF
:1016D0001305C50FEF504049B707002083A7074007
:1016E000B5DB9823759B98A3B5B789474DB791474C
:1016F00079BFA14769BFC14759BF9307000241BFE6
:101700009307000469B7930700F851B7230004005A
:1017100041B71C20142393C7F7FFF58F4DB7B717B8
:1017200002409843B706FFF841111367170098C3AA
:10173000D84337060200758FD8C39843B706F7FE23
:10174000FD16758F98C39843B706FCFFFD16758F7D
:1017500098C3D843B70681FFFD16758FD8C33707E6
:101760009F0098C702C402C69843C166558F98C3AC
:10177000B716024005679C42F18F3EC6A247850717
:101780003EC4B24781E7A247E397E7FEB71702409E
:101790009C431397E7006359070685473EC63247C7
:1017A00085476311F706B7170240D843B706C1FF54
:1017B000FD1613670708D8C3D843D8C3D8431367A7
:1017C0000740D8C3D843758FD8C3D843B7063D0068
:1017D000558FD8C39843B7060001558F98C39843D7
:1017E00093166700E3DD06FED843B7160240719BEF
:1017F000D8C3D84313672700D8C32147DC42B18B35
:10180000E39EE7FE4101828002C651BFB716024047
:10181000DC421146B18B138781806385C700214666
:101820006388C702B7177A00938707201CC3B717CE
:101830000240DC43918393F6F700B70700209387BB
:10184000070AB69794231C43B3D7D7001CC38280E2
:10185000DC42D4424166C983BD8BF18E890745467F
:101860006393C700C94781EEB746024083A606804E
:10187000C18A89CEB7167A009386062021A8B716AA
:101880000240D4421396E600E35606FEB7163D002A
:1018900093860690B387D70251BFEFE25FC8EFF09F
:1018A0000FEF37040020032504418545130404414C
:1018B000EF20001508407D57814601468545EF1011
:1018C000F07613054006EF300048EF10D029DDB761
:1018D000B7270020938747171CC1B727002093879D
:1018E00087D59CC1930700081CC28280B7270020BF
:1018F000938707211CC1B7270020938787F59CC1D8
:10190000930700081CC28280EFE27FC1EFF0DFC4C2
:101910002A8437280020B7170020B7D500003715D4
:101920000000130808A9938707692947854613060D
:101930000010938585C213058563EF20D07908C018
:10194000EFF00FD92A8437180020B7170020B7D539
:101950000000371500001308C8639387C743154775
:10196000854613060008938545C3130525F3EF202C
:10197000907608C0EFE0DFC82A84B7D500003705AD
:101980000000138841D2938741921547854613067C
:101990000010938545C41305457AEF20D07308C025
:1019A000EFE07FC52A8437180020B7170020B7D58D
:1019B0000000370500001308883E9387878F1D4776
:1019C00085461306C02B938545C513054561EF2059
:1019D000907008C037280020B7270020B7D5000036
:1019E00037250000130848CE938747AE0D4785463C
:1019F00013060008938585C61305A589EF20B06DF1
:101A00006FE03FB4EFE2BFB1EF10A031B726002086
:101A1000372600202A8401479386861C130686D326
:101A200089454145EF20A03008C06FE09FB1EFE24B
:101A30001FAF3725002013058515EF103058B70765
:101A4000002023A8A7406FE0DFAFEFE25FADB7074C
:101A5000002083A507413745000081460546130550
:101A600085ACEF3010616FE0DFAD01A001A001A0F7
:101A700001A001A001A001A001A001A001A001A05E
:101A800001A001A001A001A001A001A001A001A04E
:101A900001A001A001A001A001A001A001A001A03E
:101AA00001A001A001A001A001A001A001A001A02E
:101AB00001A001A001A001A001A001A001A001A01E
:101AC00001A001A001A001A001A001A001A001A00E
:101AD00001A001A001A097F1FF1F9381A10A173176
:101AE00000201301215217C500001305E5B397E547
:101AF000FF1F938525511386018463FAC500832255
:101B0000050023A0550011059105E3EAC5FE17F570
:101B1000FF1F1305258B9715002093856525637797
:101B2000B500232005001105E36DB5FEFD4273905D
:101B300002BC894273904280B722000093820280E7
:101B400073A0023097E2FFFF9382424F93E232008C
:101B500073905230EFF0BFBC97F2FFFF9382E272B6
:101B600073901234730020301841AA87759B18C1F6
:101B700018411367170018C14167D443858A99E259
:101B80007D1765FFD8430145058B49CF944505472F
:101B9000639BE608984313670708D44598C3054735
:101BA0006397E608984313670704944998C3054769
:101BB0006393E608984313670702D44998C305471F
:101BC000639FE606984313670701944D98C3054742
:101BD000639AE606984313678700D44D98C3054778
:101BE0006395E60698431367470098C3B821B4315C
:101BF0007A07E206558FD421C206558FD431D2061A
:101C0000558F9621FD16558FD8CF9843799B98C351
:101C10004167D443858A99C27D1765FFC843134540
:101C2000F5FF0589828098431377F7F7BDB798438E
:101C30001377F7FB9DBF98431377F7FDBDBF98431C
:101C40003D9B61B798435D9B49BF98436D9B71BFB6
:101C50003767004013070740832607203C250548C7
:101C600093E616002320D7208325C7213316F800DA
:101C70009346F6FFF58D232EB7204C25C5E5832529
:101C8000C720035825008E07F58D2326B7206E2127
:101C9000BA975A21C205B3E5050123A0B7240E2146
:101CA00042074D8F23A2E724B7270240985BB7076E
:101CB000000FF98F99EF376700409307073013073C
:101CC00007408E239107C205C181239EB7EEE39A98
:101CD000E7FE3835B7670040938707402DEB03A731
:101CE0004720758F23A2E7201A25B7670040938706
:101CF000074035E303A74721F98E23AAD7201849C7
:101D000085476319F700B767004003A7C761598E7D
:101D100023AEC760B767004003A70760799B23A085
:101D2000E7608280E39205F98325C72003582500E8
:101D30008E07D18D2326B7200E21BA975A21C205CE
:101D4000B3E5050123A0B72442076E2199BF03A77D
:101D50004720518F41BF8546E313D7FA03A7472198
:101D6000518F23AAE72061BF1C4513975700634E8C
:101D700007081C4513974700634B07081C4591460D
:101D80001397370063510708894693974600AA972F
:101D900003A70718058B23A0E7189025883535EA97
:101DA000984103A607185607498F518F23A0E718BB
:101DB000B8253D8BB8A503A64718419A23A2C7189A
:101DC00003A64718518F23A2E718D025B83522065D
:101DD000598ED8354207598EF8256207518F23A4B2
:101DE000E7189029F8352206598E98394207598EFE
:101DF000B8296207518F23A6E71803A707181367AE
:101E0000170023A0E718368582808146BDBF85462E
:101E1000ADBFD84103A807180E07498F518F33670C
:101E2000070169B793974500AA9703A7071B118B72
:101E300018A62DE703A7071B558318C203A7071B86
:101E4000098B18B603A7471B3D8B38A603A7471B72
:101E5000218338BA03A7871B38B603A7871B2183C2
:101E600058A603A7871B418358B603A7871B618326
:101E700078A603A7C71B78B603A7C71B218318AA98
:101E800003A7C71B418318BA83A7C71BE1833CAADA
:101E900099E95C4593E707025CC5828003A7071BAD
:101EA0000D8358C261BF1C4993E707021CC9828099
:101EB0008DE51C418546F19B93E717001CC1C16766
:101EC00058410D8B6304D700FD17FDFB5C418D8BE2
:101ED000FD1793B717003E8582808547639EF50006
:101EE0001C41F19B1CC1C16758410D8B19C3FD17E3
:101EF000E5FF5C418D8BF1BF09478147E39DE5FC20
:101F00001C418946F19B93E727001CC1C1675841DA
:101F10000D8B6304D700FD17FDFB5C418D8BF9171A
:101F20004DBF5C4901C6DD8D4CC9828093C5F5FF6C
:101F3000FD8DDDBFB707F000ED8F89CB104D3375F8
:101F4000B600320531813335A00082809397750049
:101F500063D60700544133F5B600E5B793974500C3
:101F600063D5070008456D8DE9BFB706100093974C
:101F70006500FD1663D7070058453375B700758DAA
:101F8000D9B71C4933F5B700DDBFB707F0309387E9
:101F900007076395F500232C050082809397C50001
:101FA00013976500B183635407005CC58280139763
:101FB0005500635407001CC9828013974500635481
:101FC00007001CC582805CC182805C49ED8F95C38F
:101FD000930700046383F50A63ECB70291476386B5
:101FE000F50863EAB70085476386F5068947638B82
:101FF000F50601458280C147638DF506930700020F
:10200000638BF506A147E396F5FE4845118185A04F
:1020100093870580BDCF85679387078063E0B7020C
:10202000930700206381F506930700406380F5065F
:1020300093070010E39FF5FA084D15A8C167638068
:10204000F504B7070200638EF502A167E393F5FA82
:10205000484135A80845C167938717107D8D3335F2
:10206000A000828048450D89DDBF48450D81058966
:1020700082800849CDBF0849D5BF084941BF4841C2
:10208000F5B7484161B7084D0581D5B7084D0981BD
:10209000F9BF084D13750507D9B79307001063867C
:1020A000F50663E7B702A1476388F50663E9B70061
:1020B0000547638EE50411476381E50682801307B7
:1020C0000002638FE50493070004638AF5048280AD
:1020D000938705808DCB85679387078063EBB70077
:1020E000930700206383F50293070040638FF50098
:1020F0008280C1676388F502B70702006387F50233
:10210000A1676393F502232C0500914729A8C167B5
:10211000938717101CC58280C1475CC58280C14768
:102120001CC98280A1475CC18280C147EDBF1C41B0
:1021300041677917F98F1CC1232005002322050070
:1021400023240500B70702402326050013878700D4
:102150006316E500D8431367F70001A81387C7018A
:102160006317E500D8431367070FD8C3B1A81387D7
:1021700007036318E500D8438566938606F0558FFC
:10218000EDB7138747046315E500D843BD66C5BFA7
:10219000138787056316E500D843B7060F00C5B758
:1021A0001387C7066316E500D843B706F000C1BF22
:1021B000138707086316E500D843B706000FC1B7B9
:1021C00013874709E308E5F882801C4161773D07E2
:1021D00094517D8F9C45D58F9449D58FD449D58F07
:1021E000944DD58FD44DD58FD451D58F9455D58F4F
:1021F000D98F1CC1DC455CC19C411CC5DC415CC560
:1022000082801C4189C593E717001CC18280416709
:102210007917F98FDDBF4CC18280B70702409C431C
:102220007D8D3335A0008280B7070240C8C382800D
:10223000B707674537270240938737125CC3B797C4
:10224000EFCD9387B79A5CC38280372702401C4B3F
:1022500093E707081CCB8280372702405C4705457F
:10226000858B91E748474189133515000D0582801C
:10227000EFE2EFAA2A848544C5376318950019E078
:10228000154529A0D13F7D14CDBF7DD86FE06FAB40
:10229000EFE2EFA8AA8437050B00D93F91476313FB
:1022A000F502372402401C4837050B0093E727004E
:1022B0001CC844C81C4893E707041CC8553F1C4869
:1022C000F59B1CC86FE0EFA7EFE2CFA341112A896D
:1022D0001565AE8402C69149613F631B35033724FF
:1022E00002401C48156593E717001CC8939704012A
:1022F000C1832310F900AD3F6319350109094AC6AE
:10230000B247C180156586A3A5371C48F99B1CC838
:1023100041016FE06FA29C4513F7070113F8F70026
:1023200001C7D8413368E80037270240145B3707FC
:10233000000F758F5DEB370700208546230AD740D5
:10234000371701406315E5009A2135839AA18E2144
:1023500013F7F50F39C318418146854E3D4F930F52
:10236000800293028004214E3396DE00B3F8C5004C
:10237000631116039398260033131F011343F3FFD1
:102380003377E300B318180133E7E8006399F707E0
:1023900050C98506E39AC6FD18C11307F00F63758F
:1023A000B70454412146854E3D4F930F800293025E
:1023B0008004414EB398CE0033F715016392E802D2
:1023C0001317260001173313EF001343F3FFB376FF
:1023D000D3003317E800D98E6397F703232A15013A
:1023E0000506E319C6FD54C1828037170140E3108A
:1023F000E5F6370700200347474131DBB1B7E39AE1
:1024000057F810C979B7E39D57FC23281501C9BFB8
:10241000B71701406318F500B707002083C747418D
:1024200091C3B58108456D8D3335A0008280B71703
:1024300001406318F500B707002083C7474191C3E7
:10244000B5810CC98280B71701406318F500B70742
:10245000002083C7474191C3B5814CC98280B7072B
:102460000140635A0504DC4F93560501131805011A
:102470003707300013F6F60013580801B376E5006D
:10248000635E05066399E604930606010D46B316DE
:10249000D60093C6F6FFF58F99C9135755011377E8
:1024A000F73F12073317E800D98F63550506370742
:1024B00001405CCF828037270240145BDC43370742
:1024C000000F758F55F313D71700F976CE07758F68
:1024D000CD83D98F51BF1317B500635607008D46C2
:1024E000B396C6007DB7135755011377F73F120710
:1024F0003317E8001347F7FFF98F79BF6390E602BF
:10250000370601405442370700F17D17F98F758F68
:1025100058C2C1F5370701405CC382801317B5006C
:10252000635C07008D46B396C60093C6F6FFFD8E2A
:10253000B707000FD58FF1BF135755011207331797
:10254000E8001347F7FF7D8FB707000FD98FD1B78A
:10255000B737004088C38280B7370040C8C3828045
:10256000B737004088C78280AD6737370040938710
:10257000A7AA1CC38280B567373700409387C7CCB2
:102580001CC38280B707002023ACA7408280B70716
:102590000020938787419443182181E63C219207CC
:1025A00021A894430546639FC6023C21103192073F
:1025B0006314D60093E707F8B7E600E093F7F70F48
:1025C000BA962380F6408546935757003397E60026
:1025D0005441A5C2938707048A07B7E600E0B6977F
:1025E00098C382808C4389466391D50214313C2183
:1025F0006365D6008A06B6975DB79386E6038A06BA
:10260000B69793F7F70F920775B790438D46631C03
:10261000D60014313C216364D6008606E9BF938658
:10262000C6078606F1BF94439147E39EF6F81C3136
:10263000BDB7938707064DB7371702405C439146F5
:10264000B18B6385D700A1466382D706B7177A009E
:10265000938707201CC1371602405C4237070020D1
:102660001307070B9183BD8BBA9794231C41B3D7F3
:10267000D7005CC15442A1829D8ABA969422B3D6F7
:10268000D70014C55442AD829D8A36971823B3D71C
:10269000E7005CC558423983937637001387C180C1
:1026A00036971823B3D7E7021CC982805C4358438E
:1026B000C166C983BD8B758F8907C5466393D700F3
:1026C000C94701EF3747024003270780418B09CFF5
:1026D00037177A001307072021A8371702405843FD
:1026E0009316E700E3D606FE37173D001307079061
:1026F000B387E70285B799C5371702405C4B5D8DFC
:1027000048CB8280B7170240D84B1345F5FF798D2F
:10271000C8CB828099C5371702401C4F5D8D08CF0A
:102720008280B7170240984F1345F5FF798D88CF07
:10273000828099C5371702405C4F5D8D48CF8280FB
:10274000B7170240D84F1345F5FF798DC8CF828067
:1027500099C5371702405C475D8D48C78280B7171F
:102760000240D8471345F5FF798DC8C7828099C5C7
:10277000371702401C4B5D8D08CB8280B717024093
:10278000984B1345F5FF798D88CB8280EFD23FD9E6
:10279000B7370140631AF50085450565553F81450A
:1027A00005657D376FD0FFD9B74700409387078015
:1027B000E31AF5FE854511655D3F81451165453F8D
:1027C000D5B71A218D6793870704B6217D8F9E2187
:1027D000D58FD621D58FF621D58F9625D58FB625C5
:1027E000D58FD625D58FF625D58FD98F1EA15A2DF9
:1027F000FD779387F77FF98F5EAD9E291EA98280B2
:102800001E2189C593E707041EA18280C207C183E8
:1028100093F7F7FBC207C183C5BF5E2101C6DD8DFB
:102820004EA1828093C5F5FFFD8DDDBF93C5F5FFF9
:10283000C205C1810EA58280EFD27FCEB73701409D
:10284000938707C0631DF500056485451305048063
:102850000137814513050480E53D6FD09FCEB70752
:1028600000406319F500854505451137814505454B
:10287000FD3DE5B7938707406318F5008545094599
:10288000FD3581450945EDB7B7170040138707802F
:102890006318E50085451145D93D81451145C9BFFE
:1028A000938707C0E31BF5FA85452145C935814566
:1028B00021457DBF1E2137370140130707C0C207DE
:1028C000C1836304E502370700406300E502130794
:1028D0000740630CE5003717004093060780630646
:1028E000D500130707C06316E500BA2193F7F7F880
:1028F000D98FFA2193F7F7CFC207C183D98F1EA1D1
:10290000DE215EB59E211EB5B7370140938707C013
:102910006314F5009C251EB985475EA982801E318F
:10292000922103D82500C207C183F99BC207C18346
:102930001EB11E3156211A2DC207C18342074183A1
:102940001377C7F8518F9225F59BC20633660601AF
:10295000D18F37360140130606C0C1826310C5020D
:10296000B225DD9B03D8E500D18FD221ED9B93F6F4
:10297000F6CFD18FD22533660601D18E56A11AAD7E
:10298000FA215AB91EB182801E3165771307F7CF3D
:10299000C207C183BD9BC207C1831EB11E31562130
:1029A00003D88500C20713960601162DC18393F73D
:1029B000F7FD758F96214182A206558FB6214207F9
:1029C0004183B3E606019206D58FB7360140C207B0
:1029D000938606C0C183631ED502B62593F7F7F729
:1029E00003D8C5009206D58FD621C207C1839206AF
:1029F00093F7F7FBD58FFD769386F63FF18EF225A0
:102A0000C207C183336606010A06D18E13960601FA
:102A1000418252A11AADFA211ABD1EB182801E3127
:102A200003D88500C207C18393F7F7EFC207C183BC
:102A30001EB11E3156215A2DC207139606014207B8
:102A4000962141831377C7F8558FB621C18393F739
:102A5000F7DFB3E60601A206D58FB7360140C207FD
:102A6000938606C04182C183631FD502FD7693869B
:102A7000F67FF58FB62503D8C500A206D58FD621DF
:102A8000C207C183A20693F7F7BFD58FF576FD166F
:102A9000F18EF225C207C183336606011206D18E7C
:102AA00013960601418252A15AADFA215ABD1EB1B8
:102AB00082801A31FD77FD17F98F1EB10358050288
:102AC00056215E2D657792211307F7CF7D8FF97719
:102AD0002206FD17518FB3F70701B22103D88500F5
:102AE000C2064207336606013206D18F37360140EF
:102AF000C207130606C0C1824183C183631AC500A1
:102B000071767D16F18ED2251A06D18EC206C1824B
:102B100056A15AADFA212310E5041EB18280FD575B
:102B20005EA12310050023130500231105002304D3
:102B3000050082801E2189C593E717001EA18280AF
:102B4000C207C183F99BC207C183CDBF8357450428
:102B500091C52167D98F2312F5048280C607C583EA
:102B6000DDBF5E2501C6DD8D4EA5828093C5F5FFD4
:102B7000FD8DDDBF1E25C207C183E19BC207C18356
:102B80001EA582801E2189C593E707081EA18280A9
:102B9000C207C18393F7F7F7C207C183C5BF1E2DD4
:102BA000C207C183DD9BDD8D0EAD82801A2DFD77BE
:102BB0009387F77FF98FA205CD8FC207C1831EAD22
:102BC00082805E2DC207C183DD9BDD8D4EAD82808C
:102BD0005A2DFD779387F77FF98FA205CD8FC20716
:102BE000C1835EAD82804A3182801E294A25ED8FE5
:102BF0004205418189C76D8D3335A0008280014532
:102C0000828093C5F5FFC205C1810EA98280EFD2F3
:102C10001F911629F577FD17F58FF621DA257971C1
:102C2000D58F1EA95625FD779387379FF58FD6211F
:102C30002A842EC6D58F9625D58FB625D58F5EA52D
:102C40005E29C207C18393F7F7CFD98F5EA96808C1
:102C5000EFF09F9EB747014093870780B245631A04
:102C6000F404A25756246547B387E702C206C1861B
:102C7000984163D20604060752244206B3D7E702FE
:102C8000130740064186B3D6E702B3F7E702920680
:102C9000635506028E0793872703B3D7E70213F71E
:102CA0007700B367D700C207C1831EA445616FD008
:102CB0005F89925745BF0A07C1B7920793872703D9
:102CC000B3D7E702BD8BD58FF9BF91C55E250967E4
:102CD000D98F5EA582805A25F977FD17F98FD5BF68
:102CE00093F5F51F4EA182800A216D8D3335A0002A
:102CF0008280EFD2DF82B727002083A7C726411149
:102D00004886CC86AA9723800700B707002003A532
:102D1000C7416C0081467D56EF10601341016FD0B2
:102D20005F82370500201305C5418280B727002048
:102D300003D507278280EFD28FFE5C49372400201D
:102D400013044426034905005CC81C455445182952
:102D5000AA844A863E8581451CC454C418A8230011
:102D60002401EFD0CFFED8404A86814558C0EFD02D
:102D70000FFEB707002003A5C7418145EF00F06EA5
:102D800001456FD00FFCEFD2EFF7B72400200144CC
:102D90009384442605498949094A9C206364F400C8
:102DA0006FD08FF9DC482285829763102503DC40C1
:102DB000A297982319C72380070093050004228552
:102DC0000D3F05041374F40FC9BF984422971C23C8
:102DD000850793F7F70F1CA3D8402297142389EA9D
:102DE0009428E3E0D7FE2300270193050008C1BF24
:102DF000F03463E4C70063872601F024E3E3C7FCF3
:102E0000E39146FD23003701CDB7B7270020938714
:102E1000C72723A0070023A207008280EFD22FF04C
:102E200037170140930607C08547630AD5028947D3
:102E30006307E502130707408D476302E502372762
:102E40000140930607809147630BD500930607C0A6
:102E500095476306D50081476313E50099473727F7
:102E600000209306C72713942700B38786009C434E
:102E70009304C72799EFB717014013870780631C96
:102E8000E50085451145EFF0FF88B38784000547CD
:102E900098C36FD00FEB138707C06315E500854516
:102EA0002145D5B76315F50085454145E9BF9387B1
:102EB00007406316F500854513050002E9B7B727FB
:102EC000014093870780E312F5FC85451305000454
:102ED0005DBFEFD2CFE401112A842EC68137B245FF
:102EE000C1473ECEEC8289474C0822853ECCEFF0AC
:102EF0008FC205616FD0EFE4EFD26FE201112A8437
:102F00002EC6293FB2458D472285EC824C083ECC27
:102F100002CEEFF04FC005616FD0AFE2EFD22FE0ED
:102F200001112A842EC6DD3DB24591473ECEEC828A
:102F30008D474C0822853ECCEFF0EFBD05616FD088
:102F40004FE0EFD22FDC41113284AA84AE8936895A
:102F5000F13509C885450545EFF0CFFB854522854C
:102F6000EFF0EFCF8D474C002685231231014AC682
:102F70003EC4EFF04FBA41016FD00FDCEFD22FDA31
:102F8000EFF00FC96FD0EFDBEFD26FD9EFF02FCAA0
:102F90006FD02FDBEFD2AFD8EFF0EFCA6FD06FDA80
:102FA000EFD2EFD7011102C602C802CA02CC231E1B
:102FB0000100B73701402A84631BF502854505658A
:102FC000EFF04FF52285EFF06FFCB7C704013EC666
:102FD000B70700023ECA6C00A14722853ECC02C85A
:102FE000231E0100EFF0EFFD05616FD08FD5B747CD
:102FF000004093870780E317F5FC85451165EFF0E6
:103000004FF3C9B7994763E2A704EFD24FD1B56731
:10301000938707C70A053E951C418545828705654C
:1030200013050580EFF00FEF6FD0AFD10545EFF03E
:103030004FF0DDBF0945E5BF1145D5BF2145C5BFEF
:103040004145F5B713050002DDB782805D7122DED0
:10305000370400402ADC2EDA1305044085453ED2B1
:1030600086C696C49AC29EC032D836D63AD442D0CA
:1030700046CE72CC76CA7AC87EC6EFF01FB78547B7
:10308000631CF500B727002083A7C72B82978545CF
:1030900013050440EFF0FFB67254B640A642164343
:1030A00086436255D2554256B2562257925702581D
:1030B000F248624ED24E424FB24F616173002030EF
:1030C000EFD2EFC59317250035651305C5C83E95AA
:1030D00008418545EFF01FA66FD0AFC6EFD22FC4D1
:1030E000B567131725009387C7C8BA978443411162
:1030F0002A842685EFF04FF42685EFF0BFA748001D
:10310000EFF0FFA131453304A40237250020130559
:10311000C5294C0022951E217C843E2126857C8277
:10312000EFF04FF941016FD0CFC1EFD24FBF011186
:1031300002CC02CE99472A840149814463E6A70064
:10314000B7A44A0493840420228536C632C42EC212
:10315000553D9245B1473307F4022246B246B727A0
:1031600000209387C7292285B3D4B402BA9792A3CB
:1031700094C7A6A3A537B567131724009387C7C8BC
:10318000BA97844385457D142685EFF09FA70546B1
:1031900085452685EFF0FF9C894763E78700938785
:1031A00041833E94034904008D47A30CF100280895
:1031B0008547230C21013ECE230D0100EFF02FBDEA
:1031C00005616FD00FB8EFD2EFB3011102C802CA88
:1031D00002CC02CE9947AA89328AB684014963E6B5
:1031E000A70037A94A0413090920B56713972900D6
:1031F0009387C7C8BA9780432EC6420A2285EFF04C
:10320000AFE32285EFF01F974E85EFF0BFDFB245A9
:10321000B1473387F902B72700209387C729135A8C
:103220000A014E853359B902BA9723904701239179
:1032300027016D35C167938707063EC8231B4101EF
:10324000231C010093F7140089CB0C082285EFF0B2
:103250000FED81452285EFF09F9493F7240089CBF1
:103260000C082285EFF04FF281452285EFF01F9484
:1032700093F7440089CB0C082285EFF04FFA814583
:103280002285EFF01F94A18889C80C082285EFF0F1
:103290005F8281452285EFF0BF9322858545EFF05F
:1032A0007F8E85452285EFF07F8A05616FD0CFA89C
:1032B000EFD2EFA69317250035651305C5C83E95D7
:1032C00008418145EFF09F886FD0AFA7EFD22FA5BF
:1032D00001112A84AE8432C6E13F35650A04130524
:1032E000C5C822950041814502C8228502CA02CC88
:1032F00002CEEFF0BF85C1673246938707063EC80E
:103300008947FC84F08393F7140089C70C08228551
:10331000EFF0EFE093F7240089C70C082285EFF067
:10332000AFE693F7440089C70C082285EFF02FEF32
:10333000A18889C40C082285EFF0AFF78545228566
:10334000EFF0DF8005616FD0CF9FEFD24F9D9317D5
:10335000250035651305C5C83E9508418545EFF044
:10336000EFFE6FD00F9EEFD28F9B1565130555555D
:10337000EFF00F9E1145EFF02F9E05657D15EFF0E4
:103380002F9EEFF06F9EEFF00F9F6FD08F9BB707D0
:103390000020938787439843636FA702D043B38687
:1033A000C7006316D50054413E85B296D4C3504140
:1033B000B306C500631CD700B706002083A60642EB
:1033C0006306D70054431843B29654C118C163032F
:1033D000F50088C38280BA877DBFEFD2AF924111DA
:1033E0002AC6EF106063B706002083A7064237069F
:1033F000002093860642130646423245B9EB372732
:1034000000209307872D93F5F7001307872D81C5BB
:103410001387F700419BB705002093858543938769
:10342000077FC19B23A2050098C123A2070023A008
:103430000700B385E7409CC21CC3B707002023A642
:10344000B742B707002023A4B742B70700804CC398
:103450001CC2032A0600B377AA0085E39307F5FF91
:103460003957636CF7009307050113F7F70049C359
:1034700013F707FF410763ECE706814491A0228719
:103480002E8469A058C15CC0EFF07FF05840B706A9
:1034900000209386C6429042B307E94023A0F9007A
:1034A00063F3C7009CC2B70700203367EA00938725
:1034B000074358C09843C10423200400050798C35C
:1034C000EF10E07193F7F400D1CB89679387078001
:1034D0007390073037D6000037D50000130606CAB0
:1034E00093050011130585CCEF80005701A0BA8722
:1034F000370700200329874293098742E36FF9F6D3
:103500003707002003248743130787435040637421
:10351000F6000C40ADF59442E38186F61440044376
:1035200014C33307F64093060002E3F1E6F63305D1
:10353000F4009376F500B9D6896793870780739076
:10354000073037D6000037D50000130606CA9305AA
:10355000F00C130585CCEF80205001A02685410199
:103560006FC09FFD5DC1EFC29FFBB707002003271F
:1035700045FF83A747422A84B376F7009DE2896717
:10358000938707807390073037D6000037D5000047
:10359000130606CA93054012130585CCEF80C04B75
:1035A00001A0832605FF9DC28967938707807390DA
:1035B000073037D6000037D50000130606CA93053A
:1035C0005012130585CCEF80204901A093C7F7FF67
:1035D000F98F232AF5FEEF102044B70700209387C8
:1035E00087429443032744FF130504FF369798C38B
:1035F000EFF0FFD9B70700209387474398430507AB
:1036000098C3EF10C05D6FC0DFF38280B7E700E0C2
:1036100041572387E7402386E740B7F700E023A020
:10362000070023A20700814694C70147D8C783A596
:1036300081801307803E814633D6E5023D4790CB1B
:10364000D4CB98C38280EFC29FED411102C6F3270D
:1036500050303EC6B2470D478D8B6384E7028967C1
:10366000938707807390073037D6000037D5000066
:103670001306C6CE9305600B130585CCEF80C03DC5
:1036800001A0B757002093870700BD8B9DC38967B2
:10369000938707807390073037D6000037D5000036
:1036A0001306C6CE9305B00B130585CCEF80C03A48
:1036B00001A0EFF0BFF5B7E700E0116723A0E71026
:1036C000056723A0E71023A80180EFC07FC3014551
:1036D00041016FC01FE7397106DE16DC1ADA1ED809
:1036E0002AD62ED432D236D03ACE3ECC42CA46C8A2
:1036F00072C676C47AC27EC073110134896793871B
:10370000078073900730B7F700E023A20700EF109F
:10371000403211C5B7E700E0116723A0E7208967B1
:10372000938787887390073073110134F250E25207
:103730005253C2533255A255125682567247E2472F
:103740005248C248324EA24E124F824F216173003E
:1037500020308967938707807390073093870181B2
:103760009843050798C38280138701811C438DE726
:10377000EFC2FFDA8967938707807390073037D6E7
:10378000000037D500001306C6CE93053010130590
:1037900085CCEF80602C01A0FD171CC391E78967E1
:1037A00093878788739007308280096513050580A9
:1037B000731505308280731005308280EFC23FD6CA
:1037C00041111DE18967938707807390073037D6D1
:1037D000000037D50000130646D1930550061305A7
:1037E00085CCEF80602701A0F1473EC632476304D5
:1037F000F7028967938707807390073037D60000F8
:1038000037D50000130646D19305D006130585CCA5
:10381000EF80802401A02A842320050011055D2C5F
:1038200085471CAC228541016FC0BFD1EFC29FCD3F
:103830001DE18967938707807390073037D60000B2
:1038400037D50000130646D19305A014130585CC87
:10385000EF80802001A0B70900FFB3F93501AE84E5
:10386000638409028967938707807390073037D68E
:10387000000037D50000130646D19305B014130598
:1038800085CCEF80601D01A09DE18967938707804B
:103890007390073037D6000037D50000130646D1A5
:1038A0009305C014130585CCEF80001B01A02A8965
:1038B000B28A368B3A8AEF10301B0DE563040A0298
:1038C0008967938707807390073037D6000037D514
:1038D0000000130646D19305F014130585CCEF8044
:1038E000A01701A0EF10401303240900B3F78400D0
:1038F00063170B029DE78149630C0A02B33550013F
:10390000E20563050B00B7070004DD8D5286C58D07
:1039100013054900EF10A057D289014411A8E39C78
:10392000F4FC63870A0093C7F4FFE18F2320F900BA
:10393000EF10E02A638C090211E5B7E700E0116798
:1039400023A0E720EF10F039931765002A8463CD98
:103950000700EFF01FE003240900B3F78400631AA7
:103960000B0091EBEFF05FE02204218022856FC015
:10397000BFBCE399F4FEE3870AFE93C4F4FFE18C35
:1039800023209900C5B7EFC29FB941111DE1896796
:10399000938707807390073037D6000037D5000033
:1039A000130646D19305101E130585CCEF80C00A7F
:1039B00001A0B70700FFED8F9DC38967938707803C
:1039C0007390073037D6000037D50000130646D174
:1039D0009305201E130585CCEF80000801A02A84E2
:1039E0002EC6EFF01FD7B245084093C5F5FFE98D0D
:1039F0000CC02AC6EFF05FD7324541016FC07FB4DB
:103A0000EFC25FB041111DE1896793870780739012
:103A1000073037D6000037D50000130646D193058E
:103A20001022130585CCEF80200301A0370700FF8B
:103A30006D8F1DC38967938707807390073037D6D2
:103A4000000037D50000130646D193052022130548
:103A500085CCEF80600001A02A842EC69309C500A2
:103A6000EF00907B1C40B245084837090001CD8F1C
:103A70001CC081447D19370A00020C40639CA900D8
:103A800093C4F4FFED8C04C0EF10601508404101B1
:103A90006FC09FAA1841832A4500B37727011316E8
:103AA0005700B3F6B7006345060089E65685F1B7BF
:103AB000E39ED7FE9316770063D30600DD8CB3E553
:103AC0004501EF10E05CDDB7EFC27FA5EFF0BFEB83
:103AD0006FC03FA7930785007D575CC118C55CC5C3
:103AE0001CC923200500828023280500828098417C
:103AF000FD5693078500631ED7001C49D843D8C1E3
:103B00000CC79CC5CCC31C4188C985071CC18280D9
:103B1000B687D4439042E37DC7FECDB754411845E4
:103B20001C4998C654C3D4436393A600D8C3984392
:103B3000232805007D1798C388438280EFC23F9EEB
:103B400041112AC6EFF0FFC03245005DEFF0DFC142
:103B50001335140041016FC0DF9EEFC25F9C3289B4
:103B60003041045D2A8409EE1C41014591E7084477
:103B7000EF10207C23240400850404DC6FC07F9CAC
:103B8000631009024841EF7090435C4038400145A2
:103B9000BA9718445CC0E3E1E7FE1C405CC0E9BF93
:103BA0004845EF70D0413C4058441440B307F040C2
:103BB0003E9758C46375D7001844BA975CC48947C8
:103BC0000145E31BF9FACDD8FD147DB7304115C28C
:103BD000EFC2FF9458451445AA87329758C56364CD
:103BE000D700184158C52E85CC47EF70503D6FC0A7
:103BF0005F958280EFC2BF922A84EFF09FB5834425
:103C0000540413094402E204E18463489002FD571E
:103C1000A302F404EFF05FB5EFF0BFB383444404B4
:103C200013090401E204E18463459002FD57230275
:103C3000F404EFF07FB36FC0DF905C50E9DB4A859E
:103C4000EF10403619C1EF10C060FD14E204E184AA
:103C50006DBF1C48E1DF4A85EF10C03419C1EF1079
:103C6000405FFD14E204E184C1B7EFC25F8B4111F4
:103C70001DE18967938707807390073037D600006E
:103C800037D50000130606D393050011130585CC24
:103C9000EF70905C01A05C5D2EC62A84BDC73841E0
:103CA000B3B7E702BDE3EFF0DFAA3040585C144041
:103CB000232C0402B307E602B24554C03387F60052
:103CC000918FB6975CC4FD572302F40418C4A30275
:103CD000F4049DE11C4899CB13050401EF10802CDE
:103CE00011C5B7E700E0116723A0E720EFF0DFA7D9
:103CF000054541016FC0FF8413050401EFF09FDD0E
:103D000013054402EFF01FDDD5B78967938707805D
:103D10007390073037D6000037D50000130606D35E
:103D200093055014130585CCEF70105301A0EFC21A
:103D30000FFF01119DE28967938707807390073019
:103D400037D6000037D50000130606D3930590152B
:103D5000130585CCEF70505001A019C105C685E54B
:103D60008967938707807390073037D6000037D56F
:103D70000000130606D393052018130585CCEF70B9
:103D8000B04D01A0F1FD930780043ECE724763045D
:103D9000F7028967938707807390073037D6000052
:103DA00037D50000130606D39305B016130585CC4E
:103DB000EF70904A01A0F24785472383F60491E112
:103DC000368690C2C8DEACC23685854536C6EFF071
:103DD000DFE9B246056136856FC0AFF6EFC22FF45A
:103DE000411121C5B3B7A502AA84A1E33305B502E9
:103DF000930770FB63EBA702130585042EC6EFF053
:103E0000CFDD2A8419CDB24523030504AA8799C1C1
:103E1000930785042CC01CC044DC85452285EFF047
:103E2000DFE4228541016FC0CFF189679387078066
:103E30007390073037D6000037D50000130606D33D
:103E40009305601C130585CCEF70104101A0EFC2F3
:103E50008FEA011132C61DE189679387078073904D
:103E6000073037D6000037D50000130606D3930578
:103E7000E032130585CCEF70303E01A02A842E89F4
:103E8000B6848DE53C419DC3896793870780739015
:103E9000073037D6000037D50000130606D3930548
:103EA000F032130585CCEF70303B01A08947639851
:103EB000F402585C85476304F7028967938707809B
:103EC0007390073037D6000037D50000130606D3AD
:103ED00093050033130585CCEF70103801A0EF1067
:103EE000A03815E5B247014C85C7896793870780DD
:103EF0007390073037D6000037D50000130606D37D
:103F000093053033130585CCEF70103501A0014CBB
:103F1000094BFD59930B040137EA00E0916AA5A80B
:103F2000B24789E7EFF05F84014555A063150C00A7
:103F30002808EF108025EFF03F83EF00F02DEFF021
:103F40005F8183474404E207E187639437012302DA
:103F5000040483475404E207E18763943701A30212
:103F60000404EFF07F806C002808EF10602335ED2B
:103F7000EFF02FFE185C5C5C631EF704EFF0CFFEE1
:103F8000B2455E85EF00306C2285EFF0BFC6EF00D2
:103F9000104529C9054CEFF0CFFB185C5C5C6364ED
:103FA000F700E39F64F72686CA852285EFF0FFBA03
:103FB0005C5089C713054402EF00D07E11C5B7E7F6
:103FC00000E0116723A0E720EFF00FFA0545056137
:103FD0006FC0EFD5EFF04FF92285EFF0BFC1EF00D2
:103FE00010404DBF23205A2175B72285EFF09FC0A6
:103FF000EF00F03E15BFEFC28FD21DE189679387B6
:1040000007807390073037D6000037D500001306BD
:1040100006D393053028130585CCEF70F02301A05B
:10402000032985002A84EF1080238144631DA900A1
:104030005C448544FD175CC499E78146014681458F
:104040002285EFF0DFE026856FC0AFCFEFC22FCD26
:104050002A8681450545EFF07FD82A8401CD2324A7
:1040600005002320050023260500814601468145E1
:10407000EFF0FFDD22856FC0CFCCEFC2AFC841119A
:104080001DE18967938707807390073037D600005A
:1040900037D50000130606D393052040130585CCC1
:1040A000EF70901B01A02A84B2898DE53C419DC32D
:1040B0008967938707807390073037D6000037D51C
:1040C0000000130606D393053040130585CCEF702E
:1040D000B01801A089476398F602585C85476304CD
:1040E000F7028967938707807390073037D60000FF
:1040F00037D50000130606D393054040130585CC41
:10410000EF70901501A036C62EC4EFF00FEA185CD0
:104110005C5C2A8AA245B2466366F70089478144FF
:104120006393F602834454041C5C368622851399FB
:104130008401EFF09FA213598941FD576317F902DB
:104140005C5089EB85445285EFF0EFE6268541010E
:104150006FC08FBE13054402EF00D06465D5E383C2
:1041600009FE854723A0F900F1BF9307F007631408
:10417000F9028967938707807390073037D600006C
:1041800037D50000130606D39305D048130585CC18
:10419000EF70900C01A08504E204E184A302940472
:1041A00055B7EFC24FB5011132C61DE1896793873C
:1041B00007807390073037D6000037D5000013060C
:1041C00006D393051055130585CCEF70F00801A0B8
:1041D0002A84AE898DE53C419DC38967938707801A
:1041E0007390073037D6000037D50000130606D38A
:1041F00093055055130585CCEF70100601A0EF1004
:10420000A00615E5B247014985C7896793870780EE
:104210007390073037D6000037D50000130606D359
:104220009305A055130585CCEF70100301A001493B
:104230007D5A930A440237EB00E0916B95A8B24790
:1042400089E7EFF06FD2014569A8631509002808D6
:10425000EF00B073EFF04FD1EF00007CEFF06FCFC5
:1042600083474404E207E18763944701230204047F
:1042700083475404E207E18763944701A3020404DF
:10428000EFF08FCE6C002808EF00907125E52285B5
:10429000EFF0DF8A31C9B2455685EF00D03A22856A
:1042A000EFF05F95EF00B01319E123207B21054962
:1042B000EFF02FCA045CC1D4CE852285FD14EFF047
:1042C000FF9004DC1C4899CB13050401EF00904DCE
:1042D00011C5B7E700E0116723A0E720EFF0CFC8D2
:1042E000054505616FC0AFA42285EFF0BF90EF00D8
:1042F000100F75BF2285EFF0FF8FEF00500E228563
:10430000EFF0DF834DD581B7EFC2CF9F01112EC6ED
:104310001DE18967938707807390073037D60000C7
:1043200037D50000130606D39305305E130585CC00
:10433000EF70807201A03C412A849DC389679387F6
:1043400007807390073037D6000037D5000013067A
:1043500006D39305705E130585CCEF70E06F01A066
:10436000EF0090700DE5B2479DC389679387078082
:104370007390073037D6000037D50000130606D3F8
:104380009305C05E130585CCEF70006D01A08144DC
:104390000149FD59130A4402B7EA00E0116B6DA010
:1043A000B2479DE79DC08967938707807390073068
:1043B00037D6000037D50000130606D393052063D7
:1043C000130585CCEF70406901A0EFF0EFB97DA037
:1043D000631509002808EF00505BEFF0EFB82D2DB2
:1043E000EFF02FB783474404E207E1876394370176
:1043F0002302040483475404E207E18763943701EE
:10440000A3020404EFF04FB66C002808EF005059E7
:1044100041E12285EFF08FF235C51C4089EBEFF0CA
:104420004FB30844EF001066AA84EFF0EFB3B24533
:104430005285EF0050212285EFF0CFFBEF00207A6C
:1044400019E123A06A210549EFF0AFB01C5CA9DB9C
:10445000FD171CDC1C4081E7EF10400A08C41C4813
:1044600099CB13050401EF00F03311C5B7E700E065
:10447000116723A0E720EFF02FAF85442685056163
:104480006FC08F8B2285EFF0EFF6EF00407565BFB0
:104490002285EFF02FF6EF0080742285EFF00FEA0F
:1044A0005DD1E9DCEFF0EFAA5C50814589C71C586B
:1044B000BD459C439D8D08448144EF003074EFF06E
:1044C000AFAA6DBFEFC2AF8541111DE18967938728
:1044D00007807390073037D6000037D500001306E9
:1044E00006D39305B02B130585CCEF70E05601A0E1
:1044F00004452EC62A84EF009056B2456399A40065
:104500005C44054585075CC441016FC08F832285EB
:10451000EFF09FDF75D95C4485075CC4F5B7EFC247
:104520000F8041111DE189679387078073900730E1
:1045300037D6000037D50000130606D39305307E2A
:10454000130585CCEF70405101A02AC6EFF06FA093
:104550003245085D2AC6EFF02FA1324541016FB008
:104560005FFE15E5EFB2BFFB896793870780739005
:10457000073037D60000856537D50000130606D30F
:10458000938585AC130585CCEF70004D01A09DCDC2
:1045900037360020930686AD81470147130686AD66
:1045A000214883A846006398A80093173700B29764
:1045B0008CC3C8C321A891E783A8060063930800B1
:1045C000B6870507A106E31E07FDFDF38280EFB263
:1045D0001FF541112A842EC632C4EFF08F9783470E
:1045E00044047D572246E207E187B2456394E70021
:1045F00023020404834754047D57E207E187639450
:10460000E700A302040432C62EC4EFF0EF951C5C51
:10461000A245324689E713054402EF005011228576
:10462000EFF04FDD41016FB0DFF101A0EFB29FED80
:104630002A84EFF00F92B70700209387C74498436E
:10464000B7040020B7390020050798C31387044436
:10465000184393840444138989B161EB80C0984363
:1046600085476310F706938989B1130AC9124E85ED
:10467000D109EFF02FC6E31C3AFF37350020130AAB
:1046800045C4130545C4EFF0EFC437350020930946
:1046900085C5130585C5EFF0EFC337350020130539
:1046A000C5C6EFF02FC337350020130505C8EFF05E
:1046B0006FC2B707002023A24745B707002023A4F5
:1046C0003745B7070020938747459843050798C3A8
:1046D00037070020130787455C54144363F3F60043
:1046E0001CC35147B387E702CA97D843144718C47D
:1046F00054C410479306440054C214C798435CC87E
:10470000050798C3EFF04F86B707002083A78746B9
:1047100099CB9C40D8575C546377F700B7E700E02B
:10472000116723A0E7206FB03FE1B707002083A700
:104730008746C1FB9C40D8575C54E3E4E7F880C04F
:1047400049B737070020130747441C439443B70772
:1047500000209387C74581E67D5798C38280184320
:1047600058471843DDBFEFB2FFD94111AA89B2847F
:10477000428403290803B1C5014841463385050138
:1047800003050500B3080401238AA80201C5050832
:10479000E316C8FEA301040439466377E60289677D
:1047A000938707807390073037D6000037D5000015
:1047B000130646D493057039130585CCEF70C029D4
:1047C00001A0230A0802C9BF58D478C013054400C9
:1047D000232404043EC636C43AC2EFF0EFB01305FA
:1047E0008401EFF06FB01247A24613952400BD4537
:1047F00071153387E5404A9500C818CC40D0230690
:104800000404A306040423070404A30704042308E0
:1048100004043686CE854199EFB09FBEB24708C0EA
:1048200091C380C341016FB03FD1EFB2BFCDB70498
:104830000020B70700201389044483A9C7462A84AF
:104840000325090041112EC61105EFF02FAD7D574C
:1048500093870444B2456311E4049DCDB73700202B
:10486000938707C883260900D84398C61047832634
:104870000900D0C6832609001047910654C283263A
:104880000900910614C7032709005CCB984305076C
:1048900098C341016FB05FCA98434E9440C3637B95
:1048A000340137070020032587448C439105EFF03E
:1048B0000FA4C5B737070020032547448C43910553
:1048C000EFF0EFA2B70700209387C7459843E37244
:1048D000E4FC80C37DBFEFB29FC441119DE38967B3
:1048E000938707807390073037D6000037D50000D4
:1048F000130646D49305A024130585CCEF70C0158C
:1049000001A042846314080289679387078073902B
:10491000073037D6000037D50000130646D493057C
:10492000B024130585CCEF70201301A09308400537
:1049300046C63243630413038967938707807390E5
:10494000073037D6000037D50000130646D493054C
:104950003025130585CCEF70201001A0B248232824
:10496000F8028947A308F8043C00EFF0DFDF228556
:10497000EFF0DFCB224541016FB0BFBCEFB23FBAD1
:10498000411170002C00480002C202C4EFC05FF465
:104990001248A2473246B7D500003745000001470C
:1049A0008146938585D51305A562EFF0DFF215C921
:1049B000EF0050658547631BF50289679387078081
:1049C00073900730B70700207D5723AEE744B70741
:1049D000002023A4A746B707002023A60746EFE040
:1049E0009FC683A7418141016FB0BFB5FD57E31A50
:1049F000F5FE8967938707807390073037D60000EC
:104A0000856537D50000130646D4938505841305C4
:104A100085CCEF70600401A0B7070020938707459D
:104A20009843050798C38280B707002003A5C746AF
:104A30008280B707002083A7074563990718EFB264
:104A40001FAEB70700209387C7468043050480C385
:104A500021ECB7070020938747449843184305C7C4
:104A60008967938707807390073037D60000856584
:104A700037D50000130646D4938575AC130585CC55
:104A8000EF60907D01A0370700201307874494430F
:104A9000104390C3B707002014C393870746984379
:104AA000050798C3EFF0FFC9370600209307C645F6
:104AB0009C4337370020B70500201306C64513076F
:104AC00087B19385054401456375F4029C41D14645
:104AD000DC57B387D7023E971843854763F3E70057
:104AE0000545B707002083A7074791C305456FB069
:104AF0005FA5370E0020B70E0020514F93074E449C
:104B00009443944281E6FD571CC2C9B79C43DC47DD
:104B1000DC47D4436374D40014C24DBF83A887001C
:104B200003A8C700D44B1383470023A40801232202
:104B3000180183A846006394680023A2060103A815
:104B4000060023AA07007D1823A00601945795CAE2
:104B500003A8C70183A8070283AF460023241801D6
:104B600083A8070223A208011388870163940F0119
:104B700023A2160103A8060023A407027D1823A080
:104B8000060193868E4503A8C70283A8060063F436
:104B9000080123A00601B306E803BA9683A84600DD
:104BA00083AF880023A4170123A6F70183AF8800F1
:104BB00023A26F0023A46800D4CB9C4285079CC22B
:104BC0009C41DC57E36CF8F205450DBFB7070020A8
:104BD0009387474698430145050798C38280EFB203
:104BE0007F9237040020130404451C40411185E7DF
:104BF0008967938707807390073037D600008565F3
:104C000037D50000130646D49385358B130585CC24
:104C1000EF60906401A0EFE0DFB31C40FD171CC003
:104C20001C4089CB01452AC6EFE01FB43245410143
:104C30006FB09F90B707002083A7C744E5D7B7366A
:104C400000203735002081479386C6C6370F0020E5
:104C5000130585B1D14837030020370E0020854E5B
:104C600059A8DC46DC47CC4F9053985790C503A811
:104C700007022322B80003284700938587016313A6
:104C8000B80050C3104323A407027D1610C38C47FD
:104C9000D047D84B1388470090C54CC24C43639310
:104CA000050150C3104323AA07007D1610C3130744
:104CB0008F45D0570C4363F3C50010C33307160369
:104CC0002A974C4383AF85008CC723A6F70183AF97
:104CD000850023A20F0123A405010C43D8CB850531
:104CE0000CC313070344184358576366E6001307C1
:104CF0000E472320D70198422DF799C3EFF07FA4E8
:104D0000B70700201387474604431384474699CCCE
:104D1000370900208549EFF0DFD109C5930709471E
:104D200023A03701FD14E5F823200400B707002075
:104D300083A70747E38807EEB7E700E0116723A0E2
:104D4000E7200545CDB519E5B7E700E0116723A0D9
:104D5000E7208280EFB2AFFCB707002083A70745AA
:104D600041119DC38967938707807390073037D6B9
:104D7000000037D50000130646D493059054130560
:104D800085CCEF60704D01A02AC6EFF0FFC8324518
:104D90008145EFF09FA9EFF09FE411E5B7E700E050
:104DA000116723A0E72041016FB0AFF9B7070020DA
:104DB00003A70745B70700209387074701C70547A3
:104DC00098C3828023A00700B70700201387874578
:104DD000184313868745B7370020938787B151481A
:104DE000B3060703B385D700884115C5C841A1069E
:104DF000BE964841C8C16314D5005441D4C1D146C0
:104E0000B306D702B697DC43D447B707002023A0E8
:104E1000D74418C2828015E7EFB26FF08967938795
:104E200007807390073037D60000856537D50000BE
:104E3000130646D4938525C0130585CCEF60D04179
:104E400001A07D1771BFEFB28FED05E589679387EC
:104E500007807390073037D60000856537D500008E
:104E6000130646D49385C5C1130585CCEF60D03EAB
:104E700001A0B70700202E8483A50744E105EFE0D9
:104E80001FC785452285EFF05F9A6FB08FEBEFB2B9
:104E90000FE905E58967938707807390073037D658
:104EA0000000856537D50000130646D4938565C399
:104EB000130585CCEF60503A01A0B707002083A707
:104EC000074585E78967938707807390073037D652
:104ED0000000856537D50000130646D49385A5C329
:104EE000130585CCEF60503701A0B70700209387EA
:104EF000074494432A8737050080C98D8CCE5443DC
:104F00008C438846D4CD8C4388D18C438846E105B8
:104F10004CC18C439C433285E1058CC698D71C4319
:104F2000854585071CC3EFF05F906FB08FE1EFB24E
:104F30000FDF2A8705E5896793870780739007301D
:104F400037D60000856537D50000130646D4938513
:104F500025C5130585CCEF60303001A0B7070020D0
:104F60009387074454432E858C4303A88600D4CDF1
:104F70008C4323A0050303A807008C46610823A2E5
:104F8000050103A807009C43610823A4060198D7E4
:104F90001C4385071CC311C27D55B285EFF0FF8805
:104FA0006FB02FDA5C45DC4795E7EFB24FD78967E2
:104FB000938707807390073037D60000856537D513
:104FC0000000130646D4938525C8130585CCEF60F1
:104FD000B02801A0D04F945398579385870114C6E9
:104FE000D0C250436313B60054C3144323A4070232
:104FF000FD1614C33707002003270745D45725EFB4
:105000008C47D047D84B90C5D04748434CC2938576
:1050100047006313B50050C3104323AA07007D1651
:1050200010C3370700201307874510436373D6006A
:1050300014C351473386E60237370020130787B180
:1050400032975043084690C7C8C708464CC10CC6A3
:10505000D8CB1C43014585071CC3B707002083A795
:105060000744DC5763F8D700B7070020054723A89B
:10507000E74605458280373700201307C7C65043EF
:105080000846D0CF88D308464CC10CC698D7D1B7B4
:10509000EFB2EFC8B707002083A7074585E7896708
:1050A000938707807390073037D60000856537D522
:1050B0000000130646D49385A5CB130585CCEF607D
:1050C000B01901A0B7070080DD8D5C450CC185E7F4
:1050D0008967938707807390073037D6000085650E
:1050E00037D50000130646D4938525CC130585CC0F
:1050F000EF60901601A050411445184914C614459C
:10510000D0C250436313A60054C3144323280500A0
:105110009047FD1614C3D447D84B9385470014C657
:10512000D447D0C250436313B60054C3144323AAD8
:105130000700FD1614C33707002013078745D4570F
:1051400010436373D60014C351473386E6023737E2
:105150000020130787B132975043084690C7C8C74D
:1051600008464CC10CC6D8CB1C4385071CC3B707E7
:10517000002083A70744DC5763F7D700B707002058
:10518000054723A8E7466FB0CFBBB707002083A72A
:1051900007461CC1B707002083A7C7465CC18280B1
:1051A000EFB2EFB7411105E58967938707807390E8
:1051B000073037D60000856537D50000130646D482
:1051C0009385D5CF130585CCEF60100901A085E547
:1051D0008967938707807390073037D6000085650D
:1051E00037D50000130646D49385E5CF130585CC4B
:1051F000EF60900601A02EC62AC4EFE08FD5B2451D
:10520000B707002083A6C7469C417D5701446381B0
:10521000E70222453706002003260646032805003C
:105220005841630DC80063EBE60023A00500054468
:10523000EFE08FD3228541016FB0AFB03386E640F7
:10524000E375F6FE958FBA979CC1EFF01FF4014409
:10525000C5B7B7070020054723A8E7468280B707F0
:10526000002003A507448280B707002083A7874654
:10527000054581CBB707002003A507451335150069
:10528000060582804DC5EFB2EFA7370900209307CE
:1052900009449443585513090944D4566373D708F5
:1052A0001C4D63C8070083270900D457BD47958F5D
:1052B0001CCD51463307C702B7370020938687B10C
:1052C000938487B1369754496398E604930945005F
:1052D0002A844E85EFE09F8483270900370700204A
:1052E00013078745DC5714435CD463F3F6001CC3F3
:1052F0005147B387E702A697D843144718C454C44C
:10530000144723A236012324370198435CC80507BC
:1053100098C305456FB04FA283270900DC575CD5C1
:10532000CDBF9C436841DC573335F500E5B70145F7
:10533000828011E50145828001456FB08FA0EFB2F8
:105340000F9EB707002083A707442A846385A7021E
:105350008967938707807390073037D6000085658B
:1053600037D50000130646D49385F504130585CC84
:10537000EF60806E01A0BC4785E78967938707804F
:105380007390073037D60000856537D500001306C7
:1053900046D493850505130585CCEF60E06B01A02D
:1053A00054557841FD173CC5E388E6F8D1F79304DE
:1053B00045002685EFE08FF67C403D471D8F18CCD9
:1053C000370700201307874514435CD463F3F600C6
:1053D0001CC351473387E702B7370020938787B153
:1053E0000545BA97D843144718C454C41447C4C2D7
:1053F00004C798435CC8050798C381B775C1EFB26D
:105400000F9234452A8485E68967938707807390D5
:10541000073037D60000856537D50000130646D41F
:105420009385F509130585CCEF60006301A07C41ED
:1054300063F3B700AE8758546302F70A0546639FCB
:10544000C608B706002083A60644639586028967CE
:10545000938707807390073037D60000856537D56E
:105460000000130646D49385A50B130585CCEF6089
:10547000A05E01A0144C5CD463C60600BD46B38791
:10548000F6401CCC51463307C702B737002093863D
:1054900087B1938487B1369754486391E604130922
:1054A00044004A85EFE08FE7370700201307874560
:1054B0005C54144363F3F6001CC35147B387E702FF
:1054C000A697D843144718C454C4144723A22601EE
:1054D0002324270198435CC8050798C36FB06F86E3
:1054E0008280B70700209387074498439443084F6E
:1054F000D4569843BD47958F1CCF8280B7070020B4
:105500001387074418439387074409C79443B84651
:105510000507B8C688438280EFB26F80EFE06FA3C3
:10552000138401901C40B1EF37350020130945CD9D
:10553000130545CDEFE00FDA37350020930485CE13
:10554000130585CEEFE00FD9B7070020B73600204E
:105550003736002023AA27470147B7070020938644
:10556000C6CF130646C9C145114523AC9746EFE0A7
:105570000FFC08C019C5B7D50000938545D8EFE0EA
:105580005FFEEFE06F9E6FA0DFFBEFA25FF94CC103
:1055900008C9AA876362B602184D158E0545637B5C
:1055A000E60093854700B707002003A58747EFE093
:1055B0000FD401456FA0FFF86375D6000545E3FBE6
:1055C000D5FE93854700B707002003A54747C5B719
:1055D000EFA2FFF42A84AE8432890C4CA6864A8658
:1055E000A6952285EFF07FFA19E16FA09FF51C4C7C
:1055F0002285BE941C508297CDB7EFA25FF2B70709
:10560000002083A747474111AA84DC472EC6C04724
:1056100013054400EFE08FD083474402324613F76E
:10562000470019CBA6852285EFF09FFA1C502285F2
:10563000829741016FA0FFF0F99B2302F402FDB7AE
:10564000EFA2FFED370400209306444798421C4325
:1056500091EBB707002093878747904398C390C288
:105660006FA03FEE5C47FD558843EFF01FF9E9BF9F
:10567000EFA27FE835694111B70A0020B709002081
:10568000B70B0020130909D683A74A47984329CBB3
:10569000DC47814C03AC0700EFF00FB8EFF0CFB858
:1056A00083A7C9472A849384C947138A0190636CEE
:1056B000F50288C063800C0483A78B4790431336A0
:1056C000160003250A00B3058C40EFE05FF0EFF011
:1056D0000FD119EDB7E700E0116723A0E72009A873
:1056E000854C014C55BFEFF0BFF580C0EFF02FCFD8
:1056F000214C0DA00146E36685FDEFF04FCEA2855B
:105700006285EFF09FEFEDB79247B24582978247EF
:1057100063DD070003250A0001468A85EFE07FA8C4
:1057200025D582472245E3C107FE22445C489DE31C
:10573000EFF08FAF9C40AA8C6374F500EFF05FF040
:10574000824723A09401FD17E366FCFC8A07CA97F1
:105750009C43828713054400EFE04FBCD1BF8347D1
:1057600044020C4C924693E717002302F40266862B
:10577000B6952285EFF07FE151DD8347440213F7B0
:10578000470001CF1C4C924566862285BE95EFF0FE
:105790003FE41C5022858297B5BFF99B2302F40297
:1057A000CDBF83474402F99B2302F402A5B7834788
:1057B0004402924593E717002302F4020CCC9DE1CA
:1057C0008967938707807390073037D6000037D5F5
:1057D00000001306C6D893059035130585CCEF60FD
:1057E000A02701A0E6866686E6952285EFF0FFD920
:1057F00015B78347440213F7270055F72285EFD0EA
:105800007FD609BFEFA2BFD14111EFF0FFD083A730
:10581000019095CB70002C00480002C202C4EFC07A
:10582000EF8CA24712483246B7D50000375500002A
:1058300039478146938545DA13050567EFF0AF894F
:1058400023A2A1901DE18967938707807390073099
:1058500037D6000037D500001306C6D8930590113F
:10586000130585CCEF60401F01A0054541016FA0E5
:105870005FCDEFA2DFCA4111B68732C63E862AC28B
:1058800003A5019079572EC481468A853AC0EFE07E
:10589000CFFE41016FA0FFCA83A7818037177A002E
:1058A00013070720B3D7E70293F7F70F2385F1908B
:1058B0001307803EB387E7022394F1908280EFA222
:1058C0001FC601112A84854537050200EFC07FE617
:1058D00085451145EFC01FE491477C823715014093
:1058E0008D473EC44C00E147130505803EC6EFC01E
:1058F0009FA222C837440040B70708000C081305D0
:1059000004403ECC02CA231E0100EFD04FB08545B3
:1059100013050440EFD06FBB05616FA09FC2EFA2DB
:105920007FBEB7440040AE8932890144938404406D
:10593000634524014A856FA03FC093050004268576
:10594000EFD08FBA7DD9B38789008385070026857C
:105950000504C205C181EFD0AFB8D9BF13878181DB
:105960001C43B73600209386C6D63E95636BD500A0
:10597000B75600209386068063E5A60008C33E85DF
:105980008280FD57EDBF732510348280732520344B
:105990008280732530348280EFA27FB85021B735E2
:1059A0000020138745D430A71C4193D6E700898A8D
:1059B00093F7F77F1CC314B78147050763CFC70070
:1059C00037650040938545D413050540EFC0CFB936
:1059D00071153335A0006FA0DFB6B306F500D432E1
:1059E000850734A7D9BFEFA29FB31145EFE00FE6BB
:1059F00023ACA1900D4681450545EFE02FBE23A8BD
:105A0000A1900D4681450545EFE04FBD23AAA19029
:105A100005456FA01FB3EFA29FB003A58191FD556F
:105A2000EFE05FAA7D15133515006FA09FB1EFA2BF
:105A30001FAF03A58191EFE00FDC7D151335150035
:105A40006FA03FB001C9EFA29FAD8145EFC04FC627
:105A50006FA03FAF82801C4191CFEFA25FAC2A8440
:105A600085453E85EFC0CFC485476313F50048C820
:105A70006FA03FAD8280EFA29FAA5D712A842E891C
:105A8000B284814513060002081836C63AC43EC2E5
:105A900042C0EFA0DFAB7D556304041A6382041A91
:105AA0002247630F0718B246232A040023A68190D9
:105AB00013B6160210CC9247232E04000546024866
:105AC00010D02320240144C016A458C41EA82319B2
:105AD00004002312040223240402268681456396CF
:105AE000D5048146E145139606014182636BF604B5
:105AF0008D47A309F1029307B040231AF1028547AD
:105B00003EDEBEC2930740066303F81463E2070556
:105B1000D1476303F81493072003630CF812A947D5
:105B20006315F8129307802599A08505C2052310F7
:105B300006002AA22322060023240600C181310682
:105B400079BF3386B60285063A962328060061BFE0
:105B50009307401F6309F80E9307803E6308F8001F
:105B60009307A00F6313F80EA14711A0894737646C
:105B700000400C18130504402318F102EFB0DFFEBB
:105B80008547A303F10223040102EFB04F928D6712
:105B900016055D8DE887EFB08F91916716055D8DD5
