:100000006F10507A1300000013000000130000006E
:100010001300000013000000130000001300000094
:100020001300000013000000130000001300000084
:08003000130000007300100032
:100038000000000000000000280800002A08000056
:10004800000000003C1F000000000000000000004D
:100058003E1F0000401F00000000000000000000DC
:10006800CC35000000000000000200000000000085
:10007800461F0000481F00004A1F00004C1F0000D8
:100088004E1F0000501F0000521F0000541F0000A8
:10009800561F0000581F00005A1F00005C1F000078
:1000A8005E1F0000601F0000621F0000641F000048
:1000B800661F0000681F00006A1F0000900800000B
:1000C80068090000BE090000140A0000741F00003F
:1000D800761F0000781F00007A1F00007C1F0000B8
:1000E8007E1F0000680A0000821F0000841F0000B5
:1000F800861F0000881F00008A1F00008C1F000058
:100108008E1F0000901F0000921F0000941F000027
:10011800961F0000981F00009A1F00009C1F0000F7
:100128009E1F0000A01F0000A21F0000000000008A
:080138000000000000000000BF
:10020000130181F806C216C41AC61EC822CA26CC1B
:100210002ACE2ED032D236D43AD63ED842DA46DC76
:100220004ADECEC0D2C2D6C4DAC6DEC8E2CAE6CC46
:10023000EACEEED0F2D2F6D4FAD6FED8F3220030CF
:1002400096DA9702002083A2E21F23A02200F32562
:1002500010342EC003A14183EF40902417030020E7
:100260000323431E03210300824273901234D652AB
:10027000739002309240A2423243C2435244E2445D
:10028000724582551256A2563257C2575258E258FA
:1002900072598649164AA64A364BC64B564CE64C0E
:1002A000764D865D165EA65E365FC65F13018107DA
:1002B0007300203013000000130000001300000042
:1002C00013000000130000001300000013000000E2
:1002D00013000000130000001300000013000000D2
:1002E00013000000130000001300000013000000C2
:1002F00013000000130000001300000013000000B2
:1003000083A24183938202E073900234170100209C
:1003100003214113024182403243C2435244E2442A
:10032000724582551256A2563257C2575258E25859
:1003300072598649164AA64A364BC64B564CE64C6D
:10034000764D865D165EA65E365FC65FD652A1020A
:1003500073900230A24213018107828013000000D3
:100360001300000013000000130000001300000041
:100370001300000013000000130000001300000031
:100380001300000013000000130000001300000021
:100390001300000013000000130000001300000011
:1003A0001300000013000000130000001300000001
:1003B00013000000130000001300000013000000F1
:1003C00013000000130000001300000013000000E1
:1003D00013000000130000001300000013000000D1
:1003E00013000000130000001300000013000000C1
:1003F00013000000130000001300000013000000B1
:10040000F322003093F272FF130380181203B3E259
:100410006200711523205500130585FA10C12115BE
:10042000232005009302000063870200711523203A
:100430000500FD12D5BF71150CC1828000000000BF
:1004400000000000000000000000000000000000AC
:10045000000000000000000000000000000000009C
:10046000000000000000000000000000000000008C
:10047000000000000000000000000000000000007C
:10048000000000000000000000000000000000006C
:10049000000000000000000000000000000000005C
:1004A000000000000000000000000000000000004C
:1004B000000000000000000000000000000000003C
:1004C000000000000000000000000000000000002C
:1004D000000000000000000000000000000000001C
:1004E0000000000000000000000000000000397162
:1004F00001436EC619A0397141536AC866CA62CCFD
:100500005ECE19A0397101535AD056D252D44ED66C
:100510004AD826DA22DC06DE3301614082824111AC
:100520004AC026C222C406C68282B24D4101024D93
:10053000924C224CB24B4101024B924A224AB249A0
:100540004101024992442244B240410182803D432C
:100550002A876373C3029377F700BDEFADE5937607
:1005600006FF3D8ABA960CC34CC30CC74CC7410763
:10057000E36BD7FE11E28280B306C3408A0697027E
:10058000000096966780A6002307B700A306B70071
:100590002306B700A305B7002305B700A304B700DF
:1005A0002304B700A303B7002303B700A302B700D7
:1005B0002302B700A301B7002301B700A300B700CF
:1005C0002300B700828093F5F50F93968500D58DB3
:1005D00093960501D58D61B7939627009702000089
:1005E00096968682E78086FA9680C1171D8F3E9682
:1005F000E374C3F8A5B7370500201305C53C828016
:10060000370500201305853C8280B707002023A80A
:10061000A73C8280EFF23FEEB70500203971938549
:10062000453C014537040020EF70903A2320A43C5C
:100630001304043C19E1EF1080161C40370700201A
:100640000327073DDC4398C3EF50A02AEF50602DED
:10065000A12D2313A10202D6EF00806E1C40A3023D
:10066000A102DC43884323AA0700EF50602E1C4000
:10067000C843EF50804F0840035661025C418C43F1
:10068000EF70304519C1EF108011B7070020938734
:10069000C72798530840930661023AD8D8531306E7
:1006A00051020C183ADA9857DC573ADC3EDEEF700C
:1006B000B04519C1EF10A00E83A6C18103495102B4
:1006C000032A040036CE2D2D8967C507C98FF2464F
:1006D0001307401F9309C102C2073AC04EC64AC45D
:1006E00002C29308803E1308401FC18301470146A0
:1006F00081455285EF70904411C5B5576304F500EC
:10070000EF10E009084003A6C1814E874C49CA8614
:10071000EF70504E19C1EF1080081C409C4399C3E4
:10072000EF10E0071C40B70400208969C843130A92
:10073000803EEF50002323AA043CEF500020EF40FE
:10074000E01D2A8902D49384443D938909719C4019
:1007500089CBB707EFBE37E700E0938707083CC7B0
:10076000FDBFA25503A50191B3D54503EF30302954
:10077000EF50201B4ED4EF40601A3306254133065C
:100780004603AA8A0840341081455689EF701052FA
:1007900088C003A54191814601468145EF30805ACA
:1007A000EF50A0196DB7EFF2FFD54111EF50601770
:1007B000EF40C01689692A8402C6130A803E9389D5
:1007C0000971370B0020EF504017B24503A5419146
:1007D00013090B3CB3D54503A284EF305022EF50F0
:1007E0004014832709004EC695CFDC43DC4B9DCBDC
:1007F000EF40C012AA84032509001C4185E75C4133
:10080000DC4B8DC33384844033044403740081453E
:100810002286EF70905103250900740022868145DD
:10082000EF70B054268445B701A039712AD637D568
:1008300000001305050806DE16DC1ADA1ED832D2CF
:1008400036D03ACE3ECC42CA46C872C676C47AC2C8
:100850007EC02ED4EFB09008EF50A003AA8537D504
:10086000000013054509EFB02076EF50E002AA859D
:1008700037D500001305450AEFB00075EF50200290
:10088000AA8537D500001305450BEFB0E07301A032
:100890005D7122DE26DC37640040B70400382ADAB6
:1008A0002ED813050440938514003ED086C696C406
:1008B0009AC29EC032D636D43AD242CE46CC72CA02
:1008C00076C87AC67EC4EF10D0338547631AF50028
:1008D0009385140013050440EF101038EF50803852
:1008E000B7040038376400409385041013050440B2
:1008F000EF1030318547631AF50093850410130516
:100900000440EF107035EF50E03537640040B70514
:10091000013813050440EF10D02E8547631AF50007
:10092000B705013813050440EF101033EF50803342
:1009300037650040854513050540EF10F0427254BD
:10094000B640A64216438643E2545255C25532562B
:10095000A256125782577248E248524EC24E324F48
:10096000A24F61617300203039712AD6376500408B
:100970002ED413050540814506DE16DC1ADA1ED892
:1009800032D236D03ACE3ECC42CA46C872C676C4BF
:100990007AC27EC0EF504038F250E2525253C253F6
:1009A0003255A255125682567247E2475248C24803
:1009B000324EA24E124F824F2161730020303971A6
:1009C0002AD6376500402ED413050540854506DE3E
:1009D00016DC1ADA1ED832D236D03ACE3ECC42CA13
:1009E00046C872C676C47AC27EC0EF50E032F2507A
:1009F000E2525253C2533255A25512568256724792
:100A0000E2475248C248324EA24E124F824F2161F5
:100A10007300203039712AD6376500401305054030
:100A200006DE16DC1ADA1ED82ED432D236D03ACEF2
:100A30003ECC42CA46C872C676C47AC27EC0EF5067
:100A4000E031F250E2525253C2533255A25512567F
:100A500082567247E2475248C248324EA24E124F67
:100A6000824F2161730020305D7126DCB7040040A5
:100A70002ADA2ED81385044085453ED086C696C412
:100A80009AC29EC022DE32D636D43AD242CE46CC6C
:100A900072CA76C87AC67EC4EF20E05985476315CE
:100AA000F502371401408565130504C0EF10906608
:100AB000EF00D02D854513850440EF204059856512
:100AC000130504C0EF1090637254B640A64216435B
:100AD0008643E2545255C2553256A2561257825797
:100AE0007248E248524EC24E324FA24F61617300CB
:100AF0002030EFF23FA1EF10904037F50008B70427
:100B0000002037F40008EF109045938404009149C9
:100B1000130904018C402285EF10F047631A350158
:100B200098401C406316F70011049104E31424FF5D
:100B3000EF10903E11B4B707002003C70738630DCC
:100B4000070EEFF2DF9D37F40008042037D50000D0
:100B50001305850EA68513890738EFB0E046930785
:100B600070066380F40237D500001305450DEFB021
:100B7000E05641370C2037D500001305450EEFB085
:100B8000A04437040020B7F7000813070400938639
:100B9000070113040400902385070507A30FC7FE70
:100BA000E39BD7FE83A7C181130684000547C84392
:100BB000854685451305C51223000900EF50906B4B
:100BC00083A7C181130694000547C843854689451C
:100BD0001305C512EF50106A83A7C1811306A40044
:100BE0000547C84385468D451305C512EF509068EB
:100BF00083A7C1812D042286C843054785469145B8
:100C00001305C512EF50106783A7C18122860547DF
:100C1000C8438546854513058513EF50B06583A706
:100C2000C18105478546C84322868945130585133A
:100C3000EF5050646FF0FF908280EFF25F8EB70745
:100C40000020938707003E950CA165356FF07F8FDC
:100C5000EFF2FF8CB7070020938707003E9513D76C
:100C6000850041110CA118B16C87613541016FF00D
:100C70005F8DB707002083C7073885C3EFF23F8A2F
:100C800041112AC64D3D3245B70700209387070022
:100C9000AA97882341016FF0DF8AB7070020938766
:100CA0000700AA9788238280B707002083C70738E8
:100CB00095C7EFF2DF864135B707002083C71700DD
:100CC0001D471305D0076369F70013971700B56731
:100CD0009387470CBA978A236FF0BF86B707002027
:100CE00083C717001D471305D007636AF7001397E2
:100CF0001700B5679387470CBA978A238280828052
:100D0000B707002083C7073885C3EFF25F81253519
:100D1000B707002003C73700854701456314F70074
:100D2000130500106FF0FF81B707002003C73700DD
:100D3000854701456315F700130500108280828006
:100D4000B707002083C7073891CBEFF24FFDE5339B
:100D5000B707002003C527006FF0AFFEB7070020DC
:100D600003C527008280EFF28FFB931735003565AE
:100D70001305850F3E954E210841EF1050366FF058
:100D80004FFCEFF2CFF90111A1475C84B7070020B7
:100D90009387873D3EC8B70700209387073E2D45C0
:100DA0003EC6C13D230BA1002945E135A30BA1009F
:100DB0002545C135230CA1002145653DA9473305D3
:100DC000F502B7170000938767D63ECEE882280069
:100DD000EF20803C05616FF0CFF6EFF2AFF201112A
:100DE00085451145EF10F05F85452145EF10705F97
:100DF00085454145EF10F05E854513050002EF1073
:100E0000505E85450545EF10D05D85451165EF10B5
:100E1000305F854537050002EF10905E854505453A
:100E2000EF10105E8564138504808545EF10705BBC
:100E300085450945EF10D05C8545054537140140CF
:100E4000EF105058130504C0856502C602C802CAD7
:100E5000EF10502C1305048093050010EF10902B19
:100E6000F9770D4A6C00371501407C8652C8E97944
:100E700002CAEF103017938789ED6C0013050480C8
:100E80007C86EF1030168567938717806C001305FA
:100E900004C07C86EF1010159307E00F11496C0019
:100EA000130504C07C864ACAEF10D01393070002D2
:100EB0006C00130504807C86EF10D012C1476C00D3
:100EC000130504C03ECA6486EF10D01193040010CD
:100ED0006C00130504806486EF10D01037051800ED
:100EE000854513050520EF107024E1476C001305BC
:100EF0000480231641013ECAEF10D00E9307004034
:100F00006C00130504C07C86EF10D00D6C00130537
:100F100004C023163101EF10F00C854537451D0044
:100F2000EF10D020930700206C00130504C07C86CE
:100F3000EF10500B6C0093098004130504C0648605
:100F4000373401404ECAEF10F009130504C0EF100A
:100F5000905B130504C0EF2000086800EF204002FA
:100F60009304803E6C00130504C0E4802316310115
:100F7000EF1030618545130504C0EF20C0019307D1
:100F8000D0327C86680085473EC823170100EF10E9
:100F9000F02C9307402268007C86EF10302C9307DA
:100FA000500268005C86EF10702B930730026800D7
:100FB0005C86EF10B02A9307600268005C863744B5
:100FC0000040EF10B0291305048002C602C802CA0F
:100FD00002CC231E0100EF105048B70704013EC6A3
:100FE000B70700023ECA6C00A147130504803ECC3F
:100FF00002C8231E0100EF10B049054689451305BC
:101000000480EF10704E3705004002C602C802CAC5
:1010100002CCEF10504F37050040EF10D07B0A850F
:10102000EF10107689478A853705004064827C80FE
:10103000EF103055C167938707063EC66C009307D3
:10104000401F37050040FC81231A0100EF10105AA1
:101050006C0037050040EF1010606C003705004051
:10106000EF10D068814537050040EF107079814559
:1010700037050040EF10B079814537050040EF108B
:10108000707A854537050040EF10F07585453705C6
:101090000040EF10D0713704004013050440EF10FA
:1010A000904613050440EF1010736800EF10506D68
:1010B0006C0013050440E48023162101EF10704CEE
:1010C000130504408545EF109078054685451305C6
:1010D0000440EF10306F05616FF00FC6EFF22FC4C0
:1010E00039712A842E89B28481451306C0024808CA
:1010F00036C6EFF0CFC52285EF104050B246C1474B
:101100003ECE930700083ED44C088D6722854ACA1C
:1011100026CC36D03EDC02D202D602D802DA02DE7B
:10112000EF10805721616FF0CFC1EFF24FBFEFA0FA
:10113000404BB7D7000003A6071783A64717EF90C9
:10114000A077B7D7000003A6871783A6C717EF902D
:10115000E009EF700044B7D7000003A6071883A684
:101160004718EF906075EFA0003B420541816FF09A
:101170004FBDEFF22FB9E17741118D0737140140D0
:101180007C82C147130504803EC64C008D473EC497
:1011900023130100EF10006593070040130504C0FE
:1011A0004C007C82EF1000649167130504807C8200
:1011B0004C0091473EC6EF10E062130504808D4558
:1011C000EF10C073130504C093050040EF100073C7
:1011D000130504C08565B569130904C0EF10807359
:1011E0008144914A9389891313040480754A856563
:1011F0004A85EF10A0700545EF30302485654A859B
:10120000EF10407163E09A0293972400CE979C43BD
:1012100082878D452285EF10E06F930500404A8557
:10122000EF10406F850493F4F40FE39244FD3714FC
:101230000140A16513050480EF10C06D856513059D
:1012400004C0EF10A06B8565130504C0EF10806C1F
:101250008D4513050480EF10E06B930500401305E6
:1012600004C0EF10206B0545EF30301D8565130578
:1012700004C0EF10A0680545EF30301C85651305EC
:1012800004C0EF1020698D4513050480EF108068BD
:1012900093050040130504C0EF10C0676149814405
:1012A000930904C0130A048085654E85EF1000651C
:1012B0000545EF30901891655285EF1040628547E3
:1012C0006315F500860493E4140085654E85EF10E0
:1012D00060647D1905451379F90FEF301016E31599
:1012E00009FCB7070001FD176396F40637D5000027
:1012F00013058518EFA0905E130504808D45EF104F
:10130000E05F130504C093050040EF10205F130554
:1013100004C0B71401408565138904C0EF10805FD5
:10132000014493840480094A954985654A85EF10F4
:10133000E05C0545EF30701085654A85EF10805DF3
:1013400085476306F40A630E440B05041374F40F17
:10135000E31D34FD371401404C00130504C0EF10A9
:101360006048E1473EC6E977938707404C00130584
:1013700004C07C82EF100047E1778D074C00130515
:1013800004807C8237440040EF10C0451305048080
:101390008545EF10D01337060020370502408D46F3
:1013A0001306463F9305C48013058505053B3705A5
:1013B0000040854513050540EF10F03D8545370594
:1013C0000040EF10503D41016FF00F978D45228591
:1013D000EF10C052930500404A85EF10205299B596
:1013E0008565DDBF856525BDA1652285FDB726859F
:1013F0008D45EF102052930500404A85EF10805133
:10140000A9B726858D45EF10604F930500404A85AA
:10141000EF10C04E1DBFB70700209387C73E3E9513
:10142000A30FB5FE8280B70700209387873E3E95C5
:10143000A30FB5FE82801307F0036369A700EFF2E4
:101440000F8EE5312392A1806FF0AF8F9307600973
:101450002392F1808280B70700201387073FFD5653
:101460007D1516A334A31375F50F21479387073F06
:101470006369A70235671307C7140A053A9518412F
:101480000287A38007002381070082802380070052
:10149000DDBF239007008280A38007008280238025
:1014A000070082801307F003636BA700EFF22F871A
:1014B000AD39370700202311A7386FF08F889307C5
:1014C0006009370700202311F7388280EFF22F855B
:1014D000411102C002C202C402C69307F00363E1D5
:1014E000A70881452A8437050040EF10502CC167BA
:1014F0009387070622853EC0EFA0406EB7D7000055
:1015000083A54719EFA04014B7D7000083A587191A
:10151000EFA0603EEFA020670505894768838A85B4
:10152000370500407C84EF10700C8A853705004039
:10153000EF1070128A8537050040EF10301B85458B
:1015400037050040EF10B0262C8337D50000130577
:10155000C519EFA07027854537050040EF10B0236F
:1015600041016FE01FFEEFE29FFB1945EFF06FF0C6
:10157000DD351145EFF0EFEF7D3D1545EFF06FEFF5
:1015800015371305F00399376FE0BFFBEFE23FF922
:10159000B705002083D7A53F130760099385A53FB2
:1015A0008507C207C183636AF7169EA1B7070020AB
:1015B0009387873E98239033B42337050020336800
:1015C000C700B707002033E80601130515389387D5
:1015D000C73E63060816B70800209388883F03D8E3
:1015E000080015631303437E0508420813580801D9
:1015F00023900801637B0301034805002390080042
:101600007D183338000123000501034E0500054510
:1016100003C3070083C8170003C827006312AE1076
:10162000336767003366160198A390B3B3E60601EB
:10163000B4A3370700209306473F03C80700883349
:10164000B023B7070020239006002381060083D82B
:10165000050083D627389307473F63F6D802B706BD
:1016600000209386063F3367A8008C22518F1347D2
:10167000F7FF1377F70FF98DACA38C32B422F98DF5
:10168000758F8CB398A303D74180636D1701B8237E
:101690003368E800983323810701598D982388B374
:1016A000598E90A337340140130504C0EF10701811
:1016B000B70402408D452A8913858405EF10800206
:1016C000138584058545EF10A000130404C093041E
:1016D000300637050200EF10200101ED2285EF10E2
:1016E0005015330525419357F5413D8D1D8DE3D2AE
:1016F000A4FE37050240814513058505EF00507DA6
:101700004165EF00507F3745004093050004130505
:101710000580EF10805E6FE0DFE22390050079B571
:101720001347F7FF1346F6FF33776700337616014A
:1017300093C6F6FF98A390B3B3F60601D5BD05474F
:1017400018A1C5BDEFE2BFDD1145EF108030712358
:10175000EF404005716513050520EF400007EFF0ED
:10176000CFE7952DEF008079EF00A076EFF0AFBCCA
:10177000DD3BEFF00FE1EF10D0205D2C376500402E
:1017800013050540EFE07FE8EF10902DEF30400E9D
:1017900037D400001305841AEFA05014E5BF9967F1
:1017A0007390078001A0A54729C1A1C19DCE034820
:1017B00015018948B9471307F8FF1377F70F63E658
:1017C000E802EFE2DFD5AE848C2141112A84428504
:1017D00036C632C4EFF03FC5B2462246A685228502
:1017E000EF50600841016FE0DFD53E8582801DC16A
:1017F00025459DC195C28C213D4593978501E18783
:10180000635CF000EFE2BFD10945EFF00FC3014583
:101810006FE03FD32545828082800DC125458DC173
:1018200085C28C219D473D4563ECB700EFE23FCF79
:101830000545EFF08FC001456FE0BFD025458280A0
:101840008280A5474DC1C5C1D9CEEFE25FCD1C391D
:1018500085462E8413F7B7FF7D171377F70FAA84F9
:1018600063E2E6028C211307F0036376B700BD47FD
:101870003E856FE01FCD0947638DE704636DF70276
:101880006385D70494380546B9471387D6FF137785
:10189000F70FE36FE6FC0C2021479387F5FF93F7E2
:1018A000F70FE366F7FC9147638BF6022E85EFF0A6
:1018B0009FBA814775BF15476381E70219471545F0
:1018C000E392E7FCEFF06FB775BF2E85EFF0BFB680
:1018D00055BF2E85EFF01FBD75B71145E5B719450A
:1018E000EFF0AFB5F9B73E858280EFE25FC34111FB
:1018F000254929C1A1C19DCE1C3909473949138801
:10190000F7FF63690703AE848C212A843E8536C6BF
:1019100032C4EFF05FB02246B246A6852285EF4082
:10192000907490200C382A8937D500001305051EC5
:10193000EFA080694A8541016FE0BFC00DC1254518
:101940008DC185C28C2185473D4563ECB700EFE230
:101950001FBD0D45EFF06FAE01456FE09FBE254501
:1019600082808280A5472DC1A5C1B9CEEFE29FB983
:101970001C3909473689B2892E84AA846380E7041A
:101980006369F7000547638FE700BD473E856FE059
:10199000BFBA0D476387E7021147E398E7FE8C2142
:1019A0002D4519A08C212145EFF02FA9CA864E861E
:1019B000A2852685EF40306B8147C9BF8C21254524
:1019C000E5B78C212945CDB73E85828039C9EFE244
:1019D0007FB3AA8441112545B1C1A9C29C380547EE
:1019E000B68932892E84638DE70009473D456397A8
:1019F000E7029C2139455C879C31DC872C8739A024
:101A00009C2131455C879C31DC872C87EFF04FA40B
:101A1000CE864A86A2852685EF40F06441016FE0BC
:101A2000BFB125458280370500201305854082809F
:101A3000EFE2FFAEEF1040741841B707002023A279
:101A4000E74083A7C181DC439386C70FA5E2370730
:101A500000201307070523A8E7101387471125E384
:101A6000370700201307070323A4E71213878716FD
:101A700025E3370700201307070623A2E71613877D
:101A8000471425E3370700201307070923AAE712A5
:101A90001387871325E303A747109307C70035C3B0
:101AA00037070020232EF73E6FE0BFA9370700203D
:101AB0001307070423A2E7101387871049FB370792
:101AC00000201307070223AEE7101387071249FB14
:101AD000370700201307070723A8E7161387C71542
:101AE00049FB370700201307070123A6E7141387D4
:101AF000C71249FB370700201307070823A0E71484
:101B0000D9FA814771BFEFE21F9F3569B7090020FD
:101B1000370B0020B7040020B70B00201309091C65
:101B20004E8A0545EF30601113044B400840EF200A
:101B3000700E65D908407D5693850440EF20C0554E
:101B4000138C044083470C001D4713843B4063669D
:101B5000F7088A07CA979C43828785471CA083A7FA
:101B6000C18105478546C84313862940854513052D
:101B7000C50FEF40F06C83461C0093070008130765
:101B80002A40639FF6041C231420D58F1CA383A72F
:101B9000C18105478546C84313062A40854513057C
:101BA000C50FEF40306DB707002083A7C73FB5DBF7
:101BB0009823759B98A3B5B789474DB7914779BFCF
:101BC000A14769BFC14759BF9307000241BF9307AF
:101BD000000469B7930700F851B72300040041B728
:101BE0001C20142393C7F7FFF58F4DB7B71702409A
:101BF0009843B706FFF841111367170098C3D843FD
:101C000037060200758FD8C39843B706F7FEFD1656
:101C1000758F98C39843B706FCFFFD16758F98C360
:101C2000D843B70681FFFD16758FD8C337079F00CD
:101C300098C702C402C69843C166558F98C3B716A9
:101C4000024005679C42F18F3EC6A24785073EC40D
:101C5000B24781E7A247E397E7FEB71702409C43EC
:101C60001397E7006359070685473EC63247854705
:101C70006311F706B7170240D843B706C1FFFD1638
:101C800013670708D8C3D843D8C3D843136707409E
:101C9000D8C3D843758FD8C3D843B7063D00558FF6
:101CA000D8C39843B7060001558F98C3984393163D
:101CB0006700E3DD06FED843B7160240719BD8C328
:101CC000D84313672700D8C32147DC42B18BE39E7A
:101CD000E7FE4101828002C651BFB7160240DC42D6
:101CE0001146B18B138781806385C70021466388C5
:101CF000C702B7177A00938707201CC3B7170240A3
:101D0000DC43918393F6F700B70700209387070A17
:101D1000B69794231C43B3D7D7001CC38280DC4200
:101D2000D4424166C983BD8BF18E890745466393D2
:101D3000C700C94781EEB746024083A60680C18A24
:101D400089CEB7167A009386062021A8B7160240DE
:101D5000D4421396E600E35606FEB7163D0093867E
:101D60000690B387D70251BFEFE26FFBEFF06FC071
:101D7000370400200325C44085451304C440EF10F8
:101D8000903708407D57814601468545EF10701910
:101D900013054006EF20706AEF10804CDDB7B727BF
:101DA0000020938747171CC1B7270020938787D54A
:101DB0009CC1930700081CC28280B727002093872C
:101DC00007211CC1B7270020938787F59CC1930783
:101DD00000081CC28280EFE28FF4EFF0DFC42A8497
:101DE00037280020B7170020B7D50000372500009E
:101DF000130808A993870769294785461306001029
:101E00009385051F130565B0EF20301C08C0EF1047
:101E100000362A8437180020B7170020B7D50000F5
:101E2000373500001308C8639387C74315478546B5
:101E3000130600089385C51F1305A51DEF20F01894
:101E400008C0EFE0EFFB2A84B7D50000370500009B
:101E5000138841D293874192154785461306001097
:101E60009385C5201305657AEF20301608C0EFE092
:101E70008FF82A8437180020B7170020B7D5000044
:101E8000370500001308883E9387878F1D478546D6
:101E90001306C02B9385C52113054561EF20F01271
:101EA00008C037280020B7270020B7D50000372505
:101EB0000000130848CE938747AE0D4785461306AA
:101EC000000893850523130585D6EF2010106FE0D9
:101ED0004FE7EFE2CFE4EF10202AB72600203726A5
:101EE00000202A8401479386861C130686D38945E1
:101EF0004145EF10305308C06FE0AFE4EFE22FE24E
:101F00003725002013058515EF10A07AB7070020AC
:101F100023A6A7406FE0EFE2EFE26FE0B7070020F3
:101F200083A5C74037450000814605461305E59B5C
:101F3000EF30F0046FE0EFE001A001A001A001A0EC
:101F400001A001A001A001A001A001A001A001A089
:101F500001A001A001A001A001A001A001A001A079
:101F600001A001A001A001A001A001A001A001A069
:101F700001A001A001A001A001A001A001A001A059
:101F800001A001A001A001A001A001A001A001A049
:101F900001A001A001A001A001A001A001A001A039
:101FA00001A001A097F1FF1F9381C1BD173100204F
:101FB0001301410517C50000130585CC97E5FF1FE8
:101FC000938545041386018463FAC50083220500C6
:101FD00023A0550011059105E3EAC5FE17E5FF1F93
:101FE0001305453E971500209385C5D26377B5004C
:101FF000232005001105E36DB5FEFD42739002BC80
:10200000894273904280B72200009382028073A0BD
:10201000023097E2FFFF9382620293E232007390F4
:102020005230EFF0BFBC97F2FFFF9382E2717390E2
:102030001234730020301841AA87759B18C11841CB
:102040001367170018C14167D443858A99E27D1749
:1020500065FFD8430145058B49CF94450547639BF0
:10206000E608984313670708D44598C30547639764
:10207000E608984313670704944998C30547639398
:10208000E608984313670702D44998C30547639F3E
:10209000E606984313670701944D98C30547639A72
:1020A000E606984313678700D44D98C305476395A8
:1020B000E60698431367470098C3B821B4317A07FE
:1020C000E206558FD421C206558FD431D206558FE2
:1020D0009621FD16558FD8CF9843799B98C34167B9
:1020E000D443858A99C27D1765FFC8431345F5FF20
:1020F0000589828098431377F7F7BDB79843137724
:10210000F7FB9DBF98431377F7FDBDBF98433D9BF9
:1021100061B798435D9B49BF98436D9B71BF37671B
:10212000004013070740832607203C25054893E617
:1021300016002320D7208325C7213316F8009346A5
:10214000F6FFF58D232EB7204C25C5E58325C72046
:10215000035825008E07F58D2326B7206E21BA97E8
:102160005A21C205B3E5050123A0B7240E21420779
:102170004D8F23A2E724B7270240985BB707000FD3
:10218000F98F99EF3767004093070730130707402F
:102190008E239107C205C181239EB7EEE39AE7FE25
:1021A0003835B7670040938707402DEB03A74720DA
:1021B000758F23A2E7201A25B76700409387074051
:1021C00035E303A74721F98E23AAD720184985476D
:1021D0006319F700B767004003A7C761598E23AEA4
:1021E000C760B767004003A70760799B23A0E7603B
:1021F0008280E39205F98325C720035825008E07C6
:10220000D18D2326B7200E21BA975A21C205B3E5F6
:10221000050123A0B72442076E2199BF03A74720D9
:10222000518F41BF8546E313D7FA03A74721518F4A
:1022300023AAE72061BF1C4513975700634E070888
:102240001C4513974700634B07081C45914613979D
:10225000370063510708894693974600AA9703A75A
:102260000718058B23A0E7189025883535EA984193
:1022700003A607185607498F518F23A0E718B825E2
:102280003D8BB8A503A64718419A23A2C71803A6F9
:102290004718518F23A2E718D025B8352206598E4A
:1022A000D8354207598EF8256207518F23A4E718C5
:1022B0009029F8352206598E98394207598EB82947
:1022C0006207518F23A6E71803A7071813671700A3
:1022D00023A0E718368582808146BDBF8546ADBF05
:1022E000D84103A807180E07498F518F336707019C
:1022F00069B793974500AA9703A7071B118B18A6E8
:102300002DE703A7071B558318C203A7071B098BDB
:1023100018B603A7471B3D8B38A603A7471B21838D
:1023200038BA03A7871B38B603A7871B218358A693
:1023300003A7871B418358B603A7871B618378A631
:1023400003A7C71B78B603A7C71B218318AA03A737
:10235000C71B418318BA83A7C71BE1833CAA99E92D
:102360005C4593E707025CC5828003A7071B0D83CA
:1023700058C261BF1C4993E707021CC982808DE5E2
:102380001C418546F19B93E717001CC1C16758416A
:102390000D8B6304D700FD17FDFB5C418D8BFD1792
:1023A00093B717003E8582808547639EF5001C41E8
:1023B000F19B1CC1C16758410D8B19C3FD17E5FF87
:1023C0005C418D8BF1BF09478147E39DE5FC1C41D2
:1023D0008946F19B93E727001CC1C16758410D8BCB
:1023E0006304D700FD17FDFB5C418D8BF9174DBFD2
:1023F0005C4901C6DD8D4CC9828093C5F5FFFD8D1A
:10240000DDBFB707F000ED8F89CB104D3375B600F7
:10241000320531813335A00082809397750063D6F1
:102420000700544133F5B600E5B79397450063D5EF
:10243000070008456D8DE9BFB7061000939765004A
:10244000FD1663D7070058453375B700758DD9B7AA
:102450001C4933F5B700DDBFB707F0309387070796
:102460006395F500232C050082809397C500139790
:102470006500B183635407005CC5828013975500E3
:10248000635407001CC982801397450063540700FA
:102490001CC582805CC182805C49ED8F95C3930727
:1024A00000046383F50A63ECB70291476386F5087D
:1024B00063EAB70085476386F5068947638BF506AF
:1024C00001458280C147638DF50693070002638B47
:1024D000F506A147E396F5FE4845118185A093874F
:1024E0000580BDCF85679387078063E0B7029307B8
:1024F00000206381F506930700406380F50693078B
:102500000010E39FF5FA084D15A8C1676380F50434
:10251000B7070200638EF502A167E393F5FA48411D
:1025200035A80845C167938717107D8D3335A00006
:10253000828048450D89DDBF48450D81058982802F
:102540000849CDBF0849D5BF084941BF4841F5B743
:10255000484161B7084D0581D5B7084D0981F9BFDC
:10256000084D13750507D9B7930700106386F50664
:1025700063E7B702A1476388F50663E9B70005473B
:10258000638EE50411476381E5068280130700022C
:10259000638FE50493070004638AF50482809387C0
:1025A00005808DCB85679387078063EBB700930722
:1025B00000206383F50293070040638FF50082805B
:1025C000C1676388F502B70702006387F502A16758
:1025D0006393F502232C0500914729A8C1679387CF
:1025E00017101CC58280C1475CC58280C1471CC9C9
:1025F0008280A1475CC18280C147EDBF1C41416719
:102600007917F98F1CC123200500232205002324FC
:102610000500B707024023260500138787006316CD
:10262000E500D8431367F70001A81387C7016317B4
:10263000E500D8431367070FD8C3B1A81387070372
:102640006318E500D8438566938606F0558FEDB78D
:10265000138747046315E500D843BD66C5BF1387DC
:1026600087056316E500D843B7060F00C5B7138783
:10267000C7066316E500D843B706F000C1BF13874D
:1026800007086316E500D843B706000FC1B71387E4
:102690004709E308E5F882801C4161773D079451C2
:1026A0007D8F9C45D58F9449D58FD449D58F944D36
:1026B000D58FD44DD58FD451D58F9455D58FD98FF3
:1026C0001CC1DC455CC19C411CC5DC415CC58280F1
:1026D0001C4189C593E717001CC1828041677917A7
:1026E000F98FDDBF4CC18280B70702409C437D8DCE
:1026F0003335A0008280B7070240C8C38280B70785
:10270000674537270240938737125CC3B797EFCDF1
:102710009387B79A5CC38280372702401C4B93E7AC
:1027200007081CCB8280372702405C470545858B14
:1027300091E748474189133515000D058280EFD296
:102740001FDE2A848544C5376318950019E01545B6
:1027500029A0D13F7D14CDBF7DD86FD09FDEEFD2B1
:102760001FDCAA8437050B00D93F91476313F5029C
:10277000372402401C4837050B0093E727001CC88C
:1027800044C81C4893E707041CC8553F1C48F59BE8
:102790001CC86FD01FDBEFD2FFD641112A89156507
:1027A000AE8402C69149613F631B35033724024062
:1027B0001C48156593E717001CC893970401C18353
:1027C0002310F900AD3F6319350109094AC6B24724
:1027D000C180156586A3A5371C48F99B1CC841011B
:1027E0006FD09FD59C4513F7070113F8F70001C779
:1027F000D8413368E80037270240145B3707000FE1
:10280000758F5DEB3707002085462308D7403717C3
:1028100001406315E5009A2135839AA18E2113F7B3
:10282000F50F39C318418146854E3D4F930F800205
:1028300093028004214E3396DE00B3F8C500631185
:1028400016039398260033131F011343F3FF3377C6
:10285000E300B318180133E7E8006399F70750C99C
:102860008506E39AC6FD18C11307F00F6375B70418
:1028700054412146854E3D4F930F800293028004C0
:10288000414EB398CE0033F715016392E802131757
:10289000260001173313EF001343F3FFB376D30081
:1028A0003317E800D98E6397F703232A150105062D
:1028B000E319C6FD54C1828037170140E310E5F6E5
:1028C000370700200347074131DBB1B7E39A57F8D8
:1028D00010C979B7E39D57FC23281501C9BFB71765
:1028E00001406318F500B707002083C7074191C373
:1028F000B58108456D8D3335A0008280B717014042
:102900006318F500B707002083C7074191C3B5815D
:102910000CC98280B71701406318F500B707002083
:1029200083C7074191C3B5814CC98280B707014075
:10293000635A0504DC4F9356050113180501370748
:10294000300013F6F60013580801B376E500635E15
:1029500005066399E604930606010D46B316D600F4
:1029600093C6F6FFF58F99C9135755011377F73FB3
:1029700012073317E800D98F635505063707014062
:102980005CCF828037270240145BDC433707000F9F
:10299000758F55F313D71700F976CE07758FCD8352
:1029A000D98F51BF1317B500635607008D46B396F4
:1029B000C6007DB7135755011377F73F120733173A
:1029C000E8001347F7FFF98F79BF6390E6023706F7
:1029D00001405442370700F17D17F98F758F58C2B7
:1029E000C1F5370701405CC382801317B500635CF3
:1029F00007008D46B396C60093C6F6FFFD8EB70757
:102A0000000FD58FF1BF1357550112073317E80098
:102A10001347F7FF7D8FB707000FD98FD1B7B737AF
:102A2000004088C38280B7370040C8C38280B73770
:102A3000004088C78280AD67373700409387A7AAD8
:102A40001CC38280B567373700409387C7CC1CC34F
:102A50008280B707002023AAA7408280B707002002
:102A6000938747419443182181E63C21920721A88E
:102A700094430546639FC6023C21103192076314BC
:102A8000D60093E707F8B7E600E093F7F70FBA969A
:102A90002380F6408546935757003397E60054410C
:102AA000A5C2938707048A07B7E600E0B69798C3E4
:102AB00082808C4389466391D50214313C21636541
:102AC000D6008A06B6975DB79386E6038A06B69760
:102AD00093F7F70F920775B790438D46631CD600A6
:102AE00014313C216364D6008606E9BF9386C6078D
:102AF0008606F1BF94439147E39EF6F81C31BDB7BB
:102B0000938707064DB7371702405C439146B18B58
:102B10006385D700A1466382D706B7177A009387EB
:102B200007201CC1371602405C42370700201307FC
:102B3000070B9183BD8BBA9794231C41B3D7D70061
:102B40005CC15442A1829D8ABA969422B3D6D70022
:102B500014C55442AD829D8A36971823B3D7E70037
:102B60005CC558423983937637001387C180369706
:102B70001823B3D7E7021CC982805C435843C1665F
:102B8000C983BD8B758F8907C5466393D700C94735
:102B900001EF3747024003270780418B09CF3717E2
:102BA0007A001307072021A83717024058439316CD
:102BB000E700E3D606FE37173D0013070790B387FB
:102BC000E70285B799C5371702405C4B5D8D48CB4E
:102BD0008280B7170240D84B1345F5FF798DC8CBDB
:102BE000828099C5371702401C4F5D8D08CF8280C7
:102BF000B7170240984F1345F5FF798D88CF828033
:102C000099C5371702405C4F5D8D48CF8280B7175A
:102C10000240D84F1345F5FF798DC8CF828099C502
:102C2000371702405C475D8D48C78280B717024066
:102C3000D8471345F5FF798DC8C7828099C53717E6
:102C400002401C4B5D8D08CB8280B7170240984B29
:102C50001345F5FF798D88CB8280EFD25F8CB73733
:102C60000140631AF50085450565553F81450565B9
:102C70007D376FD01F8DB747004093870780E31AD9
:102C8000F5FE854511655D3F81451165453FD5B729
:102C90001A218D6793870704B6217D8F9E21D58FDA
:102CA000D621D58FF621D58F9625D58FB625D58FF0
:102CB000D625D58FF625D58FD98F1EA15A2DFD7714
:102CC0009387F77FF98F5EAD9E291EA982801E2112
:102CD00089C593E707041EA18280C207C18393F7C9
:102CE000F7FBC207C183C5BF5E2101C6DD8D4EA1C2
:102CF000828093C5F5FFFD8DDDBF93C5F5FFC2054D
:102D0000C1810EA58280EFD29F81B73701409387A2
:102D100007C0631DF5000564854513050480013770
:102D2000814513050480E53D6FD0BF81B7070040A2
:102D30006319F50085450545113781450545FD3D7C
:102D4000E5B7938707406318F50085450945FD35CC
:102D500081450945EDB7B717004013870780631811
:102D6000E50085451145D93D81451145C9BF93878A
:102D700007C0E31BF5FA85452145C9358145214545
:102D80007DBF1E2137370140130707C0C207C1832B
:102D90006304E502370700406300E50213070740BC
:102DA000630CE50037170040930607806306D500E3
:102DB000130707C06316E500BA2193F7F7F8D98F18
:102DC000FA2193F7F7CFC207C183D98F1EA1DE2165
:102DD0005EB59E211EB5B7370140938707C06314C7
:102DE000F5009C251EB985475EA982801E3192217F
:102DF00003D82500C207C183F99BC207C1831EB156
:102E00001E3156211A2DC207C18342074183137711
:102E1000C7F8518F9225F59BC20633660601D18F04
:102E200037360140130606C0C1826310C502B225C1
:102E3000DD9B03D8E500D18FD221ED9B93F6F6CF31
:102E4000D18FD22533660601D18E56A11AADFA2153
:102E50005AB91EB182801E3165771307F7CFC207BA
:102E6000C183BD9BC207C1831EB11E31562103D849
:102E70008500C20713960601162DC18393F7F7FD4F
:102E8000758F96214182A206558FB6214207418354
:102E9000B3E606019206D58FB7360140C207938686
:102EA00006C0C183631ED502B62593F7F7F703D892
:102EB000C5009206D58FD621C207C183920693F72B
:102EC000F7FBD58FFD769386F63FF18EF225C2078C
:102ED000C183336606010A06D18E1396060141822C
:102EE00052A11AADFA211ABD1EB182801E3103D83B
:102EF0008500C207C18393F7F7EFC207C1831EB1F4
:102F00001E3156215A2DC2071396060142079621FB
:102F100041831377C7F8558FB621C18393F7F7DF45
:102F2000B3E60601A206D58FB7360140C2079386E5
:102F300006C04182C183631FD502FD769386F67F6A
:102F4000F58FB62503D8C500A206D58FD621C207B6
:102F5000C183A20693F7F7BFD58FF576FD16F18EE4
:102F6000F225C207C183336606011206D18E13967D
:102F70000601418252A15AADFA215ABD1EB182808A
:102F8000FD575EA123100500231305002311050042
:102F90002304050082801E2189C593E717001EA126
:102FA0008280C207C183F99BC207C183CDBF83570B
:102FB000450491C52167D98F2312F5048280C60785
:102FC000C583DDBF5E2501C6DD8D4EA5828093C51C
:102FD000F5FFFD8DDDBF1E25C207C183E19BC20742
:102FE000C1831EA582801E2189C593E707081EA103
:102FF0008280C207C18393F7F7F7C207C183C5BFB9
:103000001E2DC207C183DD9BDD8D0EAD82801A2D82
:10301000FD779387F77FF98FA205CD8FC207C18314
:103020001EAD82805E2DC207C183DD9BDD8D4EAD5E
:1030300082804A3182801E294A25ED8F42054181D6
:1030400089C76D8D3335A00082800145828093C58C
:10305000F5FFC205C1810EA98280EFD24FCC16299F
:10306000F577FD17F58FF621DA257971D58F1EA931
:103070005625FD779387379FF58FD6212A842EC654
:10308000D58F9625D58FB625D58F5EA55E29C2072B
:10309000C18393F7F7CFD98F5EA96808EFF0BFA679
:1030A000B747014093870780B245631AF404A257DB
:1030B00056246547B387E702C206C186984163D2AA
:1030C0000604060752244206B3D7E7021307400658
:1030D0004186B3D6E702B3F7E702920663550602CC
:1030E0008E0793872703B3D7E70213F77700B367F9
:1030F000D700C207C1831EA445616FD08FC4925709
:1031000045BF0A07C1B7920793872703B3D7E702E2
:10311000BD8BD58FF9BF91C55E250967D98F5EA597
:1031200082805A25F977FD17F98FD5BF93F5F51FE2
:103130004EA182800A216D8D3335A0008280EFD2AE
:103140000FBEB727002083A7C72641114886CC862B
:10315000AA9723800700B707002003A5C7416C008A
:1031600081467D56EF00103E41016FD08FBD37057F
:103170000020130585418280370500201305C541D5
:103180008280EFD2CFB9B707002003A5C7418145A0
:10319000EF00101D6FD0EFBAEFD26FB85C49372443
:1031A000002013044426034905005CC81C4554450F
:1031B0001829AA844A863E8581451CC454C418A88F
:1031C00023002401EFD0AFB8D8404A86814558C0CB
:1031D000EFD0EFB701456FD0CFB6EFD2AFB2B72483
:1031E00000209384442605498949094ACA24014498
:1031F000EF10B0249C20E37BF4FEDC48228582970C
:1032000063102503DC40A297982319C72380070089
:10321000930500042285253705041374F40FD9BFE4
:10322000984422971C23850793F7F70F1CA3D840D7
:103230002297142389EA9428E3E0D7FE230027018C
:1032400093050008C1BFF03463E4C700638726011B
:10325000F024E3E3C7FCE39146FD23003701CDB73B
:10326000EFD2EFAB156513055555EFF04FFB114548
:10327000EFF06FFB05657D15EFF06FFBEFF0AFFB37
:10328000EFF04FFC6FD0EFABB70700209387874379
:103290009843636FA702D043B386C7006316D50077
:1032A00054413E85B296D4C35041B306C500631C59
:1032B000D700B706002083A606426306D700544312
:1032C0001843B29654C118C16303F50088C38280C5
:1032D000BA877DBFEFD20FA341112AC6EF1000635A
:1032E000B706002083A706423706002093860642D1
:1032F000130646423245B9EB372700209307C7270C
:1033000093F5F7001307C72781C51387F700419B83
:10331000B7050020938585439387077FC19B23A230
:10332000050098C123A2070023A00700B385E7404A
:103330009CC21CC3B707002023A6B742B7070020D2
:1033400023A4B742B70700804CC31CC2032A06005F
:10335000B377AA0085E39307F5FF3957636CF7004D
:103360009307050113F7F70041C313F707FF410760
:1033700063EBE706814489A022872E8461A058C1AF
:103380005CC019375840B70600209386C642904269
:10339000B307E94023A0F90063F3C7009CC2B70755
:1033A00000203367EA009387074358C09843C1045D
:1033B00023200400050798C3EF10A07193F7F400D1
:1033C000D1CB8967938707807390073037D6000089
:1033D00037D5000013068623930500111305052633
:1033E000EF80903E01A0BA8737070020032987426B
:1033F00093098742E360F9F83707002003248743E5
:103400001307874350406374F6000C40B5F59442AF
:10341000E38286F61440044314C33307F640930650
:103420000002E3F1E6F63305F4009376F500A1DA45
:103430008967938707807390073037D6000037D5A8
:103440000000130686239305F00C13050526EF8074
:10345000B03701A0268541016FD00F8E5DC1EFD23C
:103460000F8CB7070020032745FF83A747422A8414
:10347000B376F7009DE289679387078073900730E2
:1034800037D6000037D50000130686239305401277
:1034900013050526EF80503301A0832605FF9DC24A
:1034A0008967938707807390073037D6000037D538
:1034B0000000130686239305501213050526EF809E
:1034C000B03001A093C7F7FFF98F232AF5FEEF1064
:1034D000E043B7070020938787429443032744FFC4
:1034E000130504FF369798C3EFF01FDAB7070020E3
:1034F000938747439843050798C3EF10805D6FD0CB
:103500004F848280B7E700E041572387E740238656
:10351000E740B7F700E023A0070023A20700814699
:1035200094C70147D8C783A581801307803E814691
:1035300033D6E5023D4790CBD4CB98C38280EFC20F
:103540001FFE411102C6F32750303EC6B2470D4759
:103550008D8B6384E70289679387078073900730B8
:1035600037D6000037D50000130646289305600BB8
:1035700013050526EF80502501A0B757002093873B
:103580000700BD8B9DC389679387078073900730C1
:1035900037D6000037D50000130646289305B00B38
:1035A00013050526EF80502201A0A93FB7E700E0F0
:1035B000116723A0E710056723A0E71023A8018067
:1035C000EFC01FD4014541016FC0BFF7397106DE5E
:1035D00016DC1ADA1ED82AD62ED432D236D03ACEFB
:1035E0003ECC42CA46C872C676C47AC27EC0731147
:1035F000013489679387078073900730B7F700E03D
:1036000023A20700EF10203211C5B7E700E01167D1
:1036100023A0E72089679387878873900730731109
:103620000134F250E2525253C2533255A25512564F
:1036300082567247E2475248C248324EA24E124F5B
:10364000824F2161730020308967938707807390D0
:103650000730938701819843050798C382801387B9
:1036600001811C438DE7EFC29FEB89679387078039
:103670007390073037D6000037D500001306462870
:103680009305301013050526EF80101401A0FD17D7
:103690001CC391E78967938787887390073082807E
:1036A0000965130505807315053082807310053098
:1036B0008280EFC2DFE641111DE1896793870780B1
:1036C0007390073037D6000037D500001306C62A9E
:1036D0009305500613050526EF80100F01A0F14752
:1036E0003EC632476304F702896793870780739069
:1036F000073037D6000037D500001306C62A9305D9
:10370000D00613050526EF80300C01A02A84232063
:10371000050011055D2C85471CAC228541016FC059
:103720005FE2EFC23FDE1DE18967938707807390F8
:10373000073037D6000037D500001306C62A930598
:10374000A01413050526EF80300801A0B70900FF7B
:10375000B3F93501AE8463840902896793870780D2
:103760007390073037D6000037D500001306C62AFD
:103770009305B01413050526EF80100501A09DE107
:103780008967938707807390073037D6000037D555
:1037900000001306C62A9305C01413050526EF8002
:1037A000B00201A02A89B28A368B3A8AEF10901CA7
:1037B0000DE563040A0289679387078073900730D9
:1037C00037D6000037D500001306C62A9305F0143B
:1037D00013050526EF80407F01A0EF10201303247E
:1037E0000900B3F7840063170B029DE78149630C5E
:1037F0000A02B3355001E20563050B00B707000468
:10380000DD8D5286C58D13054900EF108057D28992
:10381000014411A8E39CF4FC63870A0093C7F4FFFA
:10382000E18F2320F900EF10C02A638C090211E513
:10383000B7E700E0116723A0E720EF10503B931794
:1038400065002A8463CD0700EFF01FE00324090020
:10385000B3F78400631A0B0091EBEFF05FE02204F2
:10386000218022856FC05FCDE399F4FEE3870AFED5
:1038700093C4F4FFE18C23209900C5B7EFC23FCA7F
:1038800041111DE18967938707807390073037D610
:10389000000037D500001306C62A9305101E130535
:1038A0000526EF80607201A0B70700FFED8F9DC372
:1038B0008967938707807390073037D6000037D524
:1038C00000001306C62A9305201E13050526EF8067
:1038D000A06F01A02A842EC6EFF01FD7B245084082
:1038E00093C5F5FFE98D0CC02AC6EFF05FD73245CE
:1038F00041016FC01FC5EFC2FFC041111DE18967C3
:10390000938707807390073037D6000037D50000C3
:103910001306C62A9305102213050526EF80C06AF8
:1039200001A0370700FF6D8F1DC38967938707804C
:103930007390073037D6000037D500001306C62A2B
:103940009305202213050526EF80006801A02A8434
:103950002EC69309C500EF00707B1C40B245084895
:1039600037090001CD8F1CC081447D19370A000240
:103970000C40639CA90093C4F4FFED8C04C0EF10CD
:103980004015084041016FC03FBB1841832A4500E4
:10399000B377270113165700B3F6B7006345060047
:1039A00089E65685F1B7E39ED7FE9316770063D379
:1039B0000600DD8CB3E54501EF10C05CDDB7EFC25A
:1039C0001FB6EFF0BFEB6FC0DFB7930785007D57E1
:1039D0005CC118C55CC51CC9232005008280232852
:1039E000050082809841FD5693078500631ED7002D
:1039F0001C49D843D8C10CC79CC5CCC31C4188C93D
:103A000085071CC18280B687D4439042E37DC7FE00
:103A1000CDB7544118451C4998C654C3D443639349
:103A2000A600D8C39843232805007D1798C3884370
:103A30008280EFC2DFAE41112AC6EFF0FFC03245EF
:103A4000005DEFF0DFC11335140041016FC07FAF9F
:103A5000EFC2FFAC32893041045D2A8409EE1C417B
:103A6000014591E70844EF10807D2324040085047C
:103A700004DC6FC01FAD631009024841EF80202BAA
:103A80005C4038400145BA9718445CC0E3E1E7FE6A
:103A90001C405CC0E9BF4845EF8060293C40584469
:103AA0001440B307F0403E9758C46375D7001844DC
:103AB000BA975CC489470145E31BF9FACDD8FD14D8
:103AC0007DB7304115C2EFC29FA558451445AA875E
:103AD000329758C56364D700184158C52E85CC4726
:103AE000EF80E0246FC0FFA58280EFC25FA32A842D
:103AF000EFF09FB58344540413094402E204E184C7
:103B000063489002FD57A302F404EFF05FB5EFF0B5
:103B1000BFB38344440413090401E204E184634510
:103B20009002FD572302F404EFF07FB36FC07FA132
:103B30005C50E9DB4A85EF10203619C1EF10206296
:103B4000FD14E204E1846DBF1C48E1DF4A85EF10FB
:103B5000A03419C1EF10A060FD14E204E184C1B7E4
:103B6000EFC2FF9B41111DE1896793870780739026
:103B7000073037D6000037D500001306862C930592
:103B8000001113050526EF80204401A05C5D2EC6C0
:103B90002A84BDC73841B3B7E702BDE3EFF0DFAA1F
:103BA0003040585C1440232C0402B307E602B245AF
:103BB00054C03387F600918FB6975CC4FD5723023B
:103BC000F40418C4A302F4049DE11C4899CB130526
:103BD0000401EF10602C11C5B7E700E0116723A0C6
:103BE000E720EFF0DFA7054541016FC09F95130562
:103BF0000401EFF09FDD13054402EFF01FDDD5B7A0
:103C00008967938707807390073037D6000037D5D0
:103C100000001306862C9305501413050526EF802B
:103C2000A03A01A0EFC2BF8F01119DE2896793877F
:103C300007807390073037D6000037D50000130691
:103C4000862C9305901513050526EF80E03701A01B
:103C500019C105C685E5896793870780739007308A
:103C600037D6000037D500001306862C93052018A0
:103C700013050526EF80403501A0F1FD9307800470
:103C80003ECE72476304F70289679387078073907B
:103C9000073037D6000037D500001306862C930571
:103CA000B01613050526EF80203201A0F2478547A4
:103CB0002383F60491E1368690C2C8DEACC2368515
:103CC000854536C6EFF0DFE9B246056136856FC03F
:103CD0005F87EFC2DF84411121C5B3B7A502AA8473
:103CE000A1E33305B502930770FB63EBA70213054D
:103CF00085042EC6EFF00FDE2A8419CDB2452303CA
:103D00000504AA8799C1930785042CC01CC044DC14
:103D100085452285EFF0DFE4228541016FC07F8277
:103D20008967938707807390073037D6000037D5AF
:103D300000001306862C9305601C13050526EF80F2
:103D4000A02801A0EFC22FFB011132C61DE1896737
:103D5000938707807390073037D6000037D500006F
:103D60001306862C9305E03213050526EF80C02547
:103D700001A02A842E89B6848DE53C419DC38967C4
:103D8000938707807390073037D6000037D500003F
:103D90001306862C9305F03213050526EF80C0220A
:103DA00001A089476398F402585C85476304F702D1
:103DB0008967938707807390073037D6000037D51F
:103DC00000001306862C9305003313050526EF80AB
:103DD000A01F01A0EF10003A15E5B247014C85C7BE
:103DE0008967938707807390073037D6000037D5EF
:103DF00000001306862C9305303313050526EF804B
:103E0000A01C01A0014C094BFD59930B040137EA9A
:103E100000E0916AA5A8B24789E7EFF05F84014509
:103E200055A063150C002808EF106025EFF03F83C4
:103E3000EF00D02DEFF05F8183474404E207E18774
:103E4000639437012302040483475404E207E187A3
:103E500063943701A3020404EFF07F806C0028080C
:103E6000EF10402335EDEFF02FFE185C5C5C631E15
:103E7000F704EFF0CFFEB2455E85EF00106C2285AF
:103E8000EFF0BFC6EF00F04429C9054CEFF0CFFBBF
:103E9000185C5C5C6364F700E39F64F72686CA8560
:103EA0002285EFF0FFBA5C5089C713054402EF008A
:103EB000B07E11C5B7E700E0116723A0E720EFF05F
:103EC0000FFA054505616FC08FE6EFF04FF92285C7
:103ED000EFF0BFC1EF00F03F4DBF23205A2175B76F
:103EE0002285EFF09FC0EF00D03E15BFEFC22FE359
:103EF0001DE18967938707807390073037D60000EC
:103F000037D500001306862C9305302813050526A7
:103F1000EF80800B01A0032985002A84EF10E024A4
:103F20008144631DA9005C448544FD175CC499E786
:103F30008146014681452285EFF0DFE026856FC08E
:103F40004FE0EFC2CFDD2A8681450545EFF07FD8EF
:103F50002A8401CD23240500232005002326050003
:103F6000814601468145EFF0FFDD22856FC06FDDA0
:103F7000EFC24FD941111DE1896793870780739084
:103F8000073037D6000037D500001306862C93057E
:103F9000204013050526EF80200301A02A84B28962
:103FA0008DE53C419DC389679387078073900730F7
:103FB00037D6000037D500001306862C9305304015
:103FC00013050526EF80400001A089476398F6029B
:103FD000585C85476304F70289679387078073906D
:103FE000073037D6000037D500001306862C93051E
:103FF000404013050526EF70307D01A036C62EC463
:10400000EFF00FEA185C5C5C2A8AA245B246636650
:10401000F700894781446393F602834454041C5C8F
:104020003686228513998401EFF09FA213598941A6
:10403000FD576317F9025C5089EB85445285EFF018
:10404000EFE6268541016FC02FCF13054402EF0034
:10405000B06465D5E38309FE854723A0F900F1BF6D
:104060009307F0076314F9028967938707807390B9
:10407000073037D6000037D500001306862C93058D
:10408000D04813050526EF70307401A08504E204C2
:10409000E184A302940455B7EFC2EFC5011132C603
:1040A0001DE18967938707807390073037D600003A
:1040B00037D500001306862C9305105513050526E9
:1040C000EF70907001A02A84AE898DE53C419DC3BC
:1040D0008967938707807390073037D6000037D5FC
:1040E00000001306862C9305505513050526EF7026
:1040F000B06D01A0EF10000815E5B247014985C772
:104100008967938707807390073037D6000037D5CB
:1041100000001306862C9305A05513050526EF70A5
:10412000B06A01A001497D5A930A440237EB00E0CE
:10413000916B95A8B24789E7EFF06FD2014569A866
:10414000631509002808EF009073EFF04FD1EF00DE
:10415000E07BEFF06FCF83474404E207E18763948D
:1041600047012302040483475404E207E187639470
:104170004701A3020404EFF08FCE6C002808EF0083
:10418000707125E52285EFF0DF8A31C9B245568589
:10419000EF00B03A2285EFF05F95EF00901319E140
:1041A00023207B210549EFF02FCA045CC1D4CE85C2
:1041B0002285FD14EFF0FF9004DC1C4899CB130519
:1041C0000401EF00704D11C5B7E700E0116723A0AF
:1041D000E720EFF0CFC8054505616FC04FB52285D8
:1041E000EFF0BF90EF00F00E75BF2285EFF0FF8F6C
:1041F000EF00300E2285EFF0DF834DD581B7EFC29F
:104200006FB001112EC61DE18967938707807390F7
:10421000073037D6000037D500001306862C9305EB
:10422000305E13050526EF70305A01A03C412A8408
:104230009DC38967938707807390073037D6000046
:1042400037D500001306862C9305705E13050526EE
:10425000EF70905701A0EF00F0710DE5B2479DC3DC
:104260008967938707807390073037D6000037D56A
:1042700000001306862C9305C05E13050526EF701B
:10428000B05401A081440149FD59130A4402B7EA20
:1042900000E0116B6DA0B2479DE79DC089679387D1
:1042A00007807390073037D6000037D5000013061B
:1042B000862C9305206313050526EF70F05001A0AE
:1042C000EFF0EFB97DA0631509002808EF00305B1F
:1042D000EFF0EFB8252DEFF02FB783474404E20746
:1042E000E187639437012302040483475404E207FF
:1042F000E18763943701A3020404EFF04FB66C002A
:104300002808EF00305941E12285EFF08FF235C5E2
:104310001C4089EBEFF04FB30844EF007067AA84AC
:10432000EFF0EFB3B2455285EF0030212285EFF078
:10433000CFFBEF00007A19E123A06A210549EFF0D5
:10434000AFB01C5CA9DBFD171CDC1C4081E7EF1043
:10435000A00B08C41C4899CB13050401EF00D0330F
:1043600011C5B7E700E0116723A0E720EFF02FAFFA
:104370008544268505616FC02F9C2285EFF0EFF6FE
:10438000EF00207565BF2285EFF02FF6EF00607417
:104390002285EFF00FEA5DD1E9DCEFF0EFAA5C5087
:1043A000814589C71C58BD459C439D8D0844814467
:1043B000EF009075EFF0AFAA6DBFEFC24F964111BD
:1043C0001DE18967938707807390073037D6000017
:1043D00037D500001306862C9305B02B1305052650
:1043E000EF70903E01A004452EC62A84EF00F057DE
:1043F000B2456399A4005C44054585075CC441014E
:104400006FC02F942285EFF09FDF75D95C4485073C
:104410005CC4F5B7EFC2AF9041111DE18967938786
:1044200007807390073037D6000037D50000130699
:10443000862C9305307E13050526EF70F03801A019
:104440002AC6EFF06FA03245085D2AC6EFF02FA113
:10445000324541016FC0EF8E15E5EFC24F8C896781
:10446000938707807390073037D60000856537D56E
:1044700000001306862C938585AC13050526EF7086
:10448000B03401A09DCD373600209306C6A78147E2
:1044900001471306C6A7214883A846006398A800D1
:1044A00093173700B2978CC3C8C321A891E783A89C
:1044B000060063930800B6870507A106E31E07FD03
:1044C000FDF38280EFC2AF8541112A842EC632C42B
:1044D000EFF08F97834744047D572246E207E18738
:1044E000B2456394E70023020404834754047D57D4
:1044F000E207E1876394E700A302040432C62EC4F6
:10450000EFF0EF951C5CA245324689E713054402A3
:10451000EF0030112285EFF04FDD41016FC06F8257
:1045200001A0EFB23FFE2A84EFF00F92B707002000
:104530009387C7449843B7040020B7390020050784
:1045400098C3138704441843938404441389C9AB64
:1045500061EB80C0984385476310F7069389C9AB28
:10456000130AC9124E85D109EFF02FC6E31C3AFF9A
:1045700037350020130A85BE130585BEEFF0EFC462
:10458000373500209309C5BF1305C5BFEFF0EFC352
:1045900037350020130505C1EFF02FC33735002054
:1045A000130545C2EFF06FC2B707002023A24745AD
:1045B000B707002023A43745B70700209387474556
:1045C0009843050798C337070020130787455C54B5
:1045D000144363F3F6001CC35147B387E702CA973D
:1045E000D843144718C454C410479306440054C217
:1045F00014C798435CC8050798C3EFF04F86B70708
:10460000002083A7874699CB9C40D8575C5463779A
:10461000F700B7E700E0116723A0E7206FB0DFF1F4
:10462000B707002083A78746C1FB9C40D8575C543E
:10463000E3E4E7F880C049B7370700201307474491
:104640001C439443B70700209387C74581E67D57F5
:1046500098C38280184358471843DDBFEFB29FEAE2
:104660004111AA89B284428403290803B1C50148D3
:1046700041463385050103050500B3080401238A7B
:10468000A80201C50508E316C8FEA30104043946C3
:104690006377E6028967938707807390073037D680
:1046A000000037D500001306C62D93057039130599
:1046B0000526EF70701101A0230A0802C9BF58D463
:1046C00078C013054400232404043EC636C43AC20D
:1046D000EFF0EFB013058401EFF06FB01247A24680
:1046E00013952400BD4571153387E5404A9500C8F0
:1046F00018CC40D023060404A306040423070404B2
:10470000A307040423080404230904043686CE8581
:104710004199EFB0FFCEB24708C091C380C34101B9
:104720006FB09FE1EFB21FDE37090020B70700200E
:104730009304094483A9C7462A849C4088404111B8
:104740002389070411052EC6EFF0AFAC7D57930700
:104750000944B245631CE40295C9B737002093872A
:1047600047C29440D84398C610479440D0C694405E
:104770001047910654C29440910614C798405CCBF0
:104780009843050798C341016FB01FDB98434E94CF
:1047900040C3637B340137070020032587448C43E3
:1047A0009105EFF02FA4C5B7370700200325474434
:1047B0008C439105EFF00FA3B70700209387C745FF
:1047C0009843E372E4FC80C37DBFEFB25FD5411133
:1047D0009DE38967938707807390073037D6000081
:1047E00037D500001306C62D9305A0241305052612
:1047F000EF70807D01A0428463140802896793876B
:1048000007807390073037D6000037D500001306B5
:10481000C62D9305B02413050526EF70E07A01A09C
:104820009308400546C632436304130389679387A0
:1048300007807390073037D6000037D50000130685
:10484000C62D9305302513050526EF70E07701A0EE
:10485000B2482328F8028947A308F8043C00EFF087
:10486000FFDF2285EFF0FFCB224541016FB07FCD06
:10487000EFB2FFCA411170002C00480002C202C40E
:10488000EFD0EFD11248A2473246B7D500003745E6
:104890000000014781469385052F13050552EFF06F
:1048A000DFF215C9EF00D0668547631BF502896703
:1048B0009387078073900730B70700207D5723AE9A
:1048C000E744B707002023A4A746B707002023A684
:1048D0000746EFE0DFC683A7418141016FB07FC685
:1048E000FD57E31AF5FE89679387078073900730B9
:1048F00037D60000856537D500001306C62D938591
:10490000058413050526EF70206C01A0B707002071
:10491000938707459843050798C38280B70700200F
:1049200003A5C7468280B707002083A70745639980
:104930000718EFB2DFBEB70700209387C746804352
:10494000050480C321ECB7070020938747449843B0
:10495000184305C78967938707807390073037D658
:104960000000856537D500001306C62D938575AC0C
:1049700013050526EF70406501A0370700201307D7
:1049800087449443104390C3B707002014C3938710
:1049900007469843050798C3EFF01FCA3706002063
:1049A0009307C6459C4337370020B7050020130600
:1049B000C6451307C7AB9385054401456375F402EB
:1049C0009C41D146DC57B387D7023E9718438547B1
:1049D00063F3E7000545B707002083A7074791C3A6
:1049E00005456FB01FB6370E0020B70E0020514F9F
:1049F00093074E449443944281E6FD571CC2C9B7C5
:104A00009C43DC47DC47D4436374D40014C24DBFDD
:104A100083A8870003A8C700D44B1383470023A4AF
:104A200008012322180183A846006394680023A28A
:104A3000060103A8060023AA07007D1823A006018B
:104A4000945795CA03A8C70183A8070283AF4600FD
:104A50002324180183A8070223A2080113888701D1
:104A600063940F0123A2160103A8060023A40702E2
:104A70007D1823A0060193868E4503A8C70283A84C
:104A8000060063F4080123A00601B306E803BA9602
:104A900083A8460083AF880023A4170123A6F7014B
:104AA00083AF880023A26F0023A46800D4CB9C426C
:104AB00085079CC29C41DC57E36CF8F205450DBFAD
:104AC000B70700209387474698430145050798C3D9
:104AD0008280EFB23FA337040020130404451C403A
:104AE000411185E78967938707807390073037D630
:104AF0000000856537D500001306C62D9385358BDC
:104B000013050526EF70404C01A0EFE0FFB31C40F9
:104B1000FD171CC01C4089CB01452AC6EFE03FB4FD
:104B2000324541016FB05FA1B707002083A7C7449A
:104B3000E5D7B7360020373500208147938606C178
:104B4000370F00201305C5ABD14837030020370EBF
:104B50000020854E59A8DC46DC47CC4F905398572F
:104B600090C503A807022322B800032847009385B5
:104B700087016313B80050C3104323A407027D16B6
:104B800010C38C47D047D84B1388470090C54CC200
:104B90004C436393050150C3104323AA07007D16BD
:104BA00010C313078F45D0570C4363F3C50010C3E0
:104BB000330716032A974C4383AF85008CC723A67F
:104BC000F70183AF850023A20F0123A405010C4345
:104BD000D8CB85050CC313070344184358576366A5
:104BE000E60013070E472320D70198422DF799C3FB
:104BF000EFF09FA4B70700201387474604431384B0
:104C0000474699CC370900208549EFF0DFD109C527
:104C10009307094723A03701FD14E5F8232004007A
:104C2000B707002083A70747E38807EEB7E700E050
:104C3000116723A0E7200545CDB519E5B7E700E0EA
:104C4000116723A0E7208280EFB27F8DB707002095
:104C500083A7074541119DC3896793870780739098
:104C6000073037D6000037D500001306C62D930550
:104C7000905413050526EF70203501A02AC6EFF0E9
:104C8000FFC832458145EFF0FFA9EFF09FE411E541
:104C9000B7E700E0116723A0E72041016FB07F8AEA
:104CA000B707002003A70745B707002093870747EA
:104CB00001C7054798C3828023A00700B7070020DB
:104CC00013878745184313868745B7370020938796
:104CD000C7AB5148B3060703B385D700884115C554
:104CE000C841A106BE964841C8C16314D5005441CD
:104CF000D4C1D146B306D702B697DC43D447B70731
:104D0000002023A0D74418C2828015E7EFB23F816C
:104D10008967938707807390073037D600008565D1
:104D200037D500001306C62D938525C0130505262B
:104D3000EF70802901A07D1771BFEFB24FFE05E52E
:104D40008967938707807390073037D600008565A1
:104D500037D500001306C62D9385C5C1130505265A
:104D6000EF70802601A0B70700202E8483A507449A
:104D7000E105EFE03FC785452285EFF0BF9A6FB0B0
:104D80004FFCEFB2CFF905E58967938707807390F1
:104D9000073037D60000856537D500001306C62DCD
:104DA000938565C313050526EF70002201A0B707A0
:104DB000002083A7074585E789679387078073905D
:104DC000073037D60000856537D500001306C62D9D
:104DD0009385A5C313050526EF70001F01A0B70733
:104DE00000209387074494432A8737050080C98DA4
:104DF0008CCE54438C438846D4CD8C4388D18C438D
:104E00008846E1054CC18C439C433285E1058CC644
:104E100098D71C43854585071CC3EFF0BF906FB042
:104E20004FF2EFB2CFEF2A8705E5896793870780B6
:104E30007390073037D60000856537D5000013061C
:104E4000C62D938525C513050526EF70E01701A033
:104E5000B70700209387074454432E858C4303A84B
:104E60008600D4CD8C4323A0050303A807008C46FD
:104E7000610823A2050103A807009C43610823A43D
:104E8000060198D71C4385071CC311C27D55B28506
:104E9000EFF05F896FB0EFEA5C45DC4795E7EFB272
:104EA0000FE88967938707807390073037D6000033
:104EB000856537D500001306C62D938525C81305D3
:104EC0000526EF70601001A0D04F9453985793853A
:104ED000870114C6D0C250436313B60054C31443B1
:104EE00023A40702FD1614C3370700200327074534
:104EF000D45725EF8C47D047D84B90C5D04748436F
:104F00004CC2938547006313B50050C3104323AAD6
:104F100007007D1610C3370700201307874510438D
:104F20006373D60014C351473386E6023737002037
:104F30001307C7AB32975043084690C7C8C7084607
:104F40004CC10CC6D8CB1C43014585071CC3B70711
:104F5000002083A70744DC5763F8D700B707002079
:104F6000054723A8E7460545828037370020130709
:104F700007C150430846D0CF88D308464CC10CC661
:104F800098D7D1B7EFB2AFD9B707002083A70745AD
:104F900085E78967938707807390073037D60000CD
:104FA000856537D500001306C62D9385A5CB13055F
:104FB0000526EF70600101A0B7070080DD8D5C451C
:104FC0000CC185E78967938707807390073037D6D0
:104FD0000000856537D500001306C62D938525CCC6
:104FE00013050526EF60507E01A050411445184975
:104FF00014C61445D0C250436313A60054C31443CF
:10500000232805009047FD1614C3D447D84B938539
:10501000470014C6D447D0C250436313B60054C3EC
:10502000144323AA0700FD1614C3370700201307F3
:105030008745D45710436373D60014C35147338652
:10504000E602373700201307C7AB329750430846B4
:1050500090C7C8C708464CC10CC6D8CB1C438507AF
:105060001CC3B707002083A70744DC5763F7D700AA
:10507000B7070020054723A8E7466FB08FCCB707D6
:10508000002083A707461CC1B707002083A7C74697
:105090005CC18280EFB2AFC8411105E58967938793
:1050A00007807390073037D60000856537D500003C
:1050B0001306C62D9385D5CF13050526EF60D07056
:1050C00001A085E58967938707807390073037D6FD
:1050D0000000856537D500001306C62D9385E5CF02
:1050E00013050526EF60506E01A02EC62AC4EFE01E
:1050F000AFD537070020B70700201307074483A662
:10510000C7461C432245B24583C7270599CB1C439C
:10511000238907040544EFE08FD4228541016FB055
:105120004FC29C417D570144E387E7FE37060020CC
:10513000032606460328050058416307C80063E5B7
:10514000E60023A00500F9B73386E640E37BF6FED0
:10515000958FBA979CC1EFF09FF201446DBFB707DE
:105160000020054723A8E7468280B707002003A553
:1051700007448280B707002083A78746054581CB77
:10518000B707002003A507451335150006058280E3
:105190004DC5EFB22FB73709002093070944944358
:1051A000585513090944D4566373D7081C4D63C876
:1051B000070083270900D457BD47958F1CCD514662
:1051C0003307C702B73700209386C7AB9384C7ABBA
:1051D000369754496398E604930945002A844E851E
:1051E000EFE03F8383270900370700201307874537
:1051F000DC5714435CD463F3F6001CC35147B387F8
:10520000E702A697D843144718C454C4144723A2EE
:1052100036012324370198435CC8050798C3054528
:105220006FB08FB183270900DC575CD5CDBF9C439D
:105230006841DC573335F500E5B70145828011E55B
:105240000145828001456FB0CFAFEFB24FADB707D8
:10525000002083A707442A846385A7028967938770
:1052600007807390073037D60000856537D500007A
:105270001306C62D9385F50413050526EF60D0545B
:1052800001A0BC4785E78967938707807390073043
:1052900037D60000856537D500001306C62D9385E7
:1052A000050513050526EF60305201A054557841DD
:1052B000FD173CC5E388E6F8D1F793044500268541
:1052C000EFE02FF57C403D471D8F18CC37070020BD
:1052D0001307874514435CD463F3F6001CC351479E
:1052E0003387E702B73700209387C7AB0545BA97E6
:1052F000D843144718C454C41447C4C204C79843BD
:105300005CC8050798C381B775C1EFB24FA134459A
:105310002A8485E68967938707807390073037D69C
:105320000000856537D500001306C62D9385F50965
:1053300013050526EF60504901A07C4163F3B700D7
:10534000AE8758546302F70A0546639FC608B7063E
:10535000002083A6064463958602896793870780A9
:105360007390073037D60000856537D500001306E7
:10537000C62D9385A50B13050526EF60F04401A00B
:10538000144C5CD463C60600BD46B387F6401CCC03
:1053900051463307C702B73700209386C7AB9384C3
:1053A000C7AB369754486391E604130944004A8515
:1053B000EFE02FE637070020130787455C541443BE
:1053C00063F3F6001CC35147B387E702A697D8439F
:1053D000144718C454C4144723A2260123242701C8
:1053E00098435CC8050798C36FB0AF958280B70734
:1053F00000209387074498439443084FD45698431A
:10540000BD47958F1CCF8280B707002013870744C4
:1054100018439387074409C79443B8460507B8C69D
:1054200088438280EFB2AF8FEFE00FA21384019028
:105430001C40B1EF37350020130985C7130585C718
:10544000EFE0AFD8373500209304C5C81305C5C8B1
:10545000EFE0AFD7B7070020B7360020373600207F
:1054600023AA27470147B7070020938606CA1306D9
:1054700086C3C145114523AC9746EFE0AFFA08C09B
:1054800019C5B7D500009385C531EFE0FFFCEFE00B
:105490000F9D6FB00F8BEFB28F884CC108C9AA87E0
:1054A0006362B602184D158E0545637BE600938551
:1054B0004700B707002003A58747EFE0AFD20145BB
:1054C0006FB02F886375D6000545E3FBD5FE938545
:1054D0004700B707002003A54747C5B7EFB22F84A1
:1054E0002A84AE8432890C4CA6864A86A6952285EB
:1054F000EFF07FFA19E16FB0CF841C4C2285BE9487
:105500001C508297CDB7EFB28F81B707002083A7D9
:1055100047474111AA84DC472EC6C0471305440003
:10552000EFE02FCF83474402324613F7470019CBF1
:10553000A6852285EFF09FFA1C50228582974101B3
:105540006FB02F80F99B2302F402FDB7EFA23FFD5D
:10555000370400209306444798421C4391EBB70759
:10556000002093878747904398C390C26FA07FFD28
:105570005C47FD558843EFF01FF9E9BFEFA2BFF785
:1055800035694111B70A0020B7090020B70B002088
:105590001309892F83A74A47984329CBDC47814CBD
:1055A00003AC0700EFF08FB6EFF04FB783A7C94702
:1055B0002A849384C947138A0190636CF50288C0DA
:1055C00063800C0483A78B47904313361600032592
:1055D0000A00B3058C40EFE0FFEEEFF08FCF19ED3E
:1055E000B7E700E0116723A0E72009A8854C014C2C
:1055F00055BFEFF0BFF580C0EFF0AFCD214C0DA04F
:105600000146E36685FDEFF0CFCCA2856285EFF021
:105610009FEFEDB79247B2458297824763DD07005F
:1056200003250A0001468A85EFE01FA725D582479A
:105630002245E3C107FE22445C489DE3EFF00FAE34
:105640009C40AA8C6374F500EFF05FF0824723A0C2
:105650009401FD17E366FCFC8A07CA979C43828786
:1056600013054400EFE0EFBAD1BF834744020C4C6E
:10567000924693E717002302F4026686B6952285C8
:10568000EFF07FE151DD8347440213F7470001CF7C
:105690001C4C924566862285BE95EFF03FE41C5077
:1056A00022858297B5BFF99B2302F402CDBF8347C1
:1056B0004402F99B2302F402A5B7834744029245B2
:1056C00093E717002302F4020CCC9DE189679387CE
:1056D00007807390073037D6000037D500001306D7
:1056E00046329305903513050526EF60F00D01A0B5
:1056F000E6866686E6952285EFF0FFD915B78347E3
:10570000440213F7270055F72285EFD03FD509BF94
:10571000EFA2FFE04111EFF0FFD083A7019095CBFE
:1057200070002C00480002C202C4EFC00FE9A2477B
:1057300012483246B7D50000375500003947814638
:105740009385C5331305C557EFF02F8823A2A19089
:105750001DE18967938707807390073037D6000073
:1057600037D5000013064632930590111305052620
:10577000EF60900501A0054541016FA09FDCEFA2FD
:105780001FDA4111B68732C63E862AC203A50190B0
:1057900079572EC481468A853AC0EFE06FFD4101FA
:1057A0006FA03FDA83A7818037177A00130707209D
:1057B000B3D7E70293F7F70F2385F1901307803EE5
:1057C000B387E7022394F1908280EFA25FD50111A5
:1057D0002A84854537050200EFD08FC285451145E3
:1057E000EFD02FC091477C82371501408D473EC4D2
:1057F0004C00E147130505803EC6EFC0BFFE22C83E
:1058000037440040B70708000C08130504403ECC9D
:1058100002CA231E0100EFD05F84854513050440B2
:10582000EFD07F8F05616FA0DFD1EFA2BFCDB7446E
:105830000040AE89328901449384044063452401C9
:105840004A856FA07FCF930500042685EFD09F8EF9
:105850007DD9B38789008385070026850504C205A5
:10586000C181EFD0BF8CD9BF138781811C43B7366C
:105870000020938606D13E95636BD500B756002075
:105880009386068063E5A60008C33E858280FD57A7
:10589000EDBF7325103482807325203482807325F8
:1058A00030348280EFA2BFC75021B7350020138764
:1058B00085CE30A71C4193D6E700898A93F7F77FFE
:1058C0001CC314B78147050763CFC7003765004085
:1058D000938585CE13050540EFC0FF9571153335CF
:1058E000A0006FA01FC6B306F500D432850734A709
:1058F000D9BFEFA2DFC21145EFE0AFE423ACA19026
:105900000D4681450545EFE0CFBC23A8A1900D468B
:1059100081450545EFE0EFBB23AAA19005456FA0A7
:105920005FC2EFA2DFBF03A58191FD55EFE0FFA8A5
:105930007D15133515006FA0DFC0EFA25FBE03A574
:105940008191EFE0AFDA7D15133515006FA07FBFB1
:1059500001C9EFA2DFBC8145EFC07FA26FA07FBE6F
:1059600082801C4191CFEFA29FBB2A8485453E8552
:10597000EFC0FFA085476313F50048C86FA07FBC48
:105980008280EFA2DFB95D712A842E89B2848145BD
:1059900013060002081836C63AC43EC242C0EFA041
:1059A0001FBB7D556304041A6382041A2247630FE8
:1059B0000718B246232A040023A6819013B61602C4
:1059C00010CC9247232E04000546024810D0232015
:1059D000240144C016A458C41EA82319040023128D
:1059E000040223240402268681456396D504814659
:1059F000E145139606014182636BF6048D47A309C6
:105A0000F1029307B040231AF10285473EDEBEC281
:105A1000930740066303F81463E20705D147630365
:105A2000F81493072003630CF812A9476315F812C2
:105A30009307802599A08505C205231006002AA298
:105A40002322060023240600C181310679BF338654
:105A5000B60285063A962328060061BF9307401FC9
:105A60006309F80E9307803E6308F8009307A00FC0
:105A70006313F80EA14711A08947376400400C1842
:105A8000130504402318F102EFC0EFDA8547A303A2
:105A9000F10223040102EFB0AFAA8D6716055D8DF8
:105AA000E887EFB0EFA9916716055D8DE886EFB046
:105AB0002FA9996716055D8D2311A102EFB04FA89C
:105AC000E17716055D8D2310A10285446808231235
:105AD00001022303010226D6EFC06FE4EFB04FA608
:105AE000E97716055D8DE887EFB08FA5F17716058C
:105AF0005D8DE886854768082303F10202D02312F2
:105B00009102EFC0CFE19305004013050440EFC0C0
:105B1000BFA5854513050440EFC01FA589451305A2
:105B20000440EFC07FA4C14513050440EFC0DFA3CC
:105B300005469305304113050440EFC07F8B37D5F0
:105B4000000013054534EF606059014561616FA0A5
:105B50005F9F91471DB7C1470DB7D14739BF930725
:105B6000800721BF9307C01209BF11C9084101C9AD
:105B7000EFA2FF9A8145EFC09F806FA09F9C82801B
:105B8000AA887D5563860804A1C76303080403D36C
:105B9000880063FF650231453385A50283A548006F
